{
	"ItemManager.sol": {
		"ItemManager": {
			"abi": [
				{
					"anonymous": false,
					"inputs": [
						{
							"indexed": false,
							"internalType": "uint256",
							"name": "_itemIndex",
							"type": "uint256"
						},
						{
							"indexed": false,
							"internalType": "uint256",
							"name": "_step",
							"type": "uint256"
						},
						{
							"indexed": false,
							"internalType": "address",
							"name": "_itemAddress",
							"type": "address"
						},
						{
							"indexed": false,
							"internalType": "string",
							"name": "_otherInfos",
							"type": "string"
						}
					],
					"name": "SupplyChainStep",
					"type": "event"
				},
				{
					"anonymous": false,
					"inputs": [
						{
							"indexed": false,
							"internalType": "uint256",
							"name": "_itemIndex",
							"type": "uint256"
						},
						{
							"indexed": false,
							"internalType": "address",
							"name": "_itemAddress",
							"type": "address"
						},
						{
							"indexed": false,
							"internalType": "string",
							"name": "_otherInfos",
							"type": "string"
						}
					],
					"name": "UpdatedItemInfo",
					"type": "event"
				},
				{
					"inputs": [
						{
							"internalType": "address payable",
							"name": "owner",
							"type": "address"
						},
						{
							"internalType": "string",
							"name": "identifier",
							"type": "string"
						},
						{
							"internalType": "uint256",
							"name": "itemPrice",
							"type": "uint256"
						},
						{
							"internalType": "uint256",
							"name": "itemTokenPrice",
							"type": "uint256"
						},
						{
							"internalType": "string",
							"name": "otherInfos",
							"type": "string"
						}
					],
					"name": "createItem",
					"outputs": [],
					"stateMutability": "nonpayable",
					"type": "function"
				},
				{
					"inputs": [
						{
							"internalType": "uint256",
							"name": "_itemIndex",
							"type": "uint256"
						}
					],
					"name": "getItemInfor",
					"outputs": [
						{
							"components": [
								{
									"internalType": "address payable",
									"name": "_owner",
									"type": "address"
								},
								{
									"internalType": "contract Item",
									"name": "_item",
									"type": "address"
								},
								{
									"internalType": "string",
									"name": "_identifier",
									"type": "string"
								},
								{
									"internalType": "uint256",
									"name": "_itemPrice",
									"type": "uint256"
								},
								{
									"internalType": "uint256",
									"name": "_itemTokenPrice",
									"type": "uint256"
								},
								{
									"internalType": "enum ItemManager.SupplyChainState",
									"name": "_state",
									"type": "uint8"
								},
								{
									"internalType": "string",
									"name": "_otherInfos",
									"type": "string"
								}
							],
							"internalType": "struct ItemManager.S_Item",
							"name": "",
							"type": "tuple"
						}
					],
					"stateMutability": "view",
					"type": "function"
				},
				{
					"inputs": [],
					"name": "isOwner",
					"outputs": [
						{
							"internalType": "bool",
							"name": "",
							"type": "bool"
						}
					],
					"stateMutability": "view",
					"type": "function"
				},
				{
					"inputs": [
						{
							"internalType": "uint256",
							"name": "",
							"type": "uint256"
						}
					],
					"name": "items",
					"outputs": [
						{
							"internalType": "address payable",
							"name": "_owner",
							"type": "address"
						},
						{
							"internalType": "contract Item",
							"name": "_item",
							"type": "address"
						},
						{
							"internalType": "string",
							"name": "_identifier",
							"type": "string"
						},
						{
							"internalType": "uint256",
							"name": "_itemPrice",
							"type": "uint256"
						},
						{
							"internalType": "uint256",
							"name": "_itemTokenPrice",
							"type": "uint256"
						},
						{
							"internalType": "enum ItemManager.SupplyChainState",
							"name": "_state",
							"type": "uint8"
						},
						{
							"internalType": "string",
							"name": "_otherInfos",
							"type": "string"
						}
					],
					"stateMutability": "view",
					"type": "function"
				},
				{
					"inputs": [
						{
							"internalType": "uint256",
							"name": "_itemIndex",
							"type": "uint256"
						}
					],
					"name": "triggerDelivery",
					"outputs": [],
					"stateMutability": "nonpayable",
					"type": "function"
				},
				{
					"inputs": [
						{
							"internalType": "uint256",
							"name": "_itemIndex",
							"type": "uint256"
						}
					],
					"name": "triggerPayment",
					"outputs": [],
					"stateMutability": "payable",
					"type": "function"
				},
				{
					"inputs": [
						{
							"internalType": "uint256",
							"name": "_itemIndex",
							"type": "uint256"
						}
					],
					"name": "triggerPaymentWithToken",
					"outputs": [],
					"stateMutability": "payable",
					"type": "function"
				},
				{
					"inputs": [
						{
							"internalType": "uint256",
							"name": "_itemIndex",
							"type": "uint256"
						},
						{
							"internalType": "string",
							"name": "infos",
							"type": "string"
						}
					],
					"name": "updateInfos",
					"outputs": [],
					"stateMutability": "nonpayable",
					"type": "function"
				}
			],
			"devdoc": {
				"kind": "dev",
				"methods": {},
				"version": 1
			},
			"evm": {
				"assembly": "    /* \"ItemManager.sol\":138:4242  contract ItemManager is MyOwnable{\r... */\n  mstore(0x40, 0x80)\n  callvalue\n  dup1\n  iszero\n  tag_1\n  jumpi\n  0x00\n  dup1\n  revert\ntag_1:\n  pop\n    /* \"MyOwnable.sol\":170:180  msg.sender */\n  caller\n    /* \"MyOwnable.sol\":161:167  _owner */\n  0x00\n  dup1\n    /* \"MyOwnable.sol\":161:180  _owner = msg.sender */\n  0x0100\n  exp\n  dup2\n  sload\n  dup2\n  0xffffffffffffffffffffffffffffffffffffffff\n  mul\n  not\n  and\n  swap1\n  dup4\n  0xffffffffffffffffffffffffffffffffffffffff\n  and\n  mul\n  or\n  swap1\n  sstore\n  pop\n    /* \"ItemManager.sol\":138:4242  contract ItemManager is MyOwnable{\r... */\n  dataSize(sub_0)\n  dup1\n  dataOffset(sub_0)\n  0x00\n  codecopy\n  0x00\n  return\nstop\n\nsub_0: assembly {\n        /* \"ItemManager.sol\":138:4242  contract ItemManager is MyOwnable{\r... */\n      mstore(0x40, 0x80)\n      jumpi(tag_1, lt(calldatasize, 0x04))\n      shr(0xe0, calldataload(0x00))\n      dup1\n      0xb7bbacf5\n      gt\n      tag_10\n      jumpi\n      dup1\n      0xb7bbacf5\n      eq\n      tag_6\n      jumpi\n      dup1\n      0xbfb231d2\n      eq\n      tag_7\n      jumpi\n      dup1\n      0xcd31831e\n      eq\n      tag_8\n      jumpi\n      dup1\n      0xea9272b5\n      eq\n      tag_9\n      jumpi\n      jump(tag_1)\n    tag_10:\n      dup1\n      0x23c09bcc\n      eq\n      tag_2\n      jumpi\n      dup1\n      0x4906049a\n      eq\n      tag_3\n      jumpi\n      dup1\n      0x800fb83f\n      eq\n      tag_4\n      jumpi\n      dup1\n      0x8f32d59b\n      eq\n      tag_5\n      jumpi\n    tag_1:\n      0x00\n      dup1\n      revert\n        /* \"ItemManager.sol\":1730:1850  function getItemInfor(uint256 _itemIndex) public view returns(S_Item memory) {\r... */\n    tag_2:\n      callvalue\n      dup1\n      iszero\n      tag_11\n      jumpi\n      0x00\n      dup1\n      revert\n    tag_11:\n      pop\n      tag_12\n      0x04\n      dup1\n      calldatasize\n      sub\n      dup2\n      add\n      swap1\n      tag_13\n      swap2\n      swap1\n      tag_14\n      jump\t// in\n    tag_13:\n      tag_15\n      jump\t// in\n    tag_12:\n      mload(0x40)\n      tag_16\n      swap2\n      swap1\n      tag_17\n      jump\t// in\n    tag_16:\n      mload(0x40)\n      dup1\n      swap2\n      sub\n      swap1\n      return\n        /* \"ItemManager.sol\":3654:4239  function updateInfos(uint256 _itemIndex, string memory infos) public onlyOwner {\r... */\n    tag_3:\n      callvalue\n      dup1\n      iszero\n      tag_18\n      jumpi\n      0x00\n      dup1\n      revert\n    tag_18:\n      pop\n      tag_19\n      0x04\n      dup1\n      calldatasize\n      sub\n      dup2\n      add\n      swap1\n      tag_20\n      swap2\n      swap1\n      tag_21\n      jump\t// in\n    tag_20:\n      tag_22\n      jump\t// in\n    tag_19:\n      stop\n        /* \"ItemManager.sol\":2356:2966  function triggerPayment(uint256 _itemIndex) public payable {\r... */\n    tag_4:\n      tag_23\n      0x04\n      dup1\n      calldatasize\n      sub\n      dup2\n      add\n      swap1\n      tag_24\n      swap2\n      swap1\n      tag_14\n      jump\t// in\n    tag_24:\n      tag_25\n      jump\t// in\n    tag_23:\n      stop\n        /* \"MyOwnable.sol\":299:393  function isOwner() public view returns (bool) {\r... */\n    tag_5:\n      callvalue\n      dup1\n      iszero\n      tag_26\n      jumpi\n      0x00\n      dup1\n      revert\n    tag_26:\n      pop\n      tag_27\n      tag_28\n      jump\t// in\n    tag_27:\n      mload(0x40)\n      tag_29\n      swap2\n      swap1\n      tag_30\n      jump\t// in\n    tag_29:\n      mload(0x40)\n      dup1\n      swap2\n      sub\n      swap1\n      return\n        /* \"ItemManager.sol\":1858:2348  function triggerPaymentWithToken( uint256 _itemIndex) public payable {\r... */\n    tag_6:\n      tag_31\n      0x04\n      dup1\n      calldatasize\n      sub\n      dup2\n      add\n      swap1\n      tag_32\n      swap2\n      swap1\n      tag_14\n      jump\t// in\n    tag_32:\n      tag_33\n      jump\t// in\n    tag_31:\n      stop\n        /* \"ItemManager.sol\":519:558  mapping(uint256 => S_Item) public items */\n    tag_7:\n      callvalue\n      dup1\n      iszero\n      tag_34\n      jumpi\n      0x00\n      dup1\n      revert\n    tag_34:\n      pop\n      tag_35\n      0x04\n      dup1\n      calldatasize\n      sub\n      dup2\n      add\n      swap1\n      tag_36\n      swap2\n      swap1\n      tag_14\n      jump\t// in\n    tag_36:\n      tag_37\n      jump\t// in\n    tag_35:\n      mload(0x40)\n      tag_38\n      swap8\n      swap7\n      swap6\n      swap5\n      swap4\n      swap3\n      swap2\n      swap1\n      tag_39\n      jump\t// in\n    tag_38:\n      mload(0x40)\n      dup1\n      swap2\n      sub\n      swap1\n      return\n        /* \"ItemManager.sol\":2974:3455  function triggerDelivery(uint256 _itemIndex) public onlyOwner {\r... */\n    tag_8:\n      callvalue\n      dup1\n      iszero\n      tag_40\n      jumpi\n      0x00\n      dup1\n      revert\n    tag_40:\n      pop\n      tag_41\n      0x04\n      dup1\n      calldatasize\n      sub\n      dup2\n      add\n      swap1\n      tag_42\n      swap2\n      swap1\n      tag_14\n      jump\t// in\n    tag_42:\n      tag_43\n      jump\t// in\n    tag_41:\n      stop\n        /* \"ItemManager.sol\":902:1722  function createItem(\r... */\n    tag_9:\n      callvalue\n      dup1\n      iszero\n      tag_44\n      jumpi\n      0x00\n      dup1\n      revert\n    tag_44:\n      pop\n      tag_45\n      0x04\n      dup1\n      calldatasize\n      sub\n      dup2\n      add\n      swap1\n      tag_46\n      swap2\n      swap1\n      tag_47\n      jump\t// in\n    tag_46:\n      tag_48\n      jump\t// in\n    tag_45:\n      stop\n        /* \"ItemManager.sol\":1730:1850  function getItemInfor(uint256 _itemIndex) public view returns(S_Item memory) {\r... */\n    tag_15:\n        /* \"ItemManager.sol\":1792:1805  S_Item memory */\n      tag_49\n      tag_50\n      jump\t// in\n    tag_49:\n        /* \"ItemManager.sol\":1825:1830  items */\n      0x01\n        /* \"ItemManager.sol\":1825:1842  items[_itemIndex] */\n      0x00\n        /* \"ItemManager.sol\":1831:1841  _itemIndex */\n      dup4\n        /* \"ItemManager.sol\":1825:1842  items[_itemIndex] */\n      dup2\n      mstore\n      0x20\n      add\n      swap1\n      dup2\n      mstore\n      0x20\n      add\n      0x00\n      keccak256\n        /* \"ItemManager.sol\":1818:1842  return items[_itemIndex] */\n      mload(0x40)\n      dup1\n      0xe0\n      add\n      0x40\n      mstore\n      swap1\n      dup2\n      0x00\n      dup3\n      add\n      0x00\n      swap1\n      sload\n      swap1\n      0x0100\n      exp\n      swap1\n      div\n      0xffffffffffffffffffffffffffffffffffffffff\n      and\n      0xffffffffffffffffffffffffffffffffffffffff\n      and\n      0xffffffffffffffffffffffffffffffffffffffff\n      and\n      dup2\n      mstore\n      0x20\n      add\n      0x01\n      dup3\n      add\n      0x00\n      swap1\n      sload\n      swap1\n      0x0100\n      exp\n      swap1\n      div\n      0xffffffffffffffffffffffffffffffffffffffff\n      and\n      0xffffffffffffffffffffffffffffffffffffffff\n      and\n      0xffffffffffffffffffffffffffffffffffffffff\n      and\n      dup2\n      mstore\n      0x20\n      add\n      0x02\n      dup3\n      add\n      dup1\n      sload\n      tag_52\n      swap1\n      tag_53\n      jump\t// in\n    tag_52:\n      dup1\n      0x1f\n      add\n      0x20\n      dup1\n      swap2\n      div\n      mul\n      0x20\n      add\n      mload(0x40)\n      swap1\n      dup2\n      add\n      0x40\n      mstore\n      dup1\n      swap3\n      swap2\n      swap1\n      dup2\n      dup2\n      mstore\n      0x20\n      add\n      dup3\n      dup1\n      sload\n      tag_54\n      swap1\n      tag_53\n      jump\t// in\n    tag_54:\n      dup1\n      iszero\n      tag_55\n      jumpi\n      dup1\n      0x1f\n      lt\n      tag_56\n      jumpi\n      0x0100\n      dup1\n      dup4\n      sload\n      div\n      mul\n      dup4\n      mstore\n      swap2\n      0x20\n      add\n      swap2\n      jump(tag_55)\n    tag_56:\n      dup3\n      add\n      swap2\n      swap1\n      0x00\n      mstore\n      keccak256(0x00, 0x20)\n      swap1\n    tag_57:\n      dup2\n      sload\n      dup2\n      mstore\n      swap1\n      0x01\n      add\n      swap1\n      0x20\n      add\n      dup1\n      dup4\n      gt\n      tag_57\n      jumpi\n      dup3\n      swap1\n      sub\n      0x1f\n      and\n      dup3\n      add\n      swap2\n    tag_55:\n      pop\n      pop\n      pop\n      pop\n      pop\n      dup2\n      mstore\n      0x20\n      add\n      0x03\n      dup3\n      add\n      sload\n      dup2\n      mstore\n      0x20\n      add\n      0x04\n      dup3\n      add\n      sload\n      dup2\n      mstore\n      0x20\n      add\n      0x05\n      dup3\n      add\n      0x00\n      swap1\n      sload\n      swap1\n      0x0100\n      exp\n      swap1\n      div\n      0xff\n      and\n      0x02\n      dup2\n      gt\n      iszero\n      tag_58\n      jumpi\n      mstore(0x00, 0x4e487b7100000000000000000000000000000000000000000000000000000000)\n      mstore(0x04, 0x21)\n      revert(0x00, 0x24)\n    tag_58:\n      0x02\n      dup2\n      gt\n      iszero\n      tag_59\n      jumpi\n      mstore(0x00, 0x4e487b7100000000000000000000000000000000000000000000000000000000)\n      mstore(0x04, 0x21)\n      revert(0x00, 0x24)\n    tag_59:\n      dup2\n      mstore\n      0x20\n      add\n      0x06\n      dup3\n      add\n      dup1\n      sload\n      tag_60\n      swap1\n      tag_53\n      jump\t// in\n    tag_60:\n      dup1\n      0x1f\n      add\n      0x20\n      dup1\n      swap2\n      div\n      mul\n      0x20\n      add\n      mload(0x40)\n      swap1\n      dup2\n      add\n      0x40\n      mstore\n      dup1\n      swap3\n      swap2\n      swap1\n      dup2\n      dup2\n      mstore\n      0x20\n      add\n      dup3\n      dup1\n      sload\n      tag_61\n      swap1\n      tag_53\n      jump\t// in\n    tag_61:\n      dup1\n      iszero\n      tag_62\n      jumpi\n      dup1\n      0x1f\n      lt\n      tag_63\n      jumpi\n      0x0100\n      dup1\n      dup4\n      sload\n      div\n      mul\n      dup4\n      mstore\n      swap2\n      0x20\n      add\n      swap2\n      jump(tag_62)\n    tag_63:\n      dup3\n      add\n      swap2\n      swap1\n      0x00\n      mstore\n      keccak256(0x00, 0x20)\n      swap1\n    tag_64:\n      dup2\n      sload\n      dup2\n      mstore\n      swap1\n      0x01\n      add\n      swap1\n      0x20\n      add\n      dup1\n      dup4\n      gt\n      tag_64\n      jumpi\n      dup3\n      swap1\n      sub\n      0x1f\n      and\n      dup3\n      add\n      swap2\n    tag_62:\n      pop\n      pop\n      pop\n      pop\n      pop\n      dup2\n      mstore\n      pop\n      pop\n      swap1\n      pop\n        /* \"ItemManager.sol\":1730:1850  function getItemInfor(uint256 _itemIndex) public view returns(S_Item memory) {\r... */\n      swap2\n      swap1\n      pop\n      jump\t// out\n        /* \"ItemManager.sol\":3654:4239  function updateInfos(uint256 _itemIndex, string memory infos) public onlyOwner {\r... */\n    tag_22:\n        /* \"MyOwnable.sol\":236:245  isOwner() */\n      tag_66\n        /* \"MyOwnable.sol\":236:243  isOwner */\n      tag_28\n        /* \"MyOwnable.sol\":236:245  isOwner() */\n      jump\t// in\n    tag_66:\n        /* \"MyOwnable.sol\":228:271  require(isOwner(), \"You are not the owner\") */\n      tag_67\n      jumpi\n      mload(0x40)\n      0x08c379a000000000000000000000000000000000000000000000000000000000\n      dup2\n      mstore\n      0x04\n      add\n      tag_68\n      swap1\n      tag_69\n      jump\t// in\n    tag_68:\n      mload(0x40)\n      dup1\n      swap2\n      sub\n      swap1\n      revert\n    tag_67:\n        /* \"ItemManager.sol\":3794:3815  SupplyChainState.Paid */\n      0x01\n        /* \"ItemManager.sol\":3766:3815  items[_itemIndex]._state != SupplyChainState.Paid */\n      0x02\n      dup2\n      gt\n      iszero\n      tag_71\n      jumpi\n      mstore(0x00, 0x4e487b7100000000000000000000000000000000000000000000000000000000)\n      mstore(0x04, 0x21)\n      revert(0x00, 0x24)\n    tag_71:\n        /* \"ItemManager.sol\":3766:3771  items */\n      0x01\n        /* \"ItemManager.sol\":3766:3783  items[_itemIndex] */\n      0x00\n        /* \"ItemManager.sol\":3772:3782  _itemIndex */\n      dup5\n        /* \"ItemManager.sol\":3766:3783  items[_itemIndex] */\n      dup2\n      mstore\n      0x20\n      add\n      swap1\n      dup2\n      mstore\n      0x20\n      add\n      0x00\n      keccak256\n        /* \"ItemManager.sol\":3766:3790  items[_itemIndex]._state */\n      0x05\n      add\n      0x00\n      swap1\n      sload\n      swap1\n      0x0100\n      exp\n      swap1\n      div\n      0xff\n      and\n        /* \"ItemManager.sol\":3766:3815  items[_itemIndex]._state != SupplyChainState.Paid */\n      0x02\n      dup2\n      gt\n      iszero\n      tag_72\n      jumpi\n      mstore(0x00, 0x4e487b7100000000000000000000000000000000000000000000000000000000)\n      mstore(0x04, 0x21)\n      revert(0x00, 0x24)\n    tag_72:\n      eq\n      iszero\n        /* \"ItemManager.sol\":3744:3872  require(\r... */\n      tag_73\n      jumpi\n      mload(0x40)\n      0x08c379a000000000000000000000000000000000000000000000000000000000\n      dup2\n      mstore\n      0x04\n      add\n      tag_74\n      swap1\n      tag_75\n      jump\t// in\n    tag_74:\n      mload(0x40)\n      dup1\n      swap2\n      sub\n      swap1\n      revert\n    tag_73:\n        /* \"ItemManager.sol\":3963:3968  false */\n      0x00\n        /* \"ItemManager.sol\":3907:3968  compareStrings(items[_itemIndex]._otherInfos, infos) == false */\n      iszero\n      iszero\n        /* \"ItemManager.sol\":3907:3959  compareStrings(items[_itemIndex]._otherInfos, infos) */\n      tag_76\n        /* \"ItemManager.sol\":3922:3927  items */\n      0x01\n        /* \"ItemManager.sol\":3922:3939  items[_itemIndex] */\n      0x00\n        /* \"ItemManager.sol\":3928:3938  _itemIndex */\n      dup6\n        /* \"ItemManager.sol\":3922:3939  items[_itemIndex] */\n      dup2\n      mstore\n      0x20\n      add\n      swap1\n      dup2\n      mstore\n      0x20\n      add\n      0x00\n      keccak256\n        /* \"ItemManager.sol\":3922:3951  items[_itemIndex]._otherInfos */\n      0x06\n      add\n        /* \"ItemManager.sol\":3907:3959  compareStrings(items[_itemIndex]._otherInfos, infos) */\n      dup1\n      sload\n      tag_77\n      swap1\n      tag_53\n      jump\t// in\n    tag_77:\n      dup1\n      0x1f\n      add\n      0x20\n      dup1\n      swap2\n      div\n      mul\n      0x20\n      add\n      mload(0x40)\n      swap1\n      dup2\n      add\n      0x40\n      mstore\n      dup1\n      swap3\n      swap2\n      swap1\n      dup2\n      dup2\n      mstore\n      0x20\n      add\n      dup3\n      dup1\n      sload\n      tag_78\n      swap1\n      tag_53\n      jump\t// in\n    tag_78:\n      dup1\n      iszero\n      tag_79\n      jumpi\n      dup1\n      0x1f\n      lt\n      tag_80\n      jumpi\n      0x0100\n      dup1\n      dup4\n      sload\n      div\n      mul\n      dup4\n      mstore\n      swap2\n      0x20\n      add\n      swap2\n      jump(tag_79)\n    tag_80:\n      dup3\n      add\n      swap2\n      swap1\n      0x00\n      mstore\n      keccak256(0x00, 0x20)\n      swap1\n    tag_81:\n      dup2\n      sload\n      dup2\n      mstore\n      swap1\n      0x01\n      add\n      swap1\n      0x20\n      add\n      dup1\n      dup4\n      gt\n      tag_81\n      jumpi\n      dup3\n      swap1\n      sub\n      0x1f\n      and\n      dup3\n      add\n      swap2\n    tag_79:\n      pop\n      pop\n      pop\n      pop\n      pop\n        /* \"ItemManager.sol\":3953:3958  infos */\n      dup4\n        /* \"ItemManager.sol\":3907:3921  compareStrings */\n      tag_82\n        /* \"ItemManager.sol\":3907:3959  compareStrings(items[_itemIndex]._otherInfos, infos) */\n      jump\t// in\n    tag_76:\n        /* \"ItemManager.sol\":3907:3968  compareStrings(items[_itemIndex]._otherInfos, infos) == false */\n      iszero\n      iszero\n      eq\n        /* \"ItemManager.sol\":3885:4021  require(\r... */\n      tag_83\n      jumpi\n      mload(0x40)\n      0x08c379a000000000000000000000000000000000000000000000000000000000\n      dup2\n      mstore\n      0x04\n      add\n      tag_84\n      swap1\n      tag_85\n      jump\t// in\n    tag_84:\n      mload(0x40)\n      dup1\n      swap2\n      sub\n      swap1\n      revert\n    tag_83:\n        /* \"ItemManager.sol\":4066:4071  infos */\n      dup1\n        /* \"ItemManager.sol\":4034:4039  items */\n      0x01\n        /* \"ItemManager.sol\":4034:4051  items[_itemIndex] */\n      0x00\n        /* \"ItemManager.sol\":4040:4050  _itemIndex */\n      dup5\n        /* \"ItemManager.sol\":4034:4051  items[_itemIndex] */\n      dup2\n      mstore\n      0x20\n      add\n      swap1\n      dup2\n      mstore\n      0x20\n      add\n      0x00\n      keccak256\n        /* \"ItemManager.sol\":4034:4063  items[_itemIndex]._otherInfos */\n      0x06\n      add\n        /* \"ItemManager.sol\":4034:4071  items[_itemIndex]._otherInfos = infos */\n      swap1\n      dup1\n      mload\n      swap1\n      0x20\n      add\n      swap1\n      tag_86\n      swap3\n      swap2\n      swap1\n      tag_87\n      jump\t// in\n    tag_86:\n      pop\n        /* \"ItemManager.sol\":4089:4231  UpdatedItemInfo(\r... */\n      0xf903683be87717548f5e315925940d7b149e3f7485578e8a73c272a1d510de7e\n        /* \"ItemManager.sol\":4119:4129  _itemIndex */\n      dup3\n        /* \"ItemManager.sol\":4152:4157  items */\n      0x01\n        /* \"ItemManager.sol\":4152:4169  items[_itemIndex] */\n      0x00\n        /* \"ItemManager.sol\":4158:4168  _itemIndex */\n      dup6\n        /* \"ItemManager.sol\":4152:4169  items[_itemIndex] */\n      dup2\n      mstore\n      0x20\n      add\n      swap1\n      dup2\n      mstore\n      0x20\n      add\n      0x00\n      keccak256\n        /* \"ItemManager.sol\":4152:4175  items[_itemIndex]._item */\n      0x01\n      add\n      0x00\n      swap1\n      sload\n      swap1\n      0x0100\n      exp\n      swap1\n      div\n      0xffffffffffffffffffffffffffffffffffffffff\n      and\n        /* \"ItemManager.sol\":4191:4196  items */\n      0x01\n        /* \"ItemManager.sol\":4191:4208  items[_itemIndex] */\n      0x00\n        /* \"ItemManager.sol\":4197:4207  _itemIndex */\n      dup7\n        /* \"ItemManager.sol\":4191:4208  items[_itemIndex] */\n      dup2\n      mstore\n      0x20\n      add\n      swap1\n      dup2\n      mstore\n      0x20\n      add\n      0x00\n      keccak256\n        /* \"ItemManager.sol\":4191:4220  items[_itemIndex]._otherInfos */\n      0x06\n      add\n        /* \"ItemManager.sol\":4089:4231  UpdatedItemInfo(\r... */\n      mload(0x40)\n      tag_88\n      swap4\n      swap3\n      swap2\n      swap1\n      tag_89\n      jump\t// in\n    tag_88:\n      mload(0x40)\n      dup1\n      swap2\n      sub\n      swap1\n      log1\n        /* \"ItemManager.sol\":3654:4239  function updateInfos(uint256 _itemIndex, string memory infos) public onlyOwner {\r... */\n      pop\n      pop\n      jump\t// out\n        /* \"ItemManager.sol\":2356:2966  function triggerPayment(uint256 _itemIndex) public payable {\r... */\n    tag_25:\n        /* \"ItemManager.sol\":2480:2489  msg.value */\n      callvalue\n        /* \"ItemManager.sol\":2448:2453  items */\n      0x01\n        /* \"ItemManager.sol\":2448:2465  items[_itemIndex] */\n      0x00\n        /* \"ItemManager.sol\":2454:2464  _itemIndex */\n      dup4\n        /* \"ItemManager.sol\":2448:2465  items[_itemIndex] */\n      dup2\n      mstore\n      0x20\n      add\n      swap1\n      dup2\n      mstore\n      0x20\n      add\n      0x00\n      keccak256\n        /* \"ItemManager.sol\":2448:2476  items[_itemIndex]._itemPrice */\n      0x03\n      add\n      sload\n        /* \"ItemManager.sol\":2448:2489  items[_itemIndex]._itemPrice == msg.value */\n      eq\n        /* \"ItemManager.sol\":2426:2545  require(\r... */\n      tag_91\n      jumpi\n      mload(0x40)\n      0x08c379a000000000000000000000000000000000000000000000000000000000\n      dup2\n      mstore\n      0x04\n      add\n      tag_92\n      swap1\n      tag_93\n      jump\t// in\n    tag_92:\n      mload(0x40)\n      dup1\n      swap2\n      sub\n      swap1\n      revert\n    tag_91:\n        /* \"ItemManager.sol\":2606:2630  SupplyChainState.Created */\n      0x00\n        /* \"ItemManager.sol\":2578:2630  items[_itemIndex]._state == SupplyChainState.Created */\n      0x02\n      dup2\n      gt\n      iszero\n      tag_94\n      jumpi\n      mstore(0x00, 0x4e487b7100000000000000000000000000000000000000000000000000000000)\n      mstore(0x04, 0x21)\n      revert(0x00, 0x24)\n    tag_94:\n        /* \"ItemManager.sol\":2578:2583  items */\n      0x01\n        /* \"ItemManager.sol\":2578:2595  items[_itemIndex] */\n      0x00\n        /* \"ItemManager.sol\":2584:2594  _itemIndex */\n      dup4\n        /* \"ItemManager.sol\":2578:2595  items[_itemIndex] */\n      dup2\n      mstore\n      0x20\n      add\n      swap1\n      dup2\n      mstore\n      0x20\n      add\n      0x00\n      keccak256\n        /* \"ItemManager.sol\":2578:2602  items[_itemIndex]._state */\n      0x05\n      add\n      0x00\n      swap1\n      sload\n      swap1\n      0x0100\n      exp\n      swap1\n      div\n      0xff\n      and\n        /* \"ItemManager.sol\":2578:2630  items[_itemIndex]._state == SupplyChainState.Created */\n      0x02\n      dup2\n      gt\n      iszero\n      tag_95\n      jumpi\n      mstore(0x00, 0x4e487b7100000000000000000000000000000000000000000000000000000000)\n      mstore(0x04, 0x21)\n      revert(0x00, 0x24)\n    tag_95:\n      eq\n        /* \"ItemManager.sol\":2556:2687  require(\r... */\n      tag_96\n      jumpi\n      mload(0x40)\n      0x08c379a000000000000000000000000000000000000000000000000000000000\n      dup2\n      mstore\n      0x04\n      add\n      tag_97\n      swap1\n      tag_98\n      jump\t// in\n    tag_97:\n      mload(0x40)\n      dup1\n      swap2\n      sub\n      swap1\n      revert\n    tag_96:\n        /* \"ItemManager.sol\":2725:2746  SupplyChainState.Paid */\n      0x01\n        /* \"ItemManager.sol\":2698:2703  items */\n      dup1\n        /* \"ItemManager.sol\":2698:2715  items[_itemIndex] */\n      0x00\n        /* \"ItemManager.sol\":2704:2714  _itemIndex */\n      dup4\n        /* \"ItemManager.sol\":2698:2715  items[_itemIndex] */\n      dup2\n      mstore\n      0x20\n      add\n      swap1\n      dup2\n      mstore\n      0x20\n      add\n      0x00\n      keccak256\n        /* \"ItemManager.sol\":2698:2722  items[_itemIndex]._state */\n      0x05\n      add\n      0x00\n        /* \"ItemManager.sol\":2698:2746  items[_itemIndex]._state = SupplyChainState.Paid */\n      0x0100\n      exp\n      dup2\n      sload\n      dup2\n      0xff\n      mul\n      not\n      and\n      swap1\n      dup4\n      0x02\n      dup2\n      gt\n      iszero\n      tag_99\n      jumpi\n      mstore(0x00, 0x4e487b7100000000000000000000000000000000000000000000000000000000)\n      mstore(0x04, 0x21)\n      revert(0x00, 0x24)\n    tag_99:\n      mul\n      or\n      swap1\n      sstore\n      pop\n        /* \"ItemManager.sol\":2768:2958  SupplyChainStep(\r... */\n      0x04dae4d23aa86ea4452ca552b9901b80bd40c63a842232a8a7975d07a3646f01\n        /* \"ItemManager.sol\":2798:2808  _itemIndex */\n      dup2\n        /* \"ItemManager.sol\":2831:2836  items */\n      0x01\n        /* \"ItemManager.sol\":2831:2848  items[_itemIndex] */\n      0x00\n        /* \"ItemManager.sol\":2837:2847  _itemIndex */\n      dup5\n        /* \"ItemManager.sol\":2831:2848  items[_itemIndex] */\n      dup2\n      mstore\n      0x20\n      add\n      swap1\n      dup2\n      mstore\n      0x20\n      add\n      0x00\n      keccak256\n        /* \"ItemManager.sol\":2831:2855  items[_itemIndex]._state */\n      0x05\n      add\n      0x00\n      swap1\n      sload\n      swap1\n      0x0100\n      exp\n      swap1\n      div\n      0xff\n      and\n        /* \"ItemManager.sol\":2823:2856  uint256(items[_itemIndex]._state) */\n      0x02\n      dup2\n      gt\n      iszero\n      tag_100\n      jumpi\n      mstore(0x00, 0x4e487b7100000000000000000000000000000000000000000000000000000000)\n      mstore(0x04, 0x21)\n      revert(0x00, 0x24)\n    tag_100:\n        /* \"ItemManager.sol\":2879:2884  items */\n      0x01\n        /* \"ItemManager.sol\":2879:2896  items[_itemIndex] */\n      0x00\n        /* \"ItemManager.sol\":2885:2895  _itemIndex */\n      dup6\n        /* \"ItemManager.sol\":2879:2896  items[_itemIndex] */\n      dup2\n      mstore\n      0x20\n      add\n      swap1\n      dup2\n      mstore\n      0x20\n      add\n      0x00\n      keccak256\n        /* \"ItemManager.sol\":2879:2902  items[_itemIndex]._item */\n      0x01\n      add\n      0x00\n      swap1\n      sload\n      swap1\n      0x0100\n      exp\n      swap1\n      div\n      0xffffffffffffffffffffffffffffffffffffffff\n      and\n        /* \"ItemManager.sol\":2918:2923  items */\n      0x01\n        /* \"ItemManager.sol\":2918:2935  items[_itemIndex] */\n      0x00\n        /* \"ItemManager.sol\":2924:2934  _itemIndex */\n      dup7\n        /* \"ItemManager.sol\":2918:2935  items[_itemIndex] */\n      dup2\n      mstore\n      0x20\n      add\n      swap1\n      dup2\n      mstore\n      0x20\n      add\n      0x00\n      keccak256\n        /* \"ItemManager.sol\":2918:2947  items[_itemIndex]._otherInfos */\n      0x06\n      add\n        /* \"ItemManager.sol\":2768:2958  SupplyChainStep(\r... */\n      mload(0x40)\n      tag_101\n      swap5\n      swap4\n      swap3\n      swap2\n      swap1\n      tag_102\n      jump\t// in\n    tag_101:\n      mload(0x40)\n      dup1\n      swap2\n      sub\n      swap1\n      log1\n        /* \"ItemManager.sol\":2356:2966  function triggerPayment(uint256 _itemIndex) public payable {\r... */\n      pop\n      jump\t// out\n        /* \"MyOwnable.sol\":299:393  function isOwner() public view returns (bool) {\r... */\n    tag_28:\n        /* \"MyOwnable.sol\":339:343  bool */\n      0x00\n        /* \"MyOwnable.sol\":378:384  _owner */\n      dup1\n      0x00\n      swap1\n      sload\n      swap1\n      0x0100\n      exp\n      swap1\n      div\n      0xffffffffffffffffffffffffffffffffffffffff\n      and\n        /* \"MyOwnable.sol\":364:384  msg.sender == _owner */\n      0xffffffffffffffffffffffffffffffffffffffff\n      and\n        /* \"MyOwnable.sol\":364:374  msg.sender */\n      caller\n        /* \"MyOwnable.sol\":364:384  msg.sender == _owner */\n      0xffffffffffffffffffffffffffffffffffffffff\n      and\n      eq\n        /* \"MyOwnable.sol\":356:385  return (msg.sender == _owner) */\n      swap1\n      pop\n        /* \"MyOwnable.sol\":299:393  function isOwner() public view returns (bool) {\r... */\n      swap1\n      jump\t// out\n        /* \"ItemManager.sol\":1858:2348  function triggerPaymentWithToken( uint256 _itemIndex) public payable {\r... */\n    tag_33:\n        /* \"ItemManager.sol\":1988:2012  SupplyChainState.Created */\n      0x00\n        /* \"ItemManager.sol\":1960:2012  items[_itemIndex]._state == SupplyChainState.Created */\n      0x02\n      dup2\n      gt\n      iszero\n      tag_105\n      jumpi\n      mstore(0x00, 0x4e487b7100000000000000000000000000000000000000000000000000000000)\n      mstore(0x04, 0x21)\n      revert(0x00, 0x24)\n    tag_105:\n        /* \"ItemManager.sol\":1960:1965  items */\n      0x01\n        /* \"ItemManager.sol\":1960:1977  items[_itemIndex] */\n      0x00\n        /* \"ItemManager.sol\":1966:1976  _itemIndex */\n      dup4\n        /* \"ItemManager.sol\":1960:1977  items[_itemIndex] */\n      dup2\n      mstore\n      0x20\n      add\n      swap1\n      dup2\n      mstore\n      0x20\n      add\n      0x00\n      keccak256\n        /* \"ItemManager.sol\":1960:1984  items[_itemIndex]._state */\n      0x05\n      add\n      0x00\n      swap1\n      sload\n      swap1\n      0x0100\n      exp\n      swap1\n      div\n      0xff\n      and\n        /* \"ItemManager.sol\":1960:2012  items[_itemIndex]._state == SupplyChainState.Created */\n      0x02\n      dup2\n      gt\n      iszero\n      tag_106\n      jumpi\n      mstore(0x00, 0x4e487b7100000000000000000000000000000000000000000000000000000000)\n      mstore(0x04, 0x21)\n      revert(0x00, 0x24)\n    tag_106:\n      eq\n        /* \"ItemManager.sol\":1938:2069  require(\r... */\n      tag_107\n      jumpi\n      mload(0x40)\n      0x08c379a000000000000000000000000000000000000000000000000000000000\n      dup2\n      mstore\n      0x04\n      add\n      tag_108\n      swap1\n      tag_98\n      jump\t// in\n    tag_108:\n      mload(0x40)\n      dup1\n      swap2\n      sub\n      swap1\n      revert\n    tag_107:\n        /* \"ItemManager.sol\":2107:2128  SupplyChainState.Paid */\n      0x01\n        /* \"ItemManager.sol\":2080:2085  items */\n      dup1\n        /* \"ItemManager.sol\":2080:2097  items[_itemIndex] */\n      0x00\n        /* \"ItemManager.sol\":2086:2096  _itemIndex */\n      dup4\n        /* \"ItemManager.sol\":2080:2097  items[_itemIndex] */\n      dup2\n      mstore\n      0x20\n      add\n      swap1\n      dup2\n      mstore\n      0x20\n      add\n      0x00\n      keccak256\n        /* \"ItemManager.sol\":2080:2104  items[_itemIndex]._state */\n      0x05\n      add\n      0x00\n        /* \"ItemManager.sol\":2080:2128  items[_itemIndex]._state = SupplyChainState.Paid */\n      0x0100\n      exp\n      dup2\n      sload\n      dup2\n      0xff\n      mul\n      not\n      and\n      swap1\n      dup4\n      0x02\n      dup2\n      gt\n      iszero\n      tag_109\n      jumpi\n      mstore(0x00, 0x4e487b7100000000000000000000000000000000000000000000000000000000)\n      mstore(0x04, 0x21)\n      revert(0x00, 0x24)\n    tag_109:\n      mul\n      or\n      swap1\n      sstore\n      pop\n        /* \"ItemManager.sol\":2150:2340  SupplyChainStep(\r... */\n      0x04dae4d23aa86ea4452ca552b9901b80bd40c63a842232a8a7975d07a3646f01\n        /* \"ItemManager.sol\":2180:2190  _itemIndex */\n      dup2\n        /* \"ItemManager.sol\":2213:2218  items */\n      0x01\n        /* \"ItemManager.sol\":2213:2230  items[_itemIndex] */\n      0x00\n        /* \"ItemManager.sol\":2219:2229  _itemIndex */\n      dup5\n        /* \"ItemManager.sol\":2213:2230  items[_itemIndex] */\n      dup2\n      mstore\n      0x20\n      add\n      swap1\n      dup2\n      mstore\n      0x20\n      add\n      0x00\n      keccak256\n        /* \"ItemManager.sol\":2213:2237  items[_itemIndex]._state */\n      0x05\n      add\n      0x00\n      swap1\n      sload\n      swap1\n      0x0100\n      exp\n      swap1\n      div\n      0xff\n      and\n        /* \"ItemManager.sol\":2205:2238  uint256(items[_itemIndex]._state) */\n      0x02\n      dup2\n      gt\n      iszero\n      tag_110\n      jumpi\n      mstore(0x00, 0x4e487b7100000000000000000000000000000000000000000000000000000000)\n      mstore(0x04, 0x21)\n      revert(0x00, 0x24)\n    tag_110:\n        /* \"ItemManager.sol\":2261:2266  items */\n      0x01\n        /* \"ItemManager.sol\":2261:2278  items[_itemIndex] */\n      0x00\n        /* \"ItemManager.sol\":2267:2277  _itemIndex */\n      dup6\n        /* \"ItemManager.sol\":2261:2278  items[_itemIndex] */\n      dup2\n      mstore\n      0x20\n      add\n      swap1\n      dup2\n      mstore\n      0x20\n      add\n      0x00\n      keccak256\n        /* \"ItemManager.sol\":2261:2284  items[_itemIndex]._item */\n      0x01\n      add\n      0x00\n      swap1\n      sload\n      swap1\n      0x0100\n      exp\n      swap1\n      div\n      0xffffffffffffffffffffffffffffffffffffffff\n      and\n        /* \"ItemManager.sol\":2300:2305  items */\n      0x01\n        /* \"ItemManager.sol\":2300:2317  items[_itemIndex] */\n      0x00\n        /* \"ItemManager.sol\":2306:2316  _itemIndex */\n      dup7\n        /* \"ItemManager.sol\":2300:2317  items[_itemIndex] */\n      dup2\n      mstore\n      0x20\n      add\n      swap1\n      dup2\n      mstore\n      0x20\n      add\n      0x00\n      keccak256\n        /* \"ItemManager.sol\":2300:2329  items[_itemIndex]._otherInfos */\n      0x06\n      add\n        /* \"ItemManager.sol\":2150:2340  SupplyChainStep(\r... */\n      mload(0x40)\n      tag_111\n      swap5\n      swap4\n      swap3\n      swap2\n      swap1\n      tag_102\n      jump\t// in\n    tag_111:\n      mload(0x40)\n      dup1\n      swap2\n      sub\n      swap1\n      log1\n        /* \"ItemManager.sol\":1858:2348  function triggerPaymentWithToken( uint256 _itemIndex) public payable {\r... */\n      pop\n      jump\t// out\n        /* \"ItemManager.sol\":519:558  mapping(uint256 => S_Item) public items */\n    tag_37:\n      mstore(0x20, 0x01)\n      dup1\n      0x00\n      mstore\n      keccak256(0x00, 0x40)\n      0x00\n      swap2\n      pop\n      swap1\n      pop\n      dup1\n      0x00\n      add\n      0x00\n      swap1\n      sload\n      swap1\n      0x0100\n      exp\n      swap1\n      div\n      0xffffffffffffffffffffffffffffffffffffffff\n      and\n      swap1\n      dup1\n      0x01\n      add\n      0x00\n      swap1\n      sload\n      swap1\n      0x0100\n      exp\n      swap1\n      div\n      0xffffffffffffffffffffffffffffffffffffffff\n      and\n      swap1\n      dup1\n      0x02\n      add\n      dup1\n      sload\n      tag_112\n      swap1\n      tag_53\n      jump\t// in\n    tag_112:\n      dup1\n      0x1f\n      add\n      0x20\n      dup1\n      swap2\n      div\n      mul\n      0x20\n      add\n      mload(0x40)\n      swap1\n      dup2\n      add\n      0x40\n      mstore\n      dup1\n      swap3\n      swap2\n      swap1\n      dup2\n      dup2\n      mstore\n      0x20\n      add\n      dup3\n      dup1\n      sload\n      tag_113\n      swap1\n      tag_53\n      jump\t// in\n    tag_113:\n      dup1\n      iszero\n      tag_114\n      jumpi\n      dup1\n      0x1f\n      lt\n      tag_115\n      jumpi\n      0x0100\n      dup1\n      dup4\n      sload\n      div\n      mul\n      dup4\n      mstore\n      swap2\n      0x20\n      add\n      swap2\n      jump(tag_114)\n    tag_115:\n      dup3\n      add\n      swap2\n      swap1\n      0x00\n      mstore\n      keccak256(0x00, 0x20)\n      swap1\n    tag_116:\n      dup2\n      sload\n      dup2\n      mstore\n      swap1\n      0x01\n      add\n      swap1\n      0x20\n      add\n      dup1\n      dup4\n      gt\n      tag_116\n      jumpi\n      dup3\n      swap1\n      sub\n      0x1f\n      and\n      dup3\n      add\n      swap2\n    tag_114:\n      pop\n      pop\n      pop\n      pop\n      pop\n      swap1\n      dup1\n      0x03\n      add\n      sload\n      swap1\n      dup1\n      0x04\n      add\n      sload\n      swap1\n      dup1\n      0x05\n      add\n      0x00\n      swap1\n      sload\n      swap1\n      0x0100\n      exp\n      swap1\n      div\n      0xff\n      and\n      swap1\n      dup1\n      0x06\n      add\n      dup1\n      sload\n      tag_117\n      swap1\n      tag_53\n      jump\t// in\n    tag_117:\n      dup1\n      0x1f\n      add\n      0x20\n      dup1\n      swap2\n      div\n      mul\n      0x20\n      add\n      mload(0x40)\n      swap1\n      dup2\n      add\n      0x40\n      mstore\n      dup1\n      swap3\n      swap2\n      swap1\n      dup2\n      dup2\n      mstore\n      0x20\n      add\n      dup3\n      dup1\n      sload\n      tag_118\n      swap1\n      tag_53\n      jump\t// in\n    tag_118:\n      dup1\n      iszero\n      tag_119\n      jumpi\n      dup1\n      0x1f\n      lt\n      tag_120\n      jumpi\n      0x0100\n      dup1\n      dup4\n      sload\n      div\n      mul\n      dup4\n      mstore\n      swap2\n      0x20\n      add\n      swap2\n      jump(tag_119)\n    tag_120:\n      dup3\n      add\n      swap2\n      swap1\n      0x00\n      mstore\n      keccak256(0x00, 0x20)\n      swap1\n    tag_121:\n      dup2\n      sload\n      dup2\n      mstore\n      swap1\n      0x01\n      add\n      swap1\n      0x20\n      add\n      dup1\n      dup4\n      gt\n      tag_121\n      jumpi\n      dup3\n      swap1\n      sub\n      0x1f\n      and\n      dup3\n      add\n      swap2\n    tag_119:\n      pop\n      pop\n      pop\n      pop\n      pop\n      swap1\n      pop\n      dup8\n      jump\t// out\n        /* \"ItemManager.sol\":2974:3455  function triggerDelivery(uint256 _itemIndex) public onlyOwner {\r... */\n    tag_43:\n        /* \"MyOwnable.sol\":236:245  isOwner() */\n      tag_123\n        /* \"MyOwnable.sol\":236:243  isOwner */\n      tag_28\n        /* \"MyOwnable.sol\":236:245  isOwner() */\n      jump\t// in\n    tag_123:\n        /* \"MyOwnable.sol\":228:271  require(isOwner(), \"You are not the owner\") */\n      tag_124\n      jumpi\n      mload(0x40)\n      0x08c379a000000000000000000000000000000000000000000000000000000000\n      dup2\n      mstore\n      0x04\n      add\n      tag_125\n      swap1\n      tag_69\n      jump\t// in\n    tag_125:\n      mload(0x40)\n      dup1\n      swap2\n      sub\n      swap1\n      revert\n    tag_124:\n        /* \"ItemManager.sol\":3097:3118  SupplyChainState.Paid */\n      0x01\n        /* \"ItemManager.sol\":3069:3118  items[_itemIndex]._state == SupplyChainState.Paid */\n      0x02\n      dup2\n      gt\n      iszero\n      tag_127\n      jumpi\n      mstore(0x00, 0x4e487b7100000000000000000000000000000000000000000000000000000000)\n      mstore(0x04, 0x21)\n      revert(0x00, 0x24)\n    tag_127:\n        /* \"ItemManager.sol\":3069:3074  items */\n      0x01\n        /* \"ItemManager.sol\":3069:3086  items[_itemIndex] */\n      0x00\n        /* \"ItemManager.sol\":3075:3085  _itemIndex */\n      dup4\n        /* \"ItemManager.sol\":3069:3086  items[_itemIndex] */\n      dup2\n      mstore\n      0x20\n      add\n      swap1\n      dup2\n      mstore\n      0x20\n      add\n      0x00\n      keccak256\n        /* \"ItemManager.sol\":3069:3093  items[_itemIndex]._state */\n      0x05\n      add\n      0x00\n      swap1\n      sload\n      swap1\n      0x0100\n      exp\n      swap1\n      div\n      0xff\n      and\n        /* \"ItemManager.sol\":3069:3118  items[_itemIndex]._state == SupplyChainState.Paid */\n      0x02\n      dup2\n      gt\n      iszero\n      tag_128\n      jumpi\n      mstore(0x00, 0x4e487b7100000000000000000000000000000000000000000000000000000000)\n      mstore(0x04, 0x21)\n      revert(0x00, 0x24)\n    tag_128:\n      eq\n        /* \"ItemManager.sol\":3047:3175  require(\r... */\n      tag_129\n      jumpi\n      mload(0x40)\n      0x08c379a000000000000000000000000000000000000000000000000000000000\n      dup2\n      mstore\n      0x04\n      add\n      tag_130\n      swap1\n      tag_98\n      jump\t// in\n    tag_130:\n      mload(0x40)\n      dup1\n      swap2\n      sub\n      swap1\n      revert\n    tag_129:\n        /* \"ItemManager.sol\":3213:3239  SupplyChainState.Delivered */\n      0x02\n        /* \"ItemManager.sol\":3186:3191  items */\n      0x01\n        /* \"ItemManager.sol\":3186:3203  items[_itemIndex] */\n      0x00\n        /* \"ItemManager.sol\":3192:3202  _itemIndex */\n      dup4\n        /* \"ItemManager.sol\":3186:3203  items[_itemIndex] */\n      dup2\n      mstore\n      0x20\n      add\n      swap1\n      dup2\n      mstore\n      0x20\n      add\n      0x00\n      keccak256\n        /* \"ItemManager.sol\":3186:3210  items[_itemIndex]._state */\n      0x05\n      add\n      0x00\n        /* \"ItemManager.sol\":3186:3239  items[_itemIndex]._state = SupplyChainState.Delivered */\n      0x0100\n      exp\n      dup2\n      sload\n      dup2\n      0xff\n      mul\n      not\n      and\n      swap1\n      dup4\n      0x02\n      dup2\n      gt\n      iszero\n      tag_131\n      jumpi\n      mstore(0x00, 0x4e487b7100000000000000000000000000000000000000000000000000000000)\n      mstore(0x04, 0x21)\n      revert(0x00, 0x24)\n    tag_131:\n      mul\n      or\n      swap1\n      sstore\n      pop\n        /* \"ItemManager.sol\":3257:3447  SupplyChainStep(\r... */\n      0x04dae4d23aa86ea4452ca552b9901b80bd40c63a842232a8a7975d07a3646f01\n        /* \"ItemManager.sol\":3287:3297  _itemIndex */\n      dup2\n        /* \"ItemManager.sol\":3320:3325  items */\n      0x01\n        /* \"ItemManager.sol\":3320:3337  items[_itemIndex] */\n      0x00\n        /* \"ItemManager.sol\":3326:3336  _itemIndex */\n      dup5\n        /* \"ItemManager.sol\":3320:3337  items[_itemIndex] */\n      dup2\n      mstore\n      0x20\n      add\n      swap1\n      dup2\n      mstore\n      0x20\n      add\n      0x00\n      keccak256\n        /* \"ItemManager.sol\":3320:3344  items[_itemIndex]._state */\n      0x05\n      add\n      0x00\n      swap1\n      sload\n      swap1\n      0x0100\n      exp\n      swap1\n      div\n      0xff\n      and\n        /* \"ItemManager.sol\":3312:3345  uint256(items[_itemIndex]._state) */\n      0x02\n      dup2\n      gt\n      iszero\n      tag_132\n      jumpi\n      mstore(0x00, 0x4e487b7100000000000000000000000000000000000000000000000000000000)\n      mstore(0x04, 0x21)\n      revert(0x00, 0x24)\n    tag_132:\n        /* \"ItemManager.sol\":3368:3373  items */\n      0x01\n        /* \"ItemManager.sol\":3368:3385  items[_itemIndex] */\n      0x00\n        /* \"ItemManager.sol\":3374:3384  _itemIndex */\n      dup6\n        /* \"ItemManager.sol\":3368:3385  items[_itemIndex] */\n      dup2\n      mstore\n      0x20\n      add\n      swap1\n      dup2\n      mstore\n      0x20\n      add\n      0x00\n      keccak256\n        /* \"ItemManager.sol\":3368:3391  items[_itemIndex]._item */\n      0x01\n      add\n      0x00\n      swap1\n      sload\n      swap1\n      0x0100\n      exp\n      swap1\n      div\n      0xffffffffffffffffffffffffffffffffffffffff\n      and\n        /* \"ItemManager.sol\":3407:3412  items */\n      0x01\n        /* \"ItemManager.sol\":3407:3424  items[_itemIndex] */\n      0x00\n        /* \"ItemManager.sol\":3413:3423  _itemIndex */\n      dup7\n        /* \"ItemManager.sol\":3407:3424  items[_itemIndex] */\n      dup2\n      mstore\n      0x20\n      add\n      swap1\n      dup2\n      mstore\n      0x20\n      add\n      0x00\n      keccak256\n        /* \"ItemManager.sol\":3407:3436  items[_itemIndex]._otherInfos */\n      0x06\n      add\n        /* \"ItemManager.sol\":3257:3447  SupplyChainStep(\r... */\n      mload(0x40)\n      tag_133\n      swap5\n      swap4\n      swap3\n      swap2\n      swap1\n      tag_102\n      jump\t// in\n    tag_133:\n      mload(0x40)\n      dup1\n      swap2\n      sub\n      swap1\n      log1\n        /* \"ItemManager.sol\":2974:3455  function triggerDelivery(uint256 _itemIndex) public onlyOwner {\r... */\n      pop\n      jump\t// out\n        /* \"ItemManager.sol\":902:1722  function createItem(\r... */\n    tag_48:\n        /* \"MyOwnable.sol\":236:245  isOwner() */\n      tag_135\n        /* \"MyOwnable.sol\":236:243  isOwner */\n      tag_28\n        /* \"MyOwnable.sol\":236:245  isOwner() */\n      jump\t// in\n    tag_135:\n        /* \"MyOwnable.sol\":228:271  require(isOwner(), \"You are not the owner\") */\n      tag_136\n      jumpi\n      mload(0x40)\n      0x08c379a000000000000000000000000000000000000000000000000000000000\n      dup2\n      mstore\n      0x04\n      add\n      tag_137\n      swap1\n      tag_69\n      jump\t// in\n    tag_137:\n      mload(0x40)\n      dup1\n      swap2\n      sub\n      swap1\n      revert\n    tag_136:\n        /* \"ItemManager.sol\":1117:1126  Item item */\n      0x00\n        /* \"ItemManager.sol\":1138:1142  this */\n      address\n        /* \"ItemManager.sol\":1144:1153  itemPrice */\n      dup5\n        /* \"ItemManager.sol\":1155:1164  itemIndex */\n      sload(0x02)\n        /* \"ItemManager.sol\":1129:1165  new Item(this, itemPrice, itemIndex) */\n      mload(0x40)\n      tag_139\n      swap1\n      tag_140\n      jump\t// in\n    tag_139:\n      tag_141\n      swap4\n      swap3\n      swap2\n      swap1\n      tag_142\n      jump\t// in\n    tag_141:\n      mload(0x40)\n      dup1\n      swap2\n      sub\n      swap1\n      0x00\n      create\n      dup1\n      iszero\n      dup1\n      iszero\n      tag_143\n      jumpi\n      returndatasize\n      0x00\n      dup1\n      returndatacopy\n      revert(0x00, returndatasize)\n    tag_143:\n      pop\n        /* \"ItemManager.sol\":1117:1165  Item item = new Item(this, itemPrice, itemIndex) */\n      swap1\n      pop\n        /* \"ItemManager.sol\":1202:1207  owner */\n      dup6\n        /* \"ItemManager.sol\":1176:1181  items */\n      0x01\n        /* \"ItemManager.sol\":1176:1192  items[itemIndex] */\n      0x00\n        /* \"ItemManager.sol\":1182:1191  itemIndex */\n      sload(0x02)\n        /* \"ItemManager.sol\":1176:1192  items[itemIndex] */\n      dup2\n      mstore\n      0x20\n      add\n      swap1\n      dup2\n      mstore\n      0x20\n      add\n      0x00\n      keccak256\n        /* \"ItemManager.sol\":1176:1199  items[itemIndex]._owner */\n      0x00\n      add\n      0x00\n        /* \"ItemManager.sol\":1176:1207  items[itemIndex]._owner = owner */\n      0x0100\n      exp\n      dup2\n      sload\n      dup2\n      0xffffffffffffffffffffffffffffffffffffffff\n      mul\n      not\n      and\n      swap1\n      dup4\n      0xffffffffffffffffffffffffffffffffffffffff\n      and\n      mul\n      or\n      swap1\n      sstore\n      pop\n        /* \"ItemManager.sol\":1243:1247  item */\n      dup1\n        /* \"ItemManager.sol\":1218:1223  items */\n      0x01\n        /* \"ItemManager.sol\":1218:1234  items[itemIndex] */\n      0x00\n        /* \"ItemManager.sol\":1224:1233  itemIndex */\n      sload(0x02)\n        /* \"ItemManager.sol\":1218:1234  items[itemIndex] */\n      dup2\n      mstore\n      0x20\n      add\n      swap1\n      dup2\n      mstore\n      0x20\n      add\n      0x00\n      keccak256\n        /* \"ItemManager.sol\":1218:1240  items[itemIndex]._item */\n      0x01\n      add\n      0x00\n        /* \"ItemManager.sol\":1218:1247  items[itemIndex]._item = item */\n      0x0100\n      exp\n      dup2\n      sload\n      dup2\n      0xffffffffffffffffffffffffffffffffffffffff\n      mul\n      not\n      and\n      swap1\n      dup4\n      0xffffffffffffffffffffffffffffffffffffffff\n      and\n      mul\n      or\n      swap1\n      sstore\n      pop\n        /* \"ItemManager.sol\":1289:1299  identifier */\n      dup5\n        /* \"ItemManager.sol\":1258:1263  items */\n      0x01\n        /* \"ItemManager.sol\":1258:1274  items[itemIndex] */\n      0x00\n        /* \"ItemManager.sol\":1264:1273  itemIndex */\n      sload(0x02)\n        /* \"ItemManager.sol\":1258:1274  items[itemIndex] */\n      dup2\n      mstore\n      0x20\n      add\n      swap1\n      dup2\n      mstore\n      0x20\n      add\n      0x00\n      keccak256\n        /* \"ItemManager.sol\":1258:1286  items[itemIndex]._identifier */\n      0x02\n      add\n        /* \"ItemManager.sol\":1258:1299  items[itemIndex]._identifier = identifier */\n      swap1\n      dup1\n      mload\n      swap1\n      0x20\n      add\n      swap1\n      tag_144\n      swap3\n      swap2\n      swap1\n      tag_87\n      jump\t// in\n    tag_144:\n      pop\n        /* \"ItemManager.sol\":1340:1349  itemPrice */\n      dup4\n        /* \"ItemManager.sol\":1310:1315  items */\n      0x01\n        /* \"ItemManager.sol\":1310:1326  items[itemIndex] */\n      0x00\n        /* \"ItemManager.sol\":1316:1325  itemIndex */\n      sload(0x02)\n        /* \"ItemManager.sol\":1310:1326  items[itemIndex] */\n      dup2\n      mstore\n      0x20\n      add\n      swap1\n      dup2\n      mstore\n      0x20\n      add\n      0x00\n      keccak256\n        /* \"ItemManager.sol\":1310:1337  items[itemIndex]._itemPrice */\n      0x03\n      add\n        /* \"ItemManager.sol\":1310:1349  items[itemIndex]._itemPrice = itemPrice */\n      dup2\n      swap1\n      sstore\n      pop\n        /* \"ItemManager.sol\":1395:1409  itemTokenPrice */\n      dup3\n        /* \"ItemManager.sol\":1360:1365  items */\n      0x01\n        /* \"ItemManager.sol\":1360:1376  items[itemIndex] */\n      0x00\n        /* \"ItemManager.sol\":1366:1375  itemIndex */\n      sload(0x02)\n        /* \"ItemManager.sol\":1360:1376  items[itemIndex] */\n      dup2\n      mstore\n      0x20\n      add\n      swap1\n      dup2\n      mstore\n      0x20\n      add\n      0x00\n      keccak256\n        /* \"ItemManager.sol\":1360:1392  items[itemIndex]._itemTokenPrice */\n      0x04\n      add\n        /* \"ItemManager.sol\":1360:1409  items[itemIndex]._itemTokenPrice = itemTokenPrice */\n      dup2\n      swap1\n      sstore\n      pop\n        /* \"ItemManager.sol\":1446:1470  SupplyChainState.Created */\n      0x00\n        /* \"ItemManager.sol\":1420:1425  items */\n      0x01\n        /* \"ItemManager.sol\":1420:1436  items[itemIndex] */\n      0x00\n        /* \"ItemManager.sol\":1426:1435  itemIndex */\n      sload(0x02)\n        /* \"ItemManager.sol\":1420:1436  items[itemIndex] */\n      dup2\n      mstore\n      0x20\n      add\n      swap1\n      dup2\n      mstore\n      0x20\n      add\n      0x00\n      keccak256\n        /* \"ItemManager.sol\":1420:1443  items[itemIndex]._state */\n      0x05\n      add\n      0x00\n        /* \"ItemManager.sol\":1420:1470  items[itemIndex]._state = SupplyChainState.Created */\n      0x0100\n      exp\n      dup2\n      sload\n      dup2\n      0xff\n      mul\n      not\n      and\n      swap1\n      dup4\n      0x02\n      dup2\n      gt\n      iszero\n      tag_145\n      jumpi\n      mstore(0x00, 0x4e487b7100000000000000000000000000000000000000000000000000000000)\n      mstore(0x04, 0x21)\n      revert(0x00, 0x24)\n    tag_145:\n      mul\n      or\n      swap1\n      sstore\n      pop\n        /* \"ItemManager.sol\":1512:1522  otherInfos */\n      dup2\n        /* \"ItemManager.sol\":1481:1486  items */\n      0x01\n        /* \"ItemManager.sol\":1481:1497  items[itemIndex] */\n      0x00\n        /* \"ItemManager.sol\":1487:1496  itemIndex */\n      sload(0x02)\n        /* \"ItemManager.sol\":1481:1497  items[itemIndex] */\n      dup2\n      mstore\n      0x20\n      add\n      swap1\n      dup2\n      mstore\n      0x20\n      add\n      0x00\n      keccak256\n        /* \"ItemManager.sol\":1481:1509  items[itemIndex]._otherInfos */\n      0x06\n      add\n        /* \"ItemManager.sol\":1481:1522  items[itemIndex]._otherInfos = otherInfos */\n      swap1\n      dup1\n      mload\n      swap1\n      0x20\n      add\n      swap1\n      tag_146\n      swap3\n      swap2\n      swap1\n      tag_87\n      jump\t// in\n    tag_146:\n      pop\n        /* \"ItemManager.sol\":1540:1690  SupplyChainStep(\r... */\n      0x04dae4d23aa86ea4452ca552b9901b80bd40c63a842232a8a7975d07a3646f01\n        /* \"ItemManager.sol\":1570:1579  itemIndex */\n      sload(0x02)\n        /* \"ItemManager.sol\":1602:1607  items */\n      0x01\n        /* \"ItemManager.sol\":1602:1618  items[itemIndex] */\n      0x00\n        /* \"ItemManager.sol\":1608:1617  itemIndex */\n      sload(0x02)\n        /* \"ItemManager.sol\":1602:1618  items[itemIndex] */\n      dup2\n      mstore\n      0x20\n      add\n      swap1\n      dup2\n      mstore\n      0x20\n      add\n      0x00\n      keccak256\n        /* \"ItemManager.sol\":1602:1625  items[itemIndex]._state */\n      0x05\n      add\n      0x00\n      swap1\n      sload\n      swap1\n      0x0100\n      exp\n      swap1\n      div\n      0xff\n      and\n        /* \"ItemManager.sol\":1594:1626  uint256(items[itemIndex]._state) */\n      0x02\n      dup2\n      gt\n      iszero\n      tag_147\n      jumpi\n      mstore(0x00, 0x4e487b7100000000000000000000000000000000000000000000000000000000)\n      mstore(0x04, 0x21)\n      revert(0x00, 0x24)\n    tag_147:\n        /* \"ItemManager.sol\":1649:1653  item */\n      dup4\n        /* \"ItemManager.sol\":1669:1679  otherInfos */\n      dup6\n        /* \"ItemManager.sol\":1540:1690  SupplyChainStep(\r... */\n      mload(0x40)\n      tag_148\n      swap5\n      swap4\n      swap3\n      swap2\n      swap1\n      tag_149\n      jump\t// in\n    tag_148:\n      mload(0x40)\n      dup1\n      swap2\n      sub\n      swap1\n      log1\n        /* \"ItemManager.sol\":1703:1712  itemIndex */\n      0x02\n      0x00\n        /* \"ItemManager.sol\":1703:1714  itemIndex++ */\n      dup2\n      sload\n      dup1\n      swap3\n      swap2\n      swap1\n      tag_150\n      swap1\n      tag_151\n      jump\t// in\n    tag_150:\n      swap2\n      swap1\n      pop\n      sstore\n      pop\n        /* \"MyOwnable.sol\":282:283  _ */\n      pop\n        /* \"ItemManager.sol\":902:1722  function createItem(\r... */\n      pop\n      pop\n      pop\n      pop\n      pop\n      jump\t// out\n        /* \"ItemManager.sol\":3463:3646  function compareStrings(string memory a, string memory b) internal pure returns (bool) {\r... */\n    tag_82:\n        /* \"ItemManager.sol\":3544:3548  bool */\n      0x00\n        /* \"ItemManager.sol\":3633:3634  b */\n      dup2\n        /* \"ItemManager.sol\":3615:3636  abi.encodePacked((b)) */\n      add(0x20, mload(0x40))\n      tag_153\n      swap2\n      swap1\n      tag_154\n      jump\t// in\n    tag_153:\n      mload(0x40)\n      0x20\n      dup2\n      dup4\n      sub\n      sub\n      dup2\n      mstore\n      swap1\n      0x40\n      mstore\n        /* \"ItemManager.sol\":3605:3637  keccak256(abi.encodePacked((b))) */\n      dup1\n      mload\n      swap1\n      0x20\n      add\n      keccak256\n        /* \"ItemManager.sol\":3597:3598  a */\n      dup4\n        /* \"ItemManager.sol\":3579:3600  abi.encodePacked((a)) */\n      add(0x20, mload(0x40))\n      tag_155\n      swap2\n      swap1\n      tag_154\n      jump\t// in\n    tag_155:\n      mload(0x40)\n      0x20\n      dup2\n      dup4\n      sub\n      sub\n      dup2\n      mstore\n      swap1\n      0x40\n      mstore\n        /* \"ItemManager.sol\":3569:3601  keccak256(abi.encodePacked((a))) */\n      dup1\n      mload\n      swap1\n      0x20\n      add\n      keccak256\n        /* \"ItemManager.sol\":3569:3637  keccak256(abi.encodePacked((a))) == keccak256(abi.encodePacked((b))) */\n      eq\n        /* \"ItemManager.sol\":3561:3638  return (keccak256(abi.encodePacked((a))) == keccak256(abi.encodePacked((b)))) */\n      swap1\n      pop\n        /* \"ItemManager.sol\":3463:3646  function compareStrings(string memory a, string memory b) internal pure returns (bool) {\r... */\n      swap3\n      swap2\n      pop\n      pop\n      jump\t// out\n    tag_50:\n      mload(0x40)\n      dup1\n      0xe0\n      add\n      0x40\n      mstore\n      dup1\n      and(0xffffffffffffffffffffffffffffffffffffffff, 0x00)\n      dup2\n      mstore\n      0x20\n      add\n      and(0xffffffffffffffffffffffffffffffffffffffff, 0x00)\n      dup2\n      mstore\n      0x20\n      add\n      0x60\n      dup2\n      mstore\n      0x20\n      add\n      0x00\n      dup2\n      mstore\n      0x20\n      add\n      0x00\n      dup2\n      mstore\n      0x20\n      add\n      0x00\n      0x02\n      dup2\n      gt\n      iszero\n      tag_156\n      jumpi\n      mstore(0x00, 0x4e487b7100000000000000000000000000000000000000000000000000000000)\n      mstore(0x04, 0x21)\n      revert(0x00, 0x24)\n    tag_156:\n      dup2\n      mstore\n      0x20\n      add\n      0x60\n      dup2\n      mstore\n      pop\n      swap1\n      jump\t// out\n    tag_87:\n      dup3\n      dup1\n      sload\n      tag_157\n      swap1\n      tag_53\n      jump\t// in\n    tag_157:\n      swap1\n      0x00\n      mstore\n      keccak256(0x00, 0x20)\n      swap1\n      0x1f\n      add\n      0x20\n      swap1\n      div\n      dup2\n      add\n      swap3\n      dup3\n      tag_159\n      jumpi\n      0x00\n      dup6\n      sstore\n      jump(tag_158)\n    tag_159:\n      dup3\n      0x1f\n      lt\n      tag_160\n      jumpi\n      dup1\n      mload\n      not(0xff)\n      and\n      dup4\n      dup1\n      add\n      or\n      dup6\n      sstore\n      jump(tag_158)\n    tag_160:\n      dup3\n      dup1\n      add\n      0x01\n      add\n      dup6\n      sstore\n      dup3\n      iszero\n      tag_158\n      jumpi\n      swap2\n      dup3\n      add\n    tag_161:\n      dup3\n      dup2\n      gt\n      iszero\n      tag_162\n      jumpi\n      dup3\n      mload\n      dup3\n      sstore\n      swap2\n      0x20\n      add\n      swap2\n      swap1\n      0x01\n      add\n      swap1\n      jump(tag_161)\n    tag_162:\n    tag_158:\n      pop\n      swap1\n      pop\n      tag_163\n      swap2\n      swap1\n      tag_164\n      jump\t// in\n    tag_163:\n      pop\n      swap1\n      jump\t// out\n    tag_140:\n      dataSize(sub_0)\n      dup1\n      dataOffset(sub_0)\n      dup4\n      codecopy\n      add\n      swap1\n      jump\t// out\n    tag_164:\n    tag_165:\n      dup1\n      dup3\n      gt\n      iszero\n      tag_166\n      jumpi\n      0x00\n      dup2\n      0x00\n      swap1\n      sstore\n      pop\n      0x01\n      add\n      jump(tag_165)\n    tag_166:\n      pop\n      swap1\n      jump\t// out\n        /* \"#utility.yul\":7:352   */\n    tag_168:\n      0x00\n        /* \"#utility.yul\":110:176   */\n      tag_170\n        /* \"#utility.yul\":126:175   */\n      tag_171\n        /* \"#utility.yul\":168:174   */\n      dup5\n        /* \"#utility.yul\":126:175   */\n      tag_172\n      jump\t// in\n    tag_171:\n        /* \"#utility.yul\":110:176   */\n      tag_173\n      jump\t// in\n    tag_170:\n        /* \"#utility.yul\":101:176   */\n      swap1\n      pop\n        /* \"#utility.yul\":199:205   */\n      dup3\n        /* \"#utility.yul\":192:197   */\n      dup2\n        /* \"#utility.yul\":185:206   */\n      mstore\n        /* \"#utility.yul\":237:241   */\n      0x20\n        /* \"#utility.yul\":230:235   */\n      dup2\n        /* \"#utility.yul\":226:242   */\n      add\n        /* \"#utility.yul\":275:278   */\n      dup5\n        /* \"#utility.yul\":266:272   */\n      dup5\n        /* \"#utility.yul\":261:264   */\n      dup5\n        /* \"#utility.yul\":257:273   */\n      add\n        /* \"#utility.yul\":254:279   */\n      gt\n        /* \"#utility.yul\":251:253   */\n      iszero\n      tag_174\n      jumpi\n        /* \"#utility.yul\":292:293   */\n      0x00\n        /* \"#utility.yul\":289:290   */\n      dup1\n        /* \"#utility.yul\":282:294   */\n      revert\n        /* \"#utility.yul\":251:253   */\n    tag_174:\n        /* \"#utility.yul\":305:346   */\n      tag_175\n        /* \"#utility.yul\":339:345   */\n      dup5\n        /* \"#utility.yul\":334:337   */\n      dup3\n        /* \"#utility.yul\":329:332   */\n      dup6\n        /* \"#utility.yul\":305:346   */\n      tag_176\n      jump\t// in\n    tag_175:\n        /* \"#utility.yul\":91:352   */\n      pop\n      swap4\n      swap3\n      pop\n      pop\n      pop\n      jump\t// out\n        /* \"#utility.yul\":358:513   */\n    tag_177:\n      0x00\n        /* \"#utility.yul\":450:456   */\n      dup2\n        /* \"#utility.yul\":437:457   */\n      calldataload\n        /* \"#utility.yul\":428:457   */\n      swap1\n      pop\n        /* \"#utility.yul\":466:507   */\n      tag_179\n        /* \"#utility.yul\":501:506   */\n      dup2\n        /* \"#utility.yul\":466:507   */\n      tag_180\n      jump\t// in\n    tag_179:\n        /* \"#utility.yul\":418:513   */\n      swap3\n      swap2\n      pop\n      pop\n      jump\t// out\n        /* \"#utility.yul\":533:806   */\n    tag_181:\n      0x00\n        /* \"#utility.yul\":638:641   */\n      dup3\n        /* \"#utility.yul\":631:635   */\n      0x1f\n        /* \"#utility.yul\":623:629   */\n      dup4\n        /* \"#utility.yul\":619:636   */\n      add\n        /* \"#utility.yul\":615:642   */\n      slt\n        /* \"#utility.yul\":605:607   */\n      tag_183\n      jumpi\n        /* \"#utility.yul\":656:657   */\n      0x00\n        /* \"#utility.yul\":653:654   */\n      dup1\n        /* \"#utility.yul\":646:658   */\n      revert\n        /* \"#utility.yul\":605:607   */\n    tag_183:\n        /* \"#utility.yul\":696:702   */\n      dup2\n        /* \"#utility.yul\":683:703   */\n      calldataload\n        /* \"#utility.yul\":721:800   */\n      tag_184\n        /* \"#utility.yul\":796:799   */\n      dup5\n        /* \"#utility.yul\":788:794   */\n      dup3\n        /* \"#utility.yul\":781:785   */\n      0x20\n        /* \"#utility.yul\":773:779   */\n      dup7\n        /* \"#utility.yul\":769:786   */\n      add\n        /* \"#utility.yul\":721:800   */\n      tag_168\n      jump\t// in\n    tag_184:\n        /* \"#utility.yul\":712:800   */\n      swap2\n      pop\n        /* \"#utility.yul\":595:806   */\n      pop\n      swap3\n      swap2\n      pop\n      pop\n      jump\t// out\n        /* \"#utility.yul\":812:951   */\n    tag_185:\n      0x00\n        /* \"#utility.yul\":896:902   */\n      dup2\n        /* \"#utility.yul\":883:903   */\n      calldataload\n        /* \"#utility.yul\":874:903   */\n      swap1\n      pop\n        /* \"#utility.yul\":912:945   */\n      tag_187\n        /* \"#utility.yul\":939:944   */\n      dup2\n        /* \"#utility.yul\":912:945   */\n      tag_188\n      jump\t// in\n    tag_187:\n        /* \"#utility.yul\":864:951   */\n      swap3\n      swap2\n      pop\n      pop\n      jump\t// out\n        /* \"#utility.yul\":957:2043   */\n    tag_47:\n      0x00\n      dup1\n      0x00\n      dup1\n      0x00\n        /* \"#utility.yul\":1161:1164   */\n      0xa0\n        /* \"#utility.yul\":1149:1158   */\n      dup7\n        /* \"#utility.yul\":1140:1147   */\n      dup9\n        /* \"#utility.yul\":1136:1159   */\n      sub\n        /* \"#utility.yul\":1132:1165   */\n      slt\n        /* \"#utility.yul\":1129:1131   */\n      iszero\n      tag_190\n      jumpi\n        /* \"#utility.yul\":1178:1179   */\n      0x00\n        /* \"#utility.yul\":1175:1176   */\n      dup1\n        /* \"#utility.yul\":1168:1180   */\n      revert\n        /* \"#utility.yul\":1129:1131   */\n    tag_190:\n        /* \"#utility.yul\":1221:1222   */\n      0x00\n        /* \"#utility.yul\":1246:1307   */\n      tag_191\n        /* \"#utility.yul\":1299:1306   */\n      dup9\n        /* \"#utility.yul\":1290:1296   */\n      dup3\n        /* \"#utility.yul\":1279:1288   */\n      dup10\n        /* \"#utility.yul\":1275:1297   */\n      add\n        /* \"#utility.yul\":1246:1307   */\n      tag_177\n      jump\t// in\n    tag_191:\n        /* \"#utility.yul\":1236:1307   */\n      swap6\n      pop\n        /* \"#utility.yul\":1192:1317   */\n      pop\n        /* \"#utility.yul\":1384:1386   */\n      0x20\n        /* \"#utility.yul\":1373:1382   */\n      dup7\n        /* \"#utility.yul\":1369:1387   */\n      add\n        /* \"#utility.yul\":1356:1388   */\n      calldataload\n        /* \"#utility.yul\":1415:1433   */\n      0xffffffffffffffff\n        /* \"#utility.yul\":1407:1413   */\n      dup2\n        /* \"#utility.yul\":1404:1434   */\n      gt\n        /* \"#utility.yul\":1401:1403   */\n      iszero\n      tag_192\n      jumpi\n        /* \"#utility.yul\":1447:1448   */\n      0x00\n        /* \"#utility.yul\":1444:1445   */\n      dup1\n        /* \"#utility.yul\":1437:1449   */\n      revert\n        /* \"#utility.yul\":1401:1403   */\n    tag_192:\n        /* \"#utility.yul\":1475:1538   */\n      tag_193\n        /* \"#utility.yul\":1530:1537   */\n      dup9\n        /* \"#utility.yul\":1521:1527   */\n      dup3\n        /* \"#utility.yul\":1510:1519   */\n      dup10\n        /* \"#utility.yul\":1506:1528   */\n      add\n        /* \"#utility.yul\":1475:1538   */\n      tag_181\n      jump\t// in\n    tag_193:\n        /* \"#utility.yul\":1465:1538   */\n      swap5\n      pop\n        /* \"#utility.yul\":1327:1548   */\n      pop\n        /* \"#utility.yul\":1587:1589   */\n      0x40\n        /* \"#utility.yul\":1613:1666   */\n      tag_194\n        /* \"#utility.yul\":1658:1665   */\n      dup9\n        /* \"#utility.yul\":1649:1655   */\n      dup3\n        /* \"#utility.yul\":1638:1647   */\n      dup10\n        /* \"#utility.yul\":1634:1656   */\n      add\n        /* \"#utility.yul\":1613:1666   */\n      tag_185\n      jump\t// in\n    tag_194:\n        /* \"#utility.yul\":1603:1666   */\n      swap4\n      pop\n        /* \"#utility.yul\":1558:1676   */\n      pop\n        /* \"#utility.yul\":1715:1717   */\n      0x60\n        /* \"#utility.yul\":1741:1794   */\n      tag_195\n        /* \"#utility.yul\":1786:1793   */\n      dup9\n        /* \"#utility.yul\":1777:1783   */\n      dup3\n        /* \"#utility.yul\":1766:1775   */\n      dup10\n        /* \"#utility.yul\":1762:1784   */\n      add\n        /* \"#utility.yul\":1741:1794   */\n      tag_185\n      jump\t// in\n    tag_195:\n        /* \"#utility.yul\":1731:1794   */\n      swap3\n      pop\n        /* \"#utility.yul\":1686:1804   */\n      pop\n        /* \"#utility.yul\":1871:1874   */\n      0x80\n        /* \"#utility.yul\":1860:1869   */\n      dup7\n        /* \"#utility.yul\":1856:1875   */\n      add\n        /* \"#utility.yul\":1843:1876   */\n      calldataload\n        /* \"#utility.yul\":1903:1921   */\n      0xffffffffffffffff\n        /* \"#utility.yul\":1895:1901   */\n      dup2\n        /* \"#utility.yul\":1892:1922   */\n      gt\n        /* \"#utility.yul\":1889:1891   */\n      iszero\n      tag_196\n      jumpi\n        /* \"#utility.yul\":1935:1936   */\n      0x00\n        /* \"#utility.yul\":1932:1933   */\n      dup1\n        /* \"#utility.yul\":1925:1937   */\n      revert\n        /* \"#utility.yul\":1889:1891   */\n    tag_196:\n        /* \"#utility.yul\":1963:2026   */\n      tag_197\n        /* \"#utility.yul\":2018:2025   */\n      dup9\n        /* \"#utility.yul\":2009:2015   */\n      dup3\n        /* \"#utility.yul\":1998:2007   */\n      dup10\n        /* \"#utility.yul\":1994:2016   */\n      add\n        /* \"#utility.yul\":1963:2026   */\n      tag_181\n      jump\t// in\n    tag_197:\n        /* \"#utility.yul\":1953:2026   */\n      swap2\n      pop\n        /* \"#utility.yul\":1814:2036   */\n      pop\n        /* \"#utility.yul\":1119:2043   */\n      swap3\n      swap6\n      pop\n      swap3\n      swap6\n      swap1\n      swap4\n      pop\n      jump\t// out\n        /* \"#utility.yul\":2049:2311   */\n    tag_14:\n      0x00\n        /* \"#utility.yul\":2157:2159   */\n      0x20\n        /* \"#utility.yul\":2145:2154   */\n      dup3\n        /* \"#utility.yul\":2136:2143   */\n      dup5\n        /* \"#utility.yul\":2132:2155   */\n      sub\n        /* \"#utility.yul\":2128:2160   */\n      slt\n        /* \"#utility.yul\":2125:2127   */\n      iszero\n      tag_199\n      jumpi\n        /* \"#utility.yul\":2173:2174   */\n      0x00\n        /* \"#utility.yul\":2170:2171   */\n      dup1\n        /* \"#utility.yul\":2163:2175   */\n      revert\n        /* \"#utility.yul\":2125:2127   */\n    tag_199:\n        /* \"#utility.yul\":2216:2217   */\n      0x00\n        /* \"#utility.yul\":2241:2294   */\n      tag_200\n        /* \"#utility.yul\":2286:2293   */\n      dup5\n        /* \"#utility.yul\":2277:2283   */\n      dup3\n        /* \"#utility.yul\":2266:2275   */\n      dup6\n        /* \"#utility.yul\":2262:2284   */\n      add\n        /* \"#utility.yul\":2241:2294   */\n      tag_185\n      jump\t// in\n    tag_200:\n        /* \"#utility.yul\":2231:2294   */\n      swap2\n      pop\n        /* \"#utility.yul\":2187:2304   */\n      pop\n        /* \"#utility.yul\":2115:2311   */\n      swap3\n      swap2\n      pop\n      pop\n      jump\t// out\n        /* \"#utility.yul\":2317:2837   */\n    tag_21:\n      0x00\n      dup1\n        /* \"#utility.yul\":2452:2454   */\n      0x40\n        /* \"#utility.yul\":2440:2449   */\n      dup4\n        /* \"#utility.yul\":2431:2438   */\n      dup6\n        /* \"#utility.yul\":2427:2450   */\n      sub\n        /* \"#utility.yul\":2423:2455   */\n      slt\n        /* \"#utility.yul\":2420:2422   */\n      iszero\n      tag_202\n      jumpi\n        /* \"#utility.yul\":2468:2469   */\n      0x00\n        /* \"#utility.yul\":2465:2466   */\n      dup1\n        /* \"#utility.yul\":2458:2470   */\n      revert\n        /* \"#utility.yul\":2420:2422   */\n    tag_202:\n        /* \"#utility.yul\":2511:2512   */\n      0x00\n        /* \"#utility.yul\":2536:2589   */\n      tag_203\n        /* \"#utility.yul\":2581:2588   */\n      dup6\n        /* \"#utility.yul\":2572:2578   */\n      dup3\n        /* \"#utility.yul\":2561:2570   */\n      dup7\n        /* \"#utility.yul\":2557:2579   */\n      add\n        /* \"#utility.yul\":2536:2589   */\n      tag_185\n      jump\t// in\n    tag_203:\n        /* \"#utility.yul\":2526:2589   */\n      swap3\n      pop\n        /* \"#utility.yul\":2482:2599   */\n      pop\n        /* \"#utility.yul\":2666:2668   */\n      0x20\n        /* \"#utility.yul\":2655:2664   */\n      dup4\n        /* \"#utility.yul\":2651:2669   */\n      add\n        /* \"#utility.yul\":2638:2670   */\n      calldataload\n        /* \"#utility.yul\":2697:2715   */\n      0xffffffffffffffff\n        /* \"#utility.yul\":2689:2695   */\n      dup2\n        /* \"#utility.yul\":2686:2716   */\n      gt\n        /* \"#utility.yul\":2683:2685   */\n      iszero\n      tag_204\n      jumpi\n        /* \"#utility.yul\":2729:2730   */\n      0x00\n        /* \"#utility.yul\":2726:2727   */\n      dup1\n        /* \"#utility.yul\":2719:2731   */\n      revert\n        /* \"#utility.yul\":2683:2685   */\n    tag_204:\n        /* \"#utility.yul\":2757:2820   */\n      tag_205\n        /* \"#utility.yul\":2812:2819   */\n      dup6\n        /* \"#utility.yul\":2803:2809   */\n      dup3\n        /* \"#utility.yul\":2792:2801   */\n      dup7\n        /* \"#utility.yul\":2788:2810   */\n      add\n        /* \"#utility.yul\":2757:2820   */\n      tag_181\n      jump\t// in\n    tag_205:\n        /* \"#utility.yul\":2747:2820   */\n      swap2\n      pop\n        /* \"#utility.yul\":2609:2830   */\n      pop\n        /* \"#utility.yul\":2410:2837   */\n      swap3\n      pop\n      swap3\n      swap1\n      pop\n      jump\t// out\n        /* \"#utility.yul\":2843:2975   */\n    tag_206:\n        /* \"#utility.yul\":2936:2968   */\n      tag_208\n        /* \"#utility.yul\":2962:2967   */\n      dup2\n        /* \"#utility.yul\":2936:2968   */\n      tag_209\n      jump\t// in\n    tag_208:\n        /* \"#utility.yul\":2931:2934   */\n      dup3\n        /* \"#utility.yul\":2924:2969   */\n      mstore\n        /* \"#utility.yul\":2914:2975   */\n      pop\n      pop\n      jump\t// out\n        /* \"#utility.yul\":2981:3123   */\n    tag_210:\n        /* \"#utility.yul\":3084:3116   */\n      tag_212\n        /* \"#utility.yul\":3110:3115   */\n      dup2\n        /* \"#utility.yul\":3084:3116   */\n      tag_209\n      jump\t// in\n    tag_212:\n        /* \"#utility.yul\":3079:3082   */\n      dup3\n        /* \"#utility.yul\":3072:3117   */\n      mstore\n        /* \"#utility.yul\":3062:3123   */\n      pop\n      pop\n      jump\t// out\n        /* \"#utility.yul\":3129:3247   */\n    tag_213:\n        /* \"#utility.yul\":3216:3240   */\n      tag_215\n        /* \"#utility.yul\":3234:3239   */\n      dup2\n        /* \"#utility.yul\":3216:3240   */\n      tag_216\n      jump\t// in\n    tag_215:\n        /* \"#utility.yul\":3211:3214   */\n      dup3\n        /* \"#utility.yul\":3204:3241   */\n      mstore\n        /* \"#utility.yul\":3194:3247   */\n      pop\n      pop\n      jump\t// out\n        /* \"#utility.yul\":3253:3362   */\n    tag_217:\n        /* \"#utility.yul\":3334:3355   */\n      tag_219\n        /* \"#utility.yul\":3349:3354   */\n      dup2\n        /* \"#utility.yul\":3334:3355   */\n      tag_220\n      jump\t// in\n    tag_219:\n        /* \"#utility.yul\":3329:3332   */\n      dup3\n        /* \"#utility.yul\":3322:3356   */\n      mstore\n        /* \"#utility.yul\":3312:3362   */\n      pop\n      pop\n      jump\t// out\n        /* \"#utility.yul\":3368:3537   */\n    tag_221:\n        /* \"#utility.yul\":3474:3530   */\n      tag_223\n        /* \"#utility.yul\":3524:3529   */\n      dup2\n        /* \"#utility.yul\":3474:3530   */\n      tag_224\n      jump\t// in\n    tag_223:\n        /* \"#utility.yul\":3469:3472   */\n      dup3\n        /* \"#utility.yul\":3462:3531   */\n      mstore\n        /* \"#utility.yul\":3452:3537   */\n      pop\n      pop\n      jump\t// out\n        /* \"#utility.yul\":3543:3702   */\n    tag_225:\n        /* \"#utility.yul\":3639:3695   */\n      tag_227\n        /* \"#utility.yul\":3689:3694   */\n      dup2\n        /* \"#utility.yul\":3639:3695   */\n      tag_228\n      jump\t// in\n    tag_227:\n        /* \"#utility.yul\":3634:3637   */\n      dup3\n        /* \"#utility.yul\":3627:3696   */\n      mstore\n        /* \"#utility.yul\":3617:3702   */\n      pop\n      pop\n      jump\t// out\n        /* \"#utility.yul\":3708:3877   */\n    tag_229:\n        /* \"#utility.yul\":3814:3870   */\n      tag_231\n        /* \"#utility.yul\":3864:3869   */\n      dup2\n        /* \"#utility.yul\":3814:3870   */\n      tag_228\n      jump\t// in\n    tag_231:\n        /* \"#utility.yul\":3809:3812   */\n      dup3\n        /* \"#utility.yul\":3802:3871   */\n      mstore\n        /* \"#utility.yul\":3792:3877   */\n      pop\n      pop\n      jump\t// out\n        /* \"#utility.yul\":3883:4038   */\n    tag_232:\n        /* \"#utility.yul\":3977:4031   */\n      tag_234\n        /* \"#utility.yul\":4025:4030   */\n      dup2\n        /* \"#utility.yul\":3977:4031   */\n      tag_235\n      jump\t// in\n    tag_234:\n        /* \"#utility.yul\":3972:3975   */\n      dup3\n        /* \"#utility.yul\":3965:4032   */\n      mstore\n        /* \"#utility.yul\":3955:4038   */\n      pop\n      pop\n      jump\t// out\n        /* \"#utility.yul\":4044:4209   */\n    tag_236:\n        /* \"#utility.yul\":4148:4202   */\n      tag_238\n        /* \"#utility.yul\":4196:4201   */\n      dup2\n        /* \"#utility.yul\":4148:4202   */\n      tag_235\n      jump\t// in\n    tag_238:\n        /* \"#utility.yul\":4143:4146   */\n      dup3\n        /* \"#utility.yul\":4136:4203   */\n      mstore\n        /* \"#utility.yul\":4126:4209   */\n      pop\n      pop\n      jump\t// out\n        /* \"#utility.yul\":4215:4559   */\n    tag_239:\n      0x00\n        /* \"#utility.yul\":4321:4360   */\n      tag_241\n        /* \"#utility.yul\":4354:4359   */\n      dup3\n        /* \"#utility.yul\":4321:4360   */\n      tag_242\n      jump\t// in\n    tag_241:\n        /* \"#utility.yul\":4376:4437   */\n      tag_243\n        /* \"#utility.yul\":4430:4436   */\n      dup2\n        /* \"#utility.yul\":4425:4428   */\n      dup6\n        /* \"#utility.yul\":4376:4437   */\n      tag_244\n      jump\t// in\n    tag_243:\n        /* \"#utility.yul\":4369:4437   */\n      swap4\n      pop\n        /* \"#utility.yul\":4446:4498   */\n      tag_245\n        /* \"#utility.yul\":4491:4497   */\n      dup2\n        /* \"#utility.yul\":4486:4489   */\n      dup6\n        /* \"#utility.yul\":4479:4483   */\n      0x20\n        /* \"#utility.yul\":4472:4477   */\n      dup7\n        /* \"#utility.yul\":4468:4484   */\n      add\n        /* \"#utility.yul\":4446:4498   */\n      tag_246\n      jump\t// in\n    tag_245:\n        /* \"#utility.yul\":4523:4552   */\n      tag_247\n        /* \"#utility.yul\":4545:4551   */\n      dup2\n        /* \"#utility.yul\":4523:4552   */\n      tag_248\n      jump\t// in\n    tag_247:\n        /* \"#utility.yul\":4518:4521   */\n      dup5\n        /* \"#utility.yul\":4514:4553   */\n      add\n        /* \"#utility.yul\":4507:4553   */\n      swap2\n      pop\n        /* \"#utility.yul\":4297:4559   */\n      pop\n      swap3\n      swap2\n      pop\n      pop\n      jump\t// out\n        /* \"#utility.yul\":4565:4929   */\n    tag_249:\n      0x00\n        /* \"#utility.yul\":4681:4720   */\n      tag_251\n        /* \"#utility.yul\":4714:4719   */\n      dup3\n        /* \"#utility.yul\":4681:4720   */\n      tag_242\n      jump\t// in\n    tag_251:\n        /* \"#utility.yul\":4736:4807   */\n      tag_252\n        /* \"#utility.yul\":4800:4806   */\n      dup2\n        /* \"#utility.yul\":4795:4798   */\n      dup6\n        /* \"#utility.yul\":4736:4807   */\n      tag_253\n      jump\t// in\n    tag_252:\n        /* \"#utility.yul\":4729:4807   */\n      swap4\n      pop\n        /* \"#utility.yul\":4816:4868   */\n      tag_254\n        /* \"#utility.yul\":4861:4867   */\n      dup2\n        /* \"#utility.yul\":4856:4859   */\n      dup6\n        /* \"#utility.yul\":4849:4853   */\n      0x20\n        /* \"#utility.yul\":4842:4847   */\n      dup7\n        /* \"#utility.yul\":4838:4854   */\n      add\n        /* \"#utility.yul\":4816:4868   */\n      tag_246\n      jump\t// in\n    tag_254:\n        /* \"#utility.yul\":4893:4922   */\n      tag_255\n        /* \"#utility.yul\":4915:4921   */\n      dup2\n        /* \"#utility.yul\":4893:4922   */\n      tag_248\n      jump\t// in\n    tag_255:\n        /* \"#utility.yul\":4888:4891   */\n      dup5\n        /* \"#utility.yul\":4884:4923   */\n      add\n        /* \"#utility.yul\":4877:4923   */\n      swap2\n      pop\n        /* \"#utility.yul\":4657:4929   */\n      pop\n      swap3\n      swap2\n      pop\n      pop\n      jump\t// out\n        /* \"#utility.yul\":4935:5312   */\n    tag_256:\n      0x00\n        /* \"#utility.yul\":5069:5108   */\n      tag_258\n        /* \"#utility.yul\":5102:5107   */\n      dup3\n        /* \"#utility.yul\":5069:5108   */\n      tag_242\n      jump\t// in\n    tag_258:\n        /* \"#utility.yul\":5124:5213   */\n      tag_259\n        /* \"#utility.yul\":5206:5212   */\n      dup2\n        /* \"#utility.yul\":5201:5204   */\n      dup6\n        /* \"#utility.yul\":5124:5213   */\n      tag_260\n      jump\t// in\n    tag_259:\n        /* \"#utility.yul\":5117:5213   */\n      swap4\n      pop\n        /* \"#utility.yul\":5222:5274   */\n      tag_261\n        /* \"#utility.yul\":5267:5273   */\n      dup2\n        /* \"#utility.yul\":5262:5265   */\n      dup6\n        /* \"#utility.yul\":5255:5259   */\n      0x20\n        /* \"#utility.yul\":5248:5253   */\n      dup7\n        /* \"#utility.yul\":5244:5260   */\n      add\n        /* \"#utility.yul\":5222:5274   */\n      tag_246\n      jump\t// in\n    tag_261:\n        /* \"#utility.yul\":5299:5305   */\n      dup1\n        /* \"#utility.yul\":5294:5297   */\n      dup5\n        /* \"#utility.yul\":5290:5306   */\n      add\n        /* \"#utility.yul\":5283:5306   */\n      swap2\n      pop\n        /* \"#utility.yul\":5045:5312   */\n      pop\n      swap3\n      swap2\n      pop\n      pop\n      jump\t// out\n        /* \"#utility.yul\":5342:6144   */\n    tag_262:\n      0x00\n        /* \"#utility.yul\":5464:5469   */\n      dup2\n        /* \"#utility.yul\":5458:5470   */\n      sload\n        /* \"#utility.yul\":5493:5529   */\n      tag_264\n        /* \"#utility.yul\":5519:5528   */\n      dup2\n        /* \"#utility.yul\":5493:5529   */\n      tag_53\n      jump\t// in\n    tag_264:\n        /* \"#utility.yul\":5545:5616   */\n      tag_265\n        /* \"#utility.yul\":5609:5615   */\n      dup2\n        /* \"#utility.yul\":5604:5607   */\n      dup7\n        /* \"#utility.yul\":5545:5616   */\n      tag_253\n      jump\t// in\n    tag_265:\n        /* \"#utility.yul\":5538:5616   */\n      swap5\n      pop\n        /* \"#utility.yul\":5647:5648   */\n      0x01\n        /* \"#utility.yul\":5636:5645   */\n      dup3\n        /* \"#utility.yul\":5632:5649   */\n      and\n        /* \"#utility.yul\":5663:5664   */\n      0x00\n        /* \"#utility.yul\":5658:5793   */\n      dup2\n      eq\n      tag_267\n      jumpi\n        /* \"#utility.yul\":5807:5808   */\n      0x01\n        /* \"#utility.yul\":5802:6138   */\n      dup2\n      eq\n      tag_268\n      jumpi\n        /* \"#utility.yul\":5625:6138   */\n      jump(tag_266)\n        /* \"#utility.yul\":5658:5793   */\n    tag_267:\n        /* \"#utility.yul\":5742:5746   */\n      0xff\n        /* \"#utility.yul\":5738:5747   */\n      not\n        /* \"#utility.yul\":5727:5736   */\n      dup4\n        /* \"#utility.yul\":5723:5748   */\n      and\n        /* \"#utility.yul\":5718:5721   */\n      dup7\n        /* \"#utility.yul\":5711:5749   */\n      mstore\n        /* \"#utility.yul\":5778:5782   */\n      0x20\n        /* \"#utility.yul\":5773:5776   */\n      dup7\n        /* \"#utility.yul\":5769:5783   */\n      add\n        /* \"#utility.yul\":5762:5783   */\n      swap4\n      pop\n        /* \"#utility.yul\":5658:5793   */\n      jump(tag_266)\n        /* \"#utility.yul\":5802:6138   */\n    tag_268:\n        /* \"#utility.yul\":5869:5907   */\n      tag_269\n        /* \"#utility.yul\":5901:5906   */\n      dup6\n        /* \"#utility.yul\":5869:5907   */\n      tag_270\n      jump\t// in\n    tag_269:\n        /* \"#utility.yul\":5929:5930   */\n      0x00\n        /* \"#utility.yul\":5943:6097   */\n    tag_271:\n        /* \"#utility.yul\":5957:5963   */\n      dup4\n        /* \"#utility.yul\":5954:5955   */\n      dup2\n        /* \"#utility.yul\":5951:5964   */\n      lt\n        /* \"#utility.yul\":5943:6097   */\n      iszero\n      tag_273\n      jumpi\n        /* \"#utility.yul\":6031:6038   */\n      dup2\n        /* \"#utility.yul\":6025:6039   */\n      sload\n        /* \"#utility.yul\":6021:6022   */\n      dup2\n        /* \"#utility.yul\":6016:6019   */\n      dup10\n        /* \"#utility.yul\":6012:6023   */\n      add\n        /* \"#utility.yul\":6005:6040   */\n      mstore\n        /* \"#utility.yul\":6081:6082   */\n      0x01\n        /* \"#utility.yul\":6072:6079   */\n      dup3\n        /* \"#utility.yul\":6068:6083   */\n      add\n        /* \"#utility.yul\":6057:6083   */\n      swap2\n      pop\n        /* \"#utility.yul\":5979:5983   */\n      0x20\n        /* \"#utility.yul\":5976:5977   */\n      dup2\n        /* \"#utility.yul\":5972:5984   */\n      add\n        /* \"#utility.yul\":5967:5984   */\n      swap1\n      pop\n        /* \"#utility.yul\":5943:6097   */\n      jump(tag_271)\n    tag_273:\n        /* \"#utility.yul\":6126:6127   */\n      dup1\n        /* \"#utility.yul\":6121:6124   */\n      dup9\n        /* \"#utility.yul\":6117:6128   */\n      add\n        /* \"#utility.yul\":6110:6128   */\n      swap6\n      pop\n        /* \"#utility.yul\":5809:6138   */\n      pop\n      pop\n        /* \"#utility.yul\":5625:6138   */\n    tag_266:\n      pop\n        /* \"#utility.yul\":5431:6144   */\n      pop\n      pop\n      swap3\n      swap2\n      pop\n      pop\n      jump\t// out\n        /* \"#utility.yul\":6150:6516   */\n    tag_274:\n      0x00\n        /* \"#utility.yul\":6313:6380   */\n      tag_276\n        /* \"#utility.yul\":6377:6379   */\n      0x1d\n        /* \"#utility.yul\":6372:6375   */\n      dup4\n        /* \"#utility.yul\":6313:6380   */\n      tag_253\n      jump\t// in\n    tag_276:\n        /* \"#utility.yul\":6306:6380   */\n      swap2\n      pop\n        /* \"#utility.yul\":6389:6482   */\n      tag_277\n        /* \"#utility.yul\":6478:6481   */\n      dup3\n        /* \"#utility.yul\":6389:6482   */\n      tag_278\n      jump\t// in\n    tag_277:\n        /* \"#utility.yul\":6507:6509   */\n      0x20\n        /* \"#utility.yul\":6502:6505   */\n      dup3\n        /* \"#utility.yul\":6498:6510   */\n      add\n        /* \"#utility.yul\":6491:6510   */\n      swap1\n      pop\n        /* \"#utility.yul\":6296:6516   */\n      swap2\n      swap1\n      pop\n      jump\t// out\n        /* \"#utility.yul\":6522:6888   */\n    tag_279:\n      0x00\n        /* \"#utility.yul\":6685:6752   */\n      tag_281\n        /* \"#utility.yul\":6749:6751   */\n      0x15\n        /* \"#utility.yul\":6744:6747   */\n      dup4\n        /* \"#utility.yul\":6685:6752   */\n      tag_253\n      jump\t// in\n    tag_281:\n        /* \"#utility.yul\":6678:6752   */\n      swap2\n      pop\n        /* \"#utility.yul\":6761:6854   */\n      tag_282\n        /* \"#utility.yul\":6850:6853   */\n      dup3\n        /* \"#utility.yul\":6761:6854   */\n      tag_283\n      jump\t// in\n    tag_282:\n        /* \"#utility.yul\":6879:6881   */\n      0x20\n        /* \"#utility.yul\":6874:6877   */\n      dup3\n        /* \"#utility.yul\":6870:6882   */\n      add\n        /* \"#utility.yul\":6863:6882   */\n      swap1\n      pop\n        /* \"#utility.yul\":6668:6888   */\n      swap2\n      swap1\n      pop\n      jump\t// out\n        /* \"#utility.yul\":6894:7260   */\n    tag_284:\n      0x00\n        /* \"#utility.yul\":7057:7124   */\n      tag_286\n        /* \"#utility.yul\":7121:7123   */\n      0x1d\n        /* \"#utility.yul\":7116:7119   */\n      dup4\n        /* \"#utility.yul\":7057:7124   */\n      tag_253\n      jump\t// in\n    tag_286:\n        /* \"#utility.yul\":7050:7124   */\n      swap2\n      pop\n        /* \"#utility.yul\":7133:7226   */\n      tag_287\n        /* \"#utility.yul\":7222:7225   */\n      dup3\n        /* \"#utility.yul\":7133:7226   */\n      tag_288\n      jump\t// in\n    tag_287:\n        /* \"#utility.yul\":7251:7253   */\n      0x20\n        /* \"#utility.yul\":7246:7249   */\n      dup3\n        /* \"#utility.yul\":7242:7254   */\n      add\n        /* \"#utility.yul\":7235:7254   */\n      swap1\n      pop\n        /* \"#utility.yul\":7040:7260   */\n      swap2\n      swap1\n      pop\n      jump\t// out\n        /* \"#utility.yul\":7266:7632   */\n    tag_289:\n      0x00\n        /* \"#utility.yul\":7429:7496   */\n      tag_291\n        /* \"#utility.yul\":7493:7495   */\n      0x19\n        /* \"#utility.yul\":7488:7491   */\n      dup4\n        /* \"#utility.yul\":7429:7496   */\n      tag_253\n      jump\t// in\n    tag_291:\n        /* \"#utility.yul\":7422:7496   */\n      swap2\n      pop\n        /* \"#utility.yul\":7505:7598   */\n      tag_292\n        /* \"#utility.yul\":7594:7597   */\n      dup3\n        /* \"#utility.yul\":7505:7598   */\n      tag_293\n      jump\t// in\n    tag_292:\n        /* \"#utility.yul\":7623:7625   */\n      0x20\n        /* \"#utility.yul\":7618:7621   */\n      dup3\n        /* \"#utility.yul\":7614:7626   */\n      add\n        /* \"#utility.yul\":7607:7626   */\n      swap1\n      pop\n        /* \"#utility.yul\":7412:7632   */\n      swap2\n      swap1\n      pop\n      jump\t// out\n        /* \"#utility.yul\":7638:8004   */\n    tag_294:\n      0x00\n        /* \"#utility.yul\":7801:7868   */\n      tag_296\n        /* \"#utility.yul\":7865:7867   */\n      0x1c\n        /* \"#utility.yul\":7860:7863   */\n      dup4\n        /* \"#utility.yul\":7801:7868   */\n      tag_253\n      jump\t// in\n    tag_296:\n        /* \"#utility.yul\":7794:7868   */\n      swap2\n      pop\n        /* \"#utility.yul\":7877:7970   */\n      tag_297\n        /* \"#utility.yul\":7966:7969   */\n      dup3\n        /* \"#utility.yul\":7877:7970   */\n      tag_298\n      jump\t// in\n    tag_297:\n        /* \"#utility.yul\":7995:7997   */\n      0x20\n        /* \"#utility.yul\":7990:7993   */\n      dup3\n        /* \"#utility.yul\":7986:7998   */\n      add\n        /* \"#utility.yul\":7979:7998   */\n      swap1\n      pop\n        /* \"#utility.yul\":7784:8004   */\n      swap2\n      swap1\n      pop\n      jump\t// out\n        /* \"#utility.yul\":8072:9703   */\n    tag_299:\n      0x00\n        /* \"#utility.yul\":8223:8227   */\n      0xe0\n        /* \"#utility.yul\":8218:8221   */\n      dup4\n        /* \"#utility.yul\":8214:8228   */\n      add\n        /* \"#utility.yul\":8312:8316   */\n      0x00\n        /* \"#utility.yul\":8305:8310   */\n      dup4\n        /* \"#utility.yul\":8301:8317   */\n      add\n        /* \"#utility.yul\":8295:8318   */\n      mload\n        /* \"#utility.yul\":8331:8410   */\n      tag_301\n        /* \"#utility.yul\":8404:8408   */\n      0x00\n        /* \"#utility.yul\":8399:8402   */\n      dup7\n        /* \"#utility.yul\":8395:8409   */\n      add\n        /* \"#utility.yul\":8381:8393   */\n      dup3\n        /* \"#utility.yul\":8331:8410   */\n      tag_206\n      jump\t// in\n    tag_301:\n        /* \"#utility.yul\":8238:8420   */\n      pop\n        /* \"#utility.yul\":8503:8507   */\n      0x20\n        /* \"#utility.yul\":8496:8501   */\n      dup4\n        /* \"#utility.yul\":8492:8508   */\n      add\n        /* \"#utility.yul\":8486:8509   */\n      mload\n        /* \"#utility.yul\":8522:8604   */\n      tag_302\n        /* \"#utility.yul\":8598:8602   */\n      0x20\n        /* \"#utility.yul\":8593:8596   */\n      dup7\n        /* \"#utility.yul\":8589:8603   */\n      add\n        /* \"#utility.yul\":8575:8587   */\n      dup3\n        /* \"#utility.yul\":8522:8604   */\n      tag_225\n      jump\t// in\n    tag_302:\n        /* \"#utility.yul\":8430:8614   */\n      pop\n        /* \"#utility.yul\":8703:8707   */\n      0x40\n        /* \"#utility.yul\":8696:8701   */\n      dup4\n        /* \"#utility.yul\":8692:8708   */\n      add\n        /* \"#utility.yul\":8686:8709   */\n      mload\n        /* \"#utility.yul\":8756:8759   */\n      dup5\n        /* \"#utility.yul\":8750:8754   */\n      dup3\n        /* \"#utility.yul\":8746:8760   */\n      sub\n        /* \"#utility.yul\":8739:8743   */\n      0x40\n        /* \"#utility.yul\":8734:8737   */\n      dup7\n        /* \"#utility.yul\":8730:8744   */\n      add\n        /* \"#utility.yul\":8723:8761   */\n      mstore\n        /* \"#utility.yul\":8782:8855   */\n      tag_303\n        /* \"#utility.yul\":8850:8854   */\n      dup3\n        /* \"#utility.yul\":8836:8848   */\n      dup3\n        /* \"#utility.yul\":8782:8855   */\n      tag_239\n      jump\t// in\n    tag_303:\n        /* \"#utility.yul\":8774:8855   */\n      swap2\n      pop\n        /* \"#utility.yul\":8624:8866   */\n      pop\n        /* \"#utility.yul\":8954:8958   */\n      0x60\n        /* \"#utility.yul\":8947:8952   */\n      dup4\n        /* \"#utility.yul\":8943:8959   */\n      add\n        /* \"#utility.yul\":8937:8960   */\n      mload\n        /* \"#utility.yul\":8973:9036   */\n      tag_304\n        /* \"#utility.yul\":9030:9034   */\n      0x60\n        /* \"#utility.yul\":9025:9028   */\n      dup7\n        /* \"#utility.yul\":9021:9035   */\n      add\n        /* \"#utility.yul\":9007:9019   */\n      dup3\n        /* \"#utility.yul\":8973:9036   */\n      tag_305\n      jump\t// in\n    tag_304:\n        /* \"#utility.yul\":8876:9046   */\n      pop\n        /* \"#utility.yul\":9139:9143   */\n      0x80\n        /* \"#utility.yul\":9132:9137   */\n      dup4\n        /* \"#utility.yul\":9128:9144   */\n      add\n        /* \"#utility.yul\":9122:9145   */\n      mload\n        /* \"#utility.yul\":9158:9221   */\n      tag_306\n        /* \"#utility.yul\":9215:9219   */\n      0x80\n        /* \"#utility.yul\":9210:9213   */\n      dup7\n        /* \"#utility.yul\":9206:9220   */\n      add\n        /* \"#utility.yul\":9192:9204   */\n      dup3\n        /* \"#utility.yul\":9158:9221   */\n      tag_305\n      jump\t// in\n    tag_306:\n        /* \"#utility.yul\":9056:9231   */\n      pop\n        /* \"#utility.yul\":9315:9319   */\n      0xa0\n        /* \"#utility.yul\":9308:9313   */\n      dup4\n        /* \"#utility.yul\":9304:9320   */\n      add\n        /* \"#utility.yul\":9298:9321   */\n      mload\n        /* \"#utility.yul\":9334:9414   */\n      tag_307\n        /* \"#utility.yul\":9408:9412   */\n      0xa0\n        /* \"#utility.yul\":9403:9406   */\n      dup7\n        /* \"#utility.yul\":9399:9413   */\n      add\n        /* \"#utility.yul\":9385:9397   */\n      dup3\n        /* \"#utility.yul\":9334:9414   */\n      tag_232\n      jump\t// in\n    tag_307:\n        /* \"#utility.yul\":9241:9424   */\n      pop\n        /* \"#utility.yul\":9513:9517   */\n      0xc0\n        /* \"#utility.yul\":9506:9511   */\n      dup4\n        /* \"#utility.yul\":9502:9518   */\n      add\n        /* \"#utility.yul\":9496:9519   */\n      mload\n        /* \"#utility.yul\":9566:9569   */\n      dup5\n        /* \"#utility.yul\":9560:9564   */\n      dup3\n        /* \"#utility.yul\":9556:9570   */\n      sub\n        /* \"#utility.yul\":9549:9553   */\n      0xc0\n        /* \"#utility.yul\":9544:9547   */\n      dup7\n        /* \"#utility.yul\":9540:9554   */\n      add\n        /* \"#utility.yul\":9533:9571   */\n      mstore\n        /* \"#utility.yul\":9592:9665   */\n      tag_308\n        /* \"#utility.yul\":9660:9664   */\n      dup3\n        /* \"#utility.yul\":9646:9658   */\n      dup3\n        /* \"#utility.yul\":9592:9665   */\n      tag_239\n      jump\t// in\n    tag_308:\n        /* \"#utility.yul\":9584:9665   */\n      swap2\n      pop\n        /* \"#utility.yul\":9434:9676   */\n      pop\n        /* \"#utility.yul\":9693:9697   */\n      dup1\n        /* \"#utility.yul\":9686:9697   */\n      swap2\n      pop\n        /* \"#utility.yul\":8192:9703   */\n      pop\n      swap3\n      swap2\n      pop\n      pop\n      jump\t// out\n        /* \"#utility.yul\":9709:9817   */\n    tag_305:\n        /* \"#utility.yul\":9786:9810   */\n      tag_310\n        /* \"#utility.yul\":9804:9809   */\n      dup2\n        /* \"#utility.yul\":9786:9810   */\n      tag_311\n      jump\t// in\n    tag_310:\n        /* \"#utility.yul\":9781:9784   */\n      dup3\n        /* \"#utility.yul\":9774:9811   */\n      mstore\n        /* \"#utility.yul\":9764:9817   */\n      pop\n      pop\n      jump\t// out\n        /* \"#utility.yul\":9823:9941   */\n    tag_312:\n        /* \"#utility.yul\":9910:9934   */\n      tag_314\n        /* \"#utility.yul\":9928:9933   */\n      dup2\n        /* \"#utility.yul\":9910:9934   */\n      tag_311\n      jump\t// in\n    tag_314:\n        /* \"#utility.yul\":9905:9908   */\n      dup3\n        /* \"#utility.yul\":9898:9935   */\n      mstore\n        /* \"#utility.yul\":9888:9941   */\n      pop\n      pop\n      jump\t// out\n        /* \"#utility.yul\":9947:10222   */\n    tag_154:\n      0x00\n        /* \"#utility.yul\":10101:10196   */\n      tag_316\n        /* \"#utility.yul\":10192:10195   */\n      dup3\n        /* \"#utility.yul\":10183:10189   */\n      dup5\n        /* \"#utility.yul\":10101:10196   */\n      tag_256\n      jump\t// in\n    tag_316:\n        /* \"#utility.yul\":10094:10196   */\n      swap2\n      pop\n        /* \"#utility.yul\":10213:10216   */\n      dup2\n        /* \"#utility.yul\":10206:10216   */\n      swap1\n      pop\n        /* \"#utility.yul\":10083:10222   */\n      swap3\n      swap2\n      pop\n      pop\n      jump\t// out\n        /* \"#utility.yul\":10228:11400   */\n    tag_39:\n      0x00\n        /* \"#utility.yul\":10619:10622   */\n      0xe0\n        /* \"#utility.yul\":10608:10617   */\n      dup3\n        /* \"#utility.yul\":10604:10623   */\n      add\n        /* \"#utility.yul\":10596:10623   */\n      swap1\n      pop\n        /* \"#utility.yul\":10633:10720   */\n      tag_318\n        /* \"#utility.yul\":10717:10718   */\n      0x00\n        /* \"#utility.yul\":10706:10715   */\n      dup4\n        /* \"#utility.yul\":10702:10719   */\n      add\n        /* \"#utility.yul\":10693:10699   */\n      dup11\n        /* \"#utility.yul\":10633:10720   */\n      tag_210\n      jump\t// in\n    tag_318:\n        /* \"#utility.yul\":10730:10821   */\n      tag_319\n        /* \"#utility.yul\":10817:10819   */\n      0x20\n        /* \"#utility.yul\":10806:10815   */\n      dup4\n        /* \"#utility.yul\":10802:10820   */\n      add\n        /* \"#utility.yul\":10793:10799   */\n      dup10\n        /* \"#utility.yul\":10730:10821   */\n      tag_229\n      jump\t// in\n    tag_319:\n        /* \"#utility.yul\":10868:10877   */\n      dup2\n        /* \"#utility.yul\":10862:10866   */\n      dup2\n        /* \"#utility.yul\":10858:10878   */\n      sub\n        /* \"#utility.yul\":10853:10855   */\n      0x40\n        /* \"#utility.yul\":10842:10851   */\n      dup4\n        /* \"#utility.yul\":10838:10856   */\n      add\n        /* \"#utility.yul\":10831:10879   */\n      mstore\n        /* \"#utility.yul\":10896:10974   */\n      tag_320\n        /* \"#utility.yul\":10969:10973   */\n      dup2\n        /* \"#utility.yul\":10960:10966   */\n      dup9\n        /* \"#utility.yul\":10896:10974   */\n      tag_249\n      jump\t// in\n    tag_320:\n        /* \"#utility.yul\":10888:10974   */\n      swap1\n      pop\n        /* \"#utility.yul\":10984:11056   */\n      tag_321\n        /* \"#utility.yul\":11052:11054   */\n      0x60\n        /* \"#utility.yul\":11041:11050   */\n      dup4\n        /* \"#utility.yul\":11037:11055   */\n      add\n        /* \"#utility.yul\":11028:11034   */\n      dup8\n        /* \"#utility.yul\":10984:11056   */\n      tag_312\n      jump\t// in\n    tag_321:\n        /* \"#utility.yul\":11066:11139   */\n      tag_322\n        /* \"#utility.yul\":11134:11137   */\n      0x80\n        /* \"#utility.yul\":11123:11132   */\n      dup4\n        /* \"#utility.yul\":11119:11138   */\n      add\n        /* \"#utility.yul\":11110:11116   */\n      dup7\n        /* \"#utility.yul\":11066:11139   */\n      tag_312\n      jump\t// in\n    tag_322:\n        /* \"#utility.yul\":11149:11239   */\n      tag_323\n        /* \"#utility.yul\":11234:11237   */\n      0xa0\n        /* \"#utility.yul\":11223:11232   */\n      dup4\n        /* \"#utility.yul\":11219:11238   */\n      add\n        /* \"#utility.yul\":11210:11216   */\n      dup6\n        /* \"#utility.yul\":11149:11239   */\n      tag_236\n      jump\t// in\n    tag_323:\n        /* \"#utility.yul\":11287:11296   */\n      dup2\n        /* \"#utility.yul\":11281:11285   */\n      dup2\n        /* \"#utility.yul\":11277:11297   */\n      sub\n        /* \"#utility.yul\":11271:11274   */\n      0xc0\n        /* \"#utility.yul\":11260:11269   */\n      dup4\n        /* \"#utility.yul\":11256:11275   */\n      add\n        /* \"#utility.yul\":11249:11298   */\n      mstore\n        /* \"#utility.yul\":11315:11393   */\n      tag_324\n        /* \"#utility.yul\":11388:11392   */\n      dup2\n        /* \"#utility.yul\":11379:11385   */\n      dup5\n        /* \"#utility.yul\":11315:11393   */\n      tag_249\n      jump\t// in\n    tag_324:\n        /* \"#utility.yul\":11307:11393   */\n      swap1\n      pop\n        /* \"#utility.yul\":10586:11400   */\n      swap9\n      swap8\n      pop\n      pop\n      pop\n      pop\n      pop\n      pop\n      pop\n      pop\n      jump\t// out\n        /* \"#utility.yul\":11406:11616   */\n    tag_30:\n      0x00\n        /* \"#utility.yul\":11531:11533   */\n      0x20\n        /* \"#utility.yul\":11520:11529   */\n      dup3\n        /* \"#utility.yul\":11516:11534   */\n      add\n        /* \"#utility.yul\":11508:11534   */\n      swap1\n      pop\n        /* \"#utility.yul\":11544:11609   */\n      tag_326\n        /* \"#utility.yul\":11606:11607   */\n      0x00\n        /* \"#utility.yul\":11595:11604   */\n      dup4\n        /* \"#utility.yul\":11591:11608   */\n      add\n        /* \"#utility.yul\":11582:11588   */\n      dup5\n        /* \"#utility.yul\":11544:11609   */\n      tag_217\n      jump\t// in\n    tag_326:\n        /* \"#utility.yul\":11498:11616   */\n      swap3\n      swap2\n      pop\n      pop\n      jump\t// out\n        /* \"#utility.yul\":11622:12102   */\n    tag_142:\n      0x00\n        /* \"#utility.yul\":11828:11830   */\n      0x60\n        /* \"#utility.yul\":11817:11826   */\n      dup3\n        /* \"#utility.yul\":11813:11831   */\n      add\n        /* \"#utility.yul\":11805:11831   */\n      swap1\n      pop\n        /* \"#utility.yul\":11841:11931   */\n      tag_328\n        /* \"#utility.yul\":11928:11929   */\n      0x00\n        /* \"#utility.yul\":11917:11926   */\n      dup4\n        /* \"#utility.yul\":11913:11930   */\n      add\n        /* \"#utility.yul\":11904:11910   */\n      dup7\n        /* \"#utility.yul\":11841:11931   */\n      tag_221\n      jump\t// in\n    tag_328:\n        /* \"#utility.yul\":11941:12013   */\n      tag_329\n        /* \"#utility.yul\":12009:12011   */\n      0x20\n        /* \"#utility.yul\":11998:12007   */\n      dup4\n        /* \"#utility.yul\":11994:12012   */\n      add\n        /* \"#utility.yul\":11985:11991   */\n      dup6\n        /* \"#utility.yul\":11941:12013   */\n      tag_312\n      jump\t// in\n    tag_329:\n        /* \"#utility.yul\":12023:12095   */\n      tag_330\n        /* \"#utility.yul\":12091:12093   */\n      0x40\n        /* \"#utility.yul\":12080:12089   */\n      dup4\n        /* \"#utility.yul\":12076:12094   */\n      add\n        /* \"#utility.yul\":12067:12073   */\n      dup5\n        /* \"#utility.yul\":12023:12095   */\n      tag_312\n      jump\t// in\n    tag_330:\n        /* \"#utility.yul\":11795:12102   */\n      swap5\n      swap4\n      pop\n      pop\n      pop\n      pop\n      jump\t// out\n        /* \"#utility.yul\":12108:12527   */\n    tag_98:\n      0x00\n        /* \"#utility.yul\":12312:12314   */\n      0x20\n        /* \"#utility.yul\":12301:12310   */\n      dup3\n        /* \"#utility.yul\":12297:12315   */\n      add\n        /* \"#utility.yul\":12289:12315   */\n      swap1\n      pop\n        /* \"#utility.yul\":12361:12370   */\n      dup2\n        /* \"#utility.yul\":12355:12359   */\n      dup2\n        /* \"#utility.yul\":12351:12371   */\n      sub\n        /* \"#utility.yul\":12347:12348   */\n      0x00\n        /* \"#utility.yul\":12336:12345   */\n      dup4\n        /* \"#utility.yul\":12332:12349   */\n      add\n        /* \"#utility.yul\":12325:12372   */\n      mstore\n        /* \"#utility.yul\":12389:12520   */\n      tag_332\n        /* \"#utility.yul\":12515:12519   */\n      dup2\n        /* \"#utility.yul\":12389:12520   */\n      tag_274\n      jump\t// in\n    tag_332:\n        /* \"#utility.yul\":12381:12520   */\n      swap1\n      pop\n        /* \"#utility.yul\":12279:12527   */\n      swap2\n      swap1\n      pop\n      jump\t// out\n        /* \"#utility.yul\":12533:12952   */\n    tag_69:\n      0x00\n        /* \"#utility.yul\":12737:12739   */\n      0x20\n        /* \"#utility.yul\":12726:12735   */\n      dup3\n        /* \"#utility.yul\":12722:12740   */\n      add\n        /* \"#utility.yul\":12714:12740   */\n      swap1\n      pop\n        /* \"#utility.yul\":12786:12795   */\n      dup2\n        /* \"#utility.yul\":12780:12784   */\n      dup2\n        /* \"#utility.yul\":12776:12796   */\n      sub\n        /* \"#utility.yul\":12772:12773   */\n      0x00\n        /* \"#utility.yul\":12761:12770   */\n      dup4\n        /* \"#utility.yul\":12757:12774   */\n      add\n        /* \"#utility.yul\":12750:12797   */\n      mstore\n        /* \"#utility.yul\":12814:12945   */\n      tag_334\n        /* \"#utility.yul\":12940:12944   */\n      dup2\n        /* \"#utility.yul\":12814:12945   */\n      tag_279\n      jump\t// in\n    tag_334:\n        /* \"#utility.yul\":12806:12945   */\n      swap1\n      pop\n        /* \"#utility.yul\":12704:12952   */\n      swap2\n      swap1\n      pop\n      jump\t// out\n        /* \"#utility.yul\":12958:13377   */\n    tag_75:\n      0x00\n        /* \"#utility.yul\":13162:13164   */\n      0x20\n        /* \"#utility.yul\":13151:13160   */\n      dup3\n        /* \"#utility.yul\":13147:13165   */\n      add\n        /* \"#utility.yul\":13139:13165   */\n      swap1\n      pop\n        /* \"#utility.yul\":13211:13220   */\n      dup2\n        /* \"#utility.yul\":13205:13209   */\n      dup2\n        /* \"#utility.yul\":13201:13221   */\n      sub\n        /* \"#utility.yul\":13197:13198   */\n      0x00\n        /* \"#utility.yul\":13186:13195   */\n      dup4\n        /* \"#utility.yul\":13182:13199   */\n      add\n        /* \"#utility.yul\":13175:13222   */\n      mstore\n        /* \"#utility.yul\":13239:13370   */\n      tag_336\n        /* \"#utility.yul\":13365:13369   */\n      dup2\n        /* \"#utility.yul\":13239:13370   */\n      tag_284\n      jump\t// in\n    tag_336:\n        /* \"#utility.yul\":13231:13370   */\n      swap1\n      pop\n        /* \"#utility.yul\":13129:13377   */\n      swap2\n      swap1\n      pop\n      jump\t// out\n        /* \"#utility.yul\":13383:13802   */\n    tag_85:\n      0x00\n        /* \"#utility.yul\":13587:13589   */\n      0x20\n        /* \"#utility.yul\":13576:13585   */\n      dup3\n        /* \"#utility.yul\":13572:13590   */\n      add\n        /* \"#utility.yul\":13564:13590   */\n      swap1\n      pop\n        /* \"#utility.yul\":13636:13645   */\n      dup2\n        /* \"#utility.yul\":13630:13634   */\n      dup2\n        /* \"#utility.yul\":13626:13646   */\n      sub\n        /* \"#utility.yul\":13622:13623   */\n      0x00\n        /* \"#utility.yul\":13611:13620   */\n      dup4\n        /* \"#utility.yul\":13607:13624   */\n      add\n        /* \"#utility.yul\":13600:13647   */\n      mstore\n        /* \"#utility.yul\":13664:13795   */\n      tag_338\n        /* \"#utility.yul\":13790:13794   */\n      dup2\n        /* \"#utility.yul\":13664:13795   */\n      tag_289\n      jump\t// in\n    tag_338:\n        /* \"#utility.yul\":13656:13795   */\n      swap1\n      pop\n        /* \"#utility.yul\":13554:13802   */\n      swap2\n      swap1\n      pop\n      jump\t// out\n        /* \"#utility.yul\":13808:14227   */\n    tag_93:\n      0x00\n        /* \"#utility.yul\":14012:14014   */\n      0x20\n        /* \"#utility.yul\":14001:14010   */\n      dup3\n        /* \"#utility.yul\":13997:14015   */\n      add\n        /* \"#utility.yul\":13989:14015   */\n      swap1\n      pop\n        /* \"#utility.yul\":14061:14070   */\n      dup2\n        /* \"#utility.yul\":14055:14059   */\n      dup2\n        /* \"#utility.yul\":14051:14071   */\n      sub\n        /* \"#utility.yul\":14047:14048   */\n      0x00\n        /* \"#utility.yul\":14036:14045   */\n      dup4\n        /* \"#utility.yul\":14032:14049   */\n      add\n        /* \"#utility.yul\":14025:14072   */\n      mstore\n        /* \"#utility.yul\":14089:14220   */\n      tag_340\n        /* \"#utility.yul\":14215:14219   */\n      dup2\n        /* \"#utility.yul\":14089:14220   */\n      tag_294\n      jump\t// in\n    tag_340:\n        /* \"#utility.yul\":14081:14220   */\n      swap1\n      pop\n        /* \"#utility.yul\":13979:14227   */\n      swap2\n      swap1\n      pop\n      jump\t// out\n        /* \"#utility.yul\":14233:14598   */\n    tag_17:\n      0x00\n        /* \"#utility.yul\":14410:14412   */\n      0x20\n        /* \"#utility.yul\":14399:14408   */\n      dup3\n        /* \"#utility.yul\":14395:14413   */\n      add\n        /* \"#utility.yul\":14387:14413   */\n      swap1\n      pop\n        /* \"#utility.yul\":14459:14468   */\n      dup2\n        /* \"#utility.yul\":14453:14457   */\n      dup2\n        /* \"#utility.yul\":14449:14469   */\n      sub\n        /* \"#utility.yul\":14445:14446   */\n      0x00\n        /* \"#utility.yul\":14434:14443   */\n      dup4\n        /* \"#utility.yul\":14430:14447   */\n      add\n        /* \"#utility.yul\":14423:14470   */\n      mstore\n        /* \"#utility.yul\":14487:14591   */\n      tag_342\n        /* \"#utility.yul\":14586:14590   */\n      dup2\n        /* \"#utility.yul\":14577:14583   */\n      dup5\n        /* \"#utility.yul\":14487:14591   */\n      tag_299\n      jump\t// in\n    tag_342:\n        /* \"#utility.yul\":14479:14591   */\n      swap1\n      pop\n        /* \"#utility.yul\":14377:14598   */\n      swap3\n      swap2\n      pop\n      pop\n      jump\t// out\n        /* \"#utility.yul\":14604:15131   */\n    tag_89:\n      0x00\n        /* \"#utility.yul\":14808:14810   */\n      0x60\n        /* \"#utility.yul\":14797:14806   */\n      dup3\n        /* \"#utility.yul\":14793:14811   */\n      add\n        /* \"#utility.yul\":14785:14811   */\n      swap1\n      pop\n        /* \"#utility.yul\":14821:14892   */\n      tag_344\n        /* \"#utility.yul\":14889:14890   */\n      0x00\n        /* \"#utility.yul\":14878:14887   */\n      dup4\n        /* \"#utility.yul\":14874:14891   */\n      add\n        /* \"#utility.yul\":14865:14871   */\n      dup7\n        /* \"#utility.yul\":14821:14892   */\n      tag_312\n      jump\t// in\n    tag_344:\n        /* \"#utility.yul\":14902:14974   */\n      tag_345\n        /* \"#utility.yul\":14970:14972   */\n      0x20\n        /* \"#utility.yul\":14959:14968   */\n      dup4\n        /* \"#utility.yul\":14955:14973   */\n      add\n        /* \"#utility.yul\":14946:14952   */\n      dup6\n        /* \"#utility.yul\":14902:14974   */\n      tag_213\n      jump\t// in\n    tag_345:\n        /* \"#utility.yul\":15021:15030   */\n      dup2\n        /* \"#utility.yul\":15015:15019   */\n      dup2\n        /* \"#utility.yul\":15011:15031   */\n      sub\n        /* \"#utility.yul\":15006:15008   */\n      0x40\n        /* \"#utility.yul\":14995:15004   */\n      dup4\n        /* \"#utility.yul\":14991:15009   */\n      add\n        /* \"#utility.yul\":14984:15032   */\n      mstore\n        /* \"#utility.yul\":15049:15124   */\n      tag_346\n        /* \"#utility.yul\":15119:15123   */\n      dup2\n        /* \"#utility.yul\":15110:15116   */\n      dup5\n        /* \"#utility.yul\":15049:15124   */\n      tag_262\n      jump\t// in\n    tag_346:\n        /* \"#utility.yul\":15041:15124   */\n      swap1\n      pop\n        /* \"#utility.yul\":14775:15131   */\n      swap5\n      swap4\n      pop\n      pop\n      pop\n      pop\n      jump\t// out\n        /* \"#utility.yul\":15137:15781   */\n    tag_149:\n      0x00\n        /* \"#utility.yul\":15372:15375   */\n      0x80\n        /* \"#utility.yul\":15361:15370   */\n      dup3\n        /* \"#utility.yul\":15357:15376   */\n      add\n        /* \"#utility.yul\":15349:15376   */\n      swap1\n      pop\n        /* \"#utility.yul\":15386:15457   */\n      tag_348\n        /* \"#utility.yul\":15454:15455   */\n      0x00\n        /* \"#utility.yul\":15443:15452   */\n      dup4\n        /* \"#utility.yul\":15439:15456   */\n      add\n        /* \"#utility.yul\":15430:15436   */\n      dup8\n        /* \"#utility.yul\":15386:15457   */\n      tag_312\n      jump\t// in\n    tag_348:\n        /* \"#utility.yul\":15467:15539   */\n      tag_349\n        /* \"#utility.yul\":15535:15537   */\n      0x20\n        /* \"#utility.yul\":15524:15533   */\n      dup4\n        /* \"#utility.yul\":15520:15538   */\n      add\n        /* \"#utility.yul\":15511:15517   */\n      dup7\n        /* \"#utility.yul\":15467:15539   */\n      tag_312\n      jump\t// in\n    tag_349:\n        /* \"#utility.yul\":15549:15621   */\n      tag_350\n        /* \"#utility.yul\":15617:15619   */\n      0x40\n        /* \"#utility.yul\":15606:15615   */\n      dup4\n        /* \"#utility.yul\":15602:15620   */\n      add\n        /* \"#utility.yul\":15593:15599   */\n      dup6\n        /* \"#utility.yul\":15549:15621   */\n      tag_213\n      jump\t// in\n    tag_350:\n        /* \"#utility.yul\":15668:15677   */\n      dup2\n        /* \"#utility.yul\":15662:15666   */\n      dup2\n        /* \"#utility.yul\":15658:15678   */\n      sub\n        /* \"#utility.yul\":15653:15655   */\n      0x60\n        /* \"#utility.yul\":15642:15651   */\n      dup4\n        /* \"#utility.yul\":15638:15656   */\n      add\n        /* \"#utility.yul\":15631:15679   */\n      mstore\n        /* \"#utility.yul\":15696:15774   */\n      tag_351\n        /* \"#utility.yul\":15769:15773   */\n      dup2\n        /* \"#utility.yul\":15760:15766   */\n      dup5\n        /* \"#utility.yul\":15696:15774   */\n      tag_249\n      jump\t// in\n    tag_351:\n        /* \"#utility.yul\":15688:15774   */\n      swap1\n      pop\n        /* \"#utility.yul\":15339:15781   */\n      swap6\n      swap5\n      pop\n      pop\n      pop\n      pop\n      pop\n      jump\t// out\n        /* \"#utility.yul\":15787:16425   */\n    tag_102:\n      0x00\n        /* \"#utility.yul\":16019:16022   */\n      0x80\n        /* \"#utility.yul\":16008:16017   */\n      dup3\n        /* \"#utility.yul\":16004:16023   */\n      add\n        /* \"#utility.yul\":15996:16023   */\n      swap1\n      pop\n        /* \"#utility.yul\":16033:16104   */\n      tag_353\n        /* \"#utility.yul\":16101:16102   */\n      0x00\n        /* \"#utility.yul\":16090:16099   */\n      dup4\n        /* \"#utility.yul\":16086:16103   */\n      add\n        /* \"#utility.yul\":16077:16083   */\n      dup8\n        /* \"#utility.yul\":16033:16104   */\n      tag_312\n      jump\t// in\n    tag_353:\n        /* \"#utility.yul\":16114:16186   */\n      tag_354\n        /* \"#utility.yul\":16182:16184   */\n      0x20\n        /* \"#utility.yul\":16171:16180   */\n      dup4\n        /* \"#utility.yul\":16167:16185   */\n      add\n        /* \"#utility.yul\":16158:16164   */\n      dup7\n        /* \"#utility.yul\":16114:16186   */\n      tag_312\n      jump\t// in\n    tag_354:\n        /* \"#utility.yul\":16196:16268   */\n      tag_355\n        /* \"#utility.yul\":16264:16266   */\n      0x40\n        /* \"#utility.yul\":16253:16262   */\n      dup4\n        /* \"#utility.yul\":16249:16267   */\n      add\n        /* \"#utility.yul\":16240:16246   */\n      dup6\n        /* \"#utility.yul\":16196:16268   */\n      tag_213\n      jump\t// in\n    tag_355:\n        /* \"#utility.yul\":16315:16324   */\n      dup2\n        /* \"#utility.yul\":16309:16313   */\n      dup2\n        /* \"#utility.yul\":16305:16325   */\n      sub\n        /* \"#utility.yul\":16300:16302   */\n      0x60\n        /* \"#utility.yul\":16289:16298   */\n      dup4\n        /* \"#utility.yul\":16285:16303   */\n      add\n        /* \"#utility.yul\":16278:16326   */\n      mstore\n        /* \"#utility.yul\":16343:16418   */\n      tag_356\n        /* \"#utility.yul\":16413:16417   */\n      dup2\n        /* \"#utility.yul\":16404:16410   */\n      dup5\n        /* \"#utility.yul\":16343:16418   */\n      tag_262\n      jump\t// in\n    tag_356:\n        /* \"#utility.yul\":16335:16418   */\n      swap1\n      pop\n        /* \"#utility.yul\":15986:16425   */\n      swap6\n      swap5\n      pop\n      pop\n      pop\n      pop\n      pop\n      jump\t// out\n        /* \"#utility.yul\":16431:16560   */\n    tag_173:\n      0x00\n        /* \"#utility.yul\":16492:16512   */\n      tag_358\n      tag_359\n      jump\t// in\n    tag_358:\n        /* \"#utility.yul\":16482:16512   */\n      swap1\n      pop\n        /* \"#utility.yul\":16521:16554   */\n      tag_360\n        /* \"#utility.yul\":16549:16553   */\n      dup3\n        /* \"#utility.yul\":16541:16547   */\n      dup3\n        /* \"#utility.yul\":16521:16554   */\n      tag_361\n      jump\t// in\n    tag_360:\n        /* \"#utility.yul\":16472:16560   */\n      swap2\n      swap1\n      pop\n      jump\t// out\n        /* \"#utility.yul\":16566:16641   */\n    tag_359:\n      0x00\n        /* \"#utility.yul\":16632:16634   */\n      0x40\n        /* \"#utility.yul\":16626:16635   */\n      mload\n        /* \"#utility.yul\":16616:16635   */\n      swap1\n      pop\n        /* \"#utility.yul\":16606:16641   */\n      swap1\n      jump\t// out\n        /* \"#utility.yul\":16647:16955   */\n    tag_172:\n      0x00\n        /* \"#utility.yul\":16799:16817   */\n      0xffffffffffffffff\n        /* \"#utility.yul\":16791:16797   */\n      dup3\n        /* \"#utility.yul\":16788:16818   */\n      gt\n        /* \"#utility.yul\":16785:16787   */\n      iszero\n      tag_364\n      jumpi\n        /* \"#utility.yul\":16821:16839   */\n      tag_365\n      tag_366\n      jump\t// in\n    tag_365:\n        /* \"#utility.yul\":16785:16787   */\n    tag_364:\n        /* \"#utility.yul\":16859:16888   */\n      tag_367\n        /* \"#utility.yul\":16881:16887   */\n      dup3\n        /* \"#utility.yul\":16859:16888   */\n      tag_248\n      jump\t// in\n    tag_367:\n        /* \"#utility.yul\":16851:16888   */\n      swap1\n      pop\n        /* \"#utility.yul\":16943:16947   */\n      0x20\n        /* \"#utility.yul\":16937:16941   */\n      dup2\n        /* \"#utility.yul\":16933:16948   */\n      add\n        /* \"#utility.yul\":16925:16948   */\n      swap1\n      pop\n        /* \"#utility.yul\":16714:16955   */\n      swap2\n      swap1\n      pop\n      jump\t// out\n        /* \"#utility.yul\":16961:17102   */\n    tag_270:\n      0x00\n        /* \"#utility.yul\":17033:17036   */\n      dup2\n        /* \"#utility.yul\":17025:17036   */\n      swap1\n      pop\n        /* \"#utility.yul\":17056:17059   */\n      dup2\n        /* \"#utility.yul\":17053:17054   */\n      0x00\n        /* \"#utility.yul\":17046:17060   */\n      mstore\n        /* \"#utility.yul\":17090:17094   */\n      0x20\n        /* \"#utility.yul\":17087:17088   */\n      0x00\n        /* \"#utility.yul\":17077:17095   */\n      keccak256\n        /* \"#utility.yul\":17069:17095   */\n      swap1\n      pop\n        /* \"#utility.yul\":17015:17102   */\n      swap2\n      swap1\n      pop\n      jump\t// out\n        /* \"#utility.yul\":17108:17207   */\n    tag_242:\n      0x00\n        /* \"#utility.yul\":17194:17199   */\n      dup2\n        /* \"#utility.yul\":17188:17200   */\n      mload\n        /* \"#utility.yul\":17178:17200   */\n      swap1\n      pop\n        /* \"#utility.yul\":17167:17207   */\n      swap2\n      swap1\n      pop\n      jump\t// out\n        /* \"#utility.yul\":17213:17372   */\n    tag_244:\n      0x00\n        /* \"#utility.yul\":17321:17327   */\n      dup3\n        /* \"#utility.yul\":17316:17319   */\n      dup3\n        /* \"#utility.yul\":17309:17328   */\n      mstore\n        /* \"#utility.yul\":17361:17365   */\n      0x20\n        /* \"#utility.yul\":17356:17359   */\n      dup3\n        /* \"#utility.yul\":17352:17366   */\n      add\n        /* \"#utility.yul\":17337:17366   */\n      swap1\n      pop\n        /* \"#utility.yul\":17299:17372   */\n      swap3\n      swap2\n      pop\n      pop\n      jump\t// out\n        /* \"#utility.yul\":17378:17547   */\n    tag_253:\n      0x00\n        /* \"#utility.yul\":17496:17502   */\n      dup3\n        /* \"#utility.yul\":17491:17494   */\n      dup3\n        /* \"#utility.yul\":17484:17503   */\n      mstore\n        /* \"#utility.yul\":17536:17540   */\n      0x20\n        /* \"#utility.yul\":17531:17534   */\n      dup3\n        /* \"#utility.yul\":17527:17541   */\n      add\n        /* \"#utility.yul\":17512:17541   */\n      swap1\n      pop\n        /* \"#utility.yul\":17474:17547   */\n      swap3\n      swap2\n      pop\n      pop\n      jump\t// out\n        /* \"#utility.yul\":17553:17701   */\n    tag_260:\n      0x00\n        /* \"#utility.yul\":17692:17695   */\n      dup2\n        /* \"#utility.yul\":17677:17695   */\n      swap1\n      pop\n        /* \"#utility.yul\":17667:17701   */\n      swap3\n      swap2\n      pop\n      pop\n      jump\t// out\n        /* \"#utility.yul\":17707:17803   */\n    tag_216:\n      0x00\n        /* \"#utility.yul\":17773:17797   */\n      tag_374\n        /* \"#utility.yul\":17791:17796   */\n      dup3\n        /* \"#utility.yul\":17773:17797   */\n      tag_375\n      jump\t// in\n    tag_374:\n        /* \"#utility.yul\":17762:17797   */\n      swap1\n      pop\n        /* \"#utility.yul\":17752:17803   */\n      swap2\n      swap1\n      pop\n      jump\t// out\n        /* \"#utility.yul\":17809:17913   */\n    tag_209:\n      0x00\n        /* \"#utility.yul\":17883:17907   */\n      tag_377\n        /* \"#utility.yul\":17901:17906   */\n      dup3\n        /* \"#utility.yul\":17883:17907   */\n      tag_375\n      jump\t// in\n    tag_377:\n        /* \"#utility.yul\":17872:17907   */\n      swap1\n      pop\n        /* \"#utility.yul\":17862:17913   */\n      swap2\n      swap1\n      pop\n      jump\t// out\n        /* \"#utility.yul\":17919:18009   */\n    tag_220:\n      0x00\n        /* \"#utility.yul\":17996:18001   */\n      dup2\n        /* \"#utility.yul\":17989:18002   */\n      iszero\n        /* \"#utility.yul\":17982:18003   */\n      iszero\n        /* \"#utility.yul\":17971:18003   */\n      swap1\n      pop\n        /* \"#utility.yul\":17961:18009   */\n      swap2\n      swap1\n      pop\n      jump\t// out\n        /* \"#utility.yul\":18015:18164   */\n    tag_379:\n      0x00\n        /* \"#utility.yul\":18100:18105   */\n      dup2\n        /* \"#utility.yul\":18089:18105   */\n      swap1\n      pop\n        /* \"#utility.yul\":18106:18158   */\n      tag_381\n        /* \"#utility.yul\":18152:18157   */\n      dup3\n        /* \"#utility.yul\":18106:18158   */\n      tag_382\n      jump\t// in\n    tag_381:\n        /* \"#utility.yul\":18079:18164   */\n      swap2\n      swap1\n      pop\n      jump\t// out\n        /* \"#utility.yul\":18170:18296   */\n    tag_375:\n      0x00\n        /* \"#utility.yul\":18247:18289   */\n      0xffffffffffffffffffffffffffffffffffffffff\n        /* \"#utility.yul\":18240:18245   */\n      dup3\n        /* \"#utility.yul\":18236:18290   */\n      and\n        /* \"#utility.yul\":18225:18290   */\n      swap1\n      pop\n        /* \"#utility.yul\":18215:18296   */\n      swap2\n      swap1\n      pop\n      jump\t// out\n        /* \"#utility.yul\":18302:18379   */\n    tag_311:\n      0x00\n        /* \"#utility.yul\":18368:18373   */\n      dup2\n        /* \"#utility.yul\":18357:18373   */\n      swap1\n      pop\n        /* \"#utility.yul\":18347:18379   */\n      swap2\n      swap1\n      pop\n      jump\t// out\n        /* \"#utility.yul\":18385:18549   */\n    tag_224:\n      0x00\n        /* \"#utility.yul\":18487:18543   */\n      tag_386\n        /* \"#utility.yul\":18537:18542   */\n      dup3\n        /* \"#utility.yul\":18487:18543   */\n      tag_387\n      jump\t// in\n    tag_386:\n        /* \"#utility.yul\":18474:18543   */\n      swap1\n      pop\n        /* \"#utility.yul\":18464:18549   */\n      swap2\n      swap1\n      pop\n      jump\t// out\n        /* \"#utility.yul\":18555:18687   */\n    tag_387:\n      0x00\n        /* \"#utility.yul\":18657:18681   */\n      tag_389\n        /* \"#utility.yul\":18675:18680   */\n      dup3\n        /* \"#utility.yul\":18657:18681   */\n      tag_375\n      jump\t// in\n    tag_389:\n        /* \"#utility.yul\":18644:18681   */\n      swap1\n      pop\n        /* \"#utility.yul\":18634:18687   */\n      swap2\n      swap1\n      pop\n      jump\t// out\n        /* \"#utility.yul\":18693:18849   */\n    tag_228:\n      0x00\n        /* \"#utility.yul\":18795:18843   */\n      tag_391\n        /* \"#utility.yul\":18837:18842   */\n      dup3\n        /* \"#utility.yul\":18795:18843   */\n      tag_392\n      jump\t// in\n    tag_391:\n        /* \"#utility.yul\":18782:18843   */\n      swap1\n      pop\n        /* \"#utility.yul\":18772:18849   */\n      swap2\n      swap1\n      pop\n      jump\t// out\n        /* \"#utility.yul\":18855:18979   */\n    tag_392:\n      0x00\n        /* \"#utility.yul\":18949:18973   */\n      tag_394\n        /* \"#utility.yul\":18967:18972   */\n      dup3\n        /* \"#utility.yul\":18949:18973   */\n      tag_375\n      jump\t// in\n    tag_394:\n        /* \"#utility.yul\":18936:18973   */\n      swap1\n      pop\n        /* \"#utility.yul\":18926:18979   */\n      swap2\n      swap1\n      pop\n      jump\t// out\n        /* \"#utility.yul\":18985:19134   */\n    tag_235:\n      0x00\n        /* \"#utility.yul\":19085:19128   */\n      tag_396\n        /* \"#utility.yul\":19122:19127   */\n      dup3\n        /* \"#utility.yul\":19085:19128   */\n      tag_379\n      jump\t// in\n    tag_396:\n        /* \"#utility.yul\":19072:19128   */\n      swap1\n      pop\n        /* \"#utility.yul\":19062:19134   */\n      swap2\n      swap1\n      pop\n      jump\t// out\n        /* \"#utility.yul\":19140:19294   */\n    tag_176:\n        /* \"#utility.yul\":19224:19230   */\n      dup3\n        /* \"#utility.yul\":19219:19222   */\n      dup2\n        /* \"#utility.yul\":19214:19217   */\n      dup4\n        /* \"#utility.yul\":19201:19231   */\n      calldatacopy\n        /* \"#utility.yul\":19286:19287   */\n      0x00\n        /* \"#utility.yul\":19277:19283   */\n      dup4\n        /* \"#utility.yul\":19272:19275   */\n      dup4\n        /* \"#utility.yul\":19268:19284   */\n      add\n        /* \"#utility.yul\":19261:19288   */\n      mstore\n        /* \"#utility.yul\":19191:19294   */\n      pop\n      pop\n      pop\n      jump\t// out\n        /* \"#utility.yul\":19300:19607   */\n    tag_246:\n        /* \"#utility.yul\":19368:19369   */\n      0x00\n        /* \"#utility.yul\":19378:19491   */\n    tag_399:\n        /* \"#utility.yul\":19392:19398   */\n      dup4\n        /* \"#utility.yul\":19389:19390   */\n      dup2\n        /* \"#utility.yul\":19386:19399   */\n      lt\n        /* \"#utility.yul\":19378:19491   */\n      iszero\n      tag_401\n      jumpi\n        /* \"#utility.yul\":19477:19478   */\n      dup1\n        /* \"#utility.yul\":19472:19475   */\n      dup3\n        /* \"#utility.yul\":19468:19479   */\n      add\n        /* \"#utility.yul\":19462:19480   */\n      mload\n        /* \"#utility.yul\":19458:19459   */\n      dup2\n        /* \"#utility.yul\":19453:19456   */\n      dup5\n        /* \"#utility.yul\":19449:19460   */\n      add\n        /* \"#utility.yul\":19442:19481   */\n      mstore\n        /* \"#utility.yul\":19414:19416   */\n      0x20\n        /* \"#utility.yul\":19411:19412   */\n      dup2\n        /* \"#utility.yul\":19407:19417   */\n      add\n        /* \"#utility.yul\":19402:19417   */\n      swap1\n      pop\n        /* \"#utility.yul\":19378:19491   */\n      jump(tag_399)\n    tag_401:\n        /* \"#utility.yul\":19509:19515   */\n      dup4\n        /* \"#utility.yul\":19506:19507   */\n      dup2\n        /* \"#utility.yul\":19503:19516   */\n      gt\n        /* \"#utility.yul\":19500:19502   */\n      iszero\n      tag_402\n      jumpi\n        /* \"#utility.yul\":19589:19590   */\n      0x00\n        /* \"#utility.yul\":19580:19586   */\n      dup5\n        /* \"#utility.yul\":19575:19578   */\n      dup5\n        /* \"#utility.yul\":19571:19587   */\n      add\n        /* \"#utility.yul\":19564:19591   */\n      mstore\n        /* \"#utility.yul\":19500:19502   */\n    tag_402:\n        /* \"#utility.yul\":19349:19607   */\n      pop\n      pop\n      pop\n      pop\n      jump\t// out\n        /* \"#utility.yul\":19613:19933   */\n    tag_53:\n      0x00\n        /* \"#utility.yul\":19694:19695   */\n      0x02\n        /* \"#utility.yul\":19688:19692   */\n      dup3\n        /* \"#utility.yul\":19684:19696   */\n      div\n        /* \"#utility.yul\":19674:19696   */\n      swap1\n      pop\n        /* \"#utility.yul\":19741:19742   */\n      0x01\n        /* \"#utility.yul\":19735:19739   */\n      dup3\n        /* \"#utility.yul\":19731:19743   */\n      and\n        /* \"#utility.yul\":19762:19780   */\n      dup1\n        /* \"#utility.yul\":19752:19754   */\n      tag_404\n      jumpi\n        /* \"#utility.yul\":19818:19822   */\n      0x7f\n        /* \"#utility.yul\":19810:19816   */\n      dup3\n        /* \"#utility.yul\":19806:19823   */\n      and\n        /* \"#utility.yul\":19796:19823   */\n      swap2\n      pop\n        /* \"#utility.yul\":19752:19754   */\n    tag_404:\n        /* \"#utility.yul\":19880:19882   */\n      0x20\n        /* \"#utility.yul\":19872:19878   */\n      dup3\n        /* \"#utility.yul\":19869:19883   */\n      lt\n        /* \"#utility.yul\":19849:19867   */\n      dup2\n        /* \"#utility.yul\":19846:19884   */\n      eq\n        /* \"#utility.yul\":19843:19845   */\n      iszero\n      tag_405\n      jumpi\n        /* \"#utility.yul\":19899:19917   */\n      tag_406\n      tag_407\n      jump\t// in\n    tag_406:\n        /* \"#utility.yul\":19843:19845   */\n    tag_405:\n        /* \"#utility.yul\":19664:19933   */\n      pop\n      swap2\n      swap1\n      pop\n      jump\t// out\n        /* \"#utility.yul\":19939:20220   */\n    tag_361:\n        /* \"#utility.yul\":20022:20049   */\n      tag_409\n        /* \"#utility.yul\":20044:20048   */\n      dup3\n        /* \"#utility.yul\":20022:20049   */\n      tag_248\n      jump\t// in\n    tag_409:\n        /* \"#utility.yul\":20014:20020   */\n      dup2\n        /* \"#utility.yul\":20010:20050   */\n      add\n        /* \"#utility.yul\":20152:20158   */\n      dup2\n        /* \"#utility.yul\":20140:20150   */\n      dup2\n        /* \"#utility.yul\":20137:20159   */\n      lt\n        /* \"#utility.yul\":20116:20134   */\n      0xffffffffffffffff\n        /* \"#utility.yul\":20104:20114   */\n      dup3\n        /* \"#utility.yul\":20101:20135   */\n      gt\n        /* \"#utility.yul\":20098:20160   */\n      or\n        /* \"#utility.yul\":20095:20097   */\n      iszero\n      tag_410\n      jumpi\n        /* \"#utility.yul\":20163:20181   */\n      tag_411\n      tag_366\n      jump\t// in\n    tag_411:\n        /* \"#utility.yul\":20095:20097   */\n    tag_410:\n        /* \"#utility.yul\":20203:20213   */\n      dup1\n        /* \"#utility.yul\":20199:20201   */\n      0x40\n        /* \"#utility.yul\":20192:20214   */\n      mstore\n        /* \"#utility.yul\":19982:20220   */\n      pop\n      pop\n      pop\n      jump\t// out\n        /* \"#utility.yul\":20226:20459   */\n    tag_151:\n      0x00\n        /* \"#utility.yul\":20288:20312   */\n      tag_413\n        /* \"#utility.yul\":20306:20311   */\n      dup3\n        /* \"#utility.yul\":20288:20312   */\n      tag_311\n      jump\t// in\n    tag_413:\n        /* \"#utility.yul\":20279:20312   */\n      swap2\n      pop\n        /* \"#utility.yul\":20334:20400   */\n      0xffffffffffffffffffffffffffffffffffffffffffffffffffffffffffffffff\n        /* \"#utility.yul\":20327:20332   */\n      dup3\n        /* \"#utility.yul\":20324:20401   */\n      eq\n        /* \"#utility.yul\":20321:20323   */\n      iszero\n      tag_414\n      jumpi\n        /* \"#utility.yul\":20404:20422   */\n      tag_415\n      tag_416\n      jump\t// in\n    tag_415:\n        /* \"#utility.yul\":20321:20323   */\n    tag_414:\n        /* \"#utility.yul\":20451:20452   */\n      0x01\n        /* \"#utility.yul\":20444:20449   */\n      dup3\n        /* \"#utility.yul\":20440:20453   */\n      add\n        /* \"#utility.yul\":20433:20453   */\n      swap1\n      pop\n        /* \"#utility.yul\":20269:20459   */\n      swap2\n      swap1\n      pop\n      jump\t// out\n        /* \"#utility.yul\":20465:20645   */\n    tag_416:\n        /* \"#utility.yul\":20513:20590   */\n      0x4e487b7100000000000000000000000000000000000000000000000000000000\n        /* \"#utility.yul\":20510:20511   */\n      0x00\n        /* \"#utility.yul\":20503:20591   */\n      mstore\n        /* \"#utility.yul\":20610:20614   */\n      0x11\n        /* \"#utility.yul\":20607:20608   */\n      0x04\n        /* \"#utility.yul\":20600:20615   */\n      mstore\n        /* \"#utility.yul\":20634:20638   */\n      0x24\n        /* \"#utility.yul\":20631:20632   */\n      0x00\n        /* \"#utility.yul\":20624:20639   */\n      revert\n        /* \"#utility.yul\":20651:20831   */\n    tag_418:\n        /* \"#utility.yul\":20699:20776   */\n      0x4e487b7100000000000000000000000000000000000000000000000000000000\n        /* \"#utility.yul\":20696:20697   */\n      0x00\n        /* \"#utility.yul\":20689:20777   */\n      mstore\n        /* \"#utility.yul\":20796:20800   */\n      0x21\n        /* \"#utility.yul\":20793:20794   */\n      0x04\n        /* \"#utility.yul\":20786:20801   */\n      mstore\n        /* \"#utility.yul\":20820:20824   */\n      0x24\n        /* \"#utility.yul\":20817:20818   */\n      0x00\n        /* \"#utility.yul\":20810:20825   */\n      revert\n        /* \"#utility.yul\":20837:21017   */\n    tag_407:\n        /* \"#utility.yul\":20885:20962   */\n      0x4e487b7100000000000000000000000000000000000000000000000000000000\n        /* \"#utility.yul\":20882:20883   */\n      0x00\n        /* \"#utility.yul\":20875:20963   */\n      mstore\n        /* \"#utility.yul\":20982:20986   */\n      0x22\n        /* \"#utility.yul\":20979:20980   */\n      0x04\n        /* \"#utility.yul\":20972:20987   */\n      mstore\n        /* \"#utility.yul\":21006:21010   */\n      0x24\n        /* \"#utility.yul\":21003:21004   */\n      0x00\n        /* \"#utility.yul\":20996:21011   */\n      revert\n        /* \"#utility.yul\":21023:21203   */\n    tag_366:\n        /* \"#utility.yul\":21071:21148   */\n      0x4e487b7100000000000000000000000000000000000000000000000000000000\n        /* \"#utility.yul\":21068:21069   */\n      0x00\n        /* \"#utility.yul\":21061:21149   */\n      mstore\n        /* \"#utility.yul\":21168:21172   */\n      0x41\n        /* \"#utility.yul\":21165:21166   */\n      0x04\n        /* \"#utility.yul\":21158:21173   */\n      mstore\n        /* \"#utility.yul\":21192:21196   */\n      0x24\n        /* \"#utility.yul\":21189:21190   */\n      0x00\n        /* \"#utility.yul\":21182:21197   */\n      revert\n        /* \"#utility.yul\":21209:21311   */\n    tag_248:\n      0x00\n        /* \"#utility.yul\":21301:21303   */\n      0x1f\n        /* \"#utility.yul\":21297:21304   */\n      not\n        /* \"#utility.yul\":21292:21294   */\n      0x1f\n        /* \"#utility.yul\":21285:21290   */\n      dup4\n        /* \"#utility.yul\":21281:21295   */\n      add\n        /* \"#utility.yul\":21277:21305   */\n      and\n        /* \"#utility.yul\":21267:21305   */\n      swap1\n      pop\n        /* \"#utility.yul\":21257:21311   */\n      swap2\n      swap1\n      pop\n      jump\t// out\n        /* \"#utility.yul\":21317:21496   */\n    tag_278:\n        /* \"#utility.yul\":21457:21488   */\n      0x4974656d206973206675727468657220696e2074686520636861696e21000000\n        /* \"#utility.yul\":21453:21454   */\n      0x00\n        /* \"#utility.yul\":21445:21451   */\n      dup3\n        /* \"#utility.yul\":21441:21455   */\n      add\n        /* \"#utility.yul\":21434:21489   */\n      mstore\n        /* \"#utility.yul\":21423:21496   */\n      pop\n      jump\t// out\n        /* \"#utility.yul\":21502:21673   */\n    tag_283:\n        /* \"#utility.yul\":21642:21665   */\n      0x596f7520617265206e6f7420746865206f776e65720000000000000000000000\n        /* \"#utility.yul\":21638:21639   */\n      0x00\n        /* \"#utility.yul\":21630:21636   */\n      dup3\n        /* \"#utility.yul\":21626:21640   */\n      add\n        /* \"#utility.yul\":21619:21666   */\n      mstore\n        /* \"#utility.yul\":21608:21673   */\n      pop\n      jump\t// out\n        /* \"#utility.yul\":21679:21858   */\n    tag_288:\n        /* \"#utility.yul\":21819:21850   */\n      0x50616964206974656d2063616e6e6f742075706461746520696e666f21000000\n        /* \"#utility.yul\":21815:21816   */\n      0x00\n        /* \"#utility.yul\":21807:21813   */\n      dup3\n        /* \"#utility.yul\":21803:21817   */\n      add\n        /* \"#utility.yul\":21796:21851   */\n      mstore\n        /* \"#utility.yul\":21785:21858   */\n      pop\n      jump\t// out\n        /* \"#utility.yul\":21864:22039   */\n    tag_293:\n        /* \"#utility.yul\":22004:22031   */\n      0x4e6f7468696e67206368616e676520746f207570646174652100000000000000\n        /* \"#utility.yul\":22000:22001   */\n      0x00\n        /* \"#utility.yul\":21992:21998   */\n      dup3\n        /* \"#utility.yul\":21988:22002   */\n      add\n        /* \"#utility.yul\":21981:22032   */\n      mstore\n        /* \"#utility.yul\":21970:22039   */\n      pop\n      jump\t// out\n        /* \"#utility.yul\":22045:22223   */\n    tag_298:\n        /* \"#utility.yul\":22185:22215   */\n      0x4f6e6c792066756c6c207061796d656e74732061636365707465642100000000\n        /* \"#utility.yul\":22181:22182   */\n      0x00\n        /* \"#utility.yul\":22173:22179   */\n      dup3\n        /* \"#utility.yul\":22169:22183   */\n      add\n        /* \"#utility.yul\":22162:22216   */\n      mstore\n        /* \"#utility.yul\":22151:22223   */\n      pop\n      jump\t// out\n        /* \"#utility.yul\":22229:22353   */\n    tag_382:\n        /* \"#utility.yul\":22321:22322   */\n      0x03\n        /* \"#utility.yul\":22314:22319   */\n      dup2\n        /* \"#utility.yul\":22311:22323   */\n      lt\n        /* \"#utility.yul\":22301:22303   */\n      tag_429\n      jumpi\n        /* \"#utility.yul\":22327:22345   */\n      tag_430\n      tag_418\n      jump\t// in\n    tag_430:\n        /* \"#utility.yul\":22301:22303   */\n    tag_429:\n        /* \"#utility.yul\":22291:22353   */\n      pop\n      jump\t// out\n        /* \"#utility.yul\":22359:22497   */\n    tag_180:\n        /* \"#utility.yul\":22440:22472   */\n      tag_432\n        /* \"#utility.yul\":22466:22471   */\n      dup2\n        /* \"#utility.yul\":22440:22472   */\n      tag_209\n      jump\t// in\n    tag_432:\n        /* \"#utility.yul\":22433:22438   */\n      dup2\n        /* \"#utility.yul\":22430:22473   */\n      eq\n        /* \"#utility.yul\":22420:22422   */\n      tag_433\n      jumpi\n        /* \"#utility.yul\":22487:22488   */\n      0x00\n        /* \"#utility.yul\":22484:22485   */\n      dup1\n        /* \"#utility.yul\":22477:22489   */\n      revert\n        /* \"#utility.yul\":22420:22422   */\n    tag_433:\n        /* \"#utility.yul\":22410:22497   */\n      pop\n      jump\t// out\n        /* \"#utility.yul\":22503:22625   */\n    tag_188:\n        /* \"#utility.yul\":22576:22600   */\n      tag_435\n        /* \"#utility.yul\":22594:22599   */\n      dup2\n        /* \"#utility.yul\":22576:22600   */\n      tag_311\n      jump\t// in\n    tag_435:\n        /* \"#utility.yul\":22569:22574   */\n      dup2\n        /* \"#utility.yul\":22566:22601   */\n      eq\n        /* \"#utility.yul\":22556:22558   */\n      tag_436\n      jumpi\n        /* \"#utility.yul\":22615:22616   */\n      0x00\n        /* \"#utility.yul\":22612:22613   */\n      dup1\n        /* \"#utility.yul\":22605:22617   */\n      revert\n        /* \"#utility.yul\":22556:22558   */\n    tag_436:\n        /* \"#utility.yul\":22546:22625   */\n      pop\n      jump\t// out\n    stop\n\n    sub_0: assembly {\n            /* \"Item.sol\":118:966  contract Item {\r... */\n          mstore(0x40, 0x80)\n            /* \"Item.sol\":264:489  constructor(\r... */\n          callvalue\n          dup1\n          iszero\n          tag_1\n          jumpi\n          0x00\n          dup1\n          revert\n        tag_1:\n          pop\n          mload(0x40)\n          sub(codesize, bytecodeSize)\n          dup1\n          bytecodeSize\n          dup4\n          codecopy\n          dup2\n          dup2\n          add\n          0x40\n          mstore\n          dup2\n          add\n          swap1\n          tag_2\n          swap2\n          swap1\n          tag_3\n          jump\t// in\n        tag_2:\n            /* \"Item.sol\":401:412  _priceInWei */\n          dup2\n            /* \"Item.sol\":388:398  priceInWei */\n          0x00\n            /* \"Item.sol\":388:412  priceInWei = _priceInWei */\n          dup2\n          swap1\n          sstore\n          pop\n            /* \"Item.sol\":431:438  _indedx */\n          dup1\n            /* \"Item.sol\":423:428  index */\n          0x02\n            /* \"Item.sol\":423:438  index = _indedx */\n          dup2\n          swap1\n          sstore\n          pop\n            /* \"Item.sol\":466:481  _parentContract */\n          dup3\n            /* \"Item.sol\":449:463  parentContract */\n          0x03\n          0x00\n            /* \"Item.sol\":449:481  parentContract = _parentContract */\n          0x0100\n          exp\n          dup2\n          sload\n          dup2\n          0xffffffffffffffffffffffffffffffffffffffff\n          mul\n          not\n          and\n          swap1\n          dup4\n          0xffffffffffffffffffffffffffffffffffffffff\n          and\n          mul\n          or\n          swap1\n          sstore\n          pop\n            /* \"Item.sol\":264:489  constructor(\r... */\n          pop\n          pop\n          pop\n            /* \"Item.sol\":118:966  contract Item {\r... */\n          jump(tag_6)\n            /* \"#utility.yul\":7:188   */\n        tag_8:\n          0x00\n            /* \"#utility.yul\":114:120   */\n          dup2\n            /* \"#utility.yul\":108:121   */\n          mload\n            /* \"#utility.yul\":99:121   */\n          swap1\n          pop\n            /* \"#utility.yul\":130:182   */\n          tag_10\n            /* \"#utility.yul\":176:181   */\n          dup2\n            /* \"#utility.yul\":130:182   */\n          tag_11\n          jump\t// in\n        tag_10:\n            /* \"#utility.yul\":89:188   */\n          swap3\n          swap2\n          pop\n          pop\n          jump\t// out\n            /* \"#utility.yul\":194:337   */\n        tag_12:\n          0x00\n            /* \"#utility.yul\":282:288   */\n          dup2\n            /* \"#utility.yul\":276:289   */\n          mload\n            /* \"#utility.yul\":267:289   */\n          swap1\n          pop\n            /* \"#utility.yul\":298:331   */\n          tag_14\n            /* \"#utility.yul\":325:330   */\n          dup2\n            /* \"#utility.yul\":298:331   */\n          tag_15\n          jump\t// in\n        tag_14:\n            /* \"#utility.yul\":257:337   */\n          swap3\n          swap2\n          pop\n          pop\n          jump\t// out\n            /* \"#utility.yul\":343:977   */\n        tag_3:\n          0x00\n          dup1\n          0x00\n            /* \"#utility.yul\":515:517   */\n          0x60\n            /* \"#utility.yul\":503:512   */\n          dup5\n            /* \"#utility.yul\":494:501   */\n          dup7\n            /* \"#utility.yul\":490:513   */\n          sub\n            /* \"#utility.yul\":486:518   */\n          slt\n            /* \"#utility.yul\":483:485   */\n          iszero\n          tag_17\n          jumpi\n            /* \"#utility.yul\":531:532   */\n          0x00\n            /* \"#utility.yul\":528:529   */\n          dup1\n            /* \"#utility.yul\":521:533   */\n          revert\n            /* \"#utility.yul\":483:485   */\n        tag_17:\n            /* \"#utility.yul\":574:575   */\n          0x00\n            /* \"#utility.yul\":599:682   */\n          tag_18\n            /* \"#utility.yul\":674:681   */\n          dup7\n            /* \"#utility.yul\":665:671   */\n          dup3\n            /* \"#utility.yul\":654:663   */\n          dup8\n            /* \"#utility.yul\":650:672   */\n          add\n            /* \"#utility.yul\":599:682   */\n          tag_8\n          jump\t// in\n        tag_18:\n            /* \"#utility.yul\":589:682   */\n          swap4\n          pop\n            /* \"#utility.yul\":545:692   */\n          pop\n            /* \"#utility.yul\":731:733   */\n          0x20\n            /* \"#utility.yul\":757:821   */\n          tag_19\n            /* \"#utility.yul\":813:820   */\n          dup7\n            /* \"#utility.yul\":804:810   */\n          dup3\n            /* \"#utility.yul\":793:802   */\n          dup8\n            /* \"#utility.yul\":789:811   */\n          add\n            /* \"#utility.yul\":757:821   */\n          tag_12\n          jump\t// in\n        tag_19:\n            /* \"#utility.yul\":747:821   */\n          swap3\n          pop\n            /* \"#utility.yul\":702:831   */\n          pop\n            /* \"#utility.yul\":870:872   */\n          0x40\n            /* \"#utility.yul\":896:960   */\n          tag_20\n            /* \"#utility.yul\":952:959   */\n          dup7\n            /* \"#utility.yul\":943:949   */\n          dup3\n            /* \"#utility.yul\":932:941   */\n          dup8\n            /* \"#utility.yul\":928:950   */\n          add\n            /* \"#utility.yul\":896:960   */\n          tag_12\n          jump\t// in\n        tag_20:\n            /* \"#utility.yul\":886:960   */\n          swap2\n          pop\n            /* \"#utility.yul\":841:970   */\n          pop\n            /* \"#utility.yul\":473:977   */\n          swap3\n          pop\n          swap3\n          pop\n          swap3\n          jump\t// out\n            /* \"#utility.yul\":983:1079   */\n        tag_21:\n          0x00\n            /* \"#utility.yul\":1049:1073   */\n          tag_23\n            /* \"#utility.yul\":1067:1072   */\n          dup3\n            /* \"#utility.yul\":1049:1073   */\n          tag_24\n          jump\t// in\n        tag_23:\n            /* \"#utility.yul\":1038:1073   */\n          swap1\n          pop\n            /* \"#utility.yul\":1028:1079   */\n          swap2\n          swap1\n          pop\n          jump\t// out\n            /* \"#utility.yul\":1085:1200   */\n        tag_25:\n          0x00\n            /* \"#utility.yul\":1170:1194   */\n          tag_27\n            /* \"#utility.yul\":1188:1193   */\n          dup3\n            /* \"#utility.yul\":1170:1194   */\n          tag_21\n          jump\t// in\n        tag_27:\n            /* \"#utility.yul\":1159:1194   */\n          swap1\n          pop\n            /* \"#utility.yul\":1149:1200   */\n          swap2\n          swap1\n          pop\n          jump\t// out\n            /* \"#utility.yul\":1206:1332   */\n        tag_24:\n          0x00\n            /* \"#utility.yul\":1283:1325   */\n          0xffffffffffffffffffffffffffffffffffffffff\n            /* \"#utility.yul\":1276:1281   */\n          dup3\n            /* \"#utility.yul\":1272:1326   */\n          and\n            /* \"#utility.yul\":1261:1326   */\n          swap1\n          pop\n            /* \"#utility.yul\":1251:1332   */\n          swap2\n          swap1\n          pop\n          jump\t// out\n            /* \"#utility.yul\":1338:1415   */\n        tag_29:\n          0x00\n            /* \"#utility.yul\":1404:1409   */\n          dup2\n            /* \"#utility.yul\":1393:1409   */\n          swap1\n          pop\n            /* \"#utility.yul\":1383:1415   */\n          swap2\n          swap1\n          pop\n          jump\t// out\n            /* \"#utility.yul\":1421:1581   */\n        tag_11:\n            /* \"#utility.yul\":1513:1556   */\n          tag_32\n            /* \"#utility.yul\":1550:1555   */\n          dup2\n            /* \"#utility.yul\":1513:1556   */\n          tag_25\n          jump\t// in\n        tag_32:\n            /* \"#utility.yul\":1506:1511   */\n          dup2\n            /* \"#utility.yul\":1503:1557   */\n          eq\n            /* \"#utility.yul\":1493:1495   */\n          tag_33\n          jumpi\n            /* \"#utility.yul\":1571:1572   */\n          0x00\n            /* \"#utility.yul\":1568:1569   */\n          dup1\n            /* \"#utility.yul\":1561:1573   */\n          revert\n            /* \"#utility.yul\":1493:1495   */\n        tag_33:\n            /* \"#utility.yul\":1483:1581   */\n          pop\n          jump\t// out\n            /* \"#utility.yul\":1587:1709   */\n        tag_15:\n            /* \"#utility.yul\":1660:1684   */\n          tag_35\n            /* \"#utility.yul\":1678:1683   */\n          dup2\n            /* \"#utility.yul\":1660:1684   */\n          tag_29\n          jump\t// in\n        tag_35:\n            /* \"#utility.yul\":1653:1658   */\n          dup2\n            /* \"#utility.yul\":1650:1685   */\n          eq\n            /* \"#utility.yul\":1640:1642   */\n          tag_36\n          jumpi\n            /* \"#utility.yul\":1699:1700   */\n          0x00\n            /* \"#utility.yul\":1696:1697   */\n          dup1\n            /* \"#utility.yul\":1689:1701   */\n          revert\n            /* \"#utility.yul\":1640:1642   */\n        tag_36:\n            /* \"#utility.yul\":1630:1709   */\n          pop\n          jump\t// out\n            /* \"Item.sol\":118:966  contract Item {\r... */\n        tag_6:\n          dataSize(sub_0)\n          dup1\n          dataOffset(sub_0)\n          0x00\n          codecopy\n          0x00\n          return\n        stop\n\n        sub_0: assembly {\n                /* \"Item.sol\":118:966  contract Item {\r... */\n              mstore(0x40, 0x80)\n              jumpi(tag_1, lt(calldatasize, 0x04))\n              shr(0xe0, calldataload(0x00))\n              dup1\n              0x2986c0e5\n              eq\n              tag_3\n              jumpi\n              dup1\n              0x3c8da588\n              eq\n              tag_4\n              jumpi\n              dup1\n              0x89794d00\n              eq\n              tag_5\n              jumpi\n              jump(tag_2)\n            tag_1:\n              jumpi(tag_2, calldatasize)\n                /* \"Item.sol\":556:557  0 */\n              0x00\n                /* \"Item.sol\":543:552  pricePaid */\n              sload(0x01)\n                /* \"Item.sol\":543:557  pricePaid == 0 */\n              eq\n                /* \"Item.sol\":535:583  require(pricePaid == 0, \"Item is paid already!\") */\n              tag_8\n              jumpi\n              mload(0x40)\n              0x08c379a000000000000000000000000000000000000000000000000000000000\n              dup2\n              mstore\n              0x04\n              add\n              tag_9\n              swap1\n              tag_10\n              jump\t// in\n            tag_9:\n              mload(0x40)\n              dup1\n              swap2\n              sub\n              swap1\n              revert\n            tag_8:\n                /* \"Item.sol\":616:625  msg.value */\n              callvalue\n                /* \"Item.sol\":602:612  priceInWei */\n              sload(0x00)\n                /* \"Item.sol\":602:625  priceInWei == msg.value */\n              eq\n                /* \"Item.sol\":594:656  require(priceInWei == msg.value, \"Only full payments allowed\") */\n              tag_11\n              jumpi\n              mload(0x40)\n              0x08c379a000000000000000000000000000000000000000000000000000000000\n              dup2\n              mstore\n              0x04\n              add\n              tag_12\n              swap1\n              tag_13\n              jump\t// in\n            tag_12:\n              mload(0x40)\n              dup1\n              swap2\n              sub\n              swap1\n              revert\n            tag_11:\n                /* \"Item.sol\":680:689  msg.value */\n              callvalue\n                /* \"Item.sol\":667:676  pricePaid */\n              0x01\n              0x00\n                /* \"Item.sol\":667:689  pricePaid += msg.value */\n              dup3\n              dup3\n              sload\n              tag_14\n              swap2\n              swap1\n              tag_15\n              jump\t// in\n            tag_14:\n              swap3\n              pop\n              pop\n              dup2\n              swap1\n              sstore\n              pop\n                /* \"Item.sol\":701:713  bool success */\n              0x00\n                /* \"Item.sol\":727:741  parentContract */\n              0x03\n              0x00\n              swap1\n              sload\n              swap1\n              0x0100\n              exp\n              swap1\n              div\n              0xffffffffffffffffffffffffffffffffffffffff\n              and\n                /* \"Item.sol\":719:747  address(parentContract).call */\n              0xffffffffffffffffffffffffffffffffffffffff\n              and\n                /* \"Item.sol\":755:764  msg.value */\n              callvalue\n                /* \"Item.sol\":831:836  index */\n              sload(0x02)\n                /* \"Item.sol\":780:837  abi.encodeWithSignature(\"triggerPayment(uint256)\", index) */\n              add(0x24, mload(0x40))\n              tag_16\n              swap2\n              swap1\n              tag_17\n              jump\t// in\n            tag_16:\n              mload(0x40)\n              0x20\n              dup2\n              dup4\n              sub\n              sub\n              dup2\n              mstore\n              swap1\n              0x40\n              mstore\n              and(not(0xffffffffffffffffffffffffffffffffffffffffffffffffffffffff), 0x800fb83f00000000000000000000000000000000000000000000000000000000)\n              0x20\n              dup3\n              add\n              dup1\n              mload\n              0xffffffffffffffffffffffffffffffffffffffffffffffffffffffff\n              dup4\n              dup2\n              dup4\n              and\n              or\n              dup4\n              mstore\n              pop\n              pop\n              pop\n              pop\n                /* \"Item.sol\":719:848  address(parentContract).call{value: msg.value}(\r... */\n              mload(0x40)\n              tag_18\n              swap2\n              swap1\n              tag_19\n              jump\t// in\n            tag_18:\n              0x00\n              mload(0x40)\n              dup1\n              dup4\n              sub\n              dup2\n              dup6\n              dup8\n              gas\n              call\n              swap3\n              pop\n              pop\n              pop\n              returndatasize\n              dup1\n              0x00\n              dup2\n              eq\n              tag_22\n              jumpi\n              mload(0x40)\n              swap2\n              pop\n              and(add(returndatasize, 0x3f), not(0x1f))\n              dup3\n              add\n              0x40\n              mstore\n              returndatasize\n              dup3\n              mstore\n              returndatasize\n              0x00\n              0x20\n              dup5\n              add\n              returndatacopy\n              jump(tag_21)\n            tag_22:\n              0x60\n              swap2\n              pop\n            tag_21:\n              pop\n                /* \"Item.sol\":700:848  (bool success, ) = address(parentContract).call{value: msg.value}(\r... */\n              pop\n              swap1\n              pop\n                /* \"Item.sol\":867:874  success */\n              dup1\n                /* \"Item.sol\":859:925  require(success, \"The transaction wasn't successfull, cancelling\") */\n              tag_23\n              jumpi\n              mload(0x40)\n              0x08c379a000000000000000000000000000000000000000000000000000000000\n              dup2\n              mstore\n              0x04\n              add\n              tag_24\n              swap1\n              tag_25\n              jump\t// in\n            tag_24:\n              mload(0x40)\n              dup1\n              swap2\n              sub\n              swap1\n              revert\n            tag_23:\n                /* \"Item.sol\":497:933  receive() external payable {\r... */\n              pop\n                /* \"Item.sol\":118:966  contract Item {\r... */\n              stop\n            tag_2:\n              callvalue\n              dup1\n              iszero\n              tag_26\n              jumpi\n              0x00\n              dup1\n              revert\n            tag_26:\n              pop\n              stop\n                /* \"Item.sol\":202:222  uint256 public index */\n            tag_3:\n              callvalue\n              dup1\n              iszero\n              tag_29\n              jumpi\n              0x00\n              dup1\n              revert\n            tag_29:\n              pop\n              tag_30\n              tag_31\n              jump\t// in\n            tag_30:\n              mload(0x40)\n              tag_32\n              swap2\n              swap1\n              tag_17\n              jump\t// in\n            tag_32:\n              mload(0x40)\n              dup1\n              swap2\n              sub\n              swap1\n              return\n                /* \"Item.sol\":139:164  uint256 public priceInWei */\n            tag_4:\n              callvalue\n              dup1\n              iszero\n              tag_33\n              jumpi\n              0x00\n              dup1\n              revert\n            tag_33:\n              pop\n              tag_34\n              tag_35\n              jump\t// in\n            tag_34:\n              mload(0x40)\n              tag_36\n              swap2\n              swap1\n              tag_17\n              jump\t// in\n            tag_36:\n              mload(0x40)\n              dup1\n              swap2\n              sub\n              swap1\n              return\n                /* \"Item.sol\":171:195  uint256 public pricePaid */\n            tag_5:\n              callvalue\n              dup1\n              iszero\n              tag_37\n              jumpi\n              0x00\n              dup1\n              revert\n            tag_37:\n              pop\n              tag_38\n              tag_39\n              jump\t// in\n            tag_38:\n              mload(0x40)\n              tag_40\n              swap2\n              swap1\n              tag_17\n              jump\t// in\n            tag_40:\n              mload(0x40)\n              dup1\n              swap2\n              sub\n              swap1\n              return\n                /* \"Item.sol\":202:222  uint256 public index */\n            tag_31:\n              sload(0x02)\n              dup2\n              jump\t// out\n                /* \"Item.sol\":139:164  uint256 public priceInWei */\n            tag_35:\n              sload(0x00)\n              dup2\n              jump\t// out\n                /* \"Item.sol\":171:195  uint256 public pricePaid */\n            tag_39:\n              sload(0x01)\n              dup2\n              jump\t// out\n                /* \"#utility.yul\":7:380   */\n            tag_42:\n              0x00\n                /* \"#utility.yul\":139:177   */\n              tag_44\n                /* \"#utility.yul\":171:176   */\n              dup3\n                /* \"#utility.yul\":139:177   */\n              tag_45\n              jump\t// in\n            tag_44:\n                /* \"#utility.yul\":193:281   */\n              tag_46\n                /* \"#utility.yul\":274:280   */\n              dup2\n                /* \"#utility.yul\":269:272   */\n              dup6\n                /* \"#utility.yul\":193:281   */\n              tag_47\n              jump\t// in\n            tag_46:\n                /* \"#utility.yul\":186:281   */\n              swap4\n              pop\n                /* \"#utility.yul\":290:342   */\n              tag_48\n                /* \"#utility.yul\":335:341   */\n              dup2\n                /* \"#utility.yul\":330:333   */\n              dup6\n                /* \"#utility.yul\":323:327   */\n              0x20\n                /* \"#utility.yul\":316:321   */\n              dup7\n                /* \"#utility.yul\":312:328   */\n              add\n                /* \"#utility.yul\":290:342   */\n              tag_49\n              jump\t// in\n            tag_48:\n                /* \"#utility.yul\":367:373   */\n              dup1\n                /* \"#utility.yul\":362:365   */\n              dup5\n                /* \"#utility.yul\":358:374   */\n              add\n                /* \"#utility.yul\":351:374   */\n              swap2\n              pop\n                /* \"#utility.yul\":115:380   */\n              pop\n              swap3\n              swap2\n              pop\n              pop\n              jump\t// out\n                /* \"#utility.yul\":386:752   */\n            tag_50:\n              0x00\n                /* \"#utility.yul\":549:616   */\n              tag_52\n                /* \"#utility.yul\":613:615   */\n              0x2e\n                /* \"#utility.yul\":608:611   */\n              dup4\n                /* \"#utility.yul\":549:616   */\n              tag_53\n              jump\t// in\n            tag_52:\n                /* \"#utility.yul\":542:616   */\n              swap2\n              pop\n                /* \"#utility.yul\":625:718   */\n              tag_54\n                /* \"#utility.yul\":714:717   */\n              dup3\n                /* \"#utility.yul\":625:718   */\n              tag_55\n              jump\t// in\n            tag_54:\n                /* \"#utility.yul\":743:745   */\n              0x40\n                /* \"#utility.yul\":738:741   */\n              dup3\n                /* \"#utility.yul\":734:746   */\n              add\n                /* \"#utility.yul\":727:746   */\n              swap1\n              pop\n                /* \"#utility.yul\":532:752   */\n              swap2\n              swap1\n              pop\n              jump\t// out\n                /* \"#utility.yul\":758:1124   */\n            tag_56:\n              0x00\n                /* \"#utility.yul\":921:988   */\n              tag_58\n                /* \"#utility.yul\":985:987   */\n              0x15\n                /* \"#utility.yul\":980:983   */\n              dup4\n                /* \"#utility.yul\":921:988   */\n              tag_53\n              jump\t// in\n            tag_58:\n                /* \"#utility.yul\":914:988   */\n              swap2\n              pop\n                /* \"#utility.yul\":997:1090   */\n              tag_59\n                /* \"#utility.yul\":1086:1089   */\n              dup3\n                /* \"#utility.yul\":997:1090   */\n              tag_60\n              jump\t// in\n            tag_59:\n                /* \"#utility.yul\":1115:1117   */\n              0x20\n                /* \"#utility.yul\":1110:1113   */\n              dup3\n                /* \"#utility.yul\":1106:1118   */\n              add\n                /* \"#utility.yul\":1099:1118   */\n              swap1\n              pop\n                /* \"#utility.yul\":904:1124   */\n              swap2\n              swap1\n              pop\n              jump\t// out\n                /* \"#utility.yul\":1130:1496   */\n            tag_61:\n              0x00\n                /* \"#utility.yul\":1293:1360   */\n              tag_63\n                /* \"#utility.yul\":1357:1359   */\n              0x1a\n                /* \"#utility.yul\":1352:1355   */\n              dup4\n                /* \"#utility.yul\":1293:1360   */\n              tag_53\n              jump\t// in\n            tag_63:\n                /* \"#utility.yul\":1286:1360   */\n              swap2\n              pop\n                /* \"#utility.yul\":1369:1462   */\n              tag_64\n                /* \"#utility.yul\":1458:1461   */\n              dup3\n                /* \"#utility.yul\":1369:1462   */\n              tag_65\n              jump\t// in\n            tag_64:\n                /* \"#utility.yul\":1487:1489   */\n              0x20\n                /* \"#utility.yul\":1482:1485   */\n              dup3\n                /* \"#utility.yul\":1478:1490   */\n              add\n                /* \"#utility.yul\":1471:1490   */\n              swap1\n              pop\n                /* \"#utility.yul\":1276:1496   */\n              swap2\n              swap1\n              pop\n              jump\t// out\n                /* \"#utility.yul\":1502:1620   */\n            tag_66:\n                /* \"#utility.yul\":1589:1613   */\n              tag_68\n                /* \"#utility.yul\":1607:1612   */\n              dup2\n                /* \"#utility.yul\":1589:1613   */\n              tag_69\n              jump\t// in\n            tag_68:\n                /* \"#utility.yul\":1584:1587   */\n              dup3\n                /* \"#utility.yul\":1577:1614   */\n              mstore\n                /* \"#utility.yul\":1567:1620   */\n              pop\n              pop\n              jump\t// out\n                /* \"#utility.yul\":1626:1897   */\n            tag_19:\n              0x00\n                /* \"#utility.yul\":1778:1871   */\n              tag_71\n                /* \"#utility.yul\":1867:1870   */\n              dup3\n                /* \"#utility.yul\":1858:1864   */\n              dup5\n                /* \"#utility.yul\":1778:1871   */\n              tag_42\n              jump\t// in\n            tag_71:\n                /* \"#utility.yul\":1771:1871   */\n              swap2\n              pop\n                /* \"#utility.yul\":1888:1891   */\n              dup2\n                /* \"#utility.yul\":1881:1891   */\n              swap1\n              pop\n                /* \"#utility.yul\":1760:1897   */\n              swap3\n              swap2\n              pop\n              pop\n              jump\t// out\n                /* \"#utility.yul\":1903:2322   */\n            tag_25:\n              0x00\n                /* \"#utility.yul\":2107:2109   */\n              0x20\n                /* \"#utility.yul\":2096:2105   */\n              dup3\n                /* \"#utility.yul\":2092:2110   */\n              add\n                /* \"#utility.yul\":2084:2110   */\n              swap1\n              pop\n                /* \"#utility.yul\":2156:2165   */\n              dup2\n                /* \"#utility.yul\":2150:2154   */\n              dup2\n                /* \"#utility.yul\":2146:2166   */\n              sub\n                /* \"#utility.yul\":2142:2143   */\n              0x00\n                /* \"#utility.yul\":2131:2140   */\n              dup4\n                /* \"#utility.yul\":2127:2144   */\n              add\n                /* \"#utility.yul\":2120:2167   */\n              mstore\n                /* \"#utility.yul\":2184:2315   */\n              tag_73\n                /* \"#utility.yul\":2310:2314   */\n              dup2\n                /* \"#utility.yul\":2184:2315   */\n              tag_50\n              jump\t// in\n            tag_73:\n                /* \"#utility.yul\":2176:2315   */\n              swap1\n              pop\n                /* \"#utility.yul\":2074:2322   */\n              swap2\n              swap1\n              pop\n              jump\t// out\n                /* \"#utility.yul\":2328:2747   */\n            tag_10:\n              0x00\n                /* \"#utility.yul\":2532:2534   */\n              0x20\n                /* \"#utility.yul\":2521:2530   */\n              dup3\n                /* \"#utility.yul\":2517:2535   */\n              add\n                /* \"#utility.yul\":2509:2535   */\n              swap1\n              pop\n                /* \"#utility.yul\":2581:2590   */\n              dup2\n                /* \"#utility.yul\":2575:2579   */\n              dup2\n                /* \"#utility.yul\":2571:2591   */\n              sub\n                /* \"#utility.yul\":2567:2568   */\n              0x00\n                /* \"#utility.yul\":2556:2565   */\n              dup4\n                /* \"#utility.yul\":2552:2569   */\n              add\n                /* \"#utility.yul\":2545:2592   */\n              mstore\n                /* \"#utility.yul\":2609:2740   */\n              tag_75\n                /* \"#utility.yul\":2735:2739   */\n              dup2\n                /* \"#utility.yul\":2609:2740   */\n              tag_56\n              jump\t// in\n            tag_75:\n                /* \"#utility.yul\":2601:2740   */\n              swap1\n              pop\n                /* \"#utility.yul\":2499:2747   */\n              swap2\n              swap1\n              pop\n              jump\t// out\n                /* \"#utility.yul\":2753:3172   */\n            tag_13:\n              0x00\n                /* \"#utility.yul\":2957:2959   */\n              0x20\n                /* \"#utility.yul\":2946:2955   */\n              dup3\n                /* \"#utility.yul\":2942:2960   */\n              add\n                /* \"#utility.yul\":2934:2960   */\n              swap1\n              pop\n                /* \"#utility.yul\":3006:3015   */\n              dup2\n                /* \"#utility.yul\":3000:3004   */\n              dup2\n                /* \"#utility.yul\":2996:3016   */\n              sub\n                /* \"#utility.yul\":2992:2993   */\n              0x00\n                /* \"#utility.yul\":2981:2990   */\n              dup4\n                /* \"#utility.yul\":2977:2994   */\n              add\n                /* \"#utility.yul\":2970:3017   */\n              mstore\n                /* \"#utility.yul\":3034:3165   */\n              tag_77\n                /* \"#utility.yul\":3160:3164   */\n              dup2\n                /* \"#utility.yul\":3034:3165   */\n              tag_61\n              jump\t// in\n            tag_77:\n                /* \"#utility.yul\":3026:3165   */\n              swap1\n              pop\n                /* \"#utility.yul\":2924:3172   */\n              swap2\n              swap1\n              pop\n              jump\t// out\n                /* \"#utility.yul\":3178:3400   */\n            tag_17:\n              0x00\n                /* \"#utility.yul\":3309:3311   */\n              0x20\n                /* \"#utility.yul\":3298:3307   */\n              dup3\n                /* \"#utility.yul\":3294:3312   */\n              add\n                /* \"#utility.yul\":3286:3312   */\n              swap1\n              pop\n                /* \"#utility.yul\":3322:3393   */\n              tag_79\n                /* \"#utility.yul\":3390:3391   */\n              0x00\n                /* \"#utility.yul\":3379:3388   */\n              dup4\n                /* \"#utility.yul\":3375:3392   */\n              add\n                /* \"#utility.yul\":3366:3372   */\n              dup5\n                /* \"#utility.yul\":3322:3393   */\n              tag_66\n              jump\t// in\n            tag_79:\n                /* \"#utility.yul\":3276:3400   */\n              swap3\n              swap2\n              pop\n              pop\n              jump\t// out\n                /* \"#utility.yul\":3406:3504   */\n            tag_45:\n              0x00\n                /* \"#utility.yul\":3491:3496   */\n              dup2\n                /* \"#utility.yul\":3485:3497   */\n              mload\n                /* \"#utility.yul\":3475:3497   */\n              swap1\n              pop\n                /* \"#utility.yul\":3464:3504   */\n              swap2\n              swap1\n              pop\n              jump\t// out\n                /* \"#utility.yul\":3510:3657   */\n            tag_47:\n              0x00\n                /* \"#utility.yul\":3648:3651   */\n              dup2\n                /* \"#utility.yul\":3633:3651   */\n              swap1\n              pop\n                /* \"#utility.yul\":3623:3657   */\n              swap3\n              swap2\n              pop\n              pop\n              jump\t// out\n                /* \"#utility.yul\":3663:3832   */\n            tag_53:\n              0x00\n                /* \"#utility.yul\":3781:3787   */\n              dup3\n                /* \"#utility.yul\":3776:3779   */\n              dup3\n                /* \"#utility.yul\":3769:3788   */\n              mstore\n                /* \"#utility.yul\":3821:3825   */\n              0x20\n                /* \"#utility.yul\":3816:3819   */\n              dup3\n                /* \"#utility.yul\":3812:3826   */\n              add\n                /* \"#utility.yul\":3797:3826   */\n              swap1\n              pop\n                /* \"#utility.yul\":3759:3832   */\n              swap3\n              swap2\n              pop\n              pop\n              jump\t// out\n                /* \"#utility.yul\":3838:4143   */\n            tag_15:\n              0x00\n                /* \"#utility.yul\":3897:3917   */\n              tag_84\n                /* \"#utility.yul\":3915:3916   */\n              dup3\n                /* \"#utility.yul\":3897:3917   */\n              tag_69\n              jump\t// in\n            tag_84:\n                /* \"#utility.yul\":3892:3917   */\n              swap2\n              pop\n                /* \"#utility.yul\":3931:3951   */\n              tag_85\n                /* \"#utility.yul\":3949:3950   */\n              dup4\n                /* \"#utility.yul\":3931:3951   */\n              tag_69\n              jump\t// in\n            tag_85:\n                /* \"#utility.yul\":3926:3951   */\n              swap3\n              pop\n                /* \"#utility.yul\":4085:4086   */\n              dup3\n                /* \"#utility.yul\":4017:4083   */\n              0xffffffffffffffffffffffffffffffffffffffffffffffffffffffffffffffff\n                /* \"#utility.yul\":4013:4087   */\n              sub\n                /* \"#utility.yul\":4010:4011   */\n              dup3\n                /* \"#utility.yul\":4007:4088   */\n              gt\n                /* \"#utility.yul\":4004:4006   */\n              iszero\n              tag_86\n              jumpi\n                /* \"#utility.yul\":4091:4109   */\n              tag_87\n              tag_88\n              jump\t// in\n            tag_87:\n                /* \"#utility.yul\":4004:4006   */\n            tag_86:\n                /* \"#utility.yul\":4135:4136   */\n              dup3\n                /* \"#utility.yul\":4132:4133   */\n              dup3\n                /* \"#utility.yul\":4128:4137   */\n              add\n                /* \"#utility.yul\":4121:4137   */\n              swap1\n              pop\n                /* \"#utility.yul\":3882:4143   */\n              swap3\n              swap2\n              pop\n              pop\n              jump\t// out\n                /* \"#utility.yul\":4149:4226   */\n            tag_69:\n              0x00\n                /* \"#utility.yul\":4215:4220   */\n              dup2\n                /* \"#utility.yul\":4204:4220   */\n              swap1\n              pop\n                /* \"#utility.yul\":4194:4226   */\n              swap2\n              swap1\n              pop\n              jump\t// out\n                /* \"#utility.yul\":4232:4539   */\n            tag_49:\n                /* \"#utility.yul\":4300:4301   */\n              0x00\n                /* \"#utility.yul\":4310:4423   */\n            tag_91:\n                /* \"#utility.yul\":4324:4330   */\n              dup4\n                /* \"#utility.yul\":4321:4322   */\n              dup2\n                /* \"#utility.yul\":4318:4331   */\n              lt\n                /* \"#utility.yul\":4310:4423   */\n              iszero\n              tag_93\n              jumpi\n                /* \"#utility.yul\":4409:4410   */\n              dup1\n                /* \"#utility.yul\":4404:4407   */\n              dup3\n                /* \"#utility.yul\":4400:4411   */\n              add\n                /* \"#utility.yul\":4394:4412   */\n              mload\n                /* \"#utility.yul\":4390:4391   */\n              dup2\n                /* \"#utility.yul\":4385:4388   */\n              dup5\n                /* \"#utility.yul\":4381:4392   */\n              add\n                /* \"#utility.yul\":4374:4413   */\n              mstore\n                /* \"#utility.yul\":4346:4348   */\n              0x20\n                /* \"#utility.yul\":4343:4344   */\n              dup2\n                /* \"#utility.yul\":4339:4349   */\n              add\n                /* \"#utility.yul\":4334:4349   */\n              swap1\n              pop\n                /* \"#utility.yul\":4310:4423   */\n              jump(tag_91)\n            tag_93:\n                /* \"#utility.yul\":4441:4447   */\n              dup4\n                /* \"#utility.yul\":4438:4439   */\n              dup2\n                /* \"#utility.yul\":4435:4448   */\n              gt\n                /* \"#utility.yul\":4432:4434   */\n              iszero\n              tag_94\n              jumpi\n                /* \"#utility.yul\":4521:4522   */\n              0x00\n                /* \"#utility.yul\":4512:4518   */\n              dup5\n                /* \"#utility.yul\":4507:4510   */\n              dup5\n                /* \"#utility.yul\":4503:4519   */\n              add\n                /* \"#utility.yul\":4496:4523   */\n              mstore\n                /* \"#utility.yul\":4432:4434   */\n            tag_94:\n                /* \"#utility.yul\":4281:4539   */\n              pop\n              pop\n              pop\n              pop\n              jump\t// out\n                /* \"#utility.yul\":4545:4725   */\n            tag_88:\n                /* \"#utility.yul\":4593:4670   */\n              0x4e487b7100000000000000000000000000000000000000000000000000000000\n                /* \"#utility.yul\":4590:4591   */\n              0x00\n                /* \"#utility.yul\":4583:4671   */\n              mstore\n                /* \"#utility.yul\":4690:4694   */\n              0x11\n                /* \"#utility.yul\":4687:4688   */\n              0x04\n                /* \"#utility.yul\":4680:4695   */\n              mstore\n                /* \"#utility.yul\":4714:4718   */\n              0x24\n                /* \"#utility.yul\":4711:4712   */\n              0x00\n                /* \"#utility.yul\":4704:4719   */\n              revert\n                /* \"#utility.yul\":4731:4964   */\n            tag_55:\n                /* \"#utility.yul\":4871:4905   */\n              0x546865207472616e73616374696f6e207761736e277420737563636573736675\n                /* \"#utility.yul\":4867:4868   */\n              0x00\n                /* \"#utility.yul\":4859:4865   */\n              dup3\n                /* \"#utility.yul\":4855:4869   */\n              add\n                /* \"#utility.yul\":4848:4906   */\n              mstore\n                /* \"#utility.yul\":4940:4956   */\n              0x6c6c2c2063616e63656c6c696e67000000000000000000000000000000000000\n                /* \"#utility.yul\":4935:4937   */\n              0x20\n                /* \"#utility.yul\":4927:4933   */\n              dup3\n                /* \"#utility.yul\":4923:4938   */\n              add\n                /* \"#utility.yul\":4916:4957   */\n              mstore\n                /* \"#utility.yul\":4837:4964   */\n              pop\n              jump\t// out\n                /* \"#utility.yul\":4970:5141   */\n            tag_60:\n                /* \"#utility.yul\":5110:5133   */\n              0x4974656d206973207061696420616c7265616479210000000000000000000000\n                /* \"#utility.yul\":5106:5107   */\n              0x00\n                /* \"#utility.yul\":5098:5104   */\n              dup3\n                /* \"#utility.yul\":5094:5108   */\n              add\n                /* \"#utility.yul\":5087:5134   */\n              mstore\n                /* \"#utility.yul\":5076:5141   */\n              pop\n              jump\t// out\n                /* \"#utility.yul\":5147:5323   */\n            tag_65:\n                /* \"#utility.yul\":5287:5315   */\n              0x4f6e6c792066756c6c207061796d656e747320616c6c6f776564000000000000\n                /* \"#utility.yul\":5283:5284   */\n              0x00\n                /* \"#utility.yul\":5275:5281   */\n              dup3\n                /* \"#utility.yul\":5271:5285   */\n              add\n                /* \"#utility.yul\":5264:5316   */\n              mstore\n                /* \"#utility.yul\":5253:5323   */\n              pop\n              jump\t// out\n\n            auxdata: 0xa2646970667358221220fb6c76e99a7223eb7a7fac979edeb999524f74282e3fbccd37cff189a3d020ed64736f6c63430008010033\n        }\n    }\n\n    auxdata: 0xa264697066735822122008aaf19788e5fdf80adac3d1f9206c423c42ee68d250f94f732097b67b03edaa64736f6c63430008010033\n}\n",
				"bytecode": {
					"linkReferences": {},
					"object": "608060405234801561001057600080fd5b50336000806101000a81548173ffffffffffffffffffffffffffffffffffffffff021916908373ffffffffffffffffffffffffffffffffffffffff16021790555061298d806100606000396000f3fe608060405260043610620000865760003560e01c8063b7bbacf51162000055578063b7bbacf5146200014d578063bfb231d2146200016d578063cd31831e14620001b7578063ea9272b514620001e55762000086565b806323c09bcc146200008b5780634906049a14620000cf578063800fb83f14620000fd5780638f32d59b146200011d575b600080fd5b3480156200009857600080fd5b50620000b76004803603810190620000b19190620016d3565b62000213565b604051620000c6919062001c75565b60405180910390f35b348015620000dc57600080fd5b50620000fb6004803603810190620000f59190620016ff565b620004bf565b005b6200011b6004803603810190620001159190620016d3565b6200079b565b005b3480156200012a57600080fd5b506200013562000a1f565b60405162000144919062001b71565b60405180910390f35b6200016b6004803603810190620001659190620016d3565b62000a76565b005b3480156200017a57600080fd5b50620001996004803603810190620001939190620016d3565b62000c9f565b604051620001ae979695949392919062001ae6565b60405180910390f35b348015620001c457600080fd5b50620001e36004803603810190620001dd9190620016d3565b62000e4e565b005b348015620001f257600080fd5b506200021160048036038101906200020b91906200161f565b620010c4565b005b6200021d6200141f565b600160008381526020019081526020016000206040518060e00160405290816000820160009054906101000a900473ffffffffffffffffffffffffffffffffffffffff1673ffffffffffffffffffffffffffffffffffffffff1673ffffffffffffffffffffffffffffffffffffffff1681526020016001820160009054906101000a900473ffffffffffffffffffffffffffffffffffffffff1673ffffffffffffffffffffffffffffffffffffffff1673ffffffffffffffffffffffffffffffffffffffff168152602001600282018054620002f99062001f4d565b80601f0160208091040260200160405190810160405280929190818152602001828054620003279062001f4d565b8015620003785780601f106200034c5761010080835404028352916020019162000378565b820191906000526020600020905b8154815290600101906020018083116200035a57829003601f168201915b5050505050815260200160038201548152602001600482015481526020016005820160009054906101000a900460ff166002811115620003e1577f4e487b7100000000000000000000000000000000000000000000000000000000600052602160045260246000fd5b60028111156200041a577f4e487b7100000000000000000000000000000000000000000000000000000000600052602160045260246000fd5b8152602001600682018054620004309062001f4d565b80601f01602080910402602001604051908101604052809291908181526020018280546200045e9062001f4d565b8015620004af5780601f106200048357610100808354040283529160200191620004af565b820191906000526020600020905b8154815290600101906020018083116200049157829003601f168201915b5050505050815250509050919050565b620004c962000a1f565b6200050b576040517f08c379a0000000000000000000000000000000000000000000000000000000008152600401620005029062001bed565b60405180910390fd5b6001600281111562000546577f4e487b7100000000000000000000000000000000000000000000000000000000600052602160045260246000fd5b6001600084815260200190815260200160002060050160009054906101000a900460ff166002811115620005a3577f4e487b7100000000000000000000000000000000000000000000000000000000600052602160045260246000fd5b1415620005e7576040517f08c379a0000000000000000000000000000000000000000000000000000000008152600401620005de9062001c0f565b60405180910390fd5b600015156200069d600160008581526020019081526020016000206006018054620006129062001f4d565b80601f0160208091040260200160405190810160405280929190818152602001828054620006409062001f4d565b8015620006915780601f10620006655761010080835404028352916020019162000691565b820191906000526020600020905b8154815290600101906020018083116200067357829003601f168201915b505050505083620013c2565b151514620006e2576040517f08c379a0000000000000000000000000000000000000000000000000000000008152600401620006d99062001c31565b60405180910390fd5b806001600084815260200190815260200160002060060190805190602001906200070e929190620014c1565b507ff903683be87717548f5e315925940d7b149e3f7485578e8a73c272a1d510de7e826001600085815260200190815260200160002060010160009054906101000a900473ffffffffffffffffffffffffffffffffffffffff16600160008681526020019081526020016000206006016040516200078f9392919062001c99565b60405180910390a15050565b34600160008381526020019081526020016000206003015414620007f6576040517f08c379a0000000000000000000000000000000000000000000000000000000008152600401620007ed9062001c53565b60405180910390fd5b6000600281111562000831577f4e487b7100000000000000000000000000000000000000000000000000000000600052602160045260246000fd5b6001600083815260200190815260200160002060050160009054906101000a900460ff1660028111156200088e577f4e487b7100000000000000000000000000000000000000000000000000000000600052602160045260246000fd5b14620008d1576040517f08c379a0000000000000000000000000000000000000000000000000000000008152600401620008c89062001bcb565b60405180910390fd5b600180600083815260200190815260200160002060050160006101000a81548160ff0219169083600281111562000931577f4e487b7100000000000000000000000000000000000000000000000000000000600052602160045260246000fd5b02179055507f04dae4d23aa86ea4452ca552b9901b80bd40c63a842232a8a7975d07a3646f01816001600084815260200190815260200160002060050160009054906101000a900460ff166002811115620009b5577f4e487b7100000000000000000000000000000000000000000000000000000000600052602160045260246000fd5b6001600085815260200190815260200160002060010160009054906101000a900473ffffffffffffffffffffffffffffffffffffffff166001600086815260200190815260200160002060060160405162000a14949392919062001d31565b60405180910390a150565b60008060009054906101000a900473ffffffffffffffffffffffffffffffffffffffff1673ffffffffffffffffffffffffffffffffffffffff163373ffffffffffffffffffffffffffffffffffffffff1614905090565b6000600281111562000ab1577f4e487b7100000000000000000000000000000000000000000000000000000000600052602160045260246000fd5b6001600083815260200190815260200160002060050160009054906101000a900460ff16600281111562000b0e577f4e487b7100000000000000000000000000000000000000000000000000000000600052602160045260246000fd5b1462000b51576040517f08c379a000000000000000000000000000000000000000000000000000000000815260040162000b489062001bcb565b60405180910390fd5b600180600083815260200190815260200160002060050160006101000a81548160ff0219169083600281111562000bb1577f4e487b7100000000000000000000000000000000000000000000000000000000600052602160045260246000fd5b02179055507f04dae4d23aa86ea4452ca552b9901b80bd40c63a842232a8a7975d07a3646f01816001600084815260200190815260200160002060050160009054906101000a900460ff16600281111562000c35577f4e487b7100000000000000000000000000000000000000000000000000000000600052602160045260246000fd5b6001600085815260200190815260200160002060010160009054906101000a900473ffffffffffffffffffffffffffffffffffffffff166001600086815260200190815260200160002060060160405162000c94949392919062001d31565b60405180910390a150565b60016020528060005260406000206000915090508060000160009054906101000a900473ffffffffffffffffffffffffffffffffffffffff16908060010160009054906101000a900473ffffffffffffffffffffffffffffffffffffffff169080600201805462000d109062001f4d565b80601f016020809104026020016040519081016040528092919081815260200182805462000d3e9062001f4d565b801562000d8f5780601f1062000d635761010080835404028352916020019162000d8f565b820191906000526020600020905b81548152906001019060200180831162000d7157829003601f168201915b5050505050908060030154908060040154908060050160009054906101000a900460ff169080600601805462000dc59062001f4d565b80601f016020809104026020016040519081016040528092919081815260200182805462000df39062001f4d565b801562000e445780601f1062000e185761010080835404028352916020019162000e44565b820191906000526020600020905b81548152906001019060200180831162000e2657829003601f168201915b5050505050905087565b62000e5862000a1f565b62000e9a576040517f08c379a000000000000000000000000000000000000000000000000000000000815260040162000e919062001bed565b60405180910390fd5b6001600281111562000ed5577f4e487b7100000000000000000000000000000000000000000000000000000000600052602160045260246000fd5b6001600083815260200190815260200160002060050160009054906101000a900460ff16600281111562000f32577f4e487b7100000000000000000000000000000000000000000000000000000000600052602160045260246000fd5b1462000f75576040517f08c379a000000000000000000000000000000000000000000000000000000000815260040162000f6c9062001bcb565b60405180910390fd5b60026001600083815260200190815260200160002060050160006101000a81548160ff0219169083600281111562000fd6577f4e487b7100000000000000000000000000000000000000000000000000000000600052602160045260246000fd5b02179055507f04dae4d23aa86ea4452ca552b9901b80bd40c63a842232a8a7975d07a3646f01816001600084815260200190815260200160002060050160009054906101000a900460ff1660028111156200105a577f4e487b7100000000000000000000000000000000000000000000000000000000600052602160045260246000fd5b6001600085815260200190815260200160002060010160009054906101000a900473ffffffffffffffffffffffffffffffffffffffff1660016000868152602001908152602001600020600601604051620010b9949392919062001d31565b60405180910390a150565b620010ce62000a1f565b62001110576040517f08c379a0000000000000000000000000000000000000000000000000000000008152600401620011079062001bed565b60405180910390fd5b60003084600254604051620011259062001552565b620011339392919062001b8e565b604051809103906000f08015801562001150573d6000803e3d6000fd5b5090508560016000600254815260200190815260200160002060000160006101000a81548173ffffffffffffffffffffffffffffffffffffffff021916908373ffffffffffffffffffffffffffffffffffffffff1602179055508060016000600254815260200190815260200160002060010160006101000a81548173ffffffffffffffffffffffffffffffffffffffff021916908373ffffffffffffffffffffffffffffffffffffffff1602179055508460016000600254815260200190815260200160002060020190805190602001906200122f929190620014c1565b5083600160006002548152602001908152602001600020600301819055508260016000600254815260200190815260200160002060040181905550600060016000600254815260200190815260200160002060050160006101000a81548160ff02191690836002811115620012cd577f4e487b7100000000000000000000000000000000000000000000000000000000600052602160045260246000fd5b021790555081600160006002548152602001908152602001600020600601908051906020019062001300929190620014c1565b507f04dae4d23aa86ea4452ca552b9901b80bd40c63a842232a8a7975d07a3646f0160025460016000600254815260200190815260200160002060050160009054906101000a900460ff16600281111562001384577f4e487b7100000000000000000000000000000000000000000000000000000000600052602160045260246000fd5b838560405162001398949392919062001cdd565b60405180910390a160026000815480929190620013b59062001fb9565b9190505550505050505050565b600081604051602001620013d7919062001acd565b604051602081830303815290604052805190602001208360405160200162001400919062001acd565b6040516020818303038152906040528051906020012014905092915050565b6040518060e00160405280600073ffffffffffffffffffffffffffffffffffffffff168152602001600073ffffffffffffffffffffffffffffffffffffffff16815260200160608152602001600081526020016000815260200160006002811115620014b4577f4e487b7100000000000000000000000000000000000000000000000000000000600052602160045260246000fd5b8152602001606081525090565b828054620014cf9062001f4d565b90600052602060002090601f016020900481019282620014f357600085556200153f565b82601f106200150e57805160ff19168380011785556200153f565b828001600101855582156200153f579182015b828111156200153e57825182559160200191906001019062001521565b5b5090506200154e919062001560565b5090565b61076b80620021ed83390190565b5b808211156200157b57600081600090555060010162001561565b5090565b600062001596620015908462001dae565b62001d85565b905082815260208101848484011115620015af57600080fd5b620015bc84828562001f08565b509392505050565b600081359050620015d581620021b8565b92915050565b600082601f830112620015ed57600080fd5b8135620015ff8482602086016200157f565b91505092915050565b6000813590506200161981620021d2565b92915050565b600080600080600060a086880312156200163857600080fd5b60006200164888828901620015c4565b955050602086013567ffffffffffffffff8111156200166657600080fd5b6200167488828901620015db565b9450506040620016878882890162001608565b93505060606200169a8882890162001608565b925050608086013567ffffffffffffffff811115620016b857600080fd5b620016c688828901620015db565b9150509295509295909350565b600060208284031215620016e657600080fd5b6000620016f68482850162001608565b91505092915050565b600080604083850312156200171357600080fd5b6000620017238582860162001608565b925050602083013567ffffffffffffffff8111156200174157600080fd5b6200174f85828601620015db565b9150509250929050565b620017648162001e45565b82525050565b620017758162001e45565b82525050565b620017868162001e31565b82525050565b620017978162001e59565b82525050565b620017a88162001ea4565b82525050565b620017b98162001ecc565b82525050565b620017ca8162001ecc565b82525050565b620017db8162001ef4565b82525050565b620017ec8162001ef4565b82525050565b6000620017ff8262001df9565b6200180b818562001e04565b93506200181d81856020860162001f17565b6200182881620020c3565b840191505092915050565b6000620018408262001df9565b6200184c818562001e15565b93506200185e81856020860162001f17565b6200186981620020c3565b840191505092915050565b6000620018818262001df9565b6200188d818562001e26565b93506200189f81856020860162001f17565b80840191505092915050565b60008154620018ba8162001f4d565b620018c6818662001e15565b94506001821660008114620018e45760018114620018f7576200192e565b60ff19831686526020860193506200192e565b620019028562001de4565b60005b83811015620019265781548189015260018201915060208101905062001905565b808801955050505b50505092915050565b600062001946601d8362001e15565b91506200195382620020d4565b602082019050919050565b60006200196d60158362001e15565b91506200197a82620020fd565b602082019050919050565b600062001994601d8362001e15565b9150620019a18262002126565b602082019050919050565b6000620019bb60198362001e15565b9150620019c8826200214f565b602082019050919050565b6000620019e2601c8362001e15565b9150620019ef8262002178565b602082019050919050565b600060e08301600083015162001a14600086018262001759565b50602083015162001a296020860182620017ae565b506040830151848203604086015262001a438282620017f2565b915050606083015162001a5a606086018262001aab565b50608083015162001a6f608086018262001aab565b5060a083015162001a8460a0860182620017d0565b5060c083015184820360c086015262001a9e8282620017f2565b9150508091505092915050565b62001ab68162001e9a565b82525050565b62001ac78162001e9a565b82525050565b600062001adb828462001874565b915081905092915050565b600060e08201905062001afd600083018a6200176a565b62001b0c6020830189620017bf565b818103604083015262001b20818862001833565b905062001b31606083018762001abc565b62001b40608083018662001abc565b62001b4f60a0830185620017e1565b81810360c083015262001b63818462001833565b905098975050505050505050565b600060208201905062001b8860008301846200178c565b92915050565b600060608201905062001ba560008301866200179d565b62001bb4602083018562001abc565b62001bc3604083018462001abc565b949350505050565b6000602082019050818103600083015262001be68162001937565b9050919050565b6000602082019050818103600083015262001c08816200195e565b9050919050565b6000602082019050818103600083015262001c2a8162001985565b9050919050565b6000602082019050818103600083015262001c4c81620019ac565b9050919050565b6000602082019050818103600083015262001c6e81620019d3565b9050919050565b6000602082019050818103600083015262001c918184620019fa565b905092915050565b600060608201905062001cb0600083018662001abc565b62001cbf60208301856200177b565b818103604083015262001cd38184620018ab565b9050949350505050565b600060808201905062001cf4600083018762001abc565b62001d03602083018662001abc565b62001d1260408301856200177b565b818103606083015262001d26818462001833565b905095945050505050565b600060808201905062001d48600083018762001abc565b62001d57602083018662001abc565b62001d6660408301856200177b565b818103606083015262001d7a8184620018ab565b905095945050505050565b600062001d9162001da4565b905062001d9f828262001f83565b919050565b6000604051905090565b600067ffffffffffffffff82111562001dcc5762001dcb62002094565b5b62001dd782620020c3565b9050602081019050919050565b60008190508160005260206000209050919050565b600081519050919050565b600082825260208201905092915050565b600082825260208201905092915050565b600081905092915050565b600062001e3e8262001e7a565b9050919050565b600062001e528262001e7a565b9050919050565b60008115159050919050565b600081905062001e7582620021a1565b919050565b600073ffffffffffffffffffffffffffffffffffffffff82169050919050565b6000819050919050565b600062001eb18262001eb8565b9050919050565b600062001ec58262001e7a565b9050919050565b600062001ed98262001ee0565b9050919050565b600062001eed8262001e7a565b9050919050565b600062001f018262001e65565b9050919050565b82818337600083830152505050565b60005b8381101562001f3757808201518184015260208101905062001f1a565b8381111562001f47576000848401525b50505050565b6000600282049050600182168062001f6657607f821691505b6020821081141562001f7d5762001f7c62002065565b5b50919050565b62001f8e82620020c3565b810181811067ffffffffffffffff8211171562001fb05762001faf62002094565b5b80604052505050565b600062001fc68262001e9a565b91507fffffffffffffffffffffffffffffffffffffffffffffffffffffffffffffffff82141562001ffc5762001ffb62002007565b5b600182019050919050565b7f4e487b7100000000000000000000000000000000000000000000000000000000600052601160045260246000fd5b7f4e487b7100000000000000000000000000000000000000000000000000000000600052602160045260246000fd5b7f4e487b7100000000000000000000000000000000000000000000000000000000600052602260045260246000fd5b7f4e487b7100000000000000000000000000000000000000000000000000000000600052604160045260246000fd5b6000601f19601f8301169050919050565b7f4974656d206973206675727468657220696e2074686520636861696e21000000600082015250565b7f596f7520617265206e6f7420746865206f776e65720000000000000000000000600082015250565b7f50616964206974656d2063616e6e6f742075706461746520696e666f21000000600082015250565b7f4e6f7468696e67206368616e676520746f207570646174652100000000000000600082015250565b7f4f6e6c792066756c6c207061796d656e74732061636365707465642100000000600082015250565b60038110620021b557620021b462002036565b5b50565b620021c38162001e45565b8114620021cf57600080fd5b50565b620021dd8162001e9a565b8114620021e957600080fd5b5056fe608060405234801561001057600080fd5b5060405161076b38038061076b833981810160405281019061003291906100b3565b816000819055508060028190555082600360006101000a81548173ffffffffffffffffffffffffffffffffffffffff021916908373ffffffffffffffffffffffffffffffffffffffff16021790555050505061017e565b60008151905061009881610150565b92915050565b6000815190506100ad81610167565b92915050565b6000806000606084860312156100c857600080fd5b60006100d686828701610089565b93505060206100e78682870161009e565b92505060406100f88682870161009e565b9150509250925092565b600061010d82610126565b9050919050565b600061011f82610102565b9050919050565b600073ffffffffffffffffffffffffffffffffffffffff82169050919050565b6000819050919050565b61015981610114565b811461016457600080fd5b50565b61017081610146565b811461017b57600080fd5b50565b6105de8061018d6000396000f3fe6080604052600436106100385760003560e01c80632986c0e5146102505780633c8da5881461027b57806389794d00146102a657610241565b3661024157600060015414610082576040517f08c379a0000000000000000000000000000000000000000000000000000000008152600401610079906103c3565b60405180910390fd5b34600054146100c6576040517f08c379a00000000000000000000000000000000000000000000000000000000081526004016100bd906103e3565b60405180910390fd5b34600160008282546100d89190610445565b925050819055506000600360009054906101000a900473ffffffffffffffffffffffffffffffffffffffff1673ffffffffffffffffffffffffffffffffffffffff163460025460405160240161012e9190610403565b6040516020818303038152906040527f800fb83f000000000000000000000000000000000000000000000000000000007bffffffffffffffffffffffffffffffffffffffffffffffffffffffff19166020820180517bffffffffffffffffffffffffffffffffffffffffffffffffffffffff83818316178352505050506040516101b8919061038c565b60006040518083038185875af1925050503d80600081146101f5576040519150601f19603f3d011682016040523d82523d6000602084013e6101fa565b606091505b505090508061023e576040517f08c379a0000000000000000000000000000000000000000000000000000000008152600401610235906103a3565b60405180910390fd5b50005b34801561024d57600080fd5b50005b34801561025c57600080fd5b506102656102d1565b6040516102729190610403565b60405180910390f35b34801561028757600080fd5b506102906102d7565b60405161029d9190610403565b60405180910390f35b3480156102b257600080fd5b506102bb6102dd565b6040516102c89190610403565b60405180910390f35b60025481565b60005481565b60015481565b60006102ee8261041e565b6102f88185610429565b93506103088185602086016104a5565b80840191505092915050565b6000610321602e83610434565b915061032c82610507565b604082019050919050565b6000610344601583610434565b915061034f82610556565b602082019050919050565b6000610367601a83610434565b91506103728261057f565b602082019050919050565b6103868161049b565b82525050565b600061039882846102e3565b915081905092915050565b600060208201905081810360008301526103bc81610314565b9050919050565b600060208201905081810360008301526103dc81610337565b9050919050565b600060208201905081810360008301526103fc8161035a565b9050919050565b6000602082019050610418600083018461037d565b92915050565b600081519050919050565b600081905092915050565b600082825260208201905092915050565b60006104508261049b565b915061045b8361049b565b9250827fffffffffffffffffffffffffffffffffffffffffffffffffffffffffffffffff038211156104905761048f6104d8565b5b828201905092915050565b6000819050919050565b60005b838110156104c35780820151818401526020810190506104a8565b838111156104d2576000848401525b50505050565b7f4e487b7100000000000000000000000000000000000000000000000000000000600052601160045260246000fd5b7f546865207472616e73616374696f6e207761736e27742073756363657373667560008201527f6c6c2c2063616e63656c6c696e67000000000000000000000000000000000000602082015250565b7f4974656d206973207061696420616c7265616479210000000000000000000000600082015250565b7f4f6e6c792066756c6c207061796d656e747320616c6c6f77656400000000000060008201525056fea2646970667358221220fb6c76e99a7223eb7a7fac979edeb999524f74282e3fbccd37cff189a3d020ed64736f6c63430008010033a264697066735822122008aaf19788e5fdf80adac3d1f9206c423c42ee68d250f94f732097b67b03edaa64736f6c63430008010033",
					"opcodes": "PUSH1 0x80 PUSH1 0x40 MSTORE CALLVALUE DUP1 ISZERO PUSH2 0x10 JUMPI PUSH1 0x0 DUP1 REVERT JUMPDEST POP CALLER PUSH1 0x0 DUP1 PUSH2 0x100 EXP DUP2 SLOAD DUP2 PUSH20 0xFFFFFFFFFFFFFFFFFFFFFFFFFFFFFFFFFFFFFFFF MUL NOT AND SWAP1 DUP4 PUSH20 0xFFFFFFFFFFFFFFFFFFFFFFFFFFFFFFFFFFFFFFFF AND MUL OR SWAP1 SSTORE POP PUSH2 0x298D DUP1 PUSH2 0x60 PUSH1 0x0 CODECOPY PUSH1 0x0 RETURN INVALID PUSH1 0x80 PUSH1 0x40 MSTORE PUSH1 0x4 CALLDATASIZE LT PUSH3 0x86 JUMPI PUSH1 0x0 CALLDATALOAD PUSH1 0xE0 SHR DUP1 PUSH4 0xB7BBACF5 GT PUSH3 0x55 JUMPI DUP1 PUSH4 0xB7BBACF5 EQ PUSH3 0x14D JUMPI DUP1 PUSH4 0xBFB231D2 EQ PUSH3 0x16D JUMPI DUP1 PUSH4 0xCD31831E EQ PUSH3 0x1B7 JUMPI DUP1 PUSH4 0xEA9272B5 EQ PUSH3 0x1E5 JUMPI PUSH3 0x86 JUMP JUMPDEST DUP1 PUSH4 0x23C09BCC EQ PUSH3 0x8B JUMPI DUP1 PUSH4 0x4906049A EQ PUSH3 0xCF JUMPI DUP1 PUSH4 0x800FB83F EQ PUSH3 0xFD JUMPI DUP1 PUSH4 0x8F32D59B EQ PUSH3 0x11D JUMPI JUMPDEST PUSH1 0x0 DUP1 REVERT JUMPDEST CALLVALUE DUP1 ISZERO PUSH3 0x98 JUMPI PUSH1 0x0 DUP1 REVERT JUMPDEST POP PUSH3 0xB7 PUSH1 0x4 DUP1 CALLDATASIZE SUB DUP2 ADD SWAP1 PUSH3 0xB1 SWAP2 SWAP1 PUSH3 0x16D3 JUMP JUMPDEST PUSH3 0x213 JUMP JUMPDEST PUSH1 0x40 MLOAD PUSH3 0xC6 SWAP2 SWAP1 PUSH3 0x1C75 JUMP JUMPDEST PUSH1 0x40 MLOAD DUP1 SWAP2 SUB SWAP1 RETURN JUMPDEST CALLVALUE DUP1 ISZERO PUSH3 0xDC JUMPI PUSH1 0x0 DUP1 REVERT JUMPDEST POP PUSH3 0xFB PUSH1 0x4 DUP1 CALLDATASIZE SUB DUP2 ADD SWAP1 PUSH3 0xF5 SWAP2 SWAP1 PUSH3 0x16FF JUMP JUMPDEST PUSH3 0x4BF JUMP JUMPDEST STOP JUMPDEST PUSH3 0x11B PUSH1 0x4 DUP1 CALLDATASIZE SUB DUP2 ADD SWAP1 PUSH3 0x115 SWAP2 SWAP1 PUSH3 0x16D3 JUMP JUMPDEST PUSH3 0x79B JUMP JUMPDEST STOP JUMPDEST CALLVALUE DUP1 ISZERO PUSH3 0x12A JUMPI PUSH1 0x0 DUP1 REVERT JUMPDEST POP PUSH3 0x135 PUSH3 0xA1F JUMP JUMPDEST PUSH1 0x40 MLOAD PUSH3 0x144 SWAP2 SWAP1 PUSH3 0x1B71 JUMP JUMPDEST PUSH1 0x40 MLOAD DUP1 SWAP2 SUB SWAP1 RETURN JUMPDEST PUSH3 0x16B PUSH1 0x4 DUP1 CALLDATASIZE SUB DUP2 ADD SWAP1 PUSH3 0x165 SWAP2 SWAP1 PUSH3 0x16D3 JUMP JUMPDEST PUSH3 0xA76 JUMP JUMPDEST STOP JUMPDEST CALLVALUE DUP1 ISZERO PUSH3 0x17A JUMPI PUSH1 0x0 DUP1 REVERT JUMPDEST POP PUSH3 0x199 PUSH1 0x4 DUP1 CALLDATASIZE SUB DUP2 ADD SWAP1 PUSH3 0x193 SWAP2 SWAP1 PUSH3 0x16D3 JUMP JUMPDEST PUSH3 0xC9F JUMP JUMPDEST PUSH1 0x40 MLOAD PUSH3 0x1AE SWAP8 SWAP7 SWAP6 SWAP5 SWAP4 SWAP3 SWAP2 SWAP1 PUSH3 0x1AE6 JUMP JUMPDEST PUSH1 0x40 MLOAD DUP1 SWAP2 SUB SWAP1 RETURN JUMPDEST CALLVALUE DUP1 ISZERO PUSH3 0x1C4 JUMPI PUSH1 0x0 DUP1 REVERT JUMPDEST POP PUSH3 0x1E3 PUSH1 0x4 DUP1 CALLDATASIZE SUB DUP2 ADD SWAP1 PUSH3 0x1DD SWAP2 SWAP1 PUSH3 0x16D3 JUMP JUMPDEST PUSH3 0xE4E JUMP JUMPDEST STOP JUMPDEST CALLVALUE DUP1 ISZERO PUSH3 0x1F2 JUMPI PUSH1 0x0 DUP1 REVERT JUMPDEST POP PUSH3 0x211 PUSH1 0x4 DUP1 CALLDATASIZE SUB DUP2 ADD SWAP1 PUSH3 0x20B SWAP2 SWAP1 PUSH3 0x161F JUMP JUMPDEST PUSH3 0x10C4 JUMP JUMPDEST STOP JUMPDEST PUSH3 0x21D PUSH3 0x141F JUMP JUMPDEST PUSH1 0x1 PUSH1 0x0 DUP4 DUP2 MSTORE PUSH1 0x20 ADD SWAP1 DUP2 MSTORE PUSH1 0x20 ADD PUSH1 0x0 KECCAK256 PUSH1 0x40 MLOAD DUP1 PUSH1 0xE0 ADD PUSH1 0x40 MSTORE SWAP1 DUP2 PUSH1 0x0 DUP3 ADD PUSH1 0x0 SWAP1 SLOAD SWAP1 PUSH2 0x100 EXP SWAP1 DIV PUSH20 0xFFFFFFFFFFFFFFFFFFFFFFFFFFFFFFFFFFFFFFFF AND PUSH20 0xFFFFFFFFFFFFFFFFFFFFFFFFFFFFFFFFFFFFFFFF AND PUSH20 0xFFFFFFFFFFFFFFFFFFFFFFFFFFFFFFFFFFFFFFFF AND DUP2 MSTORE PUSH1 0x20 ADD PUSH1 0x1 DUP3 ADD PUSH1 0x0 SWAP1 SLOAD SWAP1 PUSH2 0x100 EXP SWAP1 DIV PUSH20 0xFFFFFFFFFFFFFFFFFFFFFFFFFFFFFFFFFFFFFFFF AND PUSH20 0xFFFFFFFFFFFFFFFFFFFFFFFFFFFFFFFFFFFFFFFF AND PUSH20 0xFFFFFFFFFFFFFFFFFFFFFFFFFFFFFFFFFFFFFFFF AND DUP2 MSTORE PUSH1 0x20 ADD PUSH1 0x2 DUP3 ADD DUP1 SLOAD PUSH3 0x2F9 SWAP1 PUSH3 0x1F4D JUMP JUMPDEST DUP1 PUSH1 0x1F ADD PUSH1 0x20 DUP1 SWAP2 DIV MUL PUSH1 0x20 ADD PUSH1 0x40 MLOAD SWAP1 DUP2 ADD PUSH1 0x40 MSTORE DUP1 SWAP3 SWAP2 SWAP1 DUP2 DUP2 MSTORE PUSH1 0x20 ADD DUP3 DUP1 SLOAD PUSH3 0x327 SWAP1 PUSH3 0x1F4D JUMP JUMPDEST DUP1 ISZERO PUSH3 0x378 JUMPI DUP1 PUSH1 0x1F LT PUSH3 0x34C JUMPI PUSH2 0x100 DUP1 DUP4 SLOAD DIV MUL DUP4 MSTORE SWAP2 PUSH1 0x20 ADD SWAP2 PUSH3 0x378 JUMP JUMPDEST DUP3 ADD SWAP2 SWAP1 PUSH1 0x0 MSTORE PUSH1 0x20 PUSH1 0x0 KECCAK256 SWAP1 JUMPDEST DUP2 SLOAD DUP2 MSTORE SWAP1 PUSH1 0x1 ADD SWAP1 PUSH1 0x20 ADD DUP1 DUP4 GT PUSH3 0x35A JUMPI DUP3 SWAP1 SUB PUSH1 0x1F AND DUP3 ADD SWAP2 JUMPDEST POP POP POP POP POP DUP2 MSTORE PUSH1 0x20 ADD PUSH1 0x3 DUP3 ADD SLOAD DUP2 MSTORE PUSH1 0x20 ADD PUSH1 0x4 DUP3 ADD SLOAD DUP2 MSTORE PUSH1 0x20 ADD PUSH1 0x5 DUP3 ADD PUSH1 0x0 SWAP1 SLOAD SWAP1 PUSH2 0x100 EXP SWAP1 DIV PUSH1 0xFF AND PUSH1 0x2 DUP2 GT ISZERO PUSH3 0x3E1 JUMPI PUSH32 0x4E487B7100000000000000000000000000000000000000000000000000000000 PUSH1 0x0 MSTORE PUSH1 0x21 PUSH1 0x4 MSTORE PUSH1 0x24 PUSH1 0x0 REVERT JUMPDEST PUSH1 0x2 DUP2 GT ISZERO PUSH3 0x41A JUMPI PUSH32 0x4E487B7100000000000000000000000000000000000000000000000000000000 PUSH1 0x0 MSTORE PUSH1 0x21 PUSH1 0x4 MSTORE PUSH1 0x24 PUSH1 0x0 REVERT JUMPDEST DUP2 MSTORE PUSH1 0x20 ADD PUSH1 0x6 DUP3 ADD DUP1 SLOAD PUSH3 0x430 SWAP1 PUSH3 0x1F4D JUMP JUMPDEST DUP1 PUSH1 0x1F ADD PUSH1 0x20 DUP1 SWAP2 DIV MUL PUSH1 0x20 ADD PUSH1 0x40 MLOAD SWAP1 DUP2 ADD PUSH1 0x40 MSTORE DUP1 SWAP3 SWAP2 SWAP1 DUP2 DUP2 MSTORE PUSH1 0x20 ADD DUP3 DUP1 SLOAD PUSH3 0x45E SWAP1 PUSH3 0x1F4D JUMP JUMPDEST DUP1 ISZERO PUSH3 0x4AF JUMPI DUP1 PUSH1 0x1F LT PUSH3 0x483 JUMPI PUSH2 0x100 DUP1 DUP4 SLOAD DIV MUL DUP4 MSTORE SWAP2 PUSH1 0x20 ADD SWAP2 PUSH3 0x4AF JUMP JUMPDEST DUP3 ADD SWAP2 SWAP1 PUSH1 0x0 MSTORE PUSH1 0x20 PUSH1 0x0 KECCAK256 SWAP1 JUMPDEST DUP2 SLOAD DUP2 MSTORE SWAP1 PUSH1 0x1 ADD SWAP1 PUSH1 0x20 ADD DUP1 DUP4 GT PUSH3 0x491 JUMPI DUP3 SWAP1 SUB PUSH1 0x1F AND DUP3 ADD SWAP2 JUMPDEST POP POP POP POP POP DUP2 MSTORE POP POP SWAP1 POP SWAP2 SWAP1 POP JUMP JUMPDEST PUSH3 0x4C9 PUSH3 0xA1F JUMP JUMPDEST PUSH3 0x50B JUMPI PUSH1 0x40 MLOAD PUSH32 0x8C379A000000000000000000000000000000000000000000000000000000000 DUP2 MSTORE PUSH1 0x4 ADD PUSH3 0x502 SWAP1 PUSH3 0x1BED JUMP JUMPDEST PUSH1 0x40 MLOAD DUP1 SWAP2 SUB SWAP1 REVERT JUMPDEST PUSH1 0x1 PUSH1 0x2 DUP2 GT ISZERO PUSH3 0x546 JUMPI PUSH32 0x4E487B7100000000000000000000000000000000000000000000000000000000 PUSH1 0x0 MSTORE PUSH1 0x21 PUSH1 0x4 MSTORE PUSH1 0x24 PUSH1 0x0 REVERT JUMPDEST PUSH1 0x1 PUSH1 0x0 DUP5 DUP2 MSTORE PUSH1 0x20 ADD SWAP1 DUP2 MSTORE PUSH1 0x20 ADD PUSH1 0x0 KECCAK256 PUSH1 0x5 ADD PUSH1 0x0 SWAP1 SLOAD SWAP1 PUSH2 0x100 EXP SWAP1 DIV PUSH1 0xFF AND PUSH1 0x2 DUP2 GT ISZERO PUSH3 0x5A3 JUMPI PUSH32 0x4E487B7100000000000000000000000000000000000000000000000000000000 PUSH1 0x0 MSTORE PUSH1 0x21 PUSH1 0x4 MSTORE PUSH1 0x24 PUSH1 0x0 REVERT JUMPDEST EQ ISZERO PUSH3 0x5E7 JUMPI PUSH1 0x40 MLOAD PUSH32 0x8C379A000000000000000000000000000000000000000000000000000000000 DUP2 MSTORE PUSH1 0x4 ADD PUSH3 0x5DE SWAP1 PUSH3 0x1C0F JUMP JUMPDEST PUSH1 0x40 MLOAD DUP1 SWAP2 SUB SWAP1 REVERT JUMPDEST PUSH1 0x0 ISZERO ISZERO PUSH3 0x69D PUSH1 0x1 PUSH1 0x0 DUP6 DUP2 MSTORE PUSH1 0x20 ADD SWAP1 DUP2 MSTORE PUSH1 0x20 ADD PUSH1 0x0 KECCAK256 PUSH1 0x6 ADD DUP1 SLOAD PUSH3 0x612 SWAP1 PUSH3 0x1F4D JUMP JUMPDEST DUP1 PUSH1 0x1F ADD PUSH1 0x20 DUP1 SWAP2 DIV MUL PUSH1 0x20 ADD PUSH1 0x40 MLOAD SWAP1 DUP2 ADD PUSH1 0x40 MSTORE DUP1 SWAP3 SWAP2 SWAP1 DUP2 DUP2 MSTORE PUSH1 0x20 ADD DUP3 DUP1 SLOAD PUSH3 0x640 SWAP1 PUSH3 0x1F4D JUMP JUMPDEST DUP1 ISZERO PUSH3 0x691 JUMPI DUP1 PUSH1 0x1F LT PUSH3 0x665 JUMPI PUSH2 0x100 DUP1 DUP4 SLOAD DIV MUL DUP4 MSTORE SWAP2 PUSH1 0x20 ADD SWAP2 PUSH3 0x691 JUMP JUMPDEST DUP3 ADD SWAP2 SWAP1 PUSH1 0x0 MSTORE PUSH1 0x20 PUSH1 0x0 KECCAK256 SWAP1 JUMPDEST DUP2 SLOAD DUP2 MSTORE SWAP1 PUSH1 0x1 ADD SWAP1 PUSH1 0x20 ADD DUP1 DUP4 GT PUSH3 0x673 JUMPI DUP3 SWAP1 SUB PUSH1 0x1F AND DUP3 ADD SWAP2 JUMPDEST POP POP POP POP POP DUP4 PUSH3 0x13C2 JUMP JUMPDEST ISZERO ISZERO EQ PUSH3 0x6E2 JUMPI PUSH1 0x40 MLOAD PUSH32 0x8C379A000000000000000000000000000000000000000000000000000000000 DUP2 MSTORE PUSH1 0x4 ADD PUSH3 0x6D9 SWAP1 PUSH3 0x1C31 JUMP JUMPDEST PUSH1 0x40 MLOAD DUP1 SWAP2 SUB SWAP1 REVERT JUMPDEST DUP1 PUSH1 0x1 PUSH1 0x0 DUP5 DUP2 MSTORE PUSH1 0x20 ADD SWAP1 DUP2 MSTORE PUSH1 0x20 ADD PUSH1 0x0 KECCAK256 PUSH1 0x6 ADD SWAP1 DUP1 MLOAD SWAP1 PUSH1 0x20 ADD SWAP1 PUSH3 0x70E SWAP3 SWAP2 SWAP1 PUSH3 0x14C1 JUMP JUMPDEST POP PUSH32 0xF903683BE87717548F5E315925940D7B149E3F7485578E8A73C272A1D510DE7E DUP3 PUSH1 0x1 PUSH1 0x0 DUP6 DUP2 MSTORE PUSH1 0x20 ADD SWAP1 DUP2 MSTORE PUSH1 0x20 ADD PUSH1 0x0 KECCAK256 PUSH1 0x1 ADD PUSH1 0x0 SWAP1 SLOAD SWAP1 PUSH2 0x100 EXP SWAP1 DIV PUSH20 0xFFFFFFFFFFFFFFFFFFFFFFFFFFFFFFFFFFFFFFFF AND PUSH1 0x1 PUSH1 0x0 DUP7 DUP2 MSTORE PUSH1 0x20 ADD SWAP1 DUP2 MSTORE PUSH1 0x20 ADD PUSH1 0x0 KECCAK256 PUSH1 0x6 ADD PUSH1 0x40 MLOAD PUSH3 0x78F SWAP4 SWAP3 SWAP2 SWAP1 PUSH3 0x1C99 JUMP JUMPDEST PUSH1 0x40 MLOAD DUP1 SWAP2 SUB SWAP1 LOG1 POP POP JUMP JUMPDEST CALLVALUE PUSH1 0x1 PUSH1 0x0 DUP4 DUP2 MSTORE PUSH1 0x20 ADD SWAP1 DUP2 MSTORE PUSH1 0x20 ADD PUSH1 0x0 KECCAK256 PUSH1 0x3 ADD SLOAD EQ PUSH3 0x7F6 JUMPI PUSH1 0x40 MLOAD PUSH32 0x8C379A000000000000000000000000000000000000000000000000000000000 DUP2 MSTORE PUSH1 0x4 ADD PUSH3 0x7ED SWAP1 PUSH3 0x1C53 JUMP JUMPDEST PUSH1 0x40 MLOAD DUP1 SWAP2 SUB SWAP1 REVERT JUMPDEST PUSH1 0x0 PUSH1 0x2 DUP2 GT ISZERO PUSH3 0x831 JUMPI PUSH32 0x4E487B7100000000000000000000000000000000000000000000000000000000 PUSH1 0x0 MSTORE PUSH1 0x21 PUSH1 0x4 MSTORE PUSH1 0x24 PUSH1 0x0 REVERT JUMPDEST PUSH1 0x1 PUSH1 0x0 DUP4 DUP2 MSTORE PUSH1 0x20 ADD SWAP1 DUP2 MSTORE PUSH1 0x20 ADD PUSH1 0x0 KECCAK256 PUSH1 0x5 ADD PUSH1 0x0 SWAP1 SLOAD SWAP1 PUSH2 0x100 EXP SWAP1 DIV PUSH1 0xFF AND PUSH1 0x2 DUP2 GT ISZERO PUSH3 0x88E JUMPI PUSH32 0x4E487B7100000000000000000000000000000000000000000000000000000000 PUSH1 0x0 MSTORE PUSH1 0x21 PUSH1 0x4 MSTORE PUSH1 0x24 PUSH1 0x0 REVERT JUMPDEST EQ PUSH3 0x8D1 JUMPI PUSH1 0x40 MLOAD PUSH32 0x8C379A000000000000000000000000000000000000000000000000000000000 DUP2 MSTORE PUSH1 0x4 ADD PUSH3 0x8C8 SWAP1 PUSH3 0x1BCB JUMP JUMPDEST PUSH1 0x40 MLOAD DUP1 SWAP2 SUB SWAP1 REVERT JUMPDEST PUSH1 0x1 DUP1 PUSH1 0x0 DUP4 DUP2 MSTORE PUSH1 0x20 ADD SWAP1 DUP2 MSTORE PUSH1 0x20 ADD PUSH1 0x0 KECCAK256 PUSH1 0x5 ADD PUSH1 0x0 PUSH2 0x100 EXP DUP2 SLOAD DUP2 PUSH1 0xFF MUL NOT AND SWAP1 DUP4 PUSH1 0x2 DUP2 GT ISZERO PUSH3 0x931 JUMPI PUSH32 0x4E487B7100000000000000000000000000000000000000000000000000000000 PUSH1 0x0 MSTORE PUSH1 0x21 PUSH1 0x4 MSTORE PUSH1 0x24 PUSH1 0x0 REVERT JUMPDEST MUL OR SWAP1 SSTORE POP PUSH32 0x4DAE4D23AA86EA4452CA552B9901B80BD40C63A842232A8A7975D07A3646F01 DUP2 PUSH1 0x1 PUSH1 0x0 DUP5 DUP2 MSTORE PUSH1 0x20 ADD SWAP1 DUP2 MSTORE PUSH1 0x20 ADD PUSH1 0x0 KECCAK256 PUSH1 0x5 ADD PUSH1 0x0 SWAP1 SLOAD SWAP1 PUSH2 0x100 EXP SWAP1 DIV PUSH1 0xFF AND PUSH1 0x2 DUP2 GT ISZERO PUSH3 0x9B5 JUMPI PUSH32 0x4E487B7100000000000000000000000000000000000000000000000000000000 PUSH1 0x0 MSTORE PUSH1 0x21 PUSH1 0x4 MSTORE PUSH1 0x24 PUSH1 0x0 REVERT JUMPDEST PUSH1 0x1 PUSH1 0x0 DUP6 DUP2 MSTORE PUSH1 0x20 ADD SWAP1 DUP2 MSTORE PUSH1 0x20 ADD PUSH1 0x0 KECCAK256 PUSH1 0x1 ADD PUSH1 0x0 SWAP1 SLOAD SWAP1 PUSH2 0x100 EXP SWAP1 DIV PUSH20 0xFFFFFFFFFFFFFFFFFFFFFFFFFFFFFFFFFFFFFFFF AND PUSH1 0x1 PUSH1 0x0 DUP7 DUP2 MSTORE PUSH1 0x20 ADD SWAP1 DUP2 MSTORE PUSH1 0x20 ADD PUSH1 0x0 KECCAK256 PUSH1 0x6 ADD PUSH1 0x40 MLOAD PUSH3 0xA14 SWAP5 SWAP4 SWAP3 SWAP2 SWAP1 PUSH3 0x1D31 JUMP JUMPDEST PUSH1 0x40 MLOAD DUP1 SWAP2 SUB SWAP1 LOG1 POP JUMP JUMPDEST PUSH1 0x0 DUP1 PUSH1 0x0 SWAP1 SLOAD SWAP1 PUSH2 0x100 EXP SWAP1 DIV PUSH20 0xFFFFFFFFFFFFFFFFFFFFFFFFFFFFFFFFFFFFFFFF AND PUSH20 0xFFFFFFFFFFFFFFFFFFFFFFFFFFFFFFFFFFFFFFFF AND CALLER PUSH20 0xFFFFFFFFFFFFFFFFFFFFFFFFFFFFFFFFFFFFFFFF AND EQ SWAP1 POP SWAP1 JUMP JUMPDEST PUSH1 0x0 PUSH1 0x2 DUP2 GT ISZERO PUSH3 0xAB1 JUMPI PUSH32 0x4E487B7100000000000000000000000000000000000000000000000000000000 PUSH1 0x0 MSTORE PUSH1 0x21 PUSH1 0x4 MSTORE PUSH1 0x24 PUSH1 0x0 REVERT JUMPDEST PUSH1 0x1 PUSH1 0x0 DUP4 DUP2 MSTORE PUSH1 0x20 ADD SWAP1 DUP2 MSTORE PUSH1 0x20 ADD PUSH1 0x0 KECCAK256 PUSH1 0x5 ADD PUSH1 0x0 SWAP1 SLOAD SWAP1 PUSH2 0x100 EXP SWAP1 DIV PUSH1 0xFF AND PUSH1 0x2 DUP2 GT ISZERO PUSH3 0xB0E JUMPI PUSH32 0x4E487B7100000000000000000000000000000000000000000000000000000000 PUSH1 0x0 MSTORE PUSH1 0x21 PUSH1 0x4 MSTORE PUSH1 0x24 PUSH1 0x0 REVERT JUMPDEST EQ PUSH3 0xB51 JUMPI PUSH1 0x40 MLOAD PUSH32 0x8C379A000000000000000000000000000000000000000000000000000000000 DUP2 MSTORE PUSH1 0x4 ADD PUSH3 0xB48 SWAP1 PUSH3 0x1BCB JUMP JUMPDEST PUSH1 0x40 MLOAD DUP1 SWAP2 SUB SWAP1 REVERT JUMPDEST PUSH1 0x1 DUP1 PUSH1 0x0 DUP4 DUP2 MSTORE PUSH1 0x20 ADD SWAP1 DUP2 MSTORE PUSH1 0x20 ADD PUSH1 0x0 KECCAK256 PUSH1 0x5 ADD PUSH1 0x0 PUSH2 0x100 EXP DUP2 SLOAD DUP2 PUSH1 0xFF MUL NOT AND SWAP1 DUP4 PUSH1 0x2 DUP2 GT ISZERO PUSH3 0xBB1 JUMPI PUSH32 0x4E487B7100000000000000000000000000000000000000000000000000000000 PUSH1 0x0 MSTORE PUSH1 0x21 PUSH1 0x4 MSTORE PUSH1 0x24 PUSH1 0x0 REVERT JUMPDEST MUL OR SWAP1 SSTORE POP PUSH32 0x4DAE4D23AA86EA4452CA552B9901B80BD40C63A842232A8A7975D07A3646F01 DUP2 PUSH1 0x1 PUSH1 0x0 DUP5 DUP2 MSTORE PUSH1 0x20 ADD SWAP1 DUP2 MSTORE PUSH1 0x20 ADD PUSH1 0x0 KECCAK256 PUSH1 0x5 ADD PUSH1 0x0 SWAP1 SLOAD SWAP1 PUSH2 0x100 EXP SWAP1 DIV PUSH1 0xFF AND PUSH1 0x2 DUP2 GT ISZERO PUSH3 0xC35 JUMPI PUSH32 0x4E487B7100000000000000000000000000000000000000000000000000000000 PUSH1 0x0 MSTORE PUSH1 0x21 PUSH1 0x4 MSTORE PUSH1 0x24 PUSH1 0x0 REVERT JUMPDEST PUSH1 0x1 PUSH1 0x0 DUP6 DUP2 MSTORE PUSH1 0x20 ADD SWAP1 DUP2 MSTORE PUSH1 0x20 ADD PUSH1 0x0 KECCAK256 PUSH1 0x1 ADD PUSH1 0x0 SWAP1 SLOAD SWAP1 PUSH2 0x100 EXP SWAP1 DIV PUSH20 0xFFFFFFFFFFFFFFFFFFFFFFFFFFFFFFFFFFFFFFFF AND PUSH1 0x1 PUSH1 0x0 DUP7 DUP2 MSTORE PUSH1 0x20 ADD SWAP1 DUP2 MSTORE PUSH1 0x20 ADD PUSH1 0x0 KECCAK256 PUSH1 0x6 ADD PUSH1 0x40 MLOAD PUSH3 0xC94 SWAP5 SWAP4 SWAP3 SWAP2 SWAP1 PUSH3 0x1D31 JUMP JUMPDEST PUSH1 0x40 MLOAD DUP1 SWAP2 SUB SWAP1 LOG1 POP JUMP JUMPDEST PUSH1 0x1 PUSH1 0x20 MSTORE DUP1 PUSH1 0x0 MSTORE PUSH1 0x40 PUSH1 0x0 KECCAK256 PUSH1 0x0 SWAP2 POP SWAP1 POP DUP1 PUSH1 0x0 ADD PUSH1 0x0 SWAP1 SLOAD SWAP1 PUSH2 0x100 EXP SWAP1 DIV PUSH20 0xFFFFFFFFFFFFFFFFFFFFFFFFFFFFFFFFFFFFFFFF AND SWAP1 DUP1 PUSH1 0x1 ADD PUSH1 0x0 SWAP1 SLOAD SWAP1 PUSH2 0x100 EXP SWAP1 DIV PUSH20 0xFFFFFFFFFFFFFFFFFFFFFFFFFFFFFFFFFFFFFFFF AND SWAP1 DUP1 PUSH1 0x2 ADD DUP1 SLOAD PUSH3 0xD10 SWAP1 PUSH3 0x1F4D JUMP JUMPDEST DUP1 PUSH1 0x1F ADD PUSH1 0x20 DUP1 SWAP2 DIV MUL PUSH1 0x20 ADD PUSH1 0x40 MLOAD SWAP1 DUP2 ADD PUSH1 0x40 MSTORE DUP1 SWAP3 SWAP2 SWAP1 DUP2 DUP2 MSTORE PUSH1 0x20 ADD DUP3 DUP1 SLOAD PUSH3 0xD3E SWAP1 PUSH3 0x1F4D JUMP JUMPDEST DUP1 ISZERO PUSH3 0xD8F JUMPI DUP1 PUSH1 0x1F LT PUSH3 0xD63 JUMPI PUSH2 0x100 DUP1 DUP4 SLOAD DIV MUL DUP4 MSTORE SWAP2 PUSH1 0x20 ADD SWAP2 PUSH3 0xD8F JUMP JUMPDEST DUP3 ADD SWAP2 SWAP1 PUSH1 0x0 MSTORE PUSH1 0x20 PUSH1 0x0 KECCAK256 SWAP1 JUMPDEST DUP2 SLOAD DUP2 MSTORE SWAP1 PUSH1 0x1 ADD SWAP1 PUSH1 0x20 ADD DUP1 DUP4 GT PUSH3 0xD71 JUMPI DUP3 SWAP1 SUB PUSH1 0x1F AND DUP3 ADD SWAP2 JUMPDEST POP POP POP POP POP SWAP1 DUP1 PUSH1 0x3 ADD SLOAD SWAP1 DUP1 PUSH1 0x4 ADD SLOAD SWAP1 DUP1 PUSH1 0x5 ADD PUSH1 0x0 SWAP1 SLOAD SWAP1 PUSH2 0x100 EXP SWAP1 DIV PUSH1 0xFF AND SWAP1 DUP1 PUSH1 0x6 ADD DUP1 SLOAD PUSH3 0xDC5 SWAP1 PUSH3 0x1F4D JUMP JUMPDEST DUP1 PUSH1 0x1F ADD PUSH1 0x20 DUP1 SWAP2 DIV MUL PUSH1 0x20 ADD PUSH1 0x40 MLOAD SWAP1 DUP2 ADD PUSH1 0x40 MSTORE DUP1 SWAP3 SWAP2 SWAP1 DUP2 DUP2 MSTORE PUSH1 0x20 ADD DUP3 DUP1 SLOAD PUSH3 0xDF3 SWAP1 PUSH3 0x1F4D JUMP JUMPDEST DUP1 ISZERO PUSH3 0xE44 JUMPI DUP1 PUSH1 0x1F LT PUSH3 0xE18 JUMPI PUSH2 0x100 DUP1 DUP4 SLOAD DIV MUL DUP4 MSTORE SWAP2 PUSH1 0x20 ADD SWAP2 PUSH3 0xE44 JUMP JUMPDEST DUP3 ADD SWAP2 SWAP1 PUSH1 0x0 MSTORE PUSH1 0x20 PUSH1 0x0 KECCAK256 SWAP1 JUMPDEST DUP2 SLOAD DUP2 MSTORE SWAP1 PUSH1 0x1 ADD SWAP1 PUSH1 0x20 ADD DUP1 DUP4 GT PUSH3 0xE26 JUMPI DUP3 SWAP1 SUB PUSH1 0x1F AND DUP3 ADD SWAP2 JUMPDEST POP POP POP POP POP SWAP1 POP DUP8 JUMP JUMPDEST PUSH3 0xE58 PUSH3 0xA1F JUMP JUMPDEST PUSH3 0xE9A JUMPI PUSH1 0x40 MLOAD PUSH32 0x8C379A000000000000000000000000000000000000000000000000000000000 DUP2 MSTORE PUSH1 0x4 ADD PUSH3 0xE91 SWAP1 PUSH3 0x1BED JUMP JUMPDEST PUSH1 0x40 MLOAD DUP1 SWAP2 SUB SWAP1 REVERT JUMPDEST PUSH1 0x1 PUSH1 0x2 DUP2 GT ISZERO PUSH3 0xED5 JUMPI PUSH32 0x4E487B7100000000000000000000000000000000000000000000000000000000 PUSH1 0x0 MSTORE PUSH1 0x21 PUSH1 0x4 MSTORE PUSH1 0x24 PUSH1 0x0 REVERT JUMPDEST PUSH1 0x1 PUSH1 0x0 DUP4 DUP2 MSTORE PUSH1 0x20 ADD SWAP1 DUP2 MSTORE PUSH1 0x20 ADD PUSH1 0x0 KECCAK256 PUSH1 0x5 ADD PUSH1 0x0 SWAP1 SLOAD SWAP1 PUSH2 0x100 EXP SWAP1 DIV PUSH1 0xFF AND PUSH1 0x2 DUP2 GT ISZERO PUSH3 0xF32 JUMPI PUSH32 0x4E487B7100000000000000000000000000000000000000000000000000000000 PUSH1 0x0 MSTORE PUSH1 0x21 PUSH1 0x4 MSTORE PUSH1 0x24 PUSH1 0x0 REVERT JUMPDEST EQ PUSH3 0xF75 JUMPI PUSH1 0x40 MLOAD PUSH32 0x8C379A000000000000000000000000000000000000000000000000000000000 DUP2 MSTORE PUSH1 0x4 ADD PUSH3 0xF6C SWAP1 PUSH3 0x1BCB JUMP JUMPDEST PUSH1 0x40 MLOAD DUP1 SWAP2 SUB SWAP1 REVERT JUMPDEST PUSH1 0x2 PUSH1 0x1 PUSH1 0x0 DUP4 DUP2 MSTORE PUSH1 0x20 ADD SWAP1 DUP2 MSTORE PUSH1 0x20 ADD PUSH1 0x0 KECCAK256 PUSH1 0x5 ADD PUSH1 0x0 PUSH2 0x100 EXP DUP2 SLOAD DUP2 PUSH1 0xFF MUL NOT AND SWAP1 DUP4 PUSH1 0x2 DUP2 GT ISZERO PUSH3 0xFD6 JUMPI PUSH32 0x4E487B7100000000000000000000000000000000000000000000000000000000 PUSH1 0x0 MSTORE PUSH1 0x21 PUSH1 0x4 MSTORE PUSH1 0x24 PUSH1 0x0 REVERT JUMPDEST MUL OR SWAP1 SSTORE POP PUSH32 0x4DAE4D23AA86EA4452CA552B9901B80BD40C63A842232A8A7975D07A3646F01 DUP2 PUSH1 0x1 PUSH1 0x0 DUP5 DUP2 MSTORE PUSH1 0x20 ADD SWAP1 DUP2 MSTORE PUSH1 0x20 ADD PUSH1 0x0 KECCAK256 PUSH1 0x5 ADD PUSH1 0x0 SWAP1 SLOAD SWAP1 PUSH2 0x100 EXP SWAP1 DIV PUSH1 0xFF AND PUSH1 0x2 DUP2 GT ISZERO PUSH3 0x105A JUMPI PUSH32 0x4E487B7100000000000000000000000000000000000000000000000000000000 PUSH1 0x0 MSTORE PUSH1 0x21 PUSH1 0x4 MSTORE PUSH1 0x24 PUSH1 0x0 REVERT JUMPDEST PUSH1 0x1 PUSH1 0x0 DUP6 DUP2 MSTORE PUSH1 0x20 ADD SWAP1 DUP2 MSTORE PUSH1 0x20 ADD PUSH1 0x0 KECCAK256 PUSH1 0x1 ADD PUSH1 0x0 SWAP1 SLOAD SWAP1 PUSH2 0x100 EXP SWAP1 DIV PUSH20 0xFFFFFFFFFFFFFFFFFFFFFFFFFFFFFFFFFFFFFFFF AND PUSH1 0x1 PUSH1 0x0 DUP7 DUP2 MSTORE PUSH1 0x20 ADD SWAP1 DUP2 MSTORE PUSH1 0x20 ADD PUSH1 0x0 KECCAK256 PUSH1 0x6 ADD PUSH1 0x40 MLOAD PUSH3 0x10B9 SWAP5 SWAP4 SWAP3 SWAP2 SWAP1 PUSH3 0x1D31 JUMP JUMPDEST PUSH1 0x40 MLOAD DUP1 SWAP2 SUB SWAP1 LOG1 POP JUMP JUMPDEST PUSH3 0x10CE PUSH3 0xA1F JUMP JUMPDEST PUSH3 0x1110 JUMPI PUSH1 0x40 MLOAD PUSH32 0x8C379A000000000000000000000000000000000000000000000000000000000 DUP2 MSTORE PUSH1 0x4 ADD PUSH3 0x1107 SWAP1 PUSH3 0x1BED JUMP JUMPDEST PUSH1 0x40 MLOAD DUP1 SWAP2 SUB SWAP1 REVERT JUMPDEST PUSH1 0x0 ADDRESS DUP5 PUSH1 0x2 SLOAD PUSH1 0x40 MLOAD PUSH3 0x1125 SWAP1 PUSH3 0x1552 JUMP JUMPDEST PUSH3 0x1133 SWAP4 SWAP3 SWAP2 SWAP1 PUSH3 0x1B8E JUMP JUMPDEST PUSH1 0x40 MLOAD DUP1 SWAP2 SUB SWAP1 PUSH1 0x0 CREATE DUP1 ISZERO DUP1 ISZERO PUSH3 0x1150 JUMPI RETURNDATASIZE PUSH1 0x0 DUP1 RETURNDATACOPY RETURNDATASIZE PUSH1 0x0 REVERT JUMPDEST POP SWAP1 POP DUP6 PUSH1 0x1 PUSH1 0x0 PUSH1 0x2 SLOAD DUP2 MSTORE PUSH1 0x20 ADD SWAP1 DUP2 MSTORE PUSH1 0x20 ADD PUSH1 0x0 KECCAK256 PUSH1 0x0 ADD PUSH1 0x0 PUSH2 0x100 EXP DUP2 SLOAD DUP2 PUSH20 0xFFFFFFFFFFFFFFFFFFFFFFFFFFFFFFFFFFFFFFFF MUL NOT AND SWAP1 DUP4 PUSH20 0xFFFFFFFFFFFFFFFFFFFFFFFFFFFFFFFFFFFFFFFF AND MUL OR SWAP1 SSTORE POP DUP1 PUSH1 0x1 PUSH1 0x0 PUSH1 0x2 SLOAD DUP2 MSTORE PUSH1 0x20 ADD SWAP1 DUP2 MSTORE PUSH1 0x20 ADD PUSH1 0x0 KECCAK256 PUSH1 0x1 ADD PUSH1 0x0 PUSH2 0x100 EXP DUP2 SLOAD DUP2 PUSH20 0xFFFFFFFFFFFFFFFFFFFFFFFFFFFFFFFFFFFFFFFF MUL NOT AND SWAP1 DUP4 PUSH20 0xFFFFFFFFFFFFFFFFFFFFFFFFFFFFFFFFFFFFFFFF AND MUL OR SWAP1 SSTORE POP DUP5 PUSH1 0x1 PUSH1 0x0 PUSH1 0x2 SLOAD DUP2 MSTORE PUSH1 0x20 ADD SWAP1 DUP2 MSTORE PUSH1 0x20 ADD PUSH1 0x0 KECCAK256 PUSH1 0x2 ADD SWAP1 DUP1 MLOAD SWAP1 PUSH1 0x20 ADD SWAP1 PUSH3 0x122F SWAP3 SWAP2 SWAP1 PUSH3 0x14C1 JUMP JUMPDEST POP DUP4 PUSH1 0x1 PUSH1 0x0 PUSH1 0x2 SLOAD DUP2 MSTORE PUSH1 0x20 ADD SWAP1 DUP2 MSTORE PUSH1 0x20 ADD PUSH1 0x0 KECCAK256 PUSH1 0x3 ADD DUP2 SWAP1 SSTORE POP DUP3 PUSH1 0x1 PUSH1 0x0 PUSH1 0x2 SLOAD DUP2 MSTORE PUSH1 0x20 ADD SWAP1 DUP2 MSTORE PUSH1 0x20 ADD PUSH1 0x0 KECCAK256 PUSH1 0x4 ADD DUP2 SWAP1 SSTORE POP PUSH1 0x0 PUSH1 0x1 PUSH1 0x0 PUSH1 0x2 SLOAD DUP2 MSTORE PUSH1 0x20 ADD SWAP1 DUP2 MSTORE PUSH1 0x20 ADD PUSH1 0x0 KECCAK256 PUSH1 0x5 ADD PUSH1 0x0 PUSH2 0x100 EXP DUP2 SLOAD DUP2 PUSH1 0xFF MUL NOT AND SWAP1 DUP4 PUSH1 0x2 DUP2 GT ISZERO PUSH3 0x12CD JUMPI PUSH32 0x4E487B7100000000000000000000000000000000000000000000000000000000 PUSH1 0x0 MSTORE PUSH1 0x21 PUSH1 0x4 MSTORE PUSH1 0x24 PUSH1 0x0 REVERT JUMPDEST MUL OR SWAP1 SSTORE POP DUP2 PUSH1 0x1 PUSH1 0x0 PUSH1 0x2 SLOAD DUP2 MSTORE PUSH1 0x20 ADD SWAP1 DUP2 MSTORE PUSH1 0x20 ADD PUSH1 0x0 KECCAK256 PUSH1 0x6 ADD SWAP1 DUP1 MLOAD SWAP1 PUSH1 0x20 ADD SWAP1 PUSH3 0x1300 SWAP3 SWAP2 SWAP1 PUSH3 0x14C1 JUMP JUMPDEST POP PUSH32 0x4DAE4D23AA86EA4452CA552B9901B80BD40C63A842232A8A7975D07A3646F01 PUSH1 0x2 SLOAD PUSH1 0x1 PUSH1 0x0 PUSH1 0x2 SLOAD DUP2 MSTORE PUSH1 0x20 ADD SWAP1 DUP2 MSTORE PUSH1 0x20 ADD PUSH1 0x0 KECCAK256 PUSH1 0x5 ADD PUSH1 0x0 SWAP1 SLOAD SWAP1 PUSH2 0x100 EXP SWAP1 DIV PUSH1 0xFF AND PUSH1 0x2 DUP2 GT ISZERO PUSH3 0x1384 JUMPI PUSH32 0x4E487B7100000000000000000000000000000000000000000000000000000000 PUSH1 0x0 MSTORE PUSH1 0x21 PUSH1 0x4 MSTORE PUSH1 0x24 PUSH1 0x0 REVERT JUMPDEST DUP4 DUP6 PUSH1 0x40 MLOAD PUSH3 0x1398 SWAP5 SWAP4 SWAP3 SWAP2 SWAP1 PUSH3 0x1CDD JUMP JUMPDEST PUSH1 0x40 MLOAD DUP1 SWAP2 SUB SWAP1 LOG1 PUSH1 0x2 PUSH1 0x0 DUP2 SLOAD DUP1 SWAP3 SWAP2 SWAP1 PUSH3 0x13B5 SWAP1 PUSH3 0x1FB9 JUMP JUMPDEST SWAP2 SWAP1 POP SSTORE POP POP POP POP POP POP POP JUMP JUMPDEST PUSH1 0x0 DUP2 PUSH1 0x40 MLOAD PUSH1 0x20 ADD PUSH3 0x13D7 SWAP2 SWAP1 PUSH3 0x1ACD JUMP JUMPDEST PUSH1 0x40 MLOAD PUSH1 0x20 DUP2 DUP4 SUB SUB DUP2 MSTORE SWAP1 PUSH1 0x40 MSTORE DUP1 MLOAD SWAP1 PUSH1 0x20 ADD KECCAK256 DUP4 PUSH1 0x40 MLOAD PUSH1 0x20 ADD PUSH3 0x1400 SWAP2 SWAP1 PUSH3 0x1ACD JUMP JUMPDEST PUSH1 0x40 MLOAD PUSH1 0x20 DUP2 DUP4 SUB SUB DUP2 MSTORE SWAP1 PUSH1 0x40 MSTORE DUP1 MLOAD SWAP1 PUSH1 0x20 ADD KECCAK256 EQ SWAP1 POP SWAP3 SWAP2 POP POP JUMP JUMPDEST PUSH1 0x40 MLOAD DUP1 PUSH1 0xE0 ADD PUSH1 0x40 MSTORE DUP1 PUSH1 0x0 PUSH20 0xFFFFFFFFFFFFFFFFFFFFFFFFFFFFFFFFFFFFFFFF AND DUP2 MSTORE PUSH1 0x20 ADD PUSH1 0x0 PUSH20 0xFFFFFFFFFFFFFFFFFFFFFFFFFFFFFFFFFFFFFFFF AND DUP2 MSTORE PUSH1 0x20 ADD PUSH1 0x60 DUP2 MSTORE PUSH1 0x20 ADD PUSH1 0x0 DUP2 MSTORE PUSH1 0x20 ADD PUSH1 0x0 DUP2 MSTORE PUSH1 0x20 ADD PUSH1 0x0 PUSH1 0x2 DUP2 GT ISZERO PUSH3 0x14B4 JUMPI PUSH32 0x4E487B7100000000000000000000000000000000000000000000000000000000 PUSH1 0x0 MSTORE PUSH1 0x21 PUSH1 0x4 MSTORE PUSH1 0x24 PUSH1 0x0 REVERT JUMPDEST DUP2 MSTORE PUSH1 0x20 ADD PUSH1 0x60 DUP2 MSTORE POP SWAP1 JUMP JUMPDEST DUP3 DUP1 SLOAD PUSH3 0x14CF SWAP1 PUSH3 0x1F4D JUMP JUMPDEST SWAP1 PUSH1 0x0 MSTORE PUSH1 0x20 PUSH1 0x0 KECCAK256 SWAP1 PUSH1 0x1F ADD PUSH1 0x20 SWAP1 DIV DUP2 ADD SWAP3 DUP3 PUSH3 0x14F3 JUMPI PUSH1 0x0 DUP6 SSTORE PUSH3 0x153F JUMP JUMPDEST DUP3 PUSH1 0x1F LT PUSH3 0x150E JUMPI DUP1 MLOAD PUSH1 0xFF NOT AND DUP4 DUP1 ADD OR DUP6 SSTORE PUSH3 0x153F JUMP JUMPDEST DUP3 DUP1 ADD PUSH1 0x1 ADD DUP6 SSTORE DUP3 ISZERO PUSH3 0x153F JUMPI SWAP2 DUP3 ADD JUMPDEST DUP3 DUP2 GT ISZERO PUSH3 0x153E JUMPI DUP3 MLOAD DUP3 SSTORE SWAP2 PUSH1 0x20 ADD SWAP2 SWAP1 PUSH1 0x1 ADD SWAP1 PUSH3 0x1521 JUMP JUMPDEST JUMPDEST POP SWAP1 POP PUSH3 0x154E SWAP2 SWAP1 PUSH3 0x1560 JUMP JUMPDEST POP SWAP1 JUMP JUMPDEST PUSH2 0x76B DUP1 PUSH3 0x21ED DUP4 CODECOPY ADD SWAP1 JUMP JUMPDEST JUMPDEST DUP1 DUP3 GT ISZERO PUSH3 0x157B JUMPI PUSH1 0x0 DUP2 PUSH1 0x0 SWAP1 SSTORE POP PUSH1 0x1 ADD PUSH3 0x1561 JUMP JUMPDEST POP SWAP1 JUMP JUMPDEST PUSH1 0x0 PUSH3 0x1596 PUSH3 0x1590 DUP5 PUSH3 0x1DAE JUMP JUMPDEST PUSH3 0x1D85 JUMP JUMPDEST SWAP1 POP DUP3 DUP2 MSTORE PUSH1 0x20 DUP2 ADD DUP5 DUP5 DUP5 ADD GT ISZERO PUSH3 0x15AF JUMPI PUSH1 0x0 DUP1 REVERT JUMPDEST PUSH3 0x15BC DUP5 DUP3 DUP6 PUSH3 0x1F08 JUMP JUMPDEST POP SWAP4 SWAP3 POP POP POP JUMP JUMPDEST PUSH1 0x0 DUP2 CALLDATALOAD SWAP1 POP PUSH3 0x15D5 DUP2 PUSH3 0x21B8 JUMP JUMPDEST SWAP3 SWAP2 POP POP JUMP JUMPDEST PUSH1 0x0 DUP3 PUSH1 0x1F DUP4 ADD SLT PUSH3 0x15ED JUMPI PUSH1 0x0 DUP1 REVERT JUMPDEST DUP2 CALLDATALOAD PUSH3 0x15FF DUP5 DUP3 PUSH1 0x20 DUP7 ADD PUSH3 0x157F JUMP JUMPDEST SWAP2 POP POP SWAP3 SWAP2 POP POP JUMP JUMPDEST PUSH1 0x0 DUP2 CALLDATALOAD SWAP1 POP PUSH3 0x1619 DUP2 PUSH3 0x21D2 JUMP JUMPDEST SWAP3 SWAP2 POP POP JUMP JUMPDEST PUSH1 0x0 DUP1 PUSH1 0x0 DUP1 PUSH1 0x0 PUSH1 0xA0 DUP7 DUP9 SUB SLT ISZERO PUSH3 0x1638 JUMPI PUSH1 0x0 DUP1 REVERT JUMPDEST PUSH1 0x0 PUSH3 0x1648 DUP9 DUP3 DUP10 ADD PUSH3 0x15C4 JUMP JUMPDEST SWAP6 POP POP PUSH1 0x20 DUP7 ADD CALLDATALOAD PUSH8 0xFFFFFFFFFFFFFFFF DUP2 GT ISZERO PUSH3 0x1666 JUMPI PUSH1 0x0 DUP1 REVERT JUMPDEST PUSH3 0x1674 DUP9 DUP3 DUP10 ADD PUSH3 0x15DB JUMP JUMPDEST SWAP5 POP POP PUSH1 0x40 PUSH3 0x1687 DUP9 DUP3 DUP10 ADD PUSH3 0x1608 JUMP JUMPDEST SWAP4 POP POP PUSH1 0x60 PUSH3 0x169A DUP9 DUP3 DUP10 ADD PUSH3 0x1608 JUMP JUMPDEST SWAP3 POP POP PUSH1 0x80 DUP7 ADD CALLDATALOAD PUSH8 0xFFFFFFFFFFFFFFFF DUP2 GT ISZERO PUSH3 0x16B8 JUMPI PUSH1 0x0 DUP1 REVERT JUMPDEST PUSH3 0x16C6 DUP9 DUP3 DUP10 ADD PUSH3 0x15DB JUMP JUMPDEST SWAP2 POP POP SWAP3 SWAP6 POP SWAP3 SWAP6 SWAP1 SWAP4 POP JUMP JUMPDEST PUSH1 0x0 PUSH1 0x20 DUP3 DUP5 SUB SLT ISZERO PUSH3 0x16E6 JUMPI PUSH1 0x0 DUP1 REVERT JUMPDEST PUSH1 0x0 PUSH3 0x16F6 DUP5 DUP3 DUP6 ADD PUSH3 0x1608 JUMP JUMPDEST SWAP2 POP POP SWAP3 SWAP2 POP POP JUMP JUMPDEST PUSH1 0x0 DUP1 PUSH1 0x40 DUP4 DUP6 SUB SLT ISZERO PUSH3 0x1713 JUMPI PUSH1 0x0 DUP1 REVERT JUMPDEST PUSH1 0x0 PUSH3 0x1723 DUP6 DUP3 DUP7 ADD PUSH3 0x1608 JUMP JUMPDEST SWAP3 POP POP PUSH1 0x20 DUP4 ADD CALLDATALOAD PUSH8 0xFFFFFFFFFFFFFFFF DUP2 GT ISZERO PUSH3 0x1741 JUMPI PUSH1 0x0 DUP1 REVERT JUMPDEST PUSH3 0x174F DUP6 DUP3 DUP7 ADD PUSH3 0x15DB JUMP JUMPDEST SWAP2 POP POP SWAP3 POP SWAP3 SWAP1 POP JUMP JUMPDEST PUSH3 0x1764 DUP2 PUSH3 0x1E45 JUMP JUMPDEST DUP3 MSTORE POP POP JUMP JUMPDEST PUSH3 0x1775 DUP2 PUSH3 0x1E45 JUMP JUMPDEST DUP3 MSTORE POP POP JUMP JUMPDEST PUSH3 0x1786 DUP2 PUSH3 0x1E31 JUMP JUMPDEST DUP3 MSTORE POP POP JUMP JUMPDEST PUSH3 0x1797 DUP2 PUSH3 0x1E59 JUMP JUMPDEST DUP3 MSTORE POP POP JUMP JUMPDEST PUSH3 0x17A8 DUP2 PUSH3 0x1EA4 JUMP JUMPDEST DUP3 MSTORE POP POP JUMP JUMPDEST PUSH3 0x17B9 DUP2 PUSH3 0x1ECC JUMP JUMPDEST DUP3 MSTORE POP POP JUMP JUMPDEST PUSH3 0x17CA DUP2 PUSH3 0x1ECC JUMP JUMPDEST DUP3 MSTORE POP POP JUMP JUMPDEST PUSH3 0x17DB DUP2 PUSH3 0x1EF4 JUMP JUMPDEST DUP3 MSTORE POP POP JUMP JUMPDEST PUSH3 0x17EC DUP2 PUSH3 0x1EF4 JUMP JUMPDEST DUP3 MSTORE POP POP JUMP JUMPDEST PUSH1 0x0 PUSH3 0x17FF DUP3 PUSH3 0x1DF9 JUMP JUMPDEST PUSH3 0x180B DUP2 DUP6 PUSH3 0x1E04 JUMP JUMPDEST SWAP4 POP PUSH3 0x181D DUP2 DUP6 PUSH1 0x20 DUP7 ADD PUSH3 0x1F17 JUMP JUMPDEST PUSH3 0x1828 DUP2 PUSH3 0x20C3 JUMP JUMPDEST DUP5 ADD SWAP2 POP POP SWAP3 SWAP2 POP POP JUMP JUMPDEST PUSH1 0x0 PUSH3 0x1840 DUP3 PUSH3 0x1DF9 JUMP JUMPDEST PUSH3 0x184C DUP2 DUP6 PUSH3 0x1E15 JUMP JUMPDEST SWAP4 POP PUSH3 0x185E DUP2 DUP6 PUSH1 0x20 DUP7 ADD PUSH3 0x1F17 JUMP JUMPDEST PUSH3 0x1869 DUP2 PUSH3 0x20C3 JUMP JUMPDEST DUP5 ADD SWAP2 POP POP SWAP3 SWAP2 POP POP JUMP JUMPDEST PUSH1 0x0 PUSH3 0x1881 DUP3 PUSH3 0x1DF9 JUMP JUMPDEST PUSH3 0x188D DUP2 DUP6 PUSH3 0x1E26 JUMP JUMPDEST SWAP4 POP PUSH3 0x189F DUP2 DUP6 PUSH1 0x20 DUP7 ADD PUSH3 0x1F17 JUMP JUMPDEST DUP1 DUP5 ADD SWAP2 POP POP SWAP3 SWAP2 POP POP JUMP JUMPDEST PUSH1 0x0 DUP2 SLOAD PUSH3 0x18BA DUP2 PUSH3 0x1F4D JUMP JUMPDEST PUSH3 0x18C6 DUP2 DUP7 PUSH3 0x1E15 JUMP JUMPDEST SWAP5 POP PUSH1 0x1 DUP3 AND PUSH1 0x0 DUP2 EQ PUSH3 0x18E4 JUMPI PUSH1 0x1 DUP2 EQ PUSH3 0x18F7 JUMPI PUSH3 0x192E JUMP JUMPDEST PUSH1 0xFF NOT DUP4 AND DUP7 MSTORE PUSH1 0x20 DUP7 ADD SWAP4 POP PUSH3 0x192E JUMP JUMPDEST PUSH3 0x1902 DUP6 PUSH3 0x1DE4 JUMP JUMPDEST PUSH1 0x0 JUMPDEST DUP4 DUP2 LT ISZERO PUSH3 0x1926 JUMPI DUP2 SLOAD DUP2 DUP10 ADD MSTORE PUSH1 0x1 DUP3 ADD SWAP2 POP PUSH1 0x20 DUP2 ADD SWAP1 POP PUSH3 0x1905 JUMP JUMPDEST DUP1 DUP9 ADD SWAP6 POP POP POP JUMPDEST POP POP POP SWAP3 SWAP2 POP POP JUMP JUMPDEST PUSH1 0x0 PUSH3 0x1946 PUSH1 0x1D DUP4 PUSH3 0x1E15 JUMP JUMPDEST SWAP2 POP PUSH3 0x1953 DUP3 PUSH3 0x20D4 JUMP JUMPDEST PUSH1 0x20 DUP3 ADD SWAP1 POP SWAP2 SWAP1 POP JUMP JUMPDEST PUSH1 0x0 PUSH3 0x196D PUSH1 0x15 DUP4 PUSH3 0x1E15 JUMP JUMPDEST SWAP2 POP PUSH3 0x197A DUP3 PUSH3 0x20FD JUMP JUMPDEST PUSH1 0x20 DUP3 ADD SWAP1 POP SWAP2 SWAP1 POP JUMP JUMPDEST PUSH1 0x0 PUSH3 0x1994 PUSH1 0x1D DUP4 PUSH3 0x1E15 JUMP JUMPDEST SWAP2 POP PUSH3 0x19A1 DUP3 PUSH3 0x2126 JUMP JUMPDEST PUSH1 0x20 DUP3 ADD SWAP1 POP SWAP2 SWAP1 POP JUMP JUMPDEST PUSH1 0x0 PUSH3 0x19BB PUSH1 0x19 DUP4 PUSH3 0x1E15 JUMP JUMPDEST SWAP2 POP PUSH3 0x19C8 DUP3 PUSH3 0x214F JUMP JUMPDEST PUSH1 0x20 DUP3 ADD SWAP1 POP SWAP2 SWAP1 POP JUMP JUMPDEST PUSH1 0x0 PUSH3 0x19E2 PUSH1 0x1C DUP4 PUSH3 0x1E15 JUMP JUMPDEST SWAP2 POP PUSH3 0x19EF DUP3 PUSH3 0x2178 JUMP JUMPDEST PUSH1 0x20 DUP3 ADD SWAP1 POP SWAP2 SWAP1 POP JUMP JUMPDEST PUSH1 0x0 PUSH1 0xE0 DUP4 ADD PUSH1 0x0 DUP4 ADD MLOAD PUSH3 0x1A14 PUSH1 0x0 DUP7 ADD DUP3 PUSH3 0x1759 JUMP JUMPDEST POP PUSH1 0x20 DUP4 ADD MLOAD PUSH3 0x1A29 PUSH1 0x20 DUP7 ADD DUP3 PUSH3 0x17AE JUMP JUMPDEST POP PUSH1 0x40 DUP4 ADD MLOAD DUP5 DUP3 SUB PUSH1 0x40 DUP7 ADD MSTORE PUSH3 0x1A43 DUP3 DUP3 PUSH3 0x17F2 JUMP JUMPDEST SWAP2 POP POP PUSH1 0x60 DUP4 ADD MLOAD PUSH3 0x1A5A PUSH1 0x60 DUP7 ADD DUP3 PUSH3 0x1AAB JUMP JUMPDEST POP PUSH1 0x80 DUP4 ADD MLOAD PUSH3 0x1A6F PUSH1 0x80 DUP7 ADD DUP3 PUSH3 0x1AAB JUMP JUMPDEST POP PUSH1 0xA0 DUP4 ADD MLOAD PUSH3 0x1A84 PUSH1 0xA0 DUP7 ADD DUP3 PUSH3 0x17D0 JUMP JUMPDEST POP PUSH1 0xC0 DUP4 ADD MLOAD DUP5 DUP3 SUB PUSH1 0xC0 DUP7 ADD MSTORE PUSH3 0x1A9E DUP3 DUP3 PUSH3 0x17F2 JUMP JUMPDEST SWAP2 POP POP DUP1 SWAP2 POP POP SWAP3 SWAP2 POP POP JUMP JUMPDEST PUSH3 0x1AB6 DUP2 PUSH3 0x1E9A JUMP JUMPDEST DUP3 MSTORE POP POP JUMP JUMPDEST PUSH3 0x1AC7 DUP2 PUSH3 0x1E9A JUMP JUMPDEST DUP3 MSTORE POP POP JUMP JUMPDEST PUSH1 0x0 PUSH3 0x1ADB DUP3 DUP5 PUSH3 0x1874 JUMP JUMPDEST SWAP2 POP DUP2 SWAP1 POP SWAP3 SWAP2 POP POP JUMP JUMPDEST PUSH1 0x0 PUSH1 0xE0 DUP3 ADD SWAP1 POP PUSH3 0x1AFD PUSH1 0x0 DUP4 ADD DUP11 PUSH3 0x176A JUMP JUMPDEST PUSH3 0x1B0C PUSH1 0x20 DUP4 ADD DUP10 PUSH3 0x17BF JUMP JUMPDEST DUP2 DUP2 SUB PUSH1 0x40 DUP4 ADD MSTORE PUSH3 0x1B20 DUP2 DUP9 PUSH3 0x1833 JUMP JUMPDEST SWAP1 POP PUSH3 0x1B31 PUSH1 0x60 DUP4 ADD DUP8 PUSH3 0x1ABC JUMP JUMPDEST PUSH3 0x1B40 PUSH1 0x80 DUP4 ADD DUP7 PUSH3 0x1ABC JUMP JUMPDEST PUSH3 0x1B4F PUSH1 0xA0 DUP4 ADD DUP6 PUSH3 0x17E1 JUMP JUMPDEST DUP2 DUP2 SUB PUSH1 0xC0 DUP4 ADD MSTORE PUSH3 0x1B63 DUP2 DUP5 PUSH3 0x1833 JUMP JUMPDEST SWAP1 POP SWAP9 SWAP8 POP POP POP POP POP POP POP POP JUMP JUMPDEST PUSH1 0x0 PUSH1 0x20 DUP3 ADD SWAP1 POP PUSH3 0x1B88 PUSH1 0x0 DUP4 ADD DUP5 PUSH3 0x178C JUMP JUMPDEST SWAP3 SWAP2 POP POP JUMP JUMPDEST PUSH1 0x0 PUSH1 0x60 DUP3 ADD SWAP1 POP PUSH3 0x1BA5 PUSH1 0x0 DUP4 ADD DUP7 PUSH3 0x179D JUMP JUMPDEST PUSH3 0x1BB4 PUSH1 0x20 DUP4 ADD DUP6 PUSH3 0x1ABC JUMP JUMPDEST PUSH3 0x1BC3 PUSH1 0x40 DUP4 ADD DUP5 PUSH3 0x1ABC JUMP JUMPDEST SWAP5 SWAP4 POP POP POP POP JUMP JUMPDEST PUSH1 0x0 PUSH1 0x20 DUP3 ADD SWAP1 POP DUP2 DUP2 SUB PUSH1 0x0 DUP4 ADD MSTORE PUSH3 0x1BE6 DUP2 PUSH3 0x1937 JUMP JUMPDEST SWAP1 POP SWAP2 SWAP1 POP JUMP JUMPDEST PUSH1 0x0 PUSH1 0x20 DUP3 ADD SWAP1 POP DUP2 DUP2 SUB PUSH1 0x0 DUP4 ADD MSTORE PUSH3 0x1C08 DUP2 PUSH3 0x195E JUMP JUMPDEST SWAP1 POP SWAP2 SWAP1 POP JUMP JUMPDEST PUSH1 0x0 PUSH1 0x20 DUP3 ADD SWAP1 POP DUP2 DUP2 SUB PUSH1 0x0 DUP4 ADD MSTORE PUSH3 0x1C2A DUP2 PUSH3 0x1985 JUMP JUMPDEST SWAP1 POP SWAP2 SWAP1 POP JUMP JUMPDEST PUSH1 0x0 PUSH1 0x20 DUP3 ADD SWAP1 POP DUP2 DUP2 SUB PUSH1 0x0 DUP4 ADD MSTORE PUSH3 0x1C4C DUP2 PUSH3 0x19AC JUMP JUMPDEST SWAP1 POP SWAP2 SWAP1 POP JUMP JUMPDEST PUSH1 0x0 PUSH1 0x20 DUP3 ADD SWAP1 POP DUP2 DUP2 SUB PUSH1 0x0 DUP4 ADD MSTORE PUSH3 0x1C6E DUP2 PUSH3 0x19D3 JUMP JUMPDEST SWAP1 POP SWAP2 SWAP1 POP JUMP JUMPDEST PUSH1 0x0 PUSH1 0x20 DUP3 ADD SWAP1 POP DUP2 DUP2 SUB PUSH1 0x0 DUP4 ADD MSTORE PUSH3 0x1C91 DUP2 DUP5 PUSH3 0x19FA JUMP JUMPDEST SWAP1 POP SWAP3 SWAP2 POP POP JUMP JUMPDEST PUSH1 0x0 PUSH1 0x60 DUP3 ADD SWAP1 POP PUSH3 0x1CB0 PUSH1 0x0 DUP4 ADD DUP7 PUSH3 0x1ABC JUMP JUMPDEST PUSH3 0x1CBF PUSH1 0x20 DUP4 ADD DUP6 PUSH3 0x177B JUMP JUMPDEST DUP2 DUP2 SUB PUSH1 0x40 DUP4 ADD MSTORE PUSH3 0x1CD3 DUP2 DUP5 PUSH3 0x18AB JUMP JUMPDEST SWAP1 POP SWAP5 SWAP4 POP POP POP POP JUMP JUMPDEST PUSH1 0x0 PUSH1 0x80 DUP3 ADD SWAP1 POP PUSH3 0x1CF4 PUSH1 0x0 DUP4 ADD DUP8 PUSH3 0x1ABC JUMP JUMPDEST PUSH3 0x1D03 PUSH1 0x20 DUP4 ADD DUP7 PUSH3 0x1ABC JUMP JUMPDEST PUSH3 0x1D12 PUSH1 0x40 DUP4 ADD DUP6 PUSH3 0x177B JUMP JUMPDEST DUP2 DUP2 SUB PUSH1 0x60 DUP4 ADD MSTORE PUSH3 0x1D26 DUP2 DUP5 PUSH3 0x1833 JUMP JUMPDEST SWAP1 POP SWAP6 SWAP5 POP POP POP POP POP JUMP JUMPDEST PUSH1 0x0 PUSH1 0x80 DUP3 ADD SWAP1 POP PUSH3 0x1D48 PUSH1 0x0 DUP4 ADD DUP8 PUSH3 0x1ABC JUMP JUMPDEST PUSH3 0x1D57 PUSH1 0x20 DUP4 ADD DUP7 PUSH3 0x1ABC JUMP JUMPDEST PUSH3 0x1D66 PUSH1 0x40 DUP4 ADD DUP6 PUSH3 0x177B JUMP JUMPDEST DUP2 DUP2 SUB PUSH1 0x60 DUP4 ADD MSTORE PUSH3 0x1D7A DUP2 DUP5 PUSH3 0x18AB JUMP JUMPDEST SWAP1 POP SWAP6 SWAP5 POP POP POP POP POP JUMP JUMPDEST PUSH1 0x0 PUSH3 0x1D91 PUSH3 0x1DA4 JUMP JUMPDEST SWAP1 POP PUSH3 0x1D9F DUP3 DUP3 PUSH3 0x1F83 JUMP JUMPDEST SWAP2 SWAP1 POP JUMP JUMPDEST PUSH1 0x0 PUSH1 0x40 MLOAD SWAP1 POP SWAP1 JUMP JUMPDEST PUSH1 0x0 PUSH8 0xFFFFFFFFFFFFFFFF DUP3 GT ISZERO PUSH3 0x1DCC JUMPI PUSH3 0x1DCB PUSH3 0x2094 JUMP JUMPDEST JUMPDEST PUSH3 0x1DD7 DUP3 PUSH3 0x20C3 JUMP JUMPDEST SWAP1 POP PUSH1 0x20 DUP2 ADD SWAP1 POP SWAP2 SWAP1 POP JUMP JUMPDEST PUSH1 0x0 DUP2 SWAP1 POP DUP2 PUSH1 0x0 MSTORE PUSH1 0x20 PUSH1 0x0 KECCAK256 SWAP1 POP SWAP2 SWAP1 POP JUMP JUMPDEST PUSH1 0x0 DUP2 MLOAD SWAP1 POP SWAP2 SWAP1 POP JUMP JUMPDEST PUSH1 0x0 DUP3 DUP3 MSTORE PUSH1 0x20 DUP3 ADD SWAP1 POP SWAP3 SWAP2 POP POP JUMP JUMPDEST PUSH1 0x0 DUP3 DUP3 MSTORE PUSH1 0x20 DUP3 ADD SWAP1 POP SWAP3 SWAP2 POP POP JUMP JUMPDEST PUSH1 0x0 DUP2 SWAP1 POP SWAP3 SWAP2 POP POP JUMP JUMPDEST PUSH1 0x0 PUSH3 0x1E3E DUP3 PUSH3 0x1E7A JUMP JUMPDEST SWAP1 POP SWAP2 SWAP1 POP JUMP JUMPDEST PUSH1 0x0 PUSH3 0x1E52 DUP3 PUSH3 0x1E7A JUMP JUMPDEST SWAP1 POP SWAP2 SWAP1 POP JUMP JUMPDEST PUSH1 0x0 DUP2 ISZERO ISZERO SWAP1 POP SWAP2 SWAP1 POP JUMP JUMPDEST PUSH1 0x0 DUP2 SWAP1 POP PUSH3 0x1E75 DUP3 PUSH3 0x21A1 JUMP JUMPDEST SWAP2 SWAP1 POP JUMP JUMPDEST PUSH1 0x0 PUSH20 0xFFFFFFFFFFFFFFFFFFFFFFFFFFFFFFFFFFFFFFFF DUP3 AND SWAP1 POP SWAP2 SWAP1 POP JUMP JUMPDEST PUSH1 0x0 DUP2 SWAP1 POP SWAP2 SWAP1 POP JUMP JUMPDEST PUSH1 0x0 PUSH3 0x1EB1 DUP3 PUSH3 0x1EB8 JUMP JUMPDEST SWAP1 POP SWAP2 SWAP1 POP JUMP JUMPDEST PUSH1 0x0 PUSH3 0x1EC5 DUP3 PUSH3 0x1E7A JUMP JUMPDEST SWAP1 POP SWAP2 SWAP1 POP JUMP JUMPDEST PUSH1 0x0 PUSH3 0x1ED9 DUP3 PUSH3 0x1EE0 JUMP JUMPDEST SWAP1 POP SWAP2 SWAP1 POP JUMP JUMPDEST PUSH1 0x0 PUSH3 0x1EED DUP3 PUSH3 0x1E7A JUMP JUMPDEST SWAP1 POP SWAP2 SWAP1 POP JUMP JUMPDEST PUSH1 0x0 PUSH3 0x1F01 DUP3 PUSH3 0x1E65 JUMP JUMPDEST SWAP1 POP SWAP2 SWAP1 POP JUMP JUMPDEST DUP3 DUP2 DUP4 CALLDATACOPY PUSH1 0x0 DUP4 DUP4 ADD MSTORE POP POP POP JUMP JUMPDEST PUSH1 0x0 JUMPDEST DUP4 DUP2 LT ISZERO PUSH3 0x1F37 JUMPI DUP1 DUP3 ADD MLOAD DUP2 DUP5 ADD MSTORE PUSH1 0x20 DUP2 ADD SWAP1 POP PUSH3 0x1F1A JUMP JUMPDEST DUP4 DUP2 GT ISZERO PUSH3 0x1F47 JUMPI PUSH1 0x0 DUP5 DUP5 ADD MSTORE JUMPDEST POP POP POP POP JUMP JUMPDEST PUSH1 0x0 PUSH1 0x2 DUP3 DIV SWAP1 POP PUSH1 0x1 DUP3 AND DUP1 PUSH3 0x1F66 JUMPI PUSH1 0x7F DUP3 AND SWAP2 POP JUMPDEST PUSH1 0x20 DUP3 LT DUP2 EQ ISZERO PUSH3 0x1F7D JUMPI PUSH3 0x1F7C PUSH3 0x2065 JUMP JUMPDEST JUMPDEST POP SWAP2 SWAP1 POP JUMP JUMPDEST PUSH3 0x1F8E DUP3 PUSH3 0x20C3 JUMP JUMPDEST DUP2 ADD DUP2 DUP2 LT PUSH8 0xFFFFFFFFFFFFFFFF DUP3 GT OR ISZERO PUSH3 0x1FB0 JUMPI PUSH3 0x1FAF PUSH3 0x2094 JUMP JUMPDEST JUMPDEST DUP1 PUSH1 0x40 MSTORE POP POP POP JUMP JUMPDEST PUSH1 0x0 PUSH3 0x1FC6 DUP3 PUSH3 0x1E9A JUMP JUMPDEST SWAP2 POP PUSH32 0xFFFFFFFFFFFFFFFFFFFFFFFFFFFFFFFFFFFFFFFFFFFFFFFFFFFFFFFFFFFFFFFF DUP3 EQ ISZERO PUSH3 0x1FFC JUMPI PUSH3 0x1FFB PUSH3 0x2007 JUMP JUMPDEST JUMPDEST PUSH1 0x1 DUP3 ADD SWAP1 POP SWAP2 SWAP1 POP JUMP JUMPDEST PUSH32 0x4E487B7100000000000000000000000000000000000000000000000000000000 PUSH1 0x0 MSTORE PUSH1 0x11 PUSH1 0x4 MSTORE PUSH1 0x24 PUSH1 0x0 REVERT JUMPDEST PUSH32 0x4E487B7100000000000000000000000000000000000000000000000000000000 PUSH1 0x0 MSTORE PUSH1 0x21 PUSH1 0x4 MSTORE PUSH1 0x24 PUSH1 0x0 REVERT JUMPDEST PUSH32 0x4E487B7100000000000000000000000000000000000000000000000000000000 PUSH1 0x0 MSTORE PUSH1 0x22 PUSH1 0x4 MSTORE PUSH1 0x24 PUSH1 0x0 REVERT JUMPDEST PUSH32 0x4E487B7100000000000000000000000000000000000000000000000000000000 PUSH1 0x0 MSTORE PUSH1 0x41 PUSH1 0x4 MSTORE PUSH1 0x24 PUSH1 0x0 REVERT JUMPDEST PUSH1 0x0 PUSH1 0x1F NOT PUSH1 0x1F DUP4 ADD AND SWAP1 POP SWAP2 SWAP1 POP JUMP JUMPDEST PUSH32 0x4974656D206973206675727468657220696E2074686520636861696E21000000 PUSH1 0x0 DUP3 ADD MSTORE POP JUMP JUMPDEST PUSH32 0x596F7520617265206E6F7420746865206F776E65720000000000000000000000 PUSH1 0x0 DUP3 ADD MSTORE POP JUMP JUMPDEST PUSH32 0x50616964206974656D2063616E6E6F742075706461746520696E666F21000000 PUSH1 0x0 DUP3 ADD MSTORE POP JUMP JUMPDEST PUSH32 0x4E6F7468696E67206368616E676520746F207570646174652100000000000000 PUSH1 0x0 DUP3 ADD MSTORE POP JUMP JUMPDEST PUSH32 0x4F6E6C792066756C6C207061796D656E74732061636365707465642100000000 PUSH1 0x0 DUP3 ADD MSTORE POP JUMP JUMPDEST PUSH1 0x3 DUP2 LT PUSH3 0x21B5 JUMPI PUSH3 0x21B4 PUSH3 0x2036 JUMP JUMPDEST JUMPDEST POP JUMP JUMPDEST PUSH3 0x21C3 DUP2 PUSH3 0x1E45 JUMP JUMPDEST DUP2 EQ PUSH3 0x21CF JUMPI PUSH1 0x0 DUP1 REVERT JUMPDEST POP JUMP JUMPDEST PUSH3 0x21DD DUP2 PUSH3 0x1E9A JUMP JUMPDEST DUP2 EQ PUSH3 0x21E9 JUMPI PUSH1 0x0 DUP1 REVERT JUMPDEST POP JUMP INVALID PUSH1 0x80 PUSH1 0x40 MSTORE CALLVALUE DUP1 ISZERO PUSH2 0x10 JUMPI PUSH1 0x0 DUP1 REVERT JUMPDEST POP PUSH1 0x40 MLOAD PUSH2 0x76B CODESIZE SUB DUP1 PUSH2 0x76B DUP4 CODECOPY DUP2 DUP2 ADD PUSH1 0x40 MSTORE DUP2 ADD SWAP1 PUSH2 0x32 SWAP2 SWAP1 PUSH2 0xB3 JUMP JUMPDEST DUP2 PUSH1 0x0 DUP2 SWAP1 SSTORE POP DUP1 PUSH1 0x2 DUP2 SWAP1 SSTORE POP DUP3 PUSH1 0x3 PUSH1 0x0 PUSH2 0x100 EXP DUP2 SLOAD DUP2 PUSH20 0xFFFFFFFFFFFFFFFFFFFFFFFFFFFFFFFFFFFFFFFF MUL NOT AND SWAP1 DUP4 PUSH20 0xFFFFFFFFFFFFFFFFFFFFFFFFFFFFFFFFFFFFFFFF AND MUL OR SWAP1 SSTORE POP POP POP POP PUSH2 0x17E JUMP JUMPDEST PUSH1 0x0 DUP2 MLOAD SWAP1 POP PUSH2 0x98 DUP2 PUSH2 0x150 JUMP JUMPDEST SWAP3 SWAP2 POP POP JUMP JUMPDEST PUSH1 0x0 DUP2 MLOAD SWAP1 POP PUSH2 0xAD DUP2 PUSH2 0x167 JUMP JUMPDEST SWAP3 SWAP2 POP POP JUMP JUMPDEST PUSH1 0x0 DUP1 PUSH1 0x0 PUSH1 0x60 DUP5 DUP7 SUB SLT ISZERO PUSH2 0xC8 JUMPI PUSH1 0x0 DUP1 REVERT JUMPDEST PUSH1 0x0 PUSH2 0xD6 DUP7 DUP3 DUP8 ADD PUSH2 0x89 JUMP JUMPDEST SWAP4 POP POP PUSH1 0x20 PUSH2 0xE7 DUP7 DUP3 DUP8 ADD PUSH2 0x9E JUMP JUMPDEST SWAP3 POP POP PUSH1 0x40 PUSH2 0xF8 DUP7 DUP3 DUP8 ADD PUSH2 0x9E JUMP JUMPDEST SWAP2 POP POP SWAP3 POP SWAP3 POP SWAP3 JUMP JUMPDEST PUSH1 0x0 PUSH2 0x10D DUP3 PUSH2 0x126 JUMP JUMPDEST SWAP1 POP SWAP2 SWAP1 POP JUMP JUMPDEST PUSH1 0x0 PUSH2 0x11F DUP3 PUSH2 0x102 JUMP JUMPDEST SWAP1 POP SWAP2 SWAP1 POP JUMP JUMPDEST PUSH1 0x0 PUSH20 0xFFFFFFFFFFFFFFFFFFFFFFFFFFFFFFFFFFFFFFFF DUP3 AND SWAP1 POP SWAP2 SWAP1 POP JUMP JUMPDEST PUSH1 0x0 DUP2 SWAP1 POP SWAP2 SWAP1 POP JUMP JUMPDEST PUSH2 0x159 DUP2 PUSH2 0x114 JUMP JUMPDEST DUP2 EQ PUSH2 0x164 JUMPI PUSH1 0x0 DUP1 REVERT JUMPDEST POP JUMP JUMPDEST PUSH2 0x170 DUP2 PUSH2 0x146 JUMP JUMPDEST DUP2 EQ PUSH2 0x17B JUMPI PUSH1 0x0 DUP1 REVERT JUMPDEST POP JUMP JUMPDEST PUSH2 0x5DE DUP1 PUSH2 0x18D PUSH1 0x0 CODECOPY PUSH1 0x0 RETURN INVALID PUSH1 0x80 PUSH1 0x40 MSTORE PUSH1 0x4 CALLDATASIZE LT PUSH2 0x38 JUMPI PUSH1 0x0 CALLDATALOAD PUSH1 0xE0 SHR DUP1 PUSH4 0x2986C0E5 EQ PUSH2 0x250 JUMPI DUP1 PUSH4 0x3C8DA588 EQ PUSH2 0x27B JUMPI DUP1 PUSH4 0x89794D00 EQ PUSH2 0x2A6 JUMPI PUSH2 0x241 JUMP JUMPDEST CALLDATASIZE PUSH2 0x241 JUMPI PUSH1 0x0 PUSH1 0x1 SLOAD EQ PUSH2 0x82 JUMPI PUSH1 0x40 MLOAD PUSH32 0x8C379A000000000000000000000000000000000000000000000000000000000 DUP2 MSTORE PUSH1 0x4 ADD PUSH2 0x79 SWAP1 PUSH2 0x3C3 JUMP JUMPDEST PUSH1 0x40 MLOAD DUP1 SWAP2 SUB SWAP1 REVERT JUMPDEST CALLVALUE PUSH1 0x0 SLOAD EQ PUSH2 0xC6 JUMPI PUSH1 0x40 MLOAD PUSH32 0x8C379A000000000000000000000000000000000000000000000000000000000 DUP2 MSTORE PUSH1 0x4 ADD PUSH2 0xBD SWAP1 PUSH2 0x3E3 JUMP JUMPDEST PUSH1 0x40 MLOAD DUP1 SWAP2 SUB SWAP1 REVERT JUMPDEST CALLVALUE PUSH1 0x1 PUSH1 0x0 DUP3 DUP3 SLOAD PUSH2 0xD8 SWAP2 SWAP1 PUSH2 0x445 JUMP JUMPDEST SWAP3 POP POP DUP2 SWAP1 SSTORE POP PUSH1 0x0 PUSH1 0x3 PUSH1 0x0 SWAP1 SLOAD SWAP1 PUSH2 0x100 EXP SWAP1 DIV PUSH20 0xFFFFFFFFFFFFFFFFFFFFFFFFFFFFFFFFFFFFFFFF AND PUSH20 0xFFFFFFFFFFFFFFFFFFFFFFFFFFFFFFFFFFFFFFFF AND CALLVALUE PUSH1 0x2 SLOAD PUSH1 0x40 MLOAD PUSH1 0x24 ADD PUSH2 0x12E SWAP2 SWAP1 PUSH2 0x403 JUMP JUMPDEST PUSH1 0x40 MLOAD PUSH1 0x20 DUP2 DUP4 SUB SUB DUP2 MSTORE SWAP1 PUSH1 0x40 MSTORE PUSH32 0x800FB83F00000000000000000000000000000000000000000000000000000000 PUSH28 0xFFFFFFFFFFFFFFFFFFFFFFFFFFFFFFFFFFFFFFFFFFFFFFFFFFFFFFFF NOT AND PUSH1 0x20 DUP3 ADD DUP1 MLOAD PUSH28 0xFFFFFFFFFFFFFFFFFFFFFFFFFFFFFFFFFFFFFFFFFFFFFFFFFFFFFFFF DUP4 DUP2 DUP4 AND OR DUP4 MSTORE POP POP POP POP PUSH1 0x40 MLOAD PUSH2 0x1B8 SWAP2 SWAP1 PUSH2 0x38C JUMP JUMPDEST PUSH1 0x0 PUSH1 0x40 MLOAD DUP1 DUP4 SUB DUP2 DUP6 DUP8 GAS CALL SWAP3 POP POP POP RETURNDATASIZE DUP1 PUSH1 0x0 DUP2 EQ PUSH2 0x1F5 JUMPI PUSH1 0x40 MLOAD SWAP2 POP PUSH1 0x1F NOT PUSH1 0x3F RETURNDATASIZE ADD AND DUP3 ADD PUSH1 0x40 MSTORE RETURNDATASIZE DUP3 MSTORE RETURNDATASIZE PUSH1 0x0 PUSH1 0x20 DUP5 ADD RETURNDATACOPY PUSH2 0x1FA JUMP JUMPDEST PUSH1 0x60 SWAP2 POP JUMPDEST POP POP SWAP1 POP DUP1 PUSH2 0x23E JUMPI PUSH1 0x40 MLOAD PUSH32 0x8C379A000000000000000000000000000000000000000000000000000000000 DUP2 MSTORE PUSH1 0x4 ADD PUSH2 0x235 SWAP1 PUSH2 0x3A3 JUMP JUMPDEST PUSH1 0x40 MLOAD DUP1 SWAP2 SUB SWAP1 REVERT JUMPDEST POP STOP JUMPDEST CALLVALUE DUP1 ISZERO PUSH2 0x24D JUMPI PUSH1 0x0 DUP1 REVERT JUMPDEST POP STOP JUMPDEST CALLVALUE DUP1 ISZERO PUSH2 0x25C JUMPI PUSH1 0x0 DUP1 REVERT JUMPDEST POP PUSH2 0x265 PUSH2 0x2D1 JUMP JUMPDEST PUSH1 0x40 MLOAD PUSH2 0x272 SWAP2 SWAP1 PUSH2 0x403 JUMP JUMPDEST PUSH1 0x40 MLOAD DUP1 SWAP2 SUB SWAP1 RETURN JUMPDEST CALLVALUE DUP1 ISZERO PUSH2 0x287 JUMPI PUSH1 0x0 DUP1 REVERT JUMPDEST POP PUSH2 0x290 PUSH2 0x2D7 JUMP JUMPDEST PUSH1 0x40 MLOAD PUSH2 0x29D SWAP2 SWAP1 PUSH2 0x403 JUMP JUMPDEST PUSH1 0x40 MLOAD DUP1 SWAP2 SUB SWAP1 RETURN JUMPDEST CALLVALUE DUP1 ISZERO PUSH2 0x2B2 JUMPI PUSH1 0x0 DUP1 REVERT JUMPDEST POP PUSH2 0x2BB PUSH2 0x2DD JUMP JUMPDEST PUSH1 0x40 MLOAD PUSH2 0x2C8 SWAP2 SWAP1 PUSH2 0x403 JUMP JUMPDEST PUSH1 0x40 MLOAD DUP1 SWAP2 SUB SWAP1 RETURN JUMPDEST PUSH1 0x2 SLOAD DUP2 JUMP JUMPDEST PUSH1 0x0 SLOAD DUP2 JUMP JUMPDEST PUSH1 0x1 SLOAD DUP2 JUMP JUMPDEST PUSH1 0x0 PUSH2 0x2EE DUP3 PUSH2 0x41E JUMP JUMPDEST PUSH2 0x2F8 DUP2 DUP6 PUSH2 0x429 JUMP JUMPDEST SWAP4 POP PUSH2 0x308 DUP2 DUP6 PUSH1 0x20 DUP7 ADD PUSH2 0x4A5 JUMP JUMPDEST DUP1 DUP5 ADD SWAP2 POP POP SWAP3 SWAP2 POP POP JUMP JUMPDEST PUSH1 0x0 PUSH2 0x321 PUSH1 0x2E DUP4 PUSH2 0x434 JUMP JUMPDEST SWAP2 POP PUSH2 0x32C DUP3 PUSH2 0x507 JUMP JUMPDEST PUSH1 0x40 DUP3 ADD SWAP1 POP SWAP2 SWAP1 POP JUMP JUMPDEST PUSH1 0x0 PUSH2 0x344 PUSH1 0x15 DUP4 PUSH2 0x434 JUMP JUMPDEST SWAP2 POP PUSH2 0x34F DUP3 PUSH2 0x556 JUMP JUMPDEST PUSH1 0x20 DUP3 ADD SWAP1 POP SWAP2 SWAP1 POP JUMP JUMPDEST PUSH1 0x0 PUSH2 0x367 PUSH1 0x1A DUP4 PUSH2 0x434 JUMP JUMPDEST SWAP2 POP PUSH2 0x372 DUP3 PUSH2 0x57F JUMP JUMPDEST PUSH1 0x20 DUP3 ADD SWAP1 POP SWAP2 SWAP1 POP JUMP JUMPDEST PUSH2 0x386 DUP2 PUSH2 0x49B JUMP JUMPDEST DUP3 MSTORE POP POP JUMP JUMPDEST PUSH1 0x0 PUSH2 0x398 DUP3 DUP5 PUSH2 0x2E3 JUMP JUMPDEST SWAP2 POP DUP2 SWAP1 POP SWAP3 SWAP2 POP POP JUMP JUMPDEST PUSH1 0x0 PUSH1 0x20 DUP3 ADD SWAP1 POP DUP2 DUP2 SUB PUSH1 0x0 DUP4 ADD MSTORE PUSH2 0x3BC DUP2 PUSH2 0x314 JUMP JUMPDEST SWAP1 POP SWAP2 SWAP1 POP JUMP JUMPDEST PUSH1 0x0 PUSH1 0x20 DUP3 ADD SWAP1 POP DUP2 DUP2 SUB PUSH1 0x0 DUP4 ADD MSTORE PUSH2 0x3DC DUP2 PUSH2 0x337 JUMP JUMPDEST SWAP1 POP SWAP2 SWAP1 POP JUMP JUMPDEST PUSH1 0x0 PUSH1 0x20 DUP3 ADD SWAP1 POP DUP2 DUP2 SUB PUSH1 0x0 DUP4 ADD MSTORE PUSH2 0x3FC DUP2 PUSH2 0x35A JUMP JUMPDEST SWAP1 POP SWAP2 SWAP1 POP JUMP JUMPDEST PUSH1 0x0 PUSH1 0x20 DUP3 ADD SWAP1 POP PUSH2 0x418 PUSH1 0x0 DUP4 ADD DUP5 PUSH2 0x37D JUMP JUMPDEST SWAP3 SWAP2 POP POP JUMP JUMPDEST PUSH1 0x0 DUP2 MLOAD SWAP1 POP SWAP2 SWAP1 POP JUMP JUMPDEST PUSH1 0x0 DUP2 SWAP1 POP SWAP3 SWAP2 POP POP JUMP JUMPDEST PUSH1 0x0 DUP3 DUP3 MSTORE PUSH1 0x20 DUP3 ADD SWAP1 POP SWAP3 SWAP2 POP POP JUMP JUMPDEST PUSH1 0x0 PUSH2 0x450 DUP3 PUSH2 0x49B JUMP JUMPDEST SWAP2 POP PUSH2 0x45B DUP4 PUSH2 0x49B JUMP JUMPDEST SWAP3 POP DUP3 PUSH32 0xFFFFFFFFFFFFFFFFFFFFFFFFFFFFFFFFFFFFFFFFFFFFFFFFFFFFFFFFFFFFFFFF SUB DUP3 GT ISZERO PUSH2 0x490 JUMPI PUSH2 0x48F PUSH2 0x4D8 JUMP JUMPDEST JUMPDEST DUP3 DUP3 ADD SWAP1 POP SWAP3 SWAP2 POP POP JUMP JUMPDEST PUSH1 0x0 DUP2 SWAP1 POP SWAP2 SWAP1 POP JUMP JUMPDEST PUSH1 0x0 JUMPDEST DUP4 DUP2 LT ISZERO PUSH2 0x4C3 JUMPI DUP1 DUP3 ADD MLOAD DUP2 DUP5 ADD MSTORE PUSH1 0x20 DUP2 ADD SWAP1 POP PUSH2 0x4A8 JUMP JUMPDEST DUP4 DUP2 GT ISZERO PUSH2 0x4D2 JUMPI PUSH1 0x0 DUP5 DUP5 ADD MSTORE JUMPDEST POP POP POP POP JUMP JUMPDEST PUSH32 0x4E487B7100000000000000000000000000000000000000000000000000000000 PUSH1 0x0 MSTORE PUSH1 0x11 PUSH1 0x4 MSTORE PUSH1 0x24 PUSH1 0x0 REVERT JUMPDEST PUSH32 0x546865207472616E73616374696F6E207761736E277420737563636573736675 PUSH1 0x0 DUP3 ADD MSTORE PUSH32 0x6C6C2C2063616E63656C6C696E67000000000000000000000000000000000000 PUSH1 0x20 DUP3 ADD MSTORE POP JUMP JUMPDEST PUSH32 0x4974656D206973207061696420616C7265616479210000000000000000000000 PUSH1 0x0 DUP3 ADD MSTORE POP JUMP JUMPDEST PUSH32 0x4F6E6C792066756C6C207061796D656E747320616C6C6F776564000000000000 PUSH1 0x0 DUP3 ADD MSTORE POP JUMP INVALID LOG2 PUSH5 0x6970667358 0x22 SLT KECCAK256 0xFB PUSH13 0x76E99A7223EB7A7FAC979EDEB9 SWAP10 MSTORE 0x4F PUSH21 0x282E3FBCCD37CFF189A3D020ED64736F6C63430008 ADD STOP CALLER LOG2 PUSH5 0x6970667358 0x22 SLT KECCAK256 ADDMOD 0xAA CALL SWAP8 DUP9 0xE5 REVERT 0xF8 EXP 0xDA 0xC3 0xD1 0xF9 KECCAK256 PUSH13 0x423C42EE68D250F94F732097B6 PUSH28 0x3EDAA64736F6C634300080100330000000000000000000000000000 "
				},
				"gasEstimates": {
					"creation": {
						"codeDepositCost": "2127400",
						"executionCost": "23131",
						"totalCost": "2150531"
					},
					"external": {
						"createItem(address,string,uint256,uint256,string)": "infinite",
						"getItemInfor(uint256)": "infinite",
						"isOwner()": "1263",
						"items(uint256)": "infinite",
						"triggerDelivery(uint256)": "infinite",
						"triggerPayment(uint256)": "infinite",
						"triggerPaymentWithToken(uint256)": "infinite",
						"updateInfos(uint256,string)": "infinite"
					},
					"internal": {
						"compareStrings(string memory,string memory)": "infinite"
					}
				},
				"methodIdentifiers": {
					"createItem(address,string,uint256,uint256,string)": "ea9272b5",
					"getItemInfor(uint256)": "23c09bcc",
					"isOwner()": "8f32d59b",
					"items(uint256)": "bfb231d2",
					"triggerDelivery(uint256)": "cd31831e",
					"triggerPayment(uint256)": "800fb83f",
					"triggerPaymentWithToken(uint256)": "b7bbacf5",
					"updateInfos(uint256,string)": "4906049a"
				}
			},
			"storageLayout": {
				"storage": [
					{
						"astId": 488,
						"contract": "ItemManager.sol:ItemManager",
						"label": "_owner",
						"offset": 0,
						"slot": "0",
						"type": "t_address"
					},
					{
						"astId": 117,
						"contract": "ItemManager.sol:ItemManager",
						"label": "items",
						"offset": 0,
						"slot": "1",
						"type": "t_mapping(t_uint256,t_struct(S_Item)112_storage)"
					},
					{
						"astId": 119,
						"contract": "ItemManager.sol:ItemManager",
						"label": "itemIndex",
						"offset": 0,
						"slot": "2",
						"type": "t_uint256"
					}
				],
				"types": {
					"t_address": {
						"encoding": "inplace",
						"label": "address",
						"numberOfBytes": "20"
					},
					"t_address_payable": {
						"encoding": "inplace",
						"label": "address payable",
						"numberOfBytes": "20"
					},
					"t_contract(Item)85": {
						"encoding": "inplace",
						"label": "contract Item",
						"numberOfBytes": "20"
					},
					"t_enum(SupplyChainState)95": {
						"encoding": "inplace",
						"label": "enum ItemManager.SupplyChainState",
						"numberOfBytes": "1"
					},
					"t_mapping(t_uint256,t_struct(S_Item)112_storage)": {
						"encoding": "mapping",
						"key": "t_uint256",
						"label": "mapping(uint256 => struct ItemManager.S_Item)",
						"numberOfBytes": "32",
						"value": "t_struct(S_Item)112_storage"
					},
					"t_string_storage": {
						"encoding": "bytes",
						"label": "string",
						"numberOfBytes": "32"
					},
					"t_struct(S_Item)112_storage": {
						"encoding": "inplace",
						"label": "struct ItemManager.S_Item",
						"members": [
							{
								"astId": 97,
								"contract": "ItemManager.sol:ItemManager",
								"label": "_owner",
								"offset": 0,
								"slot": "0",
								"type": "t_address_payable"
							},
							{
								"astId": 100,
								"contract": "ItemManager.sol:ItemManager",
								"label": "_item",
								"offset": 0,
								"slot": "1",
								"type": "t_contract(Item)85"
							},
							{
								"astId": 102,
								"contract": "ItemManager.sol:ItemManager",
								"label": "_identifier",
								"offset": 0,
								"slot": "2",
								"type": "t_string_storage"
							},
							{
								"astId": 104,
								"contract": "ItemManager.sol:ItemManager",
								"label": "_itemPrice",
								"offset": 0,
								"slot": "3",
								"type": "t_uint256"
							},
							{
								"astId": 106,
								"contract": "ItemManager.sol:ItemManager",
								"label": "_itemTokenPrice",
								"offset": 0,
								"slot": "4",
								"type": "t_uint256"
							},
							{
								"astId": 109,
								"contract": "ItemManager.sol:ItemManager",
								"label": "_state",
								"offset": 0,
								"slot": "5",
								"type": "t_enum(SupplyChainState)95"
							},
							{
								"astId": 111,
								"contract": "ItemManager.sol:ItemManager",
								"label": "_otherInfos",
								"offset": 0,
								"slot": "6",
								"type": "t_string_storage"
							}
						],
						"numberOfBytes": "224"
					},
					"t_uint256": {
						"encoding": "inplace",
						"label": "uint256",
						"numberOfBytes": "32"
					}
				}
			},
			"userdoc": {
				"kind": "user",
				"methods": {},
				"version": 1
			}
		}
	}
}