{
  "contractName": "Crowdsale",
  "abi": [
    {
      "inputs": [
        {
          "internalType": "uint256",
          "name": "rateX",
          "type": "uint256"
        },
        {
          "internalType": "address payable",
          "name": "walletX",
          "type": "address"
        },
        {
          "internalType": "contract IERC20",
          "name": "tokenX",
          "type": "address"
        },
        {
          "internalType": "contract ItemManager",
          "name": "itemManagerX",
          "type": "address"
        }
      ],
      "stateMutability": "nonpayable",
      "type": "constructor"
    },
    {
      "anonymous": false,
      "inputs": [
        {
          "indexed": false,
          "internalType": "address",
          "name": "purchaser",
          "type": "address"
        },
        {
          "indexed": false,
          "internalType": "address",
          "name": "beneficiary",
          "type": "address"
        },
        {
          "indexed": false,
          "internalType": "uint256",
          "name": "value",
          "type": "uint256"
        },
        {
          "indexed": false,
          "internalType": "uint256",
          "name": "amount",
          "type": "uint256"
        }
      ],
      "name": "TokensPurchased",
      "type": "event"
    },
    {
      "stateMutability": "payable",
      "type": "receive"
    },
    {
      "inputs": [],
      "name": "token",
      "outputs": [
        {
          "internalType": "contract IERC20",
          "name": "",
          "type": "address"
        }
      ],
      "stateMutability": "view",
      "type": "function"
    },
    {
      "inputs": [],
      "name": "wallet",
      "outputs": [
        {
          "internalType": "address payable",
          "name": "",
          "type": "address"
        }
      ],
      "stateMutability": "view",
      "type": "function"
    },
    {
      "inputs": [],
      "name": "rate",
      "outputs": [
        {
          "internalType": "uint256",
          "name": "",
          "type": "uint256"
        }
      ],
      "stateMutability": "view",
      "type": "function"
    },
    {
      "inputs": [],
      "name": "weiRaised",
      "outputs": [
        {
          "internalType": "uint256",
          "name": "",
          "type": "uint256"
        }
      ],
      "stateMutability": "view",
      "type": "function"
    },
    {
      "inputs": [
        {
          "internalType": "address",
          "name": "beneficiary",
          "type": "address"
        }
      ],
      "name": "buyTokens",
      "outputs": [],
      "stateMutability": "payable",
      "type": "function"
    },
    {
      "inputs": [
        {
          "internalType": "address",
          "name": "beneficiary",
          "type": "address"
        },
        {
          "internalType": "uint256",
          "name": "amount",
          "type": "uint256"
        }
      ],
      "name": "buyTokensPaypal",
      "outputs": [],
      "stateMutability": "payable",
      "type": "function"
    },
    {
      "inputs": [
        {
          "internalType": "address",
          "name": "buyer",
          "type": "address"
        },
        {
          "internalType": "uint256",
          "name": "amount",
          "type": "uint256"
        }
      ],
      "name": "deliverTokenToBuyer",
      "outputs": [],
      "stateMutability": "payable",
      "type": "function"
    }
  ],
  "bytecode": "0x608060405234801561001057600080fd5b50604051610b14380380610b1483398101604081905261002f916101ac565b6001600055836100865760405162461bcd60e51b815260206004820152601460248201527f43726f776473616c653a2072617465206973203000000000000000000000000060448201526064015b60405180910390fd5b6001600160a01b0383166100ea5760405162461bcd60e51b815260206004820152602560248201527f43726f776473616c653a2077616c6c657420697320746865207a65726f206164604482015264647265737360d81b606482015260840161007d565b6001600160a01b03821661014c5760405162461bcd60e51b8152602060048201526024808201527f43726f776473616c653a20746f6b656e20697320746865207a65726f206164646044820152637265737360e01b606482015260840161007d565b600393909355600280546001600160a01b03199081166001600160a01b0394851617909155600180548216928416929092179091556005805490911691909216179055610201565b6001600160a01b03811681146101a957600080fd5b50565b600080600080608085870312156101c257600080fd5b8451935060208501516101d481610194565b60408601519093506101e581610194565b60608601519092506101f681610194565b939692955090935050565b610904806102106000396000f3fe6080604052600436106100745760003560e01c80635ae0610e1161004e5780635ae0610e146100f9578063b7a894b11461010c578063ec8ac4d81461011f578063fc0c546a1461012d57600080fd5b80632c4e722e1461008e5780634042b66f146100b2578063521eb273146100c757600080fd5b36610089576100873361014b565b61014b565b005b600080fd5b34801561009a57600080fd5b506003545b6040519081526020015b60405180910390f35b3480156100be57600080fd5b5060045461009f565b3480156100d357600080fd5b506002546001600160a01b03165b6040516001600160a01b0390911681526020016100a9565b61008761010736600461079b565b6101ec565b61008761011a36600461079b565b61026f565b6100876100823660046107c5565b34801561013957600080fd5b506001546001600160a01b03166100e1565b61015361028b565b3461015e82826102e9565b6000610169826103b5565b60045490915061017990836103d2565b60045561018683826103e5565b604080513381526001600160a01b03851660208201528082018490526060810183905290517f6faf93231a456e552dbc9961f58d9713ee4f2e69d15f1975b050ef0911053a7b9181900360800190a16101dd6103ef565b50506101e96001600055565b50565b6101f461028b565b60045461020190826103d2565b60045561020e82826103e5565b7f6faf93231a456e552dbc9961f58d9713ee4f2e69d15f1975b050ef0911053a7b33600454604080516001600160a01b03938416815292861660208401528201526060810183905260800160405180910390a161026b6001600055565b5050565b61027761028b565b61028182826103e5565b61026b6001600055565b6002600054036102e25760405162461bcd60e51b815260206004820152601f60248201527f5265656e7472616e637947756172643a207265656e7472616e742063616c6c0060448201526064015b60405180910390fd5b6002600055565b6001600160a01b0382166103655760405162461bcd60e51b815260206004820152602a60248201527f43726f776473616c653a2062656e656669636961727920697320746865207a6560448201527f726f20616464726573730000000000000000000000000000000000000000000060648201526084016102d9565b8060000361026b5760405162461bcd60e51b815260206004820152601960248201527f43726f776473616c653a20776569416d6f756e7420697320300000000000000060448201526064016102d9565b60006103cc6003548361042890919063ffffffff16565b92915050565b60006103de828461080f565b9392505050565b61026b8282610434565b6002546040516001600160a01b03909116903480156108fc02916000818181858888f193505050501580156101e9573d6000803e3d6000fd5b60006103de8284610822565b60015461026b906001600160a01b031683836040516001600160a01b0383166024820152604481018290526104ee9084907fa9059cbb000000000000000000000000000000000000000000000000000000009060640160408051601f198184030181529190526020810180517bffffffffffffffffffffffffffffffffffffffffffffffffffffffff167fffffffff00000000000000000000000000000000000000000000000000000000909316929092179091526104f3565b505050565b6000610548826040518060400160405280602081526020017f5361666545524332303a206c6f772d6c6576656c2063616c6c206661696c6564815250856001600160a01b03166105d89092919063ffffffff16565b8051909150156104ee57808060200190518101906105669190610839565b6104ee5760405162461bcd60e51b815260206004820152602a60248201527f5361666545524332303a204552433230206f7065726174696f6e20646964206e60448201527f6f7420737563636565640000000000000000000000000000000000000000000060648201526084016102d9565b60606105e784846000856105ef565b949350505050565b6060824710156106675760405162461bcd60e51b815260206004820152602660248201527f416464726573733a20696e73756666696369656e742062616c616e636520666f60448201527f722063616c6c000000000000000000000000000000000000000000000000000060648201526084016102d9565b600080866001600160a01b03168587604051610683919061087f565b60006040518083038185875af1925050503d80600081146106c0576040519150601f19603f3d011682016040523d82523d6000602084013e6106c5565b606091505b50915091506106d6878383876106e1565b979650505050505050565b60608315610750578251600003610749576001600160a01b0385163b6107495760405162461bcd60e51b815260206004820152601d60248201527f416464726573733a2063616c6c20746f206e6f6e2d636f6e747261637400000060448201526064016102d9565b50816105e7565b6105e783838151156107655781518083602001fd5b8060405162461bcd60e51b81526004016102d9919061089b565b80356001600160a01b038116811461079657600080fd5b919050565b600080604083850312156107ae57600080fd5b6107b78361077f565b946020939093013593505050565b6000602082840312156107d757600080fd5b6103de8261077f565b7f4e487b7100000000000000000000000000000000000000000000000000000000600052601160045260246000fd5b808201808211156103cc576103cc6107e0565b80820281158282048414176103cc576103cc6107e0565b60006020828403121561084b57600080fd5b815180151581146103de57600080fd5b60005b8381101561087657818101518382015260200161085e565b50506000910152565b6000825161089181846020870161085b565b9190910192915050565b60208152600082518060208401526108ba81604085016020870161085b565b601f01601f1916919091016040019291505056fea26469706673582212202005c85089e52152c1e299c0caf5edb0e9b59577cd49a4f5565c340ad8f3022c64736f6c63430008110033",
  "immutableReferences": {},
  "source": "// contracts/GLDToken.sol\r\n// SPDX-License-Identifier: MIT\r\npragma solidity >=0.8.0;\r\n\r\nimport \"@openzeppelin/contracts/utils/Context.sol\";\r\nimport \"@openzeppelin/contracts/token/ERC20/IERC20.sol\";\r\nimport \"@openzeppelin/contracts/utils/math/SafeMath.sol\";\r\nimport \"@openzeppelin/contracts/token/ERC20/utils/SafeERC20.sol\";\r\nimport \"@openzeppelin/contracts/security/ReentrancyGuard.sol\";\r\nimport \"./ItemManager.sol\";\r\n\r\ncontract Crowdsale is Context, ReentrancyGuard {\r\n    using SafeMath for uint256;\r\n    using SafeERC20 for IERC20;\r\n\r\n    // The token being sold\r\n    IERC20 private _token;\r\n\r\n    // Address where funds are collected\r\n    address payable private _wallet;\r\n\r\n    // How many token units a buyer gets per wei.\r\n    // The rate is the conversion between wei and the smallest and indivisible token unit.\r\n    // So, if you are using a rate of 1 with a ERC20Detailed token with 3 decimals called TOK\r\n    // 1 wei will give you 1 unit, or 0.001 TOK.\r\n\r\n    uint256 private _rate;\r\n\r\n    // Amount of wei raised\r\n    uint256 private _weiRaised;\r\n\r\n    ItemManager private _itemManager;\r\n\r\n    /**\r\n     * Event for token purchase logging\r\n     * @param purchaser who paid for the tokens\r\n     * @param beneficiary who got the tokens\r\n     * @param value weis paid for purchase\r\n     * @param amount amount of tokens purchased\r\n     */\r\n    event TokensPurchased(\r\n        address purchaser,\r\n        address beneficiary,\r\n        uint256 value,\r\n        uint256 amount\r\n    );\r\n\r\n    constructor(\r\n        uint256 rateX,\r\n        address payable walletX,\r\n        IERC20 tokenX,\r\n        ItemManager itemManagerX\r\n    ) {\r\n        require(rateX > 0, \"Crowdsale: rate is 0\");\r\n        require(walletX != address(0), \"Crowdsale: wallet is the zero address\");\r\n        require(\r\n            address(tokenX) != address(0),\r\n            \"Crowdsale: token is the zero address\"\r\n        );\r\n        _rate = rateX;\r\n        _wallet = walletX;\r\n        _token = tokenX;\r\n        _itemManager = itemManagerX;\r\n    }\r\n\r\n    /**\r\n     * @dev fallback function ***DO NOT OVERRIDE***\r\n     * Note that other contracts will transfer funds with a base gas stipend\r\n     * of 2300, which is not enough to call buyTokens. Consider calling\r\n     * buyTokens directly when purchasing tokens from a contract.\r\n     */\r\n    receive() external payable {\r\n        buyTokens(_msgSender());\r\n    }\r\n\r\n    /**\r\n     * @return the token being sold.\r\n     */\r\n    function token() public view returns (IERC20) {\r\n        return _token;\r\n    }\r\n\r\n    /**\r\n     * @return the address where funds are collected.\r\n     */\r\n    function wallet() public view returns (address payable) {\r\n        return _wallet;\r\n    }\r\n\r\n    /**\r\n     * @return the number of token units a buyer gets per wei.\r\n     */\r\n    function rate() public view returns (uint256) {\r\n        return _rate;\r\n    }\r\n\r\n    /**\r\n     * @return the amount of wei raised.\r\n     */\r\n    function weiRaised() public view returns (uint256) {\r\n        return _weiRaised;\r\n    }\r\n\r\n    /**\r\n     * @dev low level token purchase ***DO NOT OVERRIDE***\r\n     * This function has a non-reentrancy guard, so it shouldn't be called by\r\n     * another `nonReentrant` function.\r\n     * @param beneficiary Recipient of the token purchase\r\n     */\r\n\r\n    function buyTokens(address beneficiary) public payable nonReentrant {\r\n        uint256 weiAmount = msg.value;\r\n        _preValidatePurchase(beneficiary, weiAmount);\r\n\r\n        uint256 tokens = _getTokenAmount(weiAmount);\r\n\r\n        _weiRaised = _weiRaised.add(weiAmount);\r\n\r\n        _processPurchase(beneficiary, tokens);\r\n        emit TokensPurchased(_msgSender(), beneficiary, weiAmount, tokens);\r\n\r\n        _updatePurchasingState(beneficiary, weiAmount);\r\n\r\n        _forwardFunds();\r\n\r\n        _postValidatePurchase(beneficiary, weiAmount);\r\n    }\r\n\r\n    function buyTokensPaypal(address beneficiary, uint256 amount) public payable nonReentrant {\r\n        _weiRaised = _weiRaised.add(amount);\r\n\r\n        _processPurchase(beneficiary, amount);\r\n        emit TokensPurchased(_msgSender(), beneficiary, _weiRaised, amount);\r\n    }\r\n\r\n    function deliverTokenToBuyer(address buyer, uint256 amount) public payable nonReentrant{\r\n        _processPurchase(buyer, amount);\r\n    }\r\n\r\n    // function buyItemWithToken(address buyer, uint256 itemIndex) public payable nonReentrant {\r\n    //     // uint256 currentToken = _token.balanceOf(buyer);\r\n    //     uint256 itemPriceInToken = _itemManager.getItemInfor(itemIndex)._itemTokenPrice;\r\n    //     // uint256 itemPrice = _itemManager.getItemInfor(itemIndex)._itemPrice;\r\n    //     address payable itemOwner = _itemManager.getItemInfor(itemIndex)._owner;\r\n\r\n    //     // require(currentToken >= itemPriceInToken, \"Your token is not enough!\");\r\n    //     // require(address(_wallet).balance >= itemPriceInToken.mul(_rate), \"Wallet balance is not enough!\");\r\n\r\n        \r\n    //     _itemManager.triggerPaymentWithToken(itemIndex);\r\n    //     // itemOwner.transfer(itemPrice);\r\n    //     _deliverTokens(itemOwner, itemPriceInToken);\r\n    // }\r\n\r\n    /**\r\n     * @dev Validation of an incoming purchase. Use require statements to revert state when conditions are not met.\r\n     * Use `super` in contracts that inherit from Crowdsale to extend their validations.\r\n     * Example from CappedCrowdsale.sol's _preValidatePurchase method:\r\n     *     super._preValidatePurchase(beneficiary, weiAmount);\r\n     *     require(weiRaised().add(weiAmount) <= cap);\r\n     * @param beneficiary Address performing the token purchase\r\n     * @param weiAmount Value in wei involved in the purchase\r\n     */\r\n\r\n    \r\n    function _preValidatePurchase(address beneficiary, uint256 weiAmount)\r\n        internal\r\n        view\r\n        virtual\r\n    {\r\n        require(\r\n            beneficiary != address(0),\r\n            \"Crowdsale: beneficiary is the zero address\"\r\n        );\r\n        require(weiAmount != 0, \"Crowdsale: weiAmount is 0\");\r\n        this;\r\n    }\r\n\r\n    /**\r\n     * @dev Validation of an executed purchase. Observe state and use revert statements to undo rollback when valid\r\n     * conditions are not met.\r\n     * @param beneficiary Address performing the token purchase\r\n     * @param weiAmount Value in wei involved in the purchase\r\n     */\r\n    function _postValidatePurchase(address beneficiary, uint256 weiAmount)\r\n        internal\r\n        view\r\n    {\r\n        // solhint-disable-previous-line no-empty-blocks\r\n    }\r\n\r\n    /**\r\n     * @dev Source of tokens. Override this method to modify the way in which the crowdsale ultimately gets and sends\r\n     * its tokens.\r\n     * @param beneficiary Address performing the token purchase\r\n     * @param tokenAmount Number of tokens to be emitted\r\n     */\r\n    function _deliverTokens(address beneficiary, uint256 tokenAmount)\r\n        internal\r\n        virtual\r\n    {\r\n        // \r\n        _token.safeTransfer(beneficiary, tokenAmount);\r\n    }\r\n\r\n    /**\r\n     * @dev Executed when a purchase has been validated and is ready to be executed. Doesn't necessarily emit/send\r\n     * tokens.\r\n     * @param beneficiary Address receiving the tokens\r\n     * @param tokenAmount Number of tokens to be purchased\r\n     */\r\n\r\n    function _processPurchase(address beneficiary, uint256 tokenAmount)\r\n        internal\r\n    {\r\n        _deliverTokens(beneficiary, tokenAmount);\r\n    }\r\n\r\n    /**\r\n     * @dev Override for extensions that require an internal state to check for validity (current user contributions,\r\n     * etc.)\r\n     * @param beneficiary Address receiving the tokens\r\n     * @param weiAmount Value in wei involved in the purchase\r\n     */\r\n    function _updatePurchasingState(address beneficiary, uint256 weiAmount)\r\n        internal\r\n    {\r\n        // solhint-disable-previous-line no-empty-blocks\r\n    }\r\n\r\n    /**\r\n     * @dev Override to extend the way in which ether is converted to tokens.\r\n     * @param weiAmount Value in wei to be converted into tokens\r\n     * @return Number of tokens that can be purchased with the specified _weiAmount\r\n     */\r\n    function _getTokenAmount(uint256 weiAmount)\r\n        internal\r\n        view\r\n        returns (uint256)\r\n    {\r\n        return weiAmount.mul(_rate);\r\n    }\r\n\r\n    /**\r\n     * @dev Determines how ETH is stored/forwarded on purchases.\r\n     */\r\n    function _forwardFunds() internal virtual {\r\n        _wallet.transfer(msg.value);\r\n    }\r\n}",
  "sourcePath": "D:\\Quyen\\STUDY\\Blockchain\\BlockchainProject\\contracts\\Crowdsale.sol",
  "compiler": {
    "name": "solc",
    "version": "0.8.17+commit.8df45f5f.Emscripten.clang"
  },
  "schemaVersion": "3.4.3",
  "updatedAt": "2022-12-23T02:41:41.075Z",
  "devdoc": {
    "events": {
      "TokensPurchased(address,address,uint256,uint256)": {
        "params": {
          "amount": "amount of tokens purchased",
          "beneficiary": "who got the tokens",
          "purchaser": "who paid for the tokens",
          "value": "weis paid for purchase"
        }
      }
    },
    "kind": "dev",
    "methods": {
      "buyTokens(address)": {
        "details": "low level token purchase ***DO NOT OVERRIDE*** This function has a non-reentrancy guard, so it shouldn't be called by another `nonReentrant` function.",
        "params": {
          "beneficiary": "Recipient of the token purchase"
        }
      },
      "rate()": {
        "returns": {
          "_0": "the number of token units a buyer gets per wei."
        }
      },
      "token()": {
        "returns": {
          "_0": "the token being sold."
        }
      },
      "wallet()": {
        "returns": {
          "_0": "the address where funds are collected."
        }
      },
      "weiRaised()": {
        "returns": {
          "_0": "the amount of wei raised."
        }
      }
    },
    "version": 1
  },
  "userdoc": {
    "events": {
      "TokensPurchased(address,address,uint256,uint256)": {
        "notice": "Event for token purchase logging"
      }
    },
    "kind": "user",
    "methods": {},
    "version": 1
  }
}