{
  "contractName": "ItemManager",
  "abi": [
    {
      "anonymous": false,
      "inputs": [
        {
          "indexed": false,
          "internalType": "uint256",
          "name": "_itemIndex",
          "type": "uint256"
        },
        {
          "indexed": false,
          "internalType": "uint256",
          "name": "_step",
          "type": "uint256"
        },
        {
          "indexed": false,
          "internalType": "address",
          "name": "_itemAddress",
          "type": "address"
        },
        {
          "indexed": false,
          "internalType": "string",
          "name": "_otherInfos",
          "type": "string"
        }
      ],
      "name": "SupplyChainStep",
      "type": "event"
    },
    {
      "anonymous": false,
      "inputs": [
        {
          "indexed": false,
          "internalType": "uint256",
          "name": "_itemIndex",
          "type": "uint256"
        },
        {
          "indexed": false,
          "internalType": "address",
          "name": "_itemAddress",
          "type": "address"
        },
        {
          "indexed": false,
          "internalType": "string",
          "name": "_otherInfos",
          "type": "string"
        }
      ],
      "name": "UpdatedItemInfo",
      "type": "event"
    },
    {
      "inputs": [],
      "name": "isOwner",
      "outputs": [
        {
          "internalType": "bool",
          "name": "",
          "type": "bool"
        }
      ],
      "stateMutability": "view",
      "type": "function"
    },
    {
      "inputs": [
        {
          "internalType": "uint256",
          "name": "",
          "type": "uint256"
        }
      ],
      "name": "items",
      "outputs": [
        {
          "internalType": "address",
          "name": "_owner",
          "type": "address"
        },
        {
          "internalType": "contract Item",
          "name": "_item",
          "type": "address"
        },
        {
          "internalType": "string",
          "name": "_identifier",
          "type": "string"
        },
        {
          "internalType": "uint256",
          "name": "_itemPrice",
          "type": "uint256"
        },
        {
          "internalType": "enum ItemManager.SupplyChainState",
          "name": "_state",
          "type": "uint8"
        },
        {
          "internalType": "string",
          "name": "_otherInfos",
          "type": "string"
        }
      ],
      "stateMutability": "view",
      "type": "function"
    },
    {
      "inputs": [
        {
          "internalType": "address",
          "name": "owner",
          "type": "address"
        },
        {
          "internalType": "string",
          "name": "identifier",
          "type": "string"
        },
        {
          "internalType": "uint256",
          "name": "itemPrice",
          "type": "uint256"
        },
        {
          "internalType": "string",
          "name": "otherInfos",
          "type": "string"
        }
      ],
      "name": "createItem",
      "outputs": [],
      "stateMutability": "nonpayable",
      "type": "function"
    },
    {
      "inputs": [
        {
          "internalType": "uint256",
          "name": "_itemIndex",
          "type": "uint256"
        }
      ],
      "name": "triggerPayment",
      "outputs": [],
      "stateMutability": "payable",
      "type": "function"
    },
    {
      "inputs": [
        {
          "internalType": "uint256",
          "name": "_itemIndex",
          "type": "uint256"
        }
      ],
      "name": "triggerDelivery",
      "outputs": [],
      "stateMutability": "nonpayable",
      "type": "function"
    },
    {
      "inputs": [
        {
          "internalType": "uint256",
          "name": "_itemIndex",
          "type": "uint256"
        },
        {
          "internalType": "string",
          "name": "infos",
          "type": "string"
        }
      ],
      "name": "updateInfos",
      "outputs": [],
      "stateMutability": "nonpayable",
      "type": "function"
    }
  ],
  "bytecode": "0x608060405234801561001057600080fd5b50336000806101000a81548173ffffffffffffffffffffffffffffffffffffffff021916908373ffffffffffffffffffffffffffffffffffffffff1602179055506121ad806100606000396000f3fe6080604052600436106200005c5760003560e01c80634906049a1462000061578063800fb83f146200008f5780638f32d59b14620000af578063bfb231d214620000df578063cd31831e1462000128578063dc3c18e61462000156575b600080fd5b3480156200006e57600080fd5b506200008d6004803603810190620000879190620010bf565b62000184565b005b620000ad6004803603810190620000a7919062001093565b62000460565b005b348015620000bc57600080fd5b50620000c7620006e4565b604051620000d69190620013da565b60405180910390f35b348015620000ec57600080fd5b506200010b600480360381019062000105919062001093565b6200073b565b6040516200011f969594939291906200135f565b60405180910390f35b3480156200013557600080fd5b506200015460048036038101906200014e919062001093565b620008e4565b005b3480156200016357600080fd5b506200018260048036038101906200017c919062000ff5565b62000b5a565b005b6200018e620006e4565b620001d0576040517f08c379a0000000000000000000000000000000000000000000000000000000008152600401620001c79062001456565b60405180910390fd5b600160028111156200020b577f4e487b7100000000000000000000000000000000000000000000000000000000600052602160045260246000fd5b6001600084815260200190815260200160002060040160009054906101000a900460ff16600281111562000268577f4e487b7100000000000000000000000000000000000000000000000000000000600052602160045260246000fd5b1415620002ac576040517f08c379a0000000000000000000000000000000000000000000000000000000008152600401620002a39062001478565b60405180910390fd5b6000151562000362600160008581526020019081526020016000206005018054620002d7906200176d565b80601f016020809104026020016040519081016040528092919081815260200182805462000305906200176d565b8015620003565780601f106200032a5761010080835404028352916020019162000356565b820191906000526020600020905b8154815290600101906020018083116200033857829003601f168201915b50505050508362000e3a565b151514620003a7576040517f08c379a00000000000000000000000000000000000000000000000000000000081526004016200039e906200149a565b60405180910390fd5b80600160008481526020019081526020016000206005019080519060200190620003d392919062000e97565b507ff903683be87717548f5e315925940d7b149e3f7485578e8a73c272a1d510de7e826001600085815260200190815260200160002060010160009054906101000a900473ffffffffffffffffffffffffffffffffffffffff16600160008681526020019081526020016000206005016040516200045493929190620014de565b60405180910390a15050565b34600160008381526020019081526020016000206003015414620004bb576040517f08c379a0000000000000000000000000000000000000000000000000000000008152600401620004b290620014bc565b60405180910390fd5b60006002811115620004f6577f4e487b7100000000000000000000000000000000000000000000000000000000600052602160045260246000fd5b6001600083815260200190815260200160002060040160009054906101000a900460ff16600281111562000553577f4e487b7100000000000000000000000000000000000000000000000000000000600052602160045260246000fd5b1462000596576040517f08c379a00000000000000000000000000000000000000000000000000000000081526004016200058d9062001434565b60405180910390fd5b600180600083815260200190815260200160002060040160006101000a81548160ff02191690836002811115620005f6577f4e487b7100000000000000000000000000000000000000000000000000000000600052602160045260246000fd5b02179055507f04dae4d23aa86ea4452ca552b9901b80bd40c63a842232a8a7975d07a3646f01816001600084815260200190815260200160002060040160009054906101000a900460ff1660028111156200067a577f4e487b7100000000000000000000000000000000000000000000000000000000600052602160045260246000fd5b6001600085815260200190815260200160002060010160009054906101000a900473ffffffffffffffffffffffffffffffffffffffff1660016000868152602001908152602001600020600501604051620006d9949392919062001576565b60405180910390a150565b60008060009054906101000a900473ffffffffffffffffffffffffffffffffffffffff1673ffffffffffffffffffffffffffffffffffffffff163373ffffffffffffffffffffffffffffffffffffffff1614905090565b60016020528060005260406000206000915090508060000160009054906101000a900473ffffffffffffffffffffffffffffffffffffffff16908060010160009054906101000a900473ffffffffffffffffffffffffffffffffffffffff1690806002018054620007ac906200176d565b80601f0160208091040260200160405190810160405280929190818152602001828054620007da906200176d565b80156200082b5780601f10620007ff576101008083540402835291602001916200082b565b820191906000526020600020905b8154815290600101906020018083116200080d57829003601f168201915b5050505050908060030154908060040160009054906101000a900460ff16908060050180546200085b906200176d565b80601f016020809104026020016040519081016040528092919081815260200182805462000889906200176d565b8015620008da5780601f10620008ae57610100808354040283529160200191620008da565b820191906000526020600020905b815481529060010190602001808311620008bc57829003601f168201915b5050505050905086565b620008ee620006e4565b62000930576040517f08c379a0000000000000000000000000000000000000000000000000000000008152600401620009279062001456565b60405180910390fd5b600160028111156200096b577f4e487b7100000000000000000000000000000000000000000000000000000000600052602160045260246000fd5b6001600083815260200190815260200160002060040160009054906101000a900460ff166002811115620009c8577f4e487b7100000000000000000000000000000000000000000000000000000000600052602160045260246000fd5b1462000a0b576040517f08c379a000000000000000000000000000000000000000000000000000000000815260040162000a029062001434565b60405180910390fd5b60026001600083815260200190815260200160002060040160006101000a81548160ff0219169083600281111562000a6c577f4e487b7100000000000000000000000000000000000000000000000000000000600052602160045260246000fd5b02179055507f04dae4d23aa86ea4452ca552b9901b80bd40c63a842232a8a7975d07a3646f01816001600084815260200190815260200160002060040160009054906101000a900460ff16600281111562000af0577f4e487b7100000000000000000000000000000000000000000000000000000000600052602160045260246000fd5b6001600085815260200190815260200160002060010160009054906101000a900473ffffffffffffffffffffffffffffffffffffffff166001600086815260200190815260200160002060050160405162000b4f949392919062001576565b60405180910390a150565b62000b64620006e4565b62000ba6576040517f08c379a000000000000000000000000000000000000000000000000000000000815260040162000b9d9062001456565b60405180910390fd5b6000308360025460405162000bbb9062000f28565b62000bc993929190620013f7565b604051809103906000f08015801562000be6573d6000803e3d6000fd5b5090508460016000600254815260200190815260200160002060000160006101000a81548173ffffffffffffffffffffffffffffffffffffffff021916908373ffffffffffffffffffffffffffffffffffffffff1602179055508060016000600254815260200190815260200160002060010160006101000a81548173ffffffffffffffffffffffffffffffffffffffff021916908373ffffffffffffffffffffffffffffffffffffffff16021790555083600160006002548152602001908152602001600020600201908051906020019062000cc592919062000e97565b508260016000600254815260200190815260200160002060030181905550600060016000600254815260200190815260200160002060040160006101000a81548160ff0219169083600281111562000d46577f4e487b7100000000000000000000000000000000000000000000000000000000600052602160045260246000fd5b021790555081600160006002548152602001908152602001600020600501908051906020019062000d7992919062000e97565b507f04dae4d23aa86ea4452ca552b9901b80bd40c63a842232a8a7975d07a3646f0160025460016000600254815260200190815260200160002060040160009054906101000a900460ff16600281111562000dfd577f4e487b7100000000000000000000000000000000000000000000000000000000600052602160045260246000fd5b838560405162000e11949392919062001522565b60405180910390a16002600081548092919062000e2e90620017d9565b91905055505050505050565b60008160405160200162000e4f919062001346565b604051602081830303815290604052805190602001208360405160200162000e78919062001346565b6040516020818303038152906040528051906020012014905092915050565b82805462000ea5906200176d565b90600052602060002090601f01602090048101928262000ec9576000855562000f15565b82601f1062000ee457805160ff191683800117855562000f15565b8280016001018555821562000f15579182015b8281111562000f1457825182559160200191906001019062000ef7565b5b50905062000f24919062000f36565b5090565b61076b8062001a0d83390190565b5b8082111562000f5157600081600090555060010162000f37565b5090565b600062000f6c62000f6684620015f3565b620015ca565b90508281526020810184848401111562000f8557600080fd5b62000f9284828562001728565b509392505050565b60008135905062000fab81620019d8565b92915050565b600082601f83011262000fc357600080fd5b813562000fd584826020860162000f55565b91505092915050565b60008135905062000fef81620019f2565b92915050565b600080600080608085870312156200100c57600080fd5b60006200101c8782880162000f9a565b945050602085013567ffffffffffffffff8111156200103a57600080fd5b620010488782880162000fb1565b93505060406200105b8782880162000fde565b925050606085013567ffffffffffffffff8111156200107957600080fd5b620010878782880162000fb1565b91505092959194509250565b600060208284031215620010a657600080fd5b6000620010b68482850162000fde565b91505092915050565b60008060408385031215620010d357600080fd5b6000620010e38582860162000fde565b925050602083013567ffffffffffffffff8111156200110157600080fd5b6200110f8582860162000fb1565b9150509250929050565b620011248162001665565b82525050565b620011358162001679565b82525050565b6200114681620016c4565b82525050565b6200115781620016ec565b82525050565b620011688162001714565b82525050565b60006200117b826200163e565b62001187818562001649565b93506200119981856020860162001737565b620011a481620018e3565b840191505092915050565b6000620011bc826200163e565b620011c881856200165a565b9350620011da81856020860162001737565b80840191505092915050565b60008154620011f5816200176d565b62001201818662001649565b945060018216600081146200121f5760018114620012325762001269565b60ff198316865260208601935062001269565b6200123d8562001629565b60005b83811015620012615781548189015260018201915060208101905062001240565b808801955050505b50505092915050565b600062001281601d8362001649565b91506200128e82620018f4565b602082019050919050565b6000620012a860158362001649565b9150620012b5826200191d565b602082019050919050565b6000620012cf601d8362001649565b9150620012dc8262001946565b602082019050919050565b6000620012f660198362001649565b915062001303826200196f565b602082019050919050565b60006200131d601c8362001649565b91506200132a8262001998565b602082019050919050565b6200134081620016ba565b82525050565b6000620013548284620011af565b915081905092915050565b600060c08201905062001376600083018962001119565b6200138560208301886200114c565b81810360408301526200139981876200116e565b9050620013aa606083018662001335565b620013b960808301856200115d565b81810360a0830152620013cd81846200116e565b9050979650505050505050565b6000602082019050620013f160008301846200112a565b92915050565b60006060820190506200140e60008301866200113b565b6200141d602083018562001335565b6200142c604083018462001335565b949350505050565b600060208201905081810360008301526200144f8162001272565b9050919050565b60006020820190508181036000830152620014718162001299565b9050919050565b600060208201905081810360008301526200149381620012c0565b9050919050565b60006020820190508181036000830152620014b581620012e7565b9050919050565b60006020820190508181036000830152620014d7816200130e565b9050919050565b6000606082019050620014f5600083018662001335565b62001504602083018562001119565b8181036040830152620015188184620011e6565b9050949350505050565b600060808201905062001539600083018762001335565b62001548602083018662001335565b62001557604083018562001119565b81810360608301526200156b81846200116e565b905095945050505050565b60006080820190506200158d600083018762001335565b6200159c602083018662001335565b620015ab604083018562001119565b8181036060830152620015bf8184620011e6565b905095945050505050565b6000620015d6620015e9565b9050620015e48282620017a3565b919050565b6000604051905090565b600067ffffffffffffffff821115620016115762001610620018b4565b5b6200161c82620018e3565b9050602081019050919050565b60008190508160005260206000209050919050565b600081519050919050565b600082825260208201905092915050565b600081905092915050565b600062001672826200169a565b9050919050565b60008115159050919050565b60008190506200169582620019c1565b919050565b600073ffffffffffffffffffffffffffffffffffffffff82169050919050565b6000819050919050565b6000620016d182620016d8565b9050919050565b6000620016e5826200169a565b9050919050565b6000620016f98262001700565b9050919050565b60006200170d826200169a565b9050919050565b6000620017218262001685565b9050919050565b82818337600083830152505050565b60005b83811015620017575780820151818401526020810190506200173a565b8381111562001767576000848401525b50505050565b600060028204905060018216806200178657607f821691505b602082108114156200179d576200179c62001885565b5b50919050565b620017ae82620018e3565b810181811067ffffffffffffffff82111715620017d057620017cf620018b4565b5b80604052505050565b6000620017e682620016ba565b91507fffffffffffffffffffffffffffffffffffffffffffffffffffffffffffffffff8214156200181c576200181b62001827565b5b600182019050919050565b7f4e487b7100000000000000000000000000000000000000000000000000000000600052601160045260246000fd5b7f4e487b7100000000000000000000000000000000000000000000000000000000600052602160045260246000fd5b7f4e487b7100000000000000000000000000000000000000000000000000000000600052602260045260246000fd5b7f4e487b7100000000000000000000000000000000000000000000000000000000600052604160045260246000fd5b6000601f19601f8301169050919050565b7f4974656d206973206675727468657220696e2074686520636861696e21000000600082015250565b7f596f7520617265206e6f7420746865206f776e65720000000000000000000000600082015250565b7f50616964206974656d2063616e6e6f742075706461746520696e666f21000000600082015250565b7f4e6f7468696e67206368616e676520746f207570646174652100000000000000600082015250565b7f4f6e6c792066756c6c207061796d656e74732061636365707465642100000000600082015250565b60038110620019d557620019d462001856565b5b50565b620019e38162001665565b8114620019ef57600080fd5b50565b620019fd81620016ba565b811462001a0957600080fd5b5056fe608060405234801561001057600080fd5b5060405161076b38038061076b833981810160405281019061003291906100b3565b816000819055508060028190555082600360006101000a81548173ffffffffffffffffffffffffffffffffffffffff021916908373ffffffffffffffffffffffffffffffffffffffff16021790555050505061017e565b60008151905061009881610150565b92915050565b6000815190506100ad81610167565b92915050565b6000806000606084860312156100c857600080fd5b60006100d686828701610089565b93505060206100e78682870161009e565b92505060406100f88682870161009e565b9150509250925092565b600061010d82610126565b9050919050565b600061011f82610102565b9050919050565b600073ffffffffffffffffffffffffffffffffffffffff82169050919050565b6000819050919050565b61015981610114565b811461016457600080fd5b50565b61017081610146565b811461017b57600080fd5b50565b6105de8061018d6000396000f3fe6080604052600436106100385760003560e01c80632986c0e5146102505780633c8da5881461027b57806389794d00146102a657610241565b3661024157600060015414610082576040517f08c379a0000000000000000000000000000000000000000000000000000000008152600401610079906103c3565b60405180910390fd5b34600054146100c6576040517f08c379a00000000000000000000000000000000000000000000000000000000081526004016100bd906103e3565b60405180910390fd5b34600160008282546100d89190610445565b925050819055506000600360009054906101000a900473ffffffffffffffffffffffffffffffffffffffff1673ffffffffffffffffffffffffffffffffffffffff163460025460405160240161012e9190610403565b6040516020818303038152906040527f800fb83f000000000000000000000000000000000000000000000000000000007bffffffffffffffffffffffffffffffffffffffffffffffffffffffff19166020820180517bffffffffffffffffffffffffffffffffffffffffffffffffffffffff83818316178352505050506040516101b8919061038c565b60006040518083038185875af1925050503d80600081146101f5576040519150601f19603f3d011682016040523d82523d6000602084013e6101fa565b606091505b505090508061023e576040517f08c379a0000000000000000000000000000000000000000000000000000000008152600401610235906103a3565b60405180910390fd5b50005b34801561024d57600080fd5b50005b34801561025c57600080fd5b506102656102d1565b6040516102729190610403565b60405180910390f35b34801561028757600080fd5b506102906102d7565b60405161029d9190610403565b60405180910390f35b3480156102b257600080fd5b506102bb6102dd565b6040516102c89190610403565b60405180910390f35b60025481565b60005481565b60015481565b60006102ee8261041e565b6102f88185610429565b93506103088185602086016104a5565b80840191505092915050565b6000610321602e83610434565b915061032c82610507565b604082019050919050565b6000610344601583610434565b915061034f82610556565b602082019050919050565b6000610367601a83610434565b91506103728261057f565b602082019050919050565b6103868161049b565b82525050565b600061039882846102e3565b915081905092915050565b600060208201905081810360008301526103bc81610314565b9050919050565b600060208201905081810360008301526103dc81610337565b9050919050565b600060208201905081810360008301526103fc8161035a565b9050919050565b6000602082019050610418600083018461037d565b92915050565b600081519050919050565b600081905092915050565b600082825260208201905092915050565b60006104508261049b565b915061045b8361049b565b9250827fffffffffffffffffffffffffffffffffffffffffffffffffffffffffffffffff038211156104905761048f6104d8565b5b828201905092915050565b6000819050919050565b60005b838110156104c35780820151818401526020810190506104a8565b838111156104d2576000848401525b50505050565b7f4e487b7100000000000000000000000000000000000000000000000000000000600052601160045260246000fd5b7f546865207472616e73616374696f6e207761736e27742073756363657373667560008201527f6c6c2c2063616e63656c6c696e67000000000000000000000000000000000000602082015250565b7f4974656d206973207061696420616c7265616479210000000000000000000000600082015250565b7f4f6e6c792066756c6c207061796d656e747320616c6c6f77656400000000000060008201525056fea2646970667358221220293332764dd5e9c8f9a7ba3a5cb7ae9bbf2e809120cc806e9ad1013ca2485c6d64736f6c63430008010033a2646970667358221220211ecb60e57b126065f201f2fe5c9fa9861af01d22cb0bc5ec15e3d6d82dc8a564736f6c63430008010033",
  "immutableReferences": {},
  "source": "// contracts/GLDToken.sol\r\n// SPDX-License-Identifier: MIT\r\npragma solidity ^0.8.1;\r\n\r\nimport \"./Ownable.sol\";\r\nimport \"./Item.sol\";\r\n\r\ncontract ItemManager is Ownable {\r\n    enum SupplyChainState {\r\n        Created,\r\n        Paid,\r\n        Delivered\r\n    }\r\n\r\n    struct S_Item {\r\n        address _owner;\r\n        Item _item;\r\n        string _identifier;\r\n        uint256 _itemPrice;\r\n        ItemManager.SupplyChainState _state;\r\n        string _otherInfos;\r\n    }\r\n\r\n    mapping(uint256 => S_Item) public items;\r\n    uint256 itemIndex;\r\n\r\n    // EVENTS\r\n    event SupplyChainStep(\r\n        uint256 _itemIndex,\r\n        uint256 _step,\r\n        address _itemAddress,\r\n        string _otherInfos\r\n    );\r\n\r\n    event UpdatedItemInfo(\r\n        uint256 _itemIndex,\r\n        address _itemAddress,\r\n        string _otherInfos\r\n    );\r\n\r\n    // FUNCTIONS\r\n    function createItem(\r\n        address owner,\r\n        string memory identifier,\r\n        uint256 itemPrice,\r\n        string memory otherInfos\r\n    ) public onlyOwner {\r\n        Item item = new Item(this, itemPrice, itemIndex);\r\n        items[itemIndex]._owner = owner;\r\n        items[itemIndex]._item = item;\r\n        items[itemIndex]._identifier = identifier;\r\n        items[itemIndex]._itemPrice = itemPrice;\r\n        items[itemIndex]._state = SupplyChainState.Created;\r\n        items[itemIndex]._otherInfos = otherInfos;\r\n\r\n        emit SupplyChainStep(\r\n            itemIndex,\r\n            uint256(items[itemIndex]._state),\r\n            address(item),\r\n            otherInfos\r\n        );\r\n\r\n        itemIndex++;\r\n    }\r\n\r\n    function triggerPayment(uint256 _itemIndex) public payable {\r\n        require(\r\n            items[_itemIndex]._itemPrice == msg.value,\r\n            \"Only full payments accepted!\"\r\n        );\r\n        require(\r\n            items[_itemIndex]._state == SupplyChainState.Created,\r\n            \"Item is further in the chain!\"\r\n        );\r\n        items[_itemIndex]._state = SupplyChainState.Paid;\r\n\r\n        emit SupplyChainStep(\r\n            _itemIndex,\r\n            uint256(items[_itemIndex]._state),\r\n            address(items[_itemIndex]._item),\r\n            items[_itemIndex]._otherInfos\r\n        );\r\n    }\r\n\r\n    function triggerDelivery(uint256 _itemIndex) public onlyOwner {\r\n        require(\r\n            items[_itemIndex]._state == SupplyChainState.Paid,\r\n            \"Item is further in the chain!\"\r\n        );\r\n        items[_itemIndex]._state = SupplyChainState.Delivered;\r\n\r\n        emit SupplyChainStep(\r\n            _itemIndex,\r\n            uint256(items[_itemIndex]._state),\r\n            address(items[_itemIndex]._item),\r\n            items[_itemIndex]._otherInfos\r\n        );\r\n    }\r\n\r\n    function compareStrings(string memory a, string memory b)\r\n        internal\r\n        pure\r\n        returns (bool)\r\n    {\r\n        return (keccak256(abi.encodePacked((a))) ==\r\n            keccak256(abi.encodePacked((b))));\r\n    }\r\n\r\n    function updateInfos(uint256 _itemIndex, string memory infos)\r\n        public\r\n        onlyOwner\r\n    {\r\n        require(\r\n            items[_itemIndex]._state != SupplyChainState.Paid,\r\n            \"Paid item cannot update info!\"\r\n        );\r\n\r\n        require(\r\n            compareStrings(items[_itemIndex]._otherInfos, infos) == false,\r\n            \"Nothing change to update!\"\r\n        );\r\n\r\n        items[_itemIndex]._otherInfos = infos;\r\n\r\n        emit UpdatedItemInfo(\r\n            _itemIndex,\r\n            address(items[_itemIndex]._item),\r\n            items[_itemIndex]._otherInfos\r\n        );\r\n    }\r\n}\r\n",
  "sourcePath": "D:\\DoAn_Blockchain\\Blockchain-Web3-Project\\contracts\\ItemManager.sol",
  "compiler": {
    "name": "solc",
    "version": "0.8.1+commit.df193b15.Emscripten.clang"
  },
  "schemaVersion": "3.4.10",
  "updatedAt": "2022-10-05T10:18:37.429Z",
  "devdoc": {
    "kind": "dev",
    "methods": {},
    "version": 1
  },
  "userdoc": {
    "kind": "user",
    "methods": {},
    "version": 1
  }
}