{
  "contractName": "ItemManager",
  "abi": [
    {
      "anonymous": false,
      "inputs": [
        {
          "indexed": false,
          "internalType": "uint256",
          "name": "_itemIndex",
          "type": "uint256"
        },
        {
          "indexed": false,
          "internalType": "uint256",
          "name": "_step",
          "type": "uint256"
        },
        {
          "indexed": false,
          "internalType": "address",
          "name": "_itemAddress",
          "type": "address"
        },
        {
          "indexed": false,
          "internalType": "string",
          "name": "_otherInfos",
          "type": "string"
        }
      ],
      "name": "SupplyChainStep",
      "type": "event"
    },
    {
      "anonymous": false,
      "inputs": [
        {
          "indexed": false,
          "internalType": "uint256",
          "name": "_itemIndex",
          "type": "uint256"
        },
        {
          "indexed": false,
          "internalType": "address",
          "name": "_itemAddress",
          "type": "address"
        },
        {
          "indexed": false,
          "internalType": "string",
          "name": "_otherInfos",
          "type": "string"
        }
      ],
      "name": "UpdatedItemInfo",
      "type": "event"
    },
    {
      "inputs": [],
      "name": "isOwner",
      "outputs": [
        {
          "internalType": "bool",
          "name": "",
          "type": "bool"
        }
      ],
      "stateMutability": "view",
      "type": "function"
    },
    {
      "inputs": [
        {
          "internalType": "uint256",
          "name": "",
          "type": "uint256"
        }
      ],
      "name": "items",
      "outputs": [
        {
          "internalType": "address",
          "name": "_owner",
          "type": "address"
        },
        {
          "internalType": "contract Item",
          "name": "_item",
          "type": "address"
        },
        {
          "internalType": "string",
          "name": "_identifier",
          "type": "string"
        },
        {
          "internalType": "uint256",
          "name": "_itemPrice",
          "type": "uint256"
        },
        {
          "internalType": "enum ItemManager.SupplyChainState",
          "name": "_state",
          "type": "uint8"
        },
        {
          "internalType": "string",
          "name": "_otherInfos",
          "type": "string"
        }
      ],
      "stateMutability": "view",
      "type": "function"
    },
    {
      "inputs": [
        {
          "internalType": "address",
          "name": "owner",
          "type": "address"
        },
        {
          "internalType": "string",
          "name": "identifier",
          "type": "string"
        },
        {
          "internalType": "uint256",
          "name": "itemPrice",
          "type": "uint256"
        },
        {
          "internalType": "string",
          "name": "otherInfos",
          "type": "string"
        }
      ],
      "name": "createItem",
      "outputs": [],
      "stateMutability": "nonpayable",
      "type": "function"
    },
    {
      "inputs": [
        {
          "internalType": "uint256",
          "name": "_itemIndex",
          "type": "uint256"
        }
      ],
      "name": "triggerPayment",
      "outputs": [],
      "stateMutability": "payable",
      "type": "function"
    },
    {
      "inputs": [
        {
          "internalType": "uint256",
          "name": "_itemIndex",
          "type": "uint256"
        }
      ],
      "name": "triggerDelivery",
      "outputs": [],
      "stateMutability": "nonpayable",
      "type": "function"
    },
    {
      "inputs": [
        {
          "internalType": "uint256",
          "name": "_itemIndex",
          "type": "uint256"
        },
        {
          "internalType": "string",
          "name": "infos",
          "type": "string"
        }
      ],
      "name": "updateInfos",
      "outputs": [],
      "stateMutability": "nonpayable",
      "type": "function"
    }
  ],
  "bytecode": "0x6080604052336000806101000a81548173ffffffffffffffffffffffffffffffffffffffff021916908373ffffffffffffffffffffffffffffffffffffffff160217905550611a9c806100536000396000f3fe6080604052600436106100555760003560e01c80634906049a1461005a578063800fb83f1461012c5780638f32d59b1461015a578063bfb231d214610189578063cd31831e1461032b578063dc3c18e614610366575b600080fd5b34801561006657600080fd5b5061012a6004803603604081101561007d57600080fd5b8101908080359060200190929190803590602001906401000000008111156100a457600080fd5b8201836020820111156100b657600080fd5b803590602001918460018302840111640100000000831117156100d857600080fd5b91908080601f016020809104026020016040519081016040528093929190818152602001838380828437600081840152601f19601f8201169050808301925050505050505091929192905050506104ef565b005b6101586004803603602081101561014257600080fd5b81019080803590602001909291905050506108b9565b005b34801561016657600080fd5b5061016f610ba3565b604051808215151515815260200191505060405180910390f35b34801561019557600080fd5b506101c2600480360360208110156101ac57600080fd5b8101908080359060200190929190505050610bfa565b604051808773ffffffffffffffffffffffffffffffffffffffff1673ffffffffffffffffffffffffffffffffffffffff1681526020018673ffffffffffffffffffffffffffffffffffffffff1673ffffffffffffffffffffffffffffffffffffffff1681526020018060200185815260200184600281111561024057fe5b60ff16815260200180602001838103835287818151815260200191508051906020019080838360005b83811015610284578082015181840152602081019050610269565b50505050905090810190601f1680156102b15780820380516001836020036101000a031916815260200191505b50838103825284818151815260200191508051906020019080838360005b838110156102ea5780820151818401526020810190506102cf565b50505050905090810190601f1680156103175780820380516001836020036101000a031916815260200191505b509850505050505050505060405180910390f35b34801561033757600080fd5b506103646004803603602081101561034e57600080fd5b8101908080359060200190929190505050610db3565b005b34801561037257600080fd5b506104ed6004803603608081101561038957600080fd5b81019080803573ffffffffffffffffffffffffffffffffffffffff169060200190929190803590602001906401000000008111156103c657600080fd5b8201836020820111156103d857600080fd5b803590602001918460018302840111640100000000831117156103fa57600080fd5b91908080601f016020809104026020016040519081016040528093929190818152602001838380828437600081840152601f19601f820116905080830192505050505050509192919290803590602001909291908035906020019064010000000081111561046757600080fd5b82018360208201111561047957600080fd5b8035906020019184600183028401116401000000008311171561049b57600080fd5b91908080601f016020809104026020016040519081016040528093929190818152602001838380828437600081840152601f19601f82011690508083019250505050505050919291929050505061108d565b005b6104f7610ba3565b610569576040517f08c379a00000000000000000000000000000000000000000000000000000000081526004018080602001828103825260158152602001807f596f7520617265206e6f7420746865206f776e6572000000000000000000000081525060200191505060405180910390fd5b6001600281111561057657fe5b6001600084815260200190815260200160002060040160009054906101000a900460ff1660028111156105a557fe5b1415610619576040517f08c379a000000000000000000000000000000000000000000000000000000000815260040180806020018281038252601d8152602001807f50616964206974656d2063616e6e6f742075706461746520696e666f2100000081525060200191505060405180910390fd5b600015156106d5600160008581526020019081526020016000206005018054600181600116156101000203166002900480601f0160208091040260200160405190810160405280929190818152602001828054600181600116156101000203166002900480156106ca5780601f1061069f576101008083540402835291602001916106ca565b820191906000526020600020905b8154815290600101906020018083116106ad57829003601f168201915b505050505083611407565b15151461074a576040517f08c379a00000000000000000000000000000000000000000000000000000000081526004018080602001828103825260198152602001807f4e6f7468696e67206368616e676520746f20757064617465210000000000000081525060200191505060405180910390fd5b806001600084815260200190815260200160002060050190805190602001906107749291906114f6565b507ff903683be87717548f5e315925940d7b149e3f7485578e8a73c272a1d510de7e826001600085815260200190815260200160002060010160009054906101000a900473ffffffffffffffffffffffffffffffffffffffff1660016000868152602001908152602001600020600501604051808481526020018373ffffffffffffffffffffffffffffffffffffffff1673ffffffffffffffffffffffffffffffffffffffff168152602001806020018281038252838181546001816001161561010002031660029004815260200191508054600181600116156101000203166002900480156108a55780601f1061087a576101008083540402835291602001916108a5565b820191906000526020600020905b81548152906001019060200180831161088857829003601f168201915b505094505050505060405180910390a15050565b34600160008381526020019081526020016000206003015414610944576040517f08c379a000000000000000000000000000000000000000000000000000000000815260040180806020018281038252601c8152602001807f4f6e6c792066756c6c207061796d656e7473206163636570746564210000000081525060200191505060405180910390fd5b6000600281111561095157fe5b6001600083815260200190815260200160002060040160009054906101000a900460ff16600281111561098057fe5b146109f3576040517f08c379a000000000000000000000000000000000000000000000000000000000815260040180806020018281038252601d8152602001807f4974656d206973206675727468657220696e2074686520636861696e2100000081525060200191505060405180910390fd5b600180600083815260200190815260200160002060040160006101000a81548160ff02191690836002811115610a2557fe5b02179055507f04dae4d23aa86ea4452ca552b9901b80bd40c63a842232a8a7975d07a3646f01816001600084815260200190815260200160002060040160009054906101000a900460ff166002811115610a7b57fe5b6001600085815260200190815260200160002060010160009054906101000a900473ffffffffffffffffffffffffffffffffffffffff1660016000868152602001908152602001600020600501604051808581526020018481526020018373ffffffffffffffffffffffffffffffffffffffff1673ffffffffffffffffffffffffffffffffffffffff16815260200180602001828103825283818154600181600116156101000203166002900481526020019150805460018160011615610100020316600290048015610b8f5780601f10610b6457610100808354040283529160200191610b8f565b820191906000526020600020905b815481529060010190602001808311610b7257829003601f168201915b50509550505050505060405180910390a150565b60008060009054906101000a900473ffffffffffffffffffffffffffffffffffffffff1673ffffffffffffffffffffffffffffffffffffffff163373ffffffffffffffffffffffffffffffffffffffff1614905090565b60016020528060005260406000206000915090508060000160009054906101000a900473ffffffffffffffffffffffffffffffffffffffff16908060010160009054906101000a900473ffffffffffffffffffffffffffffffffffffffff1690806002018054600181600116156101000203166002900480601f016020809104026020016040519081016040528092919081815260200182805460018160011615610100020316600290048015610cf25780601f10610cc757610100808354040283529160200191610cf2565b820191906000526020600020905b815481529060010190602001808311610cd557829003601f168201915b5050505050908060030154908060040160009054906101000a900460ff1690806005018054600181600116156101000203166002900480601f016020809104026020016040519081016040528092919081815260200182805460018160011615610100020316600290048015610da95780601f10610d7e57610100808354040283529160200191610da9565b820191906000526020600020905b815481529060010190602001808311610d8c57829003601f168201915b5050505050905086565b610dbb610ba3565b610e2d576040517f08c379a00000000000000000000000000000000000000000000000000000000081526004018080602001828103825260158152602001807f596f7520617265206e6f7420746865206f776e6572000000000000000000000081525060200191505060405180910390fd5b60016002811115610e3a57fe5b6001600083815260200190815260200160002060040160009054906101000a900460ff166002811115610e6957fe5b14610edc576040517f08c379a000000000000000000000000000000000000000000000000000000000815260040180806020018281038252601d8152602001807f4974656d206973206675727468657220696e2074686520636861696e2100000081525060200191505060405180910390fd5b60026001600083815260200190815260200160002060040160006101000a81548160ff02191690836002811115610f0f57fe5b02179055507f04dae4d23aa86ea4452ca552b9901b80bd40c63a842232a8a7975d07a3646f01816001600084815260200190815260200160002060040160009054906101000a900460ff166002811115610f6557fe5b6001600085815260200190815260200160002060010160009054906101000a900473ffffffffffffffffffffffffffffffffffffffff1660016000868152602001908152602001600020600501604051808581526020018481526020018373ffffffffffffffffffffffffffffffffffffffff1673ffffffffffffffffffffffffffffffffffffffff168152602001806020018281038252838181546001816001161561010002031660029004815260200191508054600181600116156101000203166002900480156110795780601f1061104e57610100808354040283529160200191611079565b820191906000526020600020905b81548152906001019060200180831161105c57829003601f168201915b50509550505050505060405180910390a150565b611095610ba3565b611107576040517f08c379a00000000000000000000000000000000000000000000000000000000081526004018080602001828103825260158152602001807f596f7520617265206e6f7420746865206f776e6572000000000000000000000081525060200191505060405180910390fd5b6000308360025460405161111a90611576565b808473ffffffffffffffffffffffffffffffffffffffff1673ffffffffffffffffffffffffffffffffffffffff1681526020018381526020018281526020019350505050604051809103906000f08015801561117a573d6000803e3d6000fd5b5090508460016000600254815260200190815260200160002060000160006101000a81548173ffffffffffffffffffffffffffffffffffffffff021916908373ffffffffffffffffffffffffffffffffffffffff1602179055508060016000600254815260200190815260200160002060010160006101000a81548173ffffffffffffffffffffffffffffffffffffffff021916908373ffffffffffffffffffffffffffffffffffffffff1602179055508360016000600254815260200190815260200160002060020190805190602001906112579291906114f6565b508260016000600254815260200190815260200160002060030181905550600060016000600254815260200190815260200160002060040160006101000a81548160ff021916908360028111156112aa57fe5b02179055508160016000600254815260200190815260200160002060050190805190602001906112db9291906114f6565b507f04dae4d23aa86ea4452ca552b9901b80bd40c63a842232a8a7975d07a3646f0160025460016000600254815260200190815260200160002060040160009054906101000a900460ff16600281111561133157fe5b8385604051808581526020018481526020018373ffffffffffffffffffffffffffffffffffffffff1673ffffffffffffffffffffffffffffffffffffffff16815260200180602001828103825283818151815260200191508051906020019080838360005b838110156113b1578082015181840152602081019050611396565b50505050905090810190601f1680156113de5780820380516001836020036101000a031916815260200191505b509550505050505060405180910390a16002600081548092919060010191905055505050505050565b6000816040516020018082805190602001908083835b60208310611440578051825260208201915060208101905060208303925061141d565b6001836020036101000a03801982511681845116808217855250505050505090500191505060405160208183030381529060405280519060200120836040516020018082805190602001908083835b602083106114b2578051825260208201915060208101905060208303925061148f565b6001836020036101000a0380198251168184511680821785525050505050509050019150506040516020818303038152906040528051906020012014905092915050565b828054600181600116156101000203166002900490600052602060002090601f016020900481019282601f1061153757805160ff1916838001178555611565565b82800160010185558215611565579182015b82811115611564578251825591602001919060010190611549565b5b5090506115729190611583565b5090565b6104be806115a983390190565b6115a591905b808211156115a1576000816000905550600101611589565b5090565b9056fe608060405234801561001057600080fd5b506040516104be3803806104be8339818101604052606081101561003357600080fd5b81019080805190602001909291908051906020019092919080519060200190929190505050816000819055508060028190555082600360006101000a81548173ffffffffffffffffffffffffffffffffffffffff021916908373ffffffffffffffffffffffffffffffffffffffff160217905550505050610405806100b96000396000f3fe6080604052600436106100385760003560e01c80632986c0e51461030e5780633c8da5881461033957806389794d0014610364576102ff565b366102ff576000600154146100b5576040517f08c379a00000000000000000000000000000000000000000000000000000000081526004018080602001828103825260158152602001807f4974656d206973207061696420616c726561647921000000000000000000000081525060200191505060405180910390fd5b346000541461012c576040517f08c379a000000000000000000000000000000000000000000000000000000000815260040180806020018281038252601a8152602001807f4f6e6c792066756c6c207061796d656e747320616c6c6f77656400000000000081525060200191505060405180910390fd5b346001600082825401925050819055506000600360009054906101000a900473ffffffffffffffffffffffffffffffffffffffff1673ffffffffffffffffffffffffffffffffffffffff1634600254604051602401808281526020019150506040516020818303038152906040527f800fb83f000000000000000000000000000000000000000000000000000000007bffffffffffffffffffffffffffffffffffffffffffffffffffffffff19166020820180517bffffffffffffffffffffffffffffffffffffffffffffffffffffffff83818316178352505050506040518082805190602001908083835b6020831061023b5780518252602082019150602081019050602083039250610218565b6001836020036101000a03801982511681845116808217855250505050505090500191505060006040518083038185875af1925050503d806000811461029d576040519150601f19603f3d011682016040523d82523d6000602084013e6102a2565b606091505b50509050806102fc576040517f08c379a000000000000000000000000000000000000000000000000000000000815260040180806020018281038252602e8152602001806103a2602e913960400191505060405180910390fd5b50005b34801561030b57600080fd5b50005b34801561031a57600080fd5b5061032361038f565b6040518082815260200191505060405180910390f35b34801561034557600080fd5b5061034e610395565b6040518082815260200191505060405180910390f35b34801561037057600080fd5b5061037961039b565b6040518082815260200191505060405180910390f35b60025481565b60005481565b6001548156fe546865207472616e73616374696f6e207761736e2774207375636365737366756c6c2c2063616e63656c6c696e67a2646970667358221220421144a75476293eaa677c498dafddfd1e426f06b8850903a6cf4149460c863e64736f6c63430006020033a26469706673582212207f37aabc1e0e553afe005bdc10370cdab4d9c33a7107c795c9ffe1f9a893a92d64736f6c63430006020033",
  "source": "// contracts/GLDToken.sol\r\n// SPDX-License-Identifier: MIT\r\npragma solidity ^0.6.2;\r\n\r\nimport \"./Ownable.sol\";\r\nimport \"./Item.sol\";\r\n\r\ncontract ItemManager is Ownable {\r\n    enum SupplyChainState {\r\n        Created,\r\n        Paid,\r\n        Delivered\r\n    }\r\n\r\n    struct S_Item {\r\n        address _owner;\r\n        Item _item;\r\n        string _identifier;\r\n        uint256 _itemPrice;\r\n        ItemManager.SupplyChainState _state;\r\n        string _otherInfos;\r\n    }\r\n\r\n    mapping(uint256 => S_Item) public items;\r\n    uint256 itemIndex;\r\n\r\n    // EVENTS\r\n    event SupplyChainStep(\r\n        uint256 _itemIndex,\r\n        uint256 _step,\r\n        address _itemAddress,\r\n        string _otherInfos\r\n    );\r\n\r\n    event UpdatedItemInfo(\r\n        uint256 _itemIndex,\r\n        address _itemAddress,\r\n        string _otherInfos\r\n    );\r\n\r\n\r\n    // FUNCTIONS\r\n    function createItem(address owner, string memory identifier, uint256 itemPrice, string memory otherInfos)\r\n        public\r\n        onlyOwner\r\n    {\r\n        Item item = new Item(this, itemPrice, itemIndex);\r\n        items[itemIndex]._owner = owner;\r\n        items[itemIndex]._item = item;\r\n        items[itemIndex]._identifier = identifier;\r\n        items[itemIndex]._itemPrice = itemPrice;\r\n        items[itemIndex]._state = SupplyChainState.Created;\r\n        items[itemIndex]._otherInfos = otherInfos;\r\n\r\n        emit SupplyChainStep(\r\n            itemIndex,\r\n            uint256(items[itemIndex]._state),\r\n            address(item),\r\n            otherInfos\r\n        );\r\n\r\n        itemIndex++;\r\n    }\r\n\r\n    function triggerPayment(uint256 _itemIndex) public payable {\r\n        require(\r\n            items[_itemIndex]._itemPrice == msg.value,\r\n            \"Only full payments accepted!\"\r\n        );\r\n        require(\r\n            items[_itemIndex]._state == SupplyChainState.Created,\r\n            \"Item is further in the chain!\"\r\n        );\r\n        items[_itemIndex]._state = SupplyChainState.Paid;\r\n    \r\n        emit SupplyChainStep(\r\n            _itemIndex,\r\n            uint256(items[_itemIndex]._state),\r\n            address(items[_itemIndex]._item),\r\n            items[_itemIndex]._otherInfos\r\n        );\r\n    }\r\n\r\n    function triggerDelivery(uint256 _itemIndex) public onlyOwner {\r\n        require(\r\n            items[_itemIndex]._state == SupplyChainState.Paid,\r\n            \"Item is further in the chain!\"\r\n        );\r\n        items[_itemIndex]._state = SupplyChainState.Delivered;\r\n\r\n        emit SupplyChainStep(\r\n            _itemIndex,\r\n            uint256(items[_itemIndex]._state),\r\n            address(items[_itemIndex]._item),\r\n            items[_itemIndex]._otherInfos\r\n        );\r\n    }\r\n\r\n    function compareStrings(string memory a, string memory b) internal returns (bool) {\r\n        return (keccak256(abi.encodePacked((a))) == keccak256(abi.encodePacked((b))));\r\n    }\r\n\r\n    function updateInfos(uint256 _itemIndex, string memory infos) public onlyOwner {\r\n        require(\r\n            items[_itemIndex]._state != SupplyChainState.Paid,\r\n            \"Paid item cannot update info!\"\r\n        );\r\n\r\n        require(\r\n            compareStrings(items[_itemIndex]._otherInfos, infos) == false,\r\n            \"Nothing change to update!\"\r\n        );\r\n\r\n        items[_itemIndex]._otherInfos = infos;\r\n\r\n        emit UpdatedItemInfo(\r\n            _itemIndex,\r\n            address(items[_itemIndex]._item),\r\n            items[_itemIndex]._otherInfos\r\n        );\r\n    }\r\n}",
  "sourcePath": "D:\\Quyen\\STUDY\\Blockchain\\BlockchainProject\\contracts\\ItemManager.sol",
  "compiler": {
    "name": "solc",
    "version": "0.6.2+commit.bacdbe57.Emscripten.clang"
  },
  "schemaVersion": "3.4.3",
  "updatedAt": "2022-12-05T10:14:21.442Z",
  "devdoc": {
    "methods": {}
  },
  "userdoc": {
    "methods": {}
  }
}