{
  "contractName": "ItemManager",
  "abi": [
    {
      "anonymous": false,
      "inputs": [
        {
          "indexed": false,
          "internalType": "uint256",
          "name": "_itemIndex",
          "type": "uint256"
        },
        {
          "indexed": false,
          "internalType": "uint256",
          "name": "_step",
          "type": "uint256"
        },
        {
          "indexed": false,
          "internalType": "address",
          "name": "_itemAddress",
          "type": "address"
        },
        {
          "indexed": false,
          "internalType": "string",
          "name": "_otherInfos",
          "type": "string"
        }
      ],
      "name": "SupplyChainStep",
      "type": "event"
    },
    {
      "anonymous": false,
      "inputs": [
        {
          "indexed": false,
          "internalType": "uint256",
          "name": "_itemIndex",
          "type": "uint256"
        },
        {
          "indexed": false,
          "internalType": "address",
          "name": "_itemAddress",
          "type": "address"
        },
        {
          "indexed": false,
          "internalType": "string",
          "name": "_otherInfos",
          "type": "string"
        }
      ],
      "name": "UpdatedItemInfo",
      "type": "event"
    },
    {
      "inputs": [],
      "name": "isOwner",
      "outputs": [
        {
          "internalType": "bool",
          "name": "",
          "type": "bool"
        }
      ],
      "stateMutability": "view",
      "type": "function"
    },
    {
      "inputs": [
        {
          "internalType": "uint256",
          "name": "",
          "type": "uint256"
        }
      ],
      "name": "items",
      "outputs": [
        {
          "internalType": "address payable",
          "name": "_owner",
          "type": "address"
        },
        {
          "internalType": "contract Item",
          "name": "_item",
          "type": "address"
        },
        {
          "internalType": "string",
          "name": "_identifier",
          "type": "string"
        },
        {
          "internalType": "uint256",
          "name": "_itemPrice",
          "type": "uint256"
        },
        {
          "internalType": "uint256",
          "name": "_itemTokenPrice",
          "type": "uint256"
        },
        {
          "internalType": "enum ItemManager.SupplyChainState",
          "name": "_state",
          "type": "uint8"
        },
        {
          "internalType": "string",
          "name": "_otherInfos",
          "type": "string"
        }
      ],
      "stateMutability": "view",
      "type": "function"
    },
    {
      "inputs": [
        {
          "internalType": "address payable",
          "name": "owner",
          "type": "address"
        },
        {
          "internalType": "string",
          "name": "identifier",
          "type": "string"
        },
        {
          "internalType": "uint256",
          "name": "itemPrice",
          "type": "uint256"
        },
        {
          "internalType": "uint256",
          "name": "itemTokenPrice",
          "type": "uint256"
        },
        {
          "internalType": "string",
          "name": "otherInfos",
          "type": "string"
        }
      ],
      "name": "createItem",
      "outputs": [],
      "stateMutability": "nonpayable",
      "type": "function"
    },
    {
      "inputs": [
        {
          "internalType": "uint256",
          "name": "_itemIndex",
          "type": "uint256"
        }
      ],
      "name": "getItemInfor",
      "outputs": [
        {
          "components": [
            {
              "internalType": "address payable",
              "name": "_owner",
              "type": "address"
            },
            {
              "internalType": "contract Item",
              "name": "_item",
              "type": "address"
            },
            {
              "internalType": "string",
              "name": "_identifier",
              "type": "string"
            },
            {
              "internalType": "uint256",
              "name": "_itemPrice",
              "type": "uint256"
            },
            {
              "internalType": "uint256",
              "name": "_itemTokenPrice",
              "type": "uint256"
            },
            {
              "internalType": "enum ItemManager.SupplyChainState",
              "name": "_state",
              "type": "uint8"
            },
            {
              "internalType": "string",
              "name": "_otherInfos",
              "type": "string"
            }
          ],
          "internalType": "struct ItemManager.S_Item",
          "name": "",
          "type": "tuple"
        }
      ],
      "stateMutability": "view",
      "type": "function"
    },
    {
      "inputs": [
        {
          "internalType": "uint256",
          "name": "_itemIndex",
          "type": "uint256"
        }
      ],
      "name": "triggerPaymentWithToken",
      "outputs": [],
      "stateMutability": "payable",
      "type": "function"
    },
    {
      "inputs": [
        {
          "internalType": "uint256",
          "name": "_itemIndex",
          "type": "uint256"
        }
      ],
      "name": "triggerPayment",
      "outputs": [],
      "stateMutability": "payable",
      "type": "function"
    },
    {
      "inputs": [
        {
          "internalType": "uint256",
          "name": "_itemIndex",
          "type": "uint256"
        }
      ],
      "name": "triggerDelivery",
      "outputs": [],
      "stateMutability": "nonpayable",
      "type": "function"
    },
    {
      "inputs": [
        {
          "internalType": "uint256",
          "name": "_itemIndex",
          "type": "uint256"
        },
        {
          "internalType": "string",
          "name": "infos",
          "type": "string"
        }
      ],
      "name": "updateInfos",
      "outputs": [],
      "stateMutability": "nonpayable",
      "type": "function"
    }
  ],
  "bytecode": "0x608060405234801561001057600080fd5b50600080546001600160a01b0319163317905561159e806100326000396000f3fe60806040526004361061007b5760003560e01c8063b7bbacf51161004e578063b7bbacf514610116578063bfb231d214610129578063cd31831e1461015c578063ea9272b51461017c57600080fd5b806323c09bcc146100805780634906049a146100b6578063800fb83f146100d85780638f32d59b146100eb575b600080fd5b34801561008c57600080fd5b506100a061009b366004610bc4565b61019c565b6040516100ad9190610c65565b60405180910390f35b3480156100c257600080fd5b506100d66100d1366004610d93565b610354565b005b6100d66100e6366004610bc4565b610599565b3480156100f757600080fd5b506000546001600160a01b0316331460405190151581526020016100ad565b6100d6610124366004610bc4565b6105f9565b34801561013557600080fd5b50610149610144366004610bc4565b610714565b6040516100ad9796959493929190610dda565b34801561016857600080fd5b506100d6610177366004610bc4565b610877565b34801561018857600080fd5b506100d6610197366004610e3f565b61096c565b6101a4610b57565b600082815260016020818152604092839020835160e08101855281546001600160a01b039081168252938201549093169183019190915260028101805492939192918401916101f290610ed5565b80601f016020809104026020016040519081016040528092919081815260200182805461021e90610ed5565b801561026b5780601f106102405761010080835404028352916020019161026b565b820191906000526020600020905b81548152906001019060200180831161024e57829003601f168201915b50505091835250506003820154602082015260048201546040820152600582015460609091019060ff1660028111156102a6576102a6610c2d565b60028111156102b7576102b7610c2d565b81526020016006820180546102cb90610ed5565b80601f01602080910402602001604051908101604052809291908181526020018280546102f790610ed5565b80156103445780601f1061031957610100808354040283529160200191610344565b820191906000526020600020905b81548152906001019060200180831161032757829003601f168201915b5050505050815250509050919050565b6000546001600160a01b031633146103b35760405162461bcd60e51b815260206004820152601560248201527f596f7520617265206e6f7420746865206f776e6572000000000000000000000060448201526064015b60405180910390fd5b600160008381526001602052604090206005015460ff1660028111156103db576103db610c2d565b036104285760405162461bcd60e51b815260206004820152601d60248201527f50616964206974656d2063616e6e6f742075706461746520696e666f2100000060448201526064016103aa565b600082815260016020526040902060060180546104cd919061044990610ed5565b80601f016020809104026020016040519081016040528092919081815260200182805461047590610ed5565b80156104c25780601f10610497576101008083540402835291602001916104c2565b820191906000526020600020905b8154815290600101906020018083116104a557829003601f168201915b505050505082610afe565b1561051a5760405162461bcd60e51b815260206004820152601960248201527f4e6f7468696e67206368616e676520746f20757064617465210000000000000060448201526064016103aa565b60008281526001602052604090206006016105358282610f5e565b506000828152600160208190526040918290209081015491517ff903683be87717548f5e315925940d7b149e3f7485578e8a73c272a1d510de7e9261058d9286926001600160a01b039092169160069091019061109b565b60405180910390a15050565b60008181526001602052604090206003015434146105f95760405162461bcd60e51b815260206004820152601c60248201527f4f6e6c792066756c6c207061796d656e7473206163636570746564210000000060448201526064016103aa565b60008181526001602052604081206005015460ff16600281111561061f5761061f610c2d565b1461066c5760405162461bcd60e51b815260206004820152601d60248201527f4974656d206973206675727468657220696e2074686520636861696e2100000060448201526064016103aa565b6000818152600160208190526040909120600501805460ff191682805b02179055506000818152600160205260409020600501547f04dae4d23aa86ea4452ca552b9901b80bd40c63a842232a8a7975d07a3646f0190829060ff1660028111156106d8576106d8610c2d565b6000848152600160208190526040918290209081015491516107099493926001600160a01b031691600601906110c3565b60405180910390a150565b60016020819052600091825260409091208054918101546002820180546001600160a01b0394851694909216929161074b90610ed5565b80601f016020809104026020016040519081016040528092919081815260200182805461077790610ed5565b80156107c45780601f10610799576101008083540402835291602001916107c4565b820191906000526020600020905b8154815290600101906020018083116107a757829003601f168201915b5050506003840154600485015460058601546006870180549697939692955060ff9091169350906107f490610ed5565b80601f016020809104026020016040519081016040528092919081815260200182805461082090610ed5565b801561086d5780601f106108425761010080835404028352916020019161086d565b820191906000526020600020905b81548152906001019060200180831161085057829003601f168201915b5050505050905087565b6000546001600160a01b031633146108d15760405162461bcd60e51b815260206004820152601560248201527f596f7520617265206e6f7420746865206f776e6572000000000000000000000060448201526064016103aa565b600160008281526001602052604090206005015460ff1660028111156108f9576108f9610c2d565b146109465760405162461bcd60e51b815260206004820152601d60248201527f4974656d206973206675727468657220696e2074686520636861696e2100000060448201526064016103aa565b6000818152600160208190526040909120600501805460029260ff199091169083610689565b6000308460025460405161097f90610bb7565b6001600160a01b03909316835260208301919091526040820152606001604051809103906000f0801580156109b8573d6000803e3d6000fd5b5060028054600090815260016020819052604080832080546001600160a01b03808e167fffffffffffffffffffffffff000000000000000000000000000000000000000092831617909255855485528285209093018054918716919093161790915582548252902091925001610a2e8682610f5e565b50600280546000908152600160205260408082206003018790558254825280822060040186905582548252808220600501805460ff191690559154815220600601610a798382610f5e565b50600280546000818152600160205260409020600501547f04dae4d23aa86ea4452ca552b9901b80bd40c63a842232a8a7975d07a3646f019260ff90911690811115610ac757610ac7610c2d565b8385604051610ad994939291906110fb565b60405180910390a160028054906000610af183611129565b9190505550505050505050565b600081604051602001610b119190611150565b6040516020818303038152906040528051906020012083604051602001610b389190611150565b6040516020818303038152906040528051906020012014905092915050565b6040518060e0016040528060006001600160a01b0316815260200160006001600160a01b0316815260200160608152602001600081526020016000815260200160006002811115610baa57610baa610c2d565b8152602001606081525090565b6103fc8061116d83390190565b600060208284031215610bd657600080fd5b5035919050565b60005b83811015610bf8578181015183820152602001610be0565b50506000910152565b60008151808452610c19816020860160208601610bdd565b601f01601f19169290920160200192915050565b634e487b7160e01b600052602160045260246000fd5b60038110610c6157634e487b7160e01b600052602160045260246000fd5b9052565b6020815260006001600160a01b0380845116602084015280602085015116604084015250604083015160e06060840152610ca3610100840182610c01565b905060608401516080840152608084015160a084015260a0840151610ccb60c0850182610c43565b5060c0840151838203601f190160e0850152610ce78282610c01565b95945050505050565b634e487b7160e01b600052604160045260246000fd5b600082601f830112610d1757600080fd5b813567ffffffffffffffff80821115610d3257610d32610cf0565b604051601f8301601f19908116603f01168101908282118183101715610d5a57610d5a610cf0565b81604052838152866020858801011115610d7357600080fd5b836020870160208301376000602085830101528094505050505092915050565b60008060408385031215610da657600080fd5b82359150602083013567ffffffffffffffff811115610dc457600080fd5b610dd085828601610d06565b9150509250929050565b60006001600160a01b03808a16835280891660208401525060e06040830152610e0660e0830188610c01565b866060840152856080840152610e1f60a0840186610c43565b82810360c0840152610e318185610c01565b9a9950505050505050505050565b600080600080600060a08688031215610e5757600080fd5b85356001600160a01b0381168114610e6e57600080fd5b9450602086013567ffffffffffffffff80821115610e8b57600080fd5b610e9789838a01610d06565b955060408801359450606088013593506080880135915080821115610ebb57600080fd5b50610ec888828901610d06565b9150509295509295909350565b600181811c90821680610ee957607f821691505b602082108103610f0957634e487b7160e01b600052602260045260246000fd5b50919050565b601f821115610f5957600081815260208120601f850160051c81016020861015610f365750805b601f850160051c820191505b81811015610f5557828155600101610f42565b5050505b505050565b815167ffffffffffffffff811115610f7857610f78610cf0565b610f8c81610f868454610ed5565b84610f0f565b602080601f831160018114610fc15760008415610fa95750858301515b600019600386901b1c1916600185901b178555610f55565b600085815260208120601f198616915b82811015610ff057888601518255948401946001909101908401610fd1565b508582101561100e5787850151600019600388901b60f8161c191681555b5050505050600190811b01905550565b6000815461102b81610ed5565b808552602060018381168015611048576001811461106257611090565b60ff1985168884015283151560051b880183019550611090565b866000528260002060005b858110156110885781548a820186015290830190840161106d565b890184019650505b505050505092915050565b8381526001600160a01b0383166020820152606060408201526000610ce7606083018461101e565b8481528360208201526001600160a01b03831660408201526080606082015260006110f1608083018461101e565b9695505050505050565b8481528360208201526001600160a01b03831660408201526080606082015260006110f16080830184610c01565b60006001820161114957634e487b7160e01b600052601160045260246000fd5b5060010190565b60008251611162818460208701610bdd565b919091019291505056fe608060405234801561001057600080fd5b506040516103fc3803806103fc83398101604081905261002f9161005d565b600091909155600255600380546001600160a01b0319166001600160a01b03929092169190911790556100a0565b60008060006060848603121561007257600080fd5b83516001600160a01b038116811461008957600080fd5b602085015160409095015190969495509392505050565b61034d806100af6000396000f3fe6080604052600436106100385760003560e01c80632986c0e5146102545780633c8da5881461027c57806389794d001461029257610248565b3661024857600154156100925760405162461bcd60e51b815260206004820152601560248201527f4974656d206973207061696420616c726561647921000000000000000000000060448201526064015b60405180910390fd5b34600054146100e35760405162461bcd60e51b815260206004820152601a60248201527f4f6e6c792066756c6c207061796d656e747320616c6c6f7765640000000000006044820152606401610089565b34600160008282546100f591906102a8565b9091555050600354600254604051602481019190915260009173ffffffffffffffffffffffffffffffffffffffff1690349060440160408051601f198184030181529181526020820180517bffffffffffffffffffffffffffffffffffffffffffffffffffffffff167f800fb83f000000000000000000000000000000000000000000000000000000001790525161018d91906102e8565b60006040518083038185875af1925050503d80600081146101ca576040519150601f19603f3d011682016040523d82523d6000602084013e6101cf565b606091505b50509050806102465760405162461bcd60e51b815260206004820152602e60248201527f546865207472616e73616374696f6e207761736e27742073756363657373667560448201527f6c6c2c2063616e63656c6c696e670000000000000000000000000000000000006064820152608401610089565b005b34801561024657600080fd5b34801561026057600080fd5b5061026a60025481565b60405190815260200160405180910390f35b34801561028857600080fd5b5061026a60005481565b34801561029e57600080fd5b5061026a60015481565b808201808211156102e2577f4e487b7100000000000000000000000000000000000000000000000000000000600052601160045260246000fd5b92915050565b6000825160005b8181101561030957602081860181015185830152016102ef565b50600092019182525091905056fea2646970667358221220bd49dbc3d67a9e401ae4188ef84515d7da69455d399bfc376ee882177ee51db764736f6c63430008110033a2646970667358221220f5bbb170770afa839938c7512b1c17d24037b2debb630562bfb80a5d61b0d4a164736f6c63430008110033",
  "immutableReferences": {},
  "source": "// contracts/GLDToken.sol\r\n// SPDX-License-Identifier: MIT\r\npragma solidity ^0.8.0;\r\n\r\nimport \"./MyOwnable.sol\";\r\nimport \"./Item.sol\";\r\n\r\ncontract ItemManager is MyOwnable{\r\n    enum SupplyChainState {\r\n        Created,\r\n        Paid,\r\n        Delivered\r\n    }\r\n\r\n    struct S_Item {\r\n        address payable _owner;\r\n        Item _item;\r\n        string _identifier;\r\n        uint256 _itemPrice;\r\n        uint256 _itemTokenPrice;\r\n        ItemManager.SupplyChainState _state;\r\n        string _otherInfos;\r\n    }\r\n\r\n    mapping(uint256 => S_Item) public items;\r\n    uint256 itemIndex;\r\n\r\n    // EVENTS\r\n    event SupplyChainStep(\r\n        uint256 _itemIndex,\r\n        uint256 _step,\r\n        address _itemAddress,\r\n        string _otherInfos\r\n    );\r\n\r\n    event UpdatedItemInfo(\r\n        uint256 _itemIndex,\r\n        address _itemAddress,\r\n        string _otherInfos\r\n    );\r\n\r\n    // FUNCTIONS\r\n    function createItem(\r\n        address payable owner, string memory identifier, uint256 itemPrice, \r\n        uint256 itemTokenPrice, string memory otherInfos\r\n    )\r\n        public\r\n    {\r\n        Item item = new Item(this, itemPrice, itemIndex);\r\n        items[itemIndex]._owner = owner;\r\n        items[itemIndex]._item = item;\r\n        items[itemIndex]._identifier = identifier;\r\n        items[itemIndex]._itemPrice = itemPrice;\r\n        items[itemIndex]._itemTokenPrice = itemTokenPrice;\r\n        items[itemIndex]._state = SupplyChainState.Created;\r\n        items[itemIndex]._otherInfos = otherInfos;\r\n\r\n        emit SupplyChainStep(\r\n            itemIndex,\r\n            uint256(items[itemIndex]._state),\r\n            address(item),\r\n            otherInfos\r\n        );\r\n\r\n        itemIndex++;\r\n    }\r\n\r\n    function getItemInfor(uint256 _itemIndex) public view returns(S_Item memory) {\r\n        return items[_itemIndex];\r\n    }\r\n\r\n    function triggerPaymentWithToken(uint256 _itemIndex) public payable {\r\n        require(\r\n            items[_itemIndex]._state == SupplyChainState.Created,\r\n            \"Item is further in the chain!\"\r\n        );\r\n        items[_itemIndex]._state = SupplyChainState.Paid;\r\n    \r\n        emit SupplyChainStep(\r\n            _itemIndex,\r\n            uint256(items[_itemIndex]._state),\r\n            address(items[_itemIndex]._item),\r\n            items[_itemIndex]._otherInfos\r\n        );\r\n    }\r\n\r\n    function triggerPayment(uint256 _itemIndex) public payable {\r\n        require(\r\n            items[_itemIndex]._itemPrice == msg.value,\r\n            \"Only full payments accepted!\"\r\n        );\r\n        require(\r\n            items[_itemIndex]._state == SupplyChainState.Created,\r\n            \"Item is further in the chain!\"\r\n        );\r\n        items[_itemIndex]._state = SupplyChainState.Paid;\r\n    \r\n        emit SupplyChainStep(\r\n            _itemIndex,\r\n            uint256(items[_itemIndex]._state),\r\n            address(items[_itemIndex]._item),\r\n            items[_itemIndex]._otherInfos\r\n        );\r\n    }\r\n\r\n    function triggerDelivery(uint256 _itemIndex) public onlyOwner {\r\n        require(\r\n            items[_itemIndex]._state == SupplyChainState.Paid,\r\n            \"Item is further in the chain!\"\r\n        );\r\n        items[_itemIndex]._state = SupplyChainState.Delivered;\r\n\r\n        emit SupplyChainStep(\r\n            _itemIndex,\r\n            uint256(items[_itemIndex]._state),\r\n            address(items[_itemIndex]._item),\r\n            items[_itemIndex]._otherInfos\r\n        );\r\n    }\r\n\r\n    function compareStrings(string memory a, string memory b) internal pure returns (bool) {\r\n        return (keccak256(abi.encodePacked((a))) == keccak256(abi.encodePacked((b))));\r\n    }\r\n\r\n    function updateInfos(uint256 _itemIndex, string memory infos) public onlyOwner {\r\n        require(\r\n            items[_itemIndex]._state != SupplyChainState.Paid,\r\n            \"Paid item cannot update info!\"\r\n        );\r\n\r\n        require(\r\n            compareStrings(items[_itemIndex]._otherInfos, infos) == false,\r\n            \"Nothing change to update!\"\r\n        );\r\n\r\n        items[_itemIndex]._otherInfos = infos;\r\n\r\n        emit UpdatedItemInfo(\r\n            _itemIndex,\r\n            address(items[_itemIndex]._item),\r\n            items[_itemIndex]._otherInfos\r\n        );\r\n    }\r\n}",
  "sourcePath": "D:\\Quyen\\STUDY\\Blockchain\\BlockchainProject\\contracts\\ItemManager.sol",
  "compiler": {
    "name": "solc",
    "version": "0.8.17+commit.8df45f5f.Emscripten.clang"
  },
  "schemaVersion": "3.4.3",
  "updatedAt": "2022-12-23T02:41:41.122Z",
  "devdoc": {
    "kind": "dev",
    "methods": {},
    "version": 1
  },
  "userdoc": {
    "kind": "user",
    "methods": {},
    "version": 1
  }
}