{
  "contractName": "KycContract",
  "abi": [
    {
      "inputs": [],
      "name": "isOwner",
      "outputs": [
        {
          "internalType": "bool",
          "name": "",
          "type": "bool"
        }
      ],
      "stateMutability": "view",
      "type": "function",
      "constant": true
    },
    {
      "inputs": [
        {
          "internalType": "address",
          "name": "_addr",
          "type": "address"
        }
      ],
      "name": "setKycCompleted",
      "outputs": [],
      "stateMutability": "nonpayable",
      "type": "function"
    },
    {
      "inputs": [
        {
          "internalType": "address",
          "name": "_addr",
          "type": "address"
        }
      ],
      "name": "setKycRevoked",
      "outputs": [],
      "stateMutability": "nonpayable",
      "type": "function"
    },
    {
      "inputs": [
        {
          "internalType": "address",
          "name": "_addr",
          "type": "address"
        }
      ],
      "name": "kycCompleted",
      "outputs": [
        {
          "internalType": "bool",
          "name": "",
          "type": "bool"
        }
      ],
      "stateMutability": "view",
      "type": "function",
      "constant": true
    }
  ],
  "bytecode": "0x6080604052600080546001600160a01b03191633179055610240806100256000396000f3fe608060405234801561001057600080fd5b506004361061004c5760003560e01c806370c9aedd146100515780638f32d59b14610079578063dc3958cc14610095578063df235fe4146100bb575b600080fd5b6100776004803603602081101561006757600080fd5b50356001600160a01b03166100e1565b005b610081610161565b604080519115158252519081900360200190f35b610077600480360360208110156100ab57600080fd5b50356001600160a01b0316610172565b610081600480360360208110156100d157600080fd5b50356001600160a01b03166101ec565b6100e9610161565b61013a576040805162461bcd60e51b815260206004820152601560248201527f596f7520617265206e6f7420746865206f776e65720000000000000000000000604482015290519081900360640190fd5b6001600160a01b03166000908152600160208190526040909120805460ff19169091179055565b6000546001600160a01b0316331490565b61017a610161565b6101cb576040805162461bcd60e51b815260206004820152601560248201527f596f7520617265206e6f7420746865206f776e65720000000000000000000000604482015290519081900360640190fd5b6001600160a01b03166000908152600160205260409020805460ff19169055565b6001600160a01b031660009081526001602052604090205460ff169056fea2646970667358221220f3eb471e3e04debf2698b3700fc3f70f0e055991f7c89830833755f9a455538964736f6c63430006020033",
  "source": "// contracts/GLDToken.sol\r\n// SPDX-License-Identifier: MIT\r\npragma solidity ^0.6.2;\r\n\r\nimport \"./Ownable.sol\";\r\n\r\ncontract KycContract is Ownable{\r\n    mapping(address => bool) allowed;\r\n\r\n    function setKycCompleted(address _addr) public onlyOwner{\r\n        allowed[_addr] = true;\r\n    }\r\n\r\n    function setKycRevoked(address _addr) public onlyOwner{\r\n        allowed[_addr] = false;\r\n    }\r\n\r\n    function kycCompleted(address _addr) public view returns(bool){\r\n        return allowed[_addr];\r\n    }\r\n}",
  "sourcePath": "D:\\Quyen\\STUDY\\Blockchain\\BlockchainProject\\contracts\\KycContract.sol",
  "compiler": {
    "name": "solc",
    "version": "0.6.2+commit.bacdbe57.Emscripten.clang"
  },
  "schemaVersion": "3.4.3",
  "updatedAt": "2022-12-08T03:29:24.266Z",
  "networkType": "ethereum",
  "devdoc": {
    "methods": {}
  },
  "userdoc": {
    "methods": {}
  }
}