{
  "contractName": "KycContract",
  "abi": [
    {
      "anonymous": false,
      "inputs": [
        {
          "indexed": true,
          "internalType": "address",
          "name": "previousOwner",
          "type": "address"
        },
        {
          "indexed": true,
          "internalType": "address",
          "name": "newOwner",
          "type": "address"
        }
      ],
      "name": "OwnershipTransferred",
      "type": "event"
    },
    {
      "anonymous": false,
      "inputs": [
        {
          "indexed": false,
          "internalType": "address",
          "name": "_userAddress",
          "type": "address"
        },
        {
          "indexed": false,
          "internalType": "string",
          "name": "_fullName",
          "type": "string"
        },
        {
          "indexed": false,
          "internalType": "string",
          "name": "_phoneNumber",
          "type": "string"
        },
        {
          "indexed": false,
          "internalType": "string",
          "name": "_email",
          "type": "string"
        }
      ],
      "name": "createKYCUser",
      "type": "event"
    },
    {
      "inputs": [],
      "name": "owner",
      "outputs": [
        {
          "internalType": "address",
          "name": "",
          "type": "address"
        }
      ],
      "stateMutability": "view",
      "type": "function"
    },
    {
      "inputs": [],
      "name": "renounceOwnership",
      "outputs": [],
      "stateMutability": "nonpayable",
      "type": "function"
    },
    {
      "inputs": [
        {
          "internalType": "address",
          "name": "newOwner",
          "type": "address"
        }
      ],
      "name": "transferOwnership",
      "outputs": [],
      "stateMutability": "nonpayable",
      "type": "function"
    },
    {
      "inputs": [
        {
          "internalType": "address",
          "name": "accountAddr",
          "type": "address"
        },
        {
          "internalType": "string",
          "name": "fullName",
          "type": "string"
        },
        {
          "internalType": "string",
          "name": "phoneNumber",
          "type": "string"
        },
        {
          "internalType": "string",
          "name": "email",
          "type": "string"
        }
      ],
      "name": "setKycCompleted",
      "outputs": [],
      "stateMutability": "nonpayable",
      "type": "function"
    },
    {
      "inputs": [
        {
          "internalType": "address",
          "name": "_addr",
          "type": "address"
        }
      ],
      "name": "setKycRevoked",
      "outputs": [],
      "stateMutability": "nonpayable",
      "type": "function"
    },
    {
      "inputs": [
        {
          "internalType": "address",
          "name": "_addr",
          "type": "address"
        }
      ],
      "name": "kycCompleted",
      "outputs": [
        {
          "internalType": "bool",
          "name": "",
          "type": "bool"
        }
      ],
      "stateMutability": "view",
      "type": "function"
    },
    {
      "inputs": [
        {
          "internalType": "address",
          "name": "_addr",
          "type": "address"
        }
      ],
      "name": "getKycUserInfor",
      "outputs": [
        {
          "components": [
            {
              "internalType": "address",
              "name": "_address",
              "type": "address"
            },
            {
              "internalType": "string",
              "name": "_fullName",
              "type": "string"
            },
            {
              "internalType": "string",
              "name": "_phoneNumber",
              "type": "string"
            },
            {
              "internalType": "string",
              "name": "_email",
              "type": "string"
            }
          ],
          "internalType": "struct KycContract.KYCUser",
          "name": "",
          "type": "tuple"
        }
      ],
      "stateMutability": "view",
      "type": "function"
    }
  ],
  "bytecode": "0x608060405234801561001057600080fd5b5061001a3361001f565b61006f565b600080546001600160a01b038381166001600160a01b0319831681178455604051919092169283917f8be0079c531659141344cd1fd0a4f28419497f9722a3daafe3b4186f6b6457e09190a35050565b610a668061007e6000396000f3fe608060405234801561001057600080fd5b506004361061007d5760003560e01c80638da5cb5b1161005b5780638da5cb5b146100c8578063dc3958cc146100e3578063df235fe4146100f6578063f2fde38b1461013457600080fd5b8063715018a6146100825780637261e0f61461008c5780638ccd171a1461009f575b600080fd5b61008a610147565b005b61008a61009a366004610720565b61015b565b6100b26100ad3660046107b9565b610240565b6040516100bf9190610821565b60405180910390f35b6000546040516001600160a01b0390911681526020016100bf565b61008a6100f13660046107b9565b610463565b6101246101043660046107b9565b6001600160a01b0390811660009081526001602052604090205416151590565b60405190151581526020016100bf565b61008a6101423660046107b9565b6104c7565b61014f61055c565b61015960006105b6565b565b604080516080810182526001600160a01b038681168083526020808401888152848601889052606085018790526000928352600191829052949091208351815473ffffffffffffffffffffffffffffffffffffffff19169316929092178255925191928392908201906101ce908261091d565b50604082015160028201906101e3908261091d565b50606082015160038201906101f8908261091d565b509050507f5ec1b46f94251f8fe3acb1f2230fbd0fa61439047940256412994dba88b76f138585858560405161023194939291906109dd565b60405180910390a15050505050565b610274604051806080016040528060006001600160a01b031681526020016060815260200160608152602001606081525090565b6001600160a01b03808316600090815260016020818152604092839020835160808101909452805490941683529083018054929392918401916102b690610895565b80601f01602080910402602001604051908101604052809291908181526020018280546102e290610895565b801561032f5780601f106103045761010080835404028352916020019161032f565b820191906000526020600020905b81548152906001019060200180831161031257829003601f168201915b5050505050815260200160028201805461034890610895565b80601f016020809104026020016040519081016040528092919081815260200182805461037490610895565b80156103c15780601f10610396576101008083540402835291602001916103c1565b820191906000526020600020905b8154815290600101906020018083116103a457829003601f168201915b505050505081526020016003820180546103da90610895565b80601f016020809104026020016040519081016040528092919081815260200182805461040690610895565b80156104535780601f1061042857610100808354040283529160200191610453565b820191906000526020600020905b81548152906001019060200180831161043657829003601f168201915b5050505050815250509050919050565b6001600160a01b03811660009081526001602081905260408220805473ffffffffffffffffffffffffffffffffffffffff1916815591906104a690830182610613565b6104b4600283016000610613565b6104c2600383016000610613565b505050565b6104cf61055c565b6001600160a01b0381166105505760405162461bcd60e51b815260206004820152602660248201527f4f776e61626c653a206e6577206f776e657220697320746865207a65726f206160448201527f646472657373000000000000000000000000000000000000000000000000000060648201526084015b60405180910390fd5b610559816105b6565b50565b6000546001600160a01b031633146101595760405162461bcd60e51b815260206004820181905260248201527f4f776e61626c653a2063616c6c6572206973206e6f7420746865206f776e65726044820152606401610547565b600080546001600160a01b0383811673ffffffffffffffffffffffffffffffffffffffff19831681178455604051919092169283917f8be0079c531659141344cd1fd0a4f28419497f9722a3daafe3b4186f6b6457e09190a35050565b50805461061f90610895565b6000825580601f1061062f575050565b601f01602090049060005260206000209081019061055991905b8082111561065d5760008155600101610649565b5090565b80356001600160a01b038116811461067857600080fd5b919050565b634e487b7160e01b600052604160045260246000fd5b600082601f8301126106a457600080fd5b813567ffffffffffffffff808211156106bf576106bf61067d565b604051601f8301601f19908116603f011681019082821181831017156106e7576106e761067d565b8160405283815286602085880101111561070057600080fd5b836020870160208301376000602085830101528094505050505092915050565b6000806000806080858703121561073657600080fd5b61073f85610661565b9350602085013567ffffffffffffffff8082111561075c57600080fd5b61076888838901610693565b9450604087013591508082111561077e57600080fd5b61078a88838901610693565b935060608701359150808211156107a057600080fd5b506107ad87828801610693565b91505092959194509250565b6000602082840312156107cb57600080fd5b6107d482610661565b9392505050565b6000815180845260005b81811015610801576020818501810151868301820152016107e5565b506000602082860101526020601f19601f83011685010191505092915050565b602081526001600160a01b038251166020820152600060208301516080604084015261085060a08401826107db565b90506040840151601f198085840301606086015261086e83836107db565b925060608601519150808584030160808601525061088c82826107db565b95945050505050565b600181811c908216806108a957607f821691505b6020821081036108c957634e487b7160e01b600052602260045260246000fd5b50919050565b601f8211156104c257600081815260208120601f850160051c810160208610156108f65750805b601f850160051c820191505b8181101561091557828155600101610902565b505050505050565b815167ffffffffffffffff8111156109375761093761067d565b61094b816109458454610895565b846108cf565b602080601f83116001811461098057600084156109685750858301515b600019600386901b1c1916600185901b178555610915565b600085815260208120601f198616915b828110156109af57888601518255948401946001909101908401610990565b50858210156109cd5787850151600019600388901b60f8161c191681555b5050505050600190811b01905550565b6001600160a01b03851681526080602082015260006109ff60808301866107db565b8281036040840152610a1181866107db565b90508281036060840152610a2581856107db565b97965050505050505056fea26469706673582212206656bd3fdaf7ab35619b2fd4c57dae7fdb2680160f1453b7be561667f3602e4664736f6c63430008110033",
  "immutableReferences": {},
  "source": "// contracts/GLDToken.sol\r\n// SPDX-License-Identifier: MIT\r\npragma solidity ^0.8.0;\r\n\r\nimport \"@openzeppelin/contracts/access/Ownable.sol\";\r\n\r\ncontract KycContract is Ownable{\r\n    struct KYCUser {\r\n        address _address;\r\n        string _fullName;\r\n        string _phoneNumber;\r\n        string _email;\r\n    }\r\n    mapping(address => KYCUser) allowedUsers;\r\n\r\n    event createKYCUser(\r\n        address _userAddress,\r\n        string _fullName,\r\n        string _phoneNumber,\r\n        string _email\r\n    );\r\n\r\n    function setKycCompleted(address accountAddr, string memory fullName, string memory phoneNumber, string memory email) \r\n        public \r\n    {\r\n        KYCUser memory newUser = KYCUser(accountAddr, fullName, phoneNumber, email);\r\n        allowedUsers[accountAddr] = newUser;\r\n\r\n        emit createKYCUser(accountAddr, fullName, phoneNumber, email );\r\n    }\r\n\r\n    function setKycRevoked(address _addr) public {\r\n        delete allowedUsers[_addr];\r\n    }\r\n\r\n    function kycCompleted(address _addr) public view returns(bool){\r\n        return allowedUsers[_addr]._address != address(0);\r\n    }\r\n\r\n    function getKycUserInfor(address _addr) public view returns(KYCUser memory){\r\n        return allowedUsers[_addr];\r\n    }\r\n}",
  "sourcePath": "D:\\Quyen\\STUDY\\Blockchain\\BlockchainProject\\contracts\\KycContract.sol",
  "compiler": {
    "name": "solc",
    "version": "0.8.17+commit.8df45f5f.Emscripten.clang"
  },
  "schemaVersion": "3.4.3",
  "updatedAt": "2022-12-23T02:41:41.151Z",
  "devdoc": {
    "kind": "dev",
    "methods": {
      "owner()": {
        "details": "Returns the address of the current owner."
      },
      "renounceOwnership()": {
        "details": "Leaves the contract without owner. It will not be possible to call `onlyOwner` functions anymore. Can only be called by the current owner. NOTE: Renouncing ownership will leave the contract without an owner, thereby removing any functionality that is only available to the owner."
      },
      "transferOwnership(address)": {
        "details": "Transfers ownership of the contract to a new account (`newOwner`). Can only be called by the current owner."
      }
    },
    "version": 1
  },
  "userdoc": {
    "kind": "user",
    "methods": {},
    "version": 1
  }
}