{
  "contractName": "MyTokenSale",
  "abi": [
    {
      "inputs": [
        {
          "internalType": "uint256",
          "name": "rate",
          "type": "uint256"
        },
        {
          "internalType": "address payable",
          "name": "wallet",
          "type": "address"
        },
        {
          "internalType": "contract IERC20",
          "name": "token",
          "type": "address"
        },
        {
          "internalType": "contract KycContract",
          "name": "_kyc",
          "type": "address"
        }
      ],
      "stateMutability": "nonpayable",
      "type": "constructor"
    },
    {
      "anonymous": false,
      "inputs": [
        {
          "indexed": true,
          "internalType": "address",
          "name": "purchaser",
          "type": "address"
        },
        {
          "indexed": true,
          "internalType": "address",
          "name": "beneficiary",
          "type": "address"
        },
        {
          "indexed": false,
          "internalType": "uint256",
          "name": "value",
          "type": "uint256"
        },
        {
          "indexed": false,
          "internalType": "uint256",
          "name": "amount",
          "type": "uint256"
        }
      ],
      "name": "TokensPurchased",
      "type": "event"
    },
    {
      "inputs": [
        {
          "internalType": "address",
          "name": "beneficiary",
          "type": "address"
        }
      ],
      "name": "buyTokens",
      "outputs": [],
      "stateMutability": "payable",
      "type": "function",
      "payable": true
    },
    {
      "inputs": [],
      "name": "rate",
      "outputs": [
        {
          "internalType": "uint256",
          "name": "",
          "type": "uint256"
        }
      ],
      "stateMutability": "view",
      "type": "function",
      "constant": true
    },
    {
      "inputs": [],
      "name": "token",
      "outputs": [
        {
          "internalType": "contract IERC20",
          "name": "",
          "type": "address"
        }
      ],
      "stateMutability": "view",
      "type": "function",
      "constant": true
    },
    {
      "inputs": [],
      "name": "wallet",
      "outputs": [
        {
          "internalType": "address payable",
          "name": "",
          "type": "address"
        }
      ],
      "stateMutability": "view",
      "type": "function",
      "constant": true
    },
    {
      "inputs": [],
      "name": "weiRaised",
      "outputs": [
        {
          "internalType": "uint256",
          "name": "",
          "type": "uint256"
        }
      ],
      "stateMutability": "view",
      "type": "function",
      "constant": true
    },
    {
      "stateMutability": "payable",
      "type": "receive",
      "payable": true
    },
    {
      "inputs": [],
      "name": "getTokens",
      "outputs": [
        {
          "internalType": "string",
          "name": "",
          "type": "string"
        }
      ],
      "stateMutability": "view",
      "type": "function",
      "constant": true
    }
  ],
  "bytecode": "0x608060405234801561001057600080fd5b50604051610bf6380380610bf68339818101604052608081101561003357600080fd5b50805160208201516040830151606090930151600160005591929091838383826100a4576040805162461bcd60e51b815260206004820152601460248201527f43726f776473616c653a20726174652069732030000000000000000000000000604482015290519081900360640190fd5b6001600160a01b0382166100e95760405162461bcd60e51b8152600401808060200182810382526025815260200180610bd16025913960400191505060405180910390fd5b6001600160a01b03811661012e5760405162461bcd60e51b8152600401808060200182810382526024815260200180610bad6024913960400191505060405180910390fd5b600392909255600280546001600160a01b03199081166001600160a01b03938416179091556001805482169383169390931790925560058054909216921691909117905550610a2791508190506101866000396000f3fe6080604052600436106100695760003560e01c8063aa6ca80811610043578063aa6ca808146100f2578063ec8ac4d81461017c578063fc0c546a146101a257610080565b80632c4e722e146100855780634042b66f146100ac578063521eb273146100c157610080565b366100805761007e6100796101b7565b6101bb565b005b600080fd5b34801561009157600080fd5b5061009a6102d1565b60408051918252519081900360200190f35b3480156100b857600080fd5b5061009a6102d7565b3480156100cd57600080fd5b506100d66102dd565b604080516001600160a01b039092168252519081900360200190f35b3480156100fe57600080fd5b506101076102ec565b6040805160208082528351818301528351919283929083019185019080838360005b83811015610141578181015183820152602001610129565b50505050905090810190601f16801561016e5780820380516001836020036101000a031916815260200191505b509250505060405180910390f35b61007e6004803603602081101561019257600080fd5b50356001600160a01b03166101bb565b3480156101ae57600080fd5b506100d6610323565b3390565b60026000541415610213576040805162461bcd60e51b815260206004820152601f60248201527f5265656e7472616e637947756172643a207265656e7472616e742063616c6c00604482015290519081900360640190fd5b6002600055346102238282610332565b600061022e8261040b565b600454909150610244908363ffffffff61042816565b6004556102518382610489565b826001600160a01b03166102636101b7565b6001600160a01b03167f6faf93231a456e552dbc9961f58d9713ee4f2e69d15f1975b050ef0911053a7b8484604051808381526020018281526020019250505060405180910390a36102b58383610407565b6102bd610493565b6102c78383610407565b5050600160005550565b60035490565b60045490565b6002546001600160a01b031690565b60408051808201909152600b81527f68656c6c6f20776f726c64000000000000000000000000000000000000000000602082015290565b6001546001600160a01b031690565b61033c82826104cf565b600554604080517fdf235fe400000000000000000000000000000000000000000000000000000000815233600482015290516001600160a01b039092169163df235fe491602480820192602092909190829003018186803b1580156103a057600080fd5b505afa1580156103b4573d6000803e3d6000fd5b505050506040513d60208110156103ca57600080fd5b50516104075760405162461bcd60e51b81526004018080602001828103825260278152602001806109306027913960400191505060405180910390fd5b5050565b60006104226003548361056690919063ffffffff16565b92915050565b600082820183811015610482576040805162461bcd60e51b815260206004820152601b60248201527f536166654d6174683a206164646974696f6e206f766572666c6f770000000000604482015290519081900360640190fd5b9392505050565b61040782826105bf565b6002546040516001600160a01b03909116903480156108fc02916000818181858888f193505050501580156104cc573d6000803e3d6000fd5b50565b6001600160a01b0382166105145760405162461bcd60e51b815260040180806020018281038252602a81526020018061099e602a913960400191505060405180910390fd5b80610407576040805162461bcd60e51b815260206004820152601960248201527f43726f776473616c653a20776569416d6f756e74206973203000000000000000604482015290519081900360640190fd5b60008261057557506000610422565b8282028284828161058257fe5b04146104825760405162461bcd60e51b815260040180806020018281038252602181526020018061097d6021913960400191505060405180910390fd5b600154610407906001600160a01b0316838363ffffffff6105dc16565b604080516001600160a01b038416602482015260448082018490528251808303909101815260649091019091526020810180517bffffffffffffffffffffffffffffffffffffffffffffffffffffffff167fa9059cbb0000000000000000000000000000000000000000000000000000000017905261065c908490610661565b505050565b60606106b6826040518060400160405280602081526020017f5361666545524332303a206c6f772d6c6576656c2063616c6c206661696c6564815250856001600160a01b03166107129092919063ffffffff16565b80519091501561065c578080602001905160208110156106d557600080fd5b505161065c5760405162461bcd60e51b815260040180806020018281038252602a8152602001806109c8602a913960400191505060405180910390fd5b60606107218484600085610729565b949350505050565b60608247101561076a5760405162461bcd60e51b81526004018080602001828103825260268152602001806109576026913960400191505060405180910390fd5b61077385610885565b6107c4576040805162461bcd60e51b815260206004820152601d60248201527f416464726573733a2063616c6c20746f206e6f6e2d636f6e7472616374000000604482015290519081900360640190fd5b60006060866001600160a01b031685876040518082805190602001908083835b602083106108035780518252601f1990920191602091820191016107e4565b6001836020036101000a03801982511681845116808217855250505050505090500191505060006040518083038185875af1925050503d8060008114610865576040519150601f19603f3d011682016040523d82523d6000602084013e61086a565b606091505b509150915061087a82828661088b565b979650505050505050565b3b151590565b6060831561089a575081610482565b8251156108aa5782518084602001fd5b8160405162461bcd60e51b81526004018080602001828103825283818151815260200191508051906020019080838360005b838110156108f45781810151838201526020016108dc565b50505050905090810190601f1680156109215780820380516001836020036101000a031916815260200191505b509250505060405180910390fdfe4b5943206e6f7420636f6d706c657465642c207075726368617365206e6f7420616c6c6f776564416464726573733a20696e73756666696369656e742062616c616e636520666f722063616c6c536166654d6174683a206d756c7469706c69636174696f6e206f766572666c6f7743726f776473616c653a2062656e656669636961727920697320746865207a65726f20616464726573735361666545524332303a204552433230206f7065726174696f6e20646964206e6f742073756363656564a264697066735822122028cd0dd5b36a2e0255cf648428e1faffb1c63bd7ea475f8b08952d4fc19ad31a64736f6c6343000602003343726f776473616c653a20746f6b656e20697320746865207a65726f206164647265737343726f776473616c653a2077616c6c657420697320746865207a65726f2061646472657373",
  "source": "// contracts/GLDToken.sol\r\n// SPDX-License-Identifier: MIT\r\npragma solidity ^0.6.2;\r\n\r\nimport \"./Crowdsale.sol\";\r\nimport \"./KycContract.sol\";\r\n\r\ncontract MyTokenSale is Crowdsale {\r\n    KycContract kyc;\r\n\r\n    constructor(\r\n        uint256 rate, // rate in TKNbits\r\n        address payable wallet,\r\n        IERC20 token,\r\n        KycContract _kyc\r\n    ) Crowdsale(rate, wallet, token) public {\r\n        kyc = _kyc;\r\n    }\r\n\r\n    function _preValidatePurchase(address beneficiary, uint256 weiAmount)\r\n        internal\r\n        view\r\n        override\r\n    {\r\n        super._preValidatePurchase(beneficiary, weiAmount);\r\n        require(kyc.kycCompleted(msg.sender), \"KYC not completed, purchase not allowed\");\r\n    }\r\n\r\n        function getTokens() public view returns(string memory){\r\n        return \"hello world\";\r\n    }\r\n}",
  "sourcePath": "D:\\Quyen\\STUDY\\Blockchain\\BlockchainProject\\contracts\\MyTokenSale.sol",
  "compiler": {
    "name": "solc",
    "version": "0.6.2+commit.bacdbe57.Emscripten.clang"
  },
  "schemaVersion": "3.4.3",
  "updatedAt": "2022-12-08T03:29:24.263Z",
  "networkType": "ethereum",
  "devdoc": {
    "methods": {
      "buyTokens(address)": {
        "details": "low level token purchase ***DO NOT OVERRIDE*** This function has a non-reentrancy guard, so it shouldn't be called by another `nonReentrant` function.",
        "params": {
          "beneficiary": "Recipient of the token purchase"
        }
      }
    }
  },
  "userdoc": {
    "methods": {}
  }
}