{
  "contractName": "MyTokenSale",
  "abi": [
    {
      "inputs": [
        {
          "internalType": "uint256",
          "name": "rate",
          "type": "uint256"
        },
        {
          "internalType": "address payable",
          "name": "wallet",
          "type": "address"
        },
        {
          "internalType": "contract IERC20",
          "name": "token",
          "type": "address"
        },
        {
          "internalType": "contract KycContract",
          "name": "_kyc",
          "type": "address"
        },
        {
          "internalType": "contract ItemManager",
          "name": "itemManager",
          "type": "address"
        }
      ],
      "stateMutability": "nonpayable",
      "type": "constructor"
    },
    {
      "anonymous": false,
      "inputs": [
        {
          "indexed": false,
          "internalType": "address",
          "name": "purchaser",
          "type": "address"
        },
        {
          "indexed": false,
          "internalType": "address",
          "name": "beneficiary",
          "type": "address"
        },
        {
          "indexed": false,
          "internalType": "uint256",
          "name": "value",
          "type": "uint256"
        },
        {
          "indexed": false,
          "internalType": "uint256",
          "name": "amount",
          "type": "uint256"
        }
      ],
      "name": "TokensPurchased",
      "type": "event"
    },
    {
      "inputs": [
        {
          "internalType": "address",
          "name": "beneficiary",
          "type": "address"
        }
      ],
      "name": "buyTokens",
      "outputs": [],
      "stateMutability": "payable",
      "type": "function"
    },
    {
      "inputs": [
        {
          "internalType": "address",
          "name": "beneficiary",
          "type": "address"
        },
        {
          "internalType": "uint256",
          "name": "amount",
          "type": "uint256"
        }
      ],
      "name": "buyTokensPaypal",
      "outputs": [],
      "stateMutability": "payable",
      "type": "function"
    },
    {
      "inputs": [
        {
          "internalType": "address",
          "name": "buyer",
          "type": "address"
        },
        {
          "internalType": "uint256",
          "name": "amount",
          "type": "uint256"
        }
      ],
      "name": "deliverTokenToBuyer",
      "outputs": [],
      "stateMutability": "payable",
      "type": "function"
    },
    {
      "inputs": [],
      "name": "rate",
      "outputs": [
        {
          "internalType": "uint256",
          "name": "",
          "type": "uint256"
        }
      ],
      "stateMutability": "view",
      "type": "function"
    },
    {
      "inputs": [],
      "name": "token",
      "outputs": [
        {
          "internalType": "contract IERC20",
          "name": "",
          "type": "address"
        }
      ],
      "stateMutability": "view",
      "type": "function"
    },
    {
      "inputs": [],
      "name": "wallet",
      "outputs": [
        {
          "internalType": "address payable",
          "name": "",
          "type": "address"
        }
      ],
      "stateMutability": "view",
      "type": "function"
    },
    {
      "inputs": [],
      "name": "weiRaised",
      "outputs": [
        {
          "internalType": "uint256",
          "name": "",
          "type": "uint256"
        }
      ],
      "stateMutability": "view",
      "type": "function"
    },
    {
      "stateMutability": "payable",
      "type": "receive"
    }
  ],
  "bytecode": "0x608060405234801561001057600080fd5b50604051610c46380380610c4683398101604081905261002f916101c7565b6001600055848484838361008a5760405162461bcd60e51b815260206004820152601460248201527f43726f776473616c653a2072617465206973203000000000000000000000000060448201526064015b60405180910390fd5b6001600160a01b0383166100ee5760405162461bcd60e51b815260206004820152602560248201527f43726f776473616c653a2077616c6c657420697320746865207a65726f206164604482015264647265737360d81b6064820152608401610081565b6001600160a01b0382166101505760405162461bcd60e51b8152602060048201526024808201527f43726f776473616c653a20746f6b656e20697320746865207a65726f206164646044820152637265737360e01b6064820152608401610081565b600393909355600280546001600160a01b03199081166001600160a01b03948516179091556001805482169284169290921790915560058054821693831693909317909255600680549092169316929092179091555061023292505050565b6001600160a01b03811681146101c457600080fd5b50565b600080600080600060a086880312156101df57600080fd5b8551945060208601516101f1816101af565b6040870151909450610202816101af565b6060870151909350610213816101af565b6080870151909250610224816101af565b809150509295509295909350565b610a05806102416000396000f3fe6080604052600436106100745760003560e01c80635ae0610e1161004e5780635ae0610e146100f9578063b7a894b11461010c578063ec8ac4d81461011f578063fc0c546a1461012d57600080fd5b80632c4e722e1461008e5780634042b66f146100b2578063521eb273146100c757600080fd5b36610089576100873361014b565b61014b565b005b600080fd5b34801561009a57600080fd5b506003545b6040519081526020015b60405180910390f35b3480156100be57600080fd5b5060045461009f565b3480156100d357600080fd5b506002546001600160a01b03165b6040516001600160a01b0390911681526020016100a9565b61008761010736600461089c565b6101ec565b61008761011a36600461089c565b61026f565b6100876100823660046108c6565b34801561013957600080fd5b506001546001600160a01b03166100e1565b61015361028b565b3461015e82826102e9565b6000610169826103ea565b6004549091506101799083610407565b600455610186838261041a565b604080513381526001600160a01b03851660208201528082018490526060810183905290517f6faf93231a456e552dbc9961f58d9713ee4f2e69d15f1975b050ef0911053a7b9181900360800190a16101dd610424565b50506101e96001600055565b50565b6101f461028b565b6004546102019082610407565b60045561020e828261041a565b7f6faf93231a456e552dbc9961f58d9713ee4f2e69d15f1975b050ef0911053a7b33600454604080516001600160a01b03938416815292861660208401528201526060810183905260800160405180910390a161026b6001600055565b5050565b61027761028b565b610281828261041a565b61026b6001600055565b6002600054036102e25760405162461bcd60e51b815260206004820152601f60248201527f5265656e7472616e637947756172643a207265656e7472616e742063616c6c0060448201526064015b60405180910390fd5b6002600055565b6102f3828261045d565b6006546040517fdf235fe40000000000000000000000000000000000000000000000000000000081523360048201526001600160a01b039091169063df235fe490602401602060405180830381865afa158015610354573d6000803e3d6000fd5b505050506040513d601f19601f8201168201806040525081019061037891906108e1565b61026b5760405162461bcd60e51b815260206004820152602760248201527f4b5943206e6f7420636f6d706c657465642c207075726368617365206e6f742060448201527f616c6c6f7765640000000000000000000000000000000000000000000000000060648201526084016102d9565b60006104016003548361052990919063ffffffff16565b92915050565b60006104138284610932565b9392505050565b61026b8282610535565b6002546040516001600160a01b03909116903480156108fc02916000818181858888f193505050501580156101e9573d6000803e3d6000fd5b6001600160a01b0382166104d95760405162461bcd60e51b815260206004820152602a60248201527f43726f776473616c653a2062656e656669636961727920697320746865207a6560448201527f726f20616464726573730000000000000000000000000000000000000000000060648201526084016102d9565b8060000361026b5760405162461bcd60e51b815260206004820152601960248201527f43726f776473616c653a20776569416d6f756e7420697320300000000000000060448201526064016102d9565b60006104138284610945565b60015461026b906001600160a01b031683836040516001600160a01b0383166024820152604481018290526105ef9084907fa9059cbb000000000000000000000000000000000000000000000000000000009060640160408051601f198184030181529190526020810180517bffffffffffffffffffffffffffffffffffffffffffffffffffffffff167fffffffff00000000000000000000000000000000000000000000000000000000909316929092179091526105f4565b505050565b6000610649826040518060400160405280602081526020017f5361666545524332303a206c6f772d6c6576656c2063616c6c206661696c6564815250856001600160a01b03166106d99092919063ffffffff16565b8051909150156105ef578080602001905181019061066791906108e1565b6105ef5760405162461bcd60e51b815260206004820152602a60248201527f5361666545524332303a204552433230206f7065726174696f6e20646964206e60448201527f6f7420737563636565640000000000000000000000000000000000000000000060648201526084016102d9565b60606106e884846000856106f0565b949350505050565b6060824710156107685760405162461bcd60e51b815260206004820152602660248201527f416464726573733a20696e73756666696369656e742062616c616e636520666f60448201527f722063616c6c000000000000000000000000000000000000000000000000000060648201526084016102d9565b600080866001600160a01b031685876040516107849190610980565b60006040518083038185875af1925050503d80600081146107c1576040519150601f19603f3d011682016040523d82523d6000602084013e6107c6565b606091505b50915091506107d7878383876107e2565b979650505050505050565b6060831561085157825160000361084a576001600160a01b0385163b61084a5760405162461bcd60e51b815260206004820152601d60248201527f416464726573733a2063616c6c20746f206e6f6e2d636f6e747261637400000060448201526064016102d9565b50816106e8565b6106e883838151156108665781518083602001fd5b8060405162461bcd60e51b81526004016102d9919061099c565b80356001600160a01b038116811461089757600080fd5b919050565b600080604083850312156108af57600080fd5b6108b883610880565b946020939093013593505050565b6000602082840312156108d857600080fd5b61041382610880565b6000602082840312156108f357600080fd5b8151801515811461041357600080fd5b7f4e487b7100000000000000000000000000000000000000000000000000000000600052601160045260246000fd5b8082018082111561040157610401610903565b808202811582820484141761040157610401610903565b60005b8381101561097757818101518382015260200161095f565b50506000910152565b6000825161099281846020870161095c565b9190910192915050565b60208152600082518060208401526109bb81604085016020870161095c565b601f01601f1916919091016040019291505056fea26469706673582212200f4ee385a714939eef7dbd2f3e691a8ce4f53ac2ac8fce4e5e70be2c9ca1288464736f6c63430008110033",
  "immutableReferences": {},
  "source": "// contracts/GLDToken.sol\r\n// SPDX-License-Identifier: MIT\r\npragma solidity ^0.8.0;\r\n\r\nimport \"./Crowdsale.sol\";\r\nimport \"./KycContract.sol\";\r\nimport \"./ItemManager.sol\";\r\n\r\ncontract MyTokenSale is Crowdsale {\r\n    KycContract kyc;\r\n\r\n    constructor(\r\n        uint256 rate, // rate in TKNbits\r\n        address payable wallet,\r\n        IERC20 token,\r\n        KycContract _kyc,\r\n        ItemManager itemManager\r\n    ) Crowdsale(rate, wallet, token, itemManager) {\r\n        kyc = _kyc;\r\n    }\r\n\r\n    function _preValidatePurchase(address beneficiary, uint256 weiAmount)\r\n        internal\r\n        view\r\n        override\r\n    {\r\n        super._preValidatePurchase(beneficiary, weiAmount);\r\n        require(kyc.kycCompleted(msg.sender), \"KYC not completed, purchase not allowed\");\r\n    }\r\n}",
  "sourcePath": "D:\\Quyen\\STUDY\\Blockchain\\BlockchainProject\\contracts\\MyTokenSale.sol",
  "compiler": {
    "name": "solc",
    "version": "0.8.17+commit.8df45f5f.Emscripten.clang"
  },
  "schemaVersion": "3.4.3",
  "updatedAt": "2022-12-23T02:41:41.192Z",
  "devdoc": {
    "kind": "dev",
    "methods": {
      "buyTokens(address)": {
        "details": "low level token purchase ***DO NOT OVERRIDE*** This function has a non-reentrancy guard, so it shouldn't be called by another `nonReentrant` function.",
        "params": {
          "beneficiary": "Recipient of the token purchase"
        }
      },
      "rate()": {
        "returns": {
          "_0": "the number of token units a buyer gets per wei."
        }
      },
      "token()": {
        "returns": {
          "_0": "the token being sold."
        }
      },
      "wallet()": {
        "returns": {
          "_0": "the address where funds are collected."
        }
      },
      "weiRaised()": {
        "returns": {
          "_0": "the amount of wei raised."
        }
      }
    },
    "version": 1
  },
  "userdoc": {
    "events": {
      "TokensPurchased(address,address,uint256,uint256)": {
        "notice": "Event for token purchase logging"
      }
    },
    "kind": "user",
    "methods": {},
    "version": 1
  }
}